{
  "contractName": "ERC721WithRoyalty",
  "abi": [
    {
      "inputs": [
        {
          "internalType": "string",
          "name": "name",
          "type": "string"
        },
        {
          "internalType": "string",
          "name": "symbol",
          "type": "string"
        }
      ],
      "stateMutability": "nonpayable",
      "type": "constructor"
    },
    {
      "anonymous": false,
      "inputs": [
        {
          "indexed": true,
          "internalType": "address",
          "name": "owner",
          "type": "address"
        },
        {
          "indexed": true,
          "internalType": "address",
          "name": "approved",
          "type": "address"
        },
        {
          "indexed": true,
          "internalType": "uint256",
          "name": "tokenId",
          "type": "uint256"
        }
      ],
      "name": "Approval",
      "type": "event"
    },
    {
      "anonymous": false,
      "inputs": [
        {
          "indexed": true,
          "internalType": "address",
          "name": "owner",
          "type": "address"
        },
        {
          "indexed": true,
          "internalType": "address",
          "name": "operator",
          "type": "address"
        },
        {
          "indexed": false,
          "internalType": "bool",
          "name": "approved",
          "type": "bool"
        }
      ],
      "name": "ApprovalForAll",
      "type": "event"
    },
    {
      "anonymous": false,
      "inputs": [
        {
          "indexed": true,
          "internalType": "address",
          "name": "from",
          "type": "address"
        },
        {
          "indexed": true,
          "internalType": "address",
          "name": "to",
          "type": "address"
        },
        {
          "indexed": true,
          "internalType": "uint256",
          "name": "tokenId",
          "type": "uint256"
        }
      ],
      "name": "Transfer",
      "type": "event"
    },
    {
      "inputs": [
        {
          "internalType": "address",
          "name": "to",
          "type": "address"
        },
        {
          "internalType": "uint256",
          "name": "tokenId",
          "type": "uint256"
        }
      ],
      "name": "approve",
      "outputs": [],
      "stateMutability": "nonpayable",
      "type": "function"
    },
    {
      "inputs": [
        {
          "internalType": "address",
          "name": "owner",
          "type": "address"
        }
      ],
      "name": "balanceOf",
      "outputs": [
        {
          "internalType": "uint256",
          "name": "",
          "type": "uint256"
        }
      ],
      "stateMutability": "view",
      "type": "function",
      "constant": true
    },
    {
      "inputs": [
        {
          "internalType": "uint256",
          "name": "tokenId",
          "type": "uint256"
        }
      ],
      "name": "getApproved",
      "outputs": [
        {
          "internalType": "address",
          "name": "",
          "type": "address"
        }
      ],
      "stateMutability": "view",
      "type": "function",
      "constant": true
    },
    {
      "inputs": [
        {
          "internalType": "address",
          "name": "owner",
          "type": "address"
        },
        {
          "internalType": "address",
          "name": "operator",
          "type": "address"
        }
      ],
      "name": "isApprovedForAll",
      "outputs": [
        {
          "internalType": "bool",
          "name": "",
          "type": "bool"
        }
      ],
      "stateMutability": "view",
      "type": "function",
      "constant": true
    },
    {
      "inputs": [],
      "name": "name",
      "outputs": [
        {
          "internalType": "string",
          "name": "",
          "type": "string"
        }
      ],
      "stateMutability": "view",
      "type": "function",
      "constant": true
    },
    {
      "inputs": [
        {
          "internalType": "uint256",
          "name": "tokenId",
          "type": "uint256"
        }
      ],
      "name": "ownerOf",
      "outputs": [
        {
          "internalType": "address",
          "name": "",
          "type": "address"
        }
      ],
      "stateMutability": "view",
      "type": "function",
      "constant": true
    },
    {
      "inputs": [
        {
          "internalType": "address",
          "name": "from",
          "type": "address"
        },
        {
          "internalType": "address",
          "name": "to",
          "type": "address"
        },
        {
          "internalType": "uint256",
          "name": "tokenId",
          "type": "uint256"
        }
      ],
      "name": "safeTransferFrom",
      "outputs": [],
      "stateMutability": "nonpayable",
      "type": "function"
    },
    {
      "inputs": [
        {
          "internalType": "address",
          "name": "from",
          "type": "address"
        },
        {
          "internalType": "address",
          "name": "to",
          "type": "address"
        },
        {
          "internalType": "uint256",
          "name": "tokenId",
          "type": "uint256"
        },
        {
          "internalType": "bytes",
          "name": "_data",
          "type": "bytes"
        }
      ],
      "name": "safeTransferFrom",
      "outputs": [],
      "stateMutability": "nonpayable",
      "type": "function"
    },
    {
      "inputs": [
        {
          "internalType": "address",
          "name": "operator",
          "type": "address"
        },
        {
          "internalType": "bool",
          "name": "approved",
          "type": "bool"
        }
      ],
      "name": "setApprovalForAll",
      "outputs": [],
      "stateMutability": "nonpayable",
      "type": "function"
    },
    {
      "inputs": [],
      "name": "symbol",
      "outputs": [
        {
          "internalType": "string",
          "name": "",
          "type": "string"
        }
      ],
      "stateMutability": "view",
      "type": "function",
      "constant": true
    },
    {
      "inputs": [],
      "name": "tokenCounter",
      "outputs": [
        {
          "internalType": "uint256",
          "name": "_value",
          "type": "uint256"
        }
      ],
      "stateMutability": "view",
      "type": "function",
      "constant": true
    },
    {
      "inputs": [
        {
          "internalType": "address",
          "name": "from",
          "type": "address"
        },
        {
          "internalType": "address",
          "name": "to",
          "type": "address"
        },
        {
          "internalType": "uint256",
          "name": "tokenId",
          "type": "uint256"
        }
      ],
      "name": "transferFrom",
      "outputs": [],
      "stateMutability": "nonpayable",
      "type": "function"
    },
    {
      "inputs": [
        {
          "internalType": "uint256",
          "name": "tokenId",
          "type": "uint256"
        }
      ],
      "name": "exists",
      "outputs": [
        {
          "internalType": "bool",
          "name": "",
          "type": "bool"
        }
      ],
      "stateMutability": "view",
      "type": "function",
      "constant": true
    },
    {
      "inputs": [
        {
          "internalType": "address",
          "name": "to",
          "type": "address"
        },
        {
          "internalType": "string",
          "name": "uri",
          "type": "string"
        }
      ],
      "name": "mint",
      "outputs": [],
      "stateMutability": "nonpayable",
      "type": "function"
    },
    {
      "inputs": [
        {
          "internalType": "address",
          "name": "to",
          "type": "address"
        },
        {
          "internalType": "string",
          "name": "uri",
          "type": "string"
        }
      ],
      "name": "safeMint",
      "outputs": [],
      "stateMutability": "nonpayable",
      "type": "function"
    },
    {
      "inputs": [
        {
          "internalType": "address",
          "name": "to",
          "type": "address"
        },
        {
          "internalType": "string",
          "name": "uri",
          "type": "string"
        },
        {
          "internalType": "bytes",
          "name": "_data",
          "type": "bytes"
        }
      ],
      "name": "safeMint",
      "outputs": [],
      "stateMutability": "nonpayable",
      "type": "function"
    },
    {
      "inputs": [
        {
          "internalType": "uint256",
          "name": "tokenId",
          "type": "uint256"
        }
      ],
      "name": "burn",
      "outputs": [],
      "stateMutability": "nonpayable",
      "type": "function"
    },
    {
      "inputs": [
        {
          "internalType": "uint256",
          "name": "tokenId",
          "type": "uint256"
        }
      ],
      "name": "tokenURI",
      "outputs": [
        {
          "internalType": "string",
          "name": "",
          "type": "string"
        }
      ],
      "stateMutability": "view",
      "type": "function",
      "constant": true
    },
    {
      "inputs": [
        {
          "internalType": "bytes4",
          "name": "interfaceId",
          "type": "bytes4"
        }
      ],
      "name": "supportsInterface",
      "outputs": [
        {
          "internalType": "bool",
          "name": "",
          "type": "bool"
        }
      ],
      "stateMutability": "view",
      "type": "function",
      "constant": true
    },
    {
      "inputs": [
        {
          "internalType": "uint256",
          "name": "",
          "type": "uint256"
        },
        {
          "internalType": "uint256",
          "name": "salePrice",
          "type": "uint256"
        }
      ],
      "name": "royaltyInfo",
      "outputs": [
        {
          "internalType": "address",
          "name": "",
          "type": "address"
        },
        {
          "internalType": "uint256",
          "name": "",
          "type": "uint256"
        }
      ],
      "stateMutability": "view",
      "type": "function",
      "constant": true
    }
  ],
  "bytecode": "0x60806040523480156200001157600080fd5b5060405162002fad38038062002fad8339818101604052810190620000379190620001a3565b818181600090805190602001906200005192919062000075565b5080600190805190602001906200006a92919062000075565b5050505050620003ac565b8280546200008390620002bd565b90600052602060002090601f016020900481019282620000a75760008555620000f3565b82601f10620000c257805160ff1916838001178555620000f3565b82800160010185558215620000f3579182015b82811115620000f2578251825591602001919060010190620000d5565b5b50905062000102919062000106565b5090565b5b808211156200012157600081600090555060010162000107565b5090565b60006200013c620001368462000251565b62000228565b9050828152602081018484840111156200015b576200015a6200038c565b5b6200016884828562000287565b509392505050565b600082601f83011262000188576200018762000387565b5b81516200019a84826020860162000125565b91505092915050565b60008060408385031215620001bd57620001bc62000396565b5b600083015167ffffffffffffffff811115620001de57620001dd62000391565b5b620001ec8582860162000170565b925050602083015167ffffffffffffffff81111562000210576200020f62000391565b5b6200021e8582860162000170565b9150509250929050565b60006200023462000247565b9050620002428282620002f3565b919050565b6000604051905090565b600067ffffffffffffffff8211156200026f576200026e62000358565b5b6200027a826200039b565b9050602081019050919050565b60005b83811015620002a75780820151818401526020810190506200028a565b83811115620002b7576000848401525b50505050565b60006002820490506001821680620002d657607f821691505b60208210811415620002ed57620002ec62000329565b5b50919050565b620002fe826200039b565b810181811067ffffffffffffffff8211171562000320576200031f62000358565b5b80604052505050565b7f4e487b7100000000000000000000000000000000000000000000000000000000600052602260045260246000fd5b7f4e487b7100000000000000000000000000000000000000000000000000000000600052604160045260246000fd5b600080fd5b600080fd5b600080fd5b600080fd5b6000601f19601f8301169050919050565b612bf180620003bc6000396000f3fe608060405234801561001057600080fd5b506004361061012c5760003560e01c806370a08231116100ad578063d082e38111610071578063d082e38114610366578063d0def52114610384578063d204c45e146103a0578063e985e9c5146103bc578063f6dda936146103ec5761012c565b806370a08231146102b057806395d89b41146102e0578063a22cb465146102fe578063b88d4fde1461031a578063c87b56dd146103365761012c565b80632a55205a116100f45780632a55205a146101e757806342842e0e1461021857806342966c68146102345780634f558e79146102505780636352211e146102805761012c565b806301ffc9a71461013157806306fdde0314610161578063081812fc1461017f578063095ea7b3146101af57806323b872dd146101cb575b600080fd5b61014b60048036038101906101469190611de0565b610408565b60405161015891906121c0565b60405180910390f35b610169610482565b60405161017691906121db565b60405180910390f35b61019960048036038101906101949190611e3a565b610514565b6040516101a69190612130565b60405180910390f35b6101c960048036038101906101c49190611da0565b610599565b005b6101e560048036038101906101e09190611b9a565b6106b1565b005b61020160048036038101906101fc9190611e67565b610711565b60405161020f929190612197565b60405180910390f35b610232600480360381019061022d9190611b9a565b61075c565b005b61024e60048036038101906102499190611e3a565b61077c565b005b61026a60048036038101906102659190611e3a565b610788565b60405161027791906121c0565b60405180910390f35b61029a60048036038101906102959190611e3a565b61079a565b6040516102a79190612130565b60405180910390f35b6102ca60048036038101906102c59190611b2d565b61084c565b6040516102d791906123bd565b60405180910390f35b6102e8610904565b6040516102f591906121db565b60405180910390f35b61031860048036038101906103139190611c70565b610996565b005b610334600480360381019061032f9190611bed565b610b17565b005b610350600480360381019061034b9190611e3a565b610b79565b60405161035d91906121db565b60405180910390f35b61036e610c66565b60405161037b91906123bd565b60405180910390f35b61039e60048036038101906103999190611cb0565b610c72565b005b6103ba60048036038101906103b59190611cb0565b610c9c565b005b6103d660048036038101906103d19190611b5a565b610cc6565b6040516103e391906121c0565b60405180910390f35b61040660048036038101906104019190611d10565b610d5a565b005b60007f2a55205a000000000000000000000000000000000000000000000000000000007bffffffffffffffffffffffffffffffffffffffffffffffffffffffff1916827bffffffffffffffffffffffffffffffffffffffffffffffffffffffff1916148061047b575061047a82610d86565b5b9050919050565b60606000805461049190612631565b80601f01602080910402602001604051908101604052809291908181526020018280546104bd90612631565b801561050a5780601f106104df5761010080835404028352916020019161050a565b820191906000526020600020905b8154815290600101906020018083116104ed57829003601f168201915b5050505050905090565b600061051f82610e68565b61055e576040517f08c379a00000000000000000000000000000000000000000000000000000000081526004016105559061231d565b60405180910390fd5b6004600083815260200190815260200160002060009054906101000a900473ffffffffffffffffffffffffffffffffffffffff169050919050565b60006105a48261079a565b90508073ffffffffffffffffffffffffffffffffffffffff168373ffffffffffffffffffffffffffffffffffffffff161415610615576040517f08c379a000000000000000000000000000000000000000000000000000000000815260040161060c9061237d565b60405180910390fd5b8073ffffffffffffffffffffffffffffffffffffffff16610634610ed4565b73ffffffffffffffffffffffffffffffffffffffff16148061066357506106628161065d610ed4565b610cc6565b5b6106a2576040517f08c379a00000000000000000000000000000000000000000000000000000000081526004016106999061229d565b60405180910390fd5b6106ac8383610edc565b505050565b6106c26106bc610ed4565b82610f95565b610701576040517f08c379a00000000000000000000000000000000000000000000000000000000081526004016106f89061239d565b60405180910390fd5b61070c838383611073565b505050565b600080600660009054906101000a900473ffffffffffffffffffffffffffffffffffffffff1660646007548561074791906124ed565b61075191906124bc565b915091509250929050565b61077783838360405180602001604052806000815250610b17565b505050565b610785816112cf565b50565b600061079382610e68565b9050919050565b6000806002600084815260200190815260200160002060009054906101000a900473ffffffffffffffffffffffffffffffffffffffff169050600073ffffffffffffffffffffffffffffffffffffffff168173ffffffffffffffffffffffffffffffffffffffff161415610843576040517f08c379a000000000000000000000000000000000000000000000000000000000815260040161083a906122dd565b60405180910390fd5b80915050919050565b60008073ffffffffffffffffffffffffffffffffffffffff168273ffffffffffffffffffffffffffffffffffffffff1614156108bd576040517f08c379a00000000000000000000000000000000000000000000000000000000081526004016108b4906122bd565b60405180910390fd5b600360008373ffffffffffffffffffffffffffffffffffffffff1673ffffffffffffffffffffffffffffffffffffffff168152602001908152602001600020549050919050565b60606001805461091390612631565b80601f016020809104026020016040519081016040528092919081815260200182805461093f90612631565b801561098c5780601f106109615761010080835404028352916020019161098c565b820191906000526020600020905b81548152906001019060200180831161096f57829003601f168201915b5050505050905090565b61099e610ed4565b73ffffffffffffffffffffffffffffffffffffffff168273ffffffffffffffffffffffffffffffffffffffff161415610a0c576040517f08c379a0000000000000000000000000000000000000000000000000000000008152600401610a039061225d565b60405180910390fd5b8060056000610a19610ed4565b73ffffffffffffffffffffffffffffffffffffffff1673ffffffffffffffffffffffffffffffffffffffff16815260200190815260200160002060008473ffffffffffffffffffffffffffffffffffffffff1673ffffffffffffffffffffffffffffffffffffffff16815260200190815260200160002060006101000a81548160ff0219169083151502179055508173ffffffffffffffffffffffffffffffffffffffff16610ac6610ed4565b73ffffffffffffffffffffffffffffffffffffffff167f17307eab39ab6107e8899845ad3d59bd9653f200f220920489ca2b5937696c3183604051610b0b91906121c0565b60405180910390a35050565b610b28610b22610ed4565b83610f95565b610b67576040517f08c379a0000000000000000000000000000000000000000000000000000000008152600401610b5e9061239d565b60405180910390fd5b610b73848484846113e0565b50505050565b6060610b8482610e68565b610bc3576040517f08c379a0000000000000000000000000000000000000000000000000000000008152600401610bba9061235d565b60405180910390fd5b600960008381526020019081526020016000208054610be190612631565b80601f0160208091040260200160405190810160405280929190818152602001828054610c0d90612631565b8015610c5a5780601f10610c2f57610100808354040283529160200191610c5a565b820191906000526020600020905b815481529060010190602001808311610c3d57829003601f168201915b50505050509050919050565b60088060000154905081565b6000610c7e600861143c565b9050610c8c8482858561144a565b610c96600861147d565b50505050565b6000610ca8600861143c565b9050610cb684828585611493565b610cc0600861147d565b50505050565b6000600560008473ffffffffffffffffffffffffffffffffffffffff1673ffffffffffffffffffffffffffffffffffffffff16815260200190815260200160002060008373ffffffffffffffffffffffffffffffffffffffff1673ffffffffffffffffffffffffffffffffffffffff16815260200190815260200160002060009054906101000a900460ff16905092915050565b6000610d66600861143c565b9050610d7585828686866114c6565b610d7f600861147d565b5050505050565b60007f80ac58cd000000000000000000000000000000000000000000000000000000007bffffffffffffffffffffffffffffffffffffffffffffffffffffffff1916827bffffffffffffffffffffffffffffffffffffffffffffffffffffffff19161480610e5157507f5b5e139f000000000000000000000000000000000000000000000000000000007bffffffffffffffffffffffffffffffffffffffffffffffffffffffff1916827bffffffffffffffffffffffffffffffffffffffffffffffffffffffff1916145b80610e615750610e60826114fb565b5b9050919050565b60008073ffffffffffffffffffffffffffffffffffffffff166002600084815260200190815260200160002060009054906101000a900473ffffffffffffffffffffffffffffffffffffffff1673ffffffffffffffffffffffffffffffffffffffff1614159050919050565b600033905090565b816004600083815260200190815260200160002060006101000a81548173ffffffffffffffffffffffffffffffffffffffff021916908373ffffffffffffffffffffffffffffffffffffffff160217905550808273ffffffffffffffffffffffffffffffffffffffff16610f4f8361079a565b73ffffffffffffffffffffffffffffffffffffffff167f8c5be1e5ebec7d5bd14f71427d1e84f3dd0314c0f7b2291e5b200ac8c7c3b92560405160405180910390a45050565b6000610fa082610e68565b610fdf576040517f08c379a0000000000000000000000000000000000000000000000000000000008152600401610fd69061227d565b60405180910390fd5b6000610fea8361079a565b90508073ffffffffffffffffffffffffffffffffffffffff168473ffffffffffffffffffffffffffffffffffffffff16148061105957508373ffffffffffffffffffffffffffffffffffffffff1661104184610514565b73ffffffffffffffffffffffffffffffffffffffff16145b8061106a57506110698185610cc6565b5b91505092915050565b8273ffffffffffffffffffffffffffffffffffffffff166110938261079a565b73ffffffffffffffffffffffffffffffffffffffff16146110e9576040517f08c379a00000000000000000000000000000000000000000000000000000000081526004016110e09061233d565b60405180910390fd5b600073ffffffffffffffffffffffffffffffffffffffff168273ffffffffffffffffffffffffffffffffffffffff161415611159576040517f08c379a00000000000000000000000000000000000000000000000000000000081526004016111509061223d565b60405180910390fd5b611164838383611565565b61116f600082610edc565b6001600360008573ffffffffffffffffffffffffffffffffffffffff1673ffffffffffffffffffffffffffffffffffffffff16815260200190815260200160002060008282546111bf9190612547565b925050819055506001600360008473ffffffffffffffffffffffffffffffffffffffff1673ffffffffffffffffffffffffffffffffffffffff16815260200190815260200160002060008282546112169190612466565b92505081905550816002600083815260200190815260200160002060006101000a81548173ffffffffffffffffffffffffffffffffffffffff021916908373ffffffffffffffffffffffffffffffffffffffff160217905550808273ffffffffffffffffffffffffffffffffffffffff168473ffffffffffffffffffffffffffffffffffffffff167fddf252ad1be2c89b69c2b068fc378daa952ba7f163c4a11628f55a4df523b3ef60405160405180910390a4505050565b60006112da8261079a565b90506112e881600084611565565b6112f3600083610edc565b6001600360008373ffffffffffffffffffffffffffffffffffffffff1673ffffffffffffffffffffffffffffffffffffffff16815260200190815260200160002060008282546113439190612547565b925050819055506002600083815260200190815260200160002060006101000a81549073ffffffffffffffffffffffffffffffffffffffff021916905581600073ffffffffffffffffffffffffffffffffffffffff168273ffffffffffffffffffffffffffffffffffffffff167fddf252ad1be2c89b69c2b068fc378daa952ba7f163c4a11628f55a4df523b3ef60405160405180910390a45050565b6113eb848484611073565b6113f78484848461156a565b611436576040517f08c379a000000000000000000000000000000000000000000000000000000000815260040161142d906121fd565b60405180910390fd5b50505050565b600081600001549050919050565b6114548484611701565b818160096000868152602001908152602001600020919061147692919061195b565b5050505050565b6001816000016000828254019250508190555050565b61149d84846118cf565b81816009600086815260200190815260200160002091906114bf92919061195b565b5050505050565b6114d18585836118ed565b82826009600087815260200190815260200160002091906114f392919061195b565b505050505050565b60007f01ffc9a7000000000000000000000000000000000000000000000000000000007bffffffffffffffffffffffffffffffffffffffffffffffffffffffff1916827bffffffffffffffffffffffffffffffffffffffffffffffffffffffff1916149050919050565b505050565b600061158b8473ffffffffffffffffffffffffffffffffffffffff16611948565b156116f4578373ffffffffffffffffffffffffffffffffffffffff1663150b7a026115b4610ed4565b8786866040518563ffffffff1660e01b81526004016115d6949392919061214b565b602060405180830381600087803b1580156115f057600080fd5b505af192505050801561162157506040513d601f19601f8201168201806040525081019061161e9190611e0d565b60015b6116a4573d8060008114611651576040519150601f19603f3d011682016040523d82523d6000602084013e611656565b606091505b5060008151141561169c576040517f08c379a0000000000000000000000000000000000000000000000000000000008152600401611693906121fd565b60405180910390fd5b805181602001fd5b63150b7a0260e01b7bffffffffffffffffffffffffffffffffffffffffffffffffffffffff1916817bffffffffffffffffffffffffffffffffffffffffffffffffffffffff1916149150506116f9565b600190505b949350505050565b600073ffffffffffffffffffffffffffffffffffffffff168273ffffffffffffffffffffffffffffffffffffffff161415611771576040517f08c379a0000000000000000000000000000000000000000000000000000000008152600401611768906122fd565b60405180910390fd5b61177a81610e68565b156117ba576040517f08c379a00000000000000000000000000000000000000000000000000000000081526004016117b19061221d565b60405180910390fd5b6117c660008383611565565b6001600360008473ffffffffffffffffffffffffffffffffffffffff1673ffffffffffffffffffffffffffffffffffffffff16815260200190815260200160002060008282546118169190612466565b92505081905550816002600083815260200190815260200160002060006101000a81548173ffffffffffffffffffffffffffffffffffffffff021916908373ffffffffffffffffffffffffffffffffffffffff160217905550808273ffffffffffffffffffffffffffffffffffffffff16600073ffffffffffffffffffffffffffffffffffffffff167fddf252ad1be2c89b69c2b068fc378daa952ba7f163c4a11628f55a4df523b3ef60405160405180910390a45050565b6118e98282604051806020016040528060008152506118ed565b5050565b6118f78383611701565b611904600084848461156a565b611943576040517f08c379a000000000000000000000000000000000000000000000000000000000815260040161193a906121fd565b60405180910390fd5b505050565b600080823b905060008111915050919050565b82805461196790612631565b90600052602060002090601f01602090048101928261198957600085556119d0565b82601f106119a257803560ff19168380011785556119d0565b828001600101855582156119d0579182015b828111156119cf5782358255916020019190600101906119b4565b5b5090506119dd91906119e1565b5090565b5b808211156119fa5760008160009055506001016119e2565b5090565b6000611a11611a0c846123fd565b6123d8565b905082815260208101848484011115611a2d57611a2c61275f565b5b611a388482856125ef565b509392505050565b600081359050611a4f81612b5f565b92915050565b600081359050611a6481612b76565b92915050565b600081359050611a7981612b8d565b92915050565b600081519050611a8e81612b8d565b92915050565b600082601f830112611aa957611aa8612755565b5b8135611ab98482602086016119fe565b91505092915050565b60008083601f840112611ad857611ad7612755565b5b8235905067ffffffffffffffff811115611af557611af4612750565b5b602083019150836001820283011115611b1157611b1061275a565b5b9250929050565b600081359050611b2781612ba4565b92915050565b600060208284031215611b4357611b42612769565b5b6000611b5184828501611a40565b91505092915050565b60008060408385031215611b7157611b70612769565b5b6000611b7f85828601611a40565b9250506020611b9085828601611a40565b9150509250929050565b600080600060608486031215611bb357611bb2612769565b5b6000611bc186828701611a40565b9350506020611bd286828701611a40565b9250506040611be386828701611b18565b9150509250925092565b60008060008060808587031215611c0757611c06612769565b5b6000611c1587828801611a40565b9450506020611c2687828801611a40565b9350506040611c3787828801611b18565b925050606085013567ffffffffffffffff811115611c5857611c57612764565b5b611c6487828801611a94565b91505092959194509250565b60008060408385031215611c8757611c86612769565b5b6000611c9585828601611a40565b9250506020611ca685828601611a55565b9150509250929050565b600080600060408486031215611cc957611cc8612769565b5b6000611cd786828701611a40565b935050602084013567ffffffffffffffff811115611cf857611cf7612764565b5b611d0486828701611ac2565b92509250509250925092565b60008060008060608587031215611d2a57611d29612769565b5b6000611d3887828801611a40565b945050602085013567ffffffffffffffff811115611d5957611d58612764565b5b611d6587828801611ac2565b9350935050604085013567ffffffffffffffff811115611d8857611d87612764565b5b611d9487828801611a94565b91505092959194509250565b60008060408385031215611db757611db6612769565b5b6000611dc585828601611a40565b9250506020611dd685828601611b18565b9150509250929050565b600060208284031215611df657611df5612769565b5b6000611e0484828501611a6a565b91505092915050565b600060208284031215611e2357611e22612769565b5b6000611e3184828501611a7f565b91505092915050565b600060208284031215611e5057611e4f612769565b5b6000611e5e84828501611b18565b91505092915050565b60008060408385031215611e7e57611e7d612769565b5b6000611e8c85828601611b18565b9250506020611e9d85828601611b18565b9150509250929050565b611eb08161257b565b82525050565b611ebf8161258d565b82525050565b6000611ed08261242e565b611eda8185612444565b9350611eea8185602086016125fe565b611ef38161276e565b840191505092915050565b6000611f0982612439565b611f138185612455565b9350611f238185602086016125fe565b611f2c8161276e565b840191505092915050565b6000611f44603283612455565b9150611f4f8261277f565b604082019050919050565b6000611f67601c83612455565b9150611f72826127ce565b602082019050919050565b6000611f8a602483612455565b9150611f95826127f7565b604082019050919050565b6000611fad601983612455565b9150611fb882612846565b602082019050919050565b6000611fd0602c83612455565b9150611fdb8261286f565b604082019050919050565b6000611ff3603883612455565b9150611ffe826128be565b604082019050919050565b6000612016602a83612455565b91506120218261290d565b604082019050919050565b6000612039602983612455565b91506120448261295c565b604082019050919050565b600061205c602083612455565b9150612067826129ab565b602082019050919050565b600061207f602c83612455565b915061208a826129d4565b604082019050919050565b60006120a2602983612455565b91506120ad82612a23565b604082019050919050565b60006120c5602f83612455565b91506120d082612a72565b604082019050919050565b60006120e8602183612455565b91506120f382612ac1565b604082019050919050565b600061210b603183612455565b915061211682612b10565b604082019050919050565b61212a816125e5565b82525050565b60006020820190506121456000830184611ea7565b92915050565b60006080820190506121606000830187611ea7565b61216d6020830186611ea7565b61217a6040830185612121565b818103606083015261218c8184611ec5565b905095945050505050565b60006040820190506121ac6000830185611ea7565b6121b96020830184612121565b9392505050565b60006020820190506121d56000830184611eb6565b92915050565b600060208201905081810360008301526121f58184611efe565b905092915050565b6000602082019050818103600083015261221681611f37565b9050919050565b6000602082019050818103600083015261223681611f5a565b9050919050565b6000602082019050818103600083015261225681611f7d565b9050919050565b6000602082019050818103600083015261227681611fa0565b9050919050565b6000602082019050818103600083015261229681611fc3565b9050919050565b600060208201905081810360008301526122b681611fe6565b9050919050565b600060208201905081810360008301526122d681612009565b9050919050565b600060208201905081810360008301526122f68161202c565b9050919050565b600060208201905081810360008301526123168161204f565b9050919050565b6000602082019050818103600083015261233681612072565b9050919050565b6000602082019050818103600083015261235681612095565b9050919050565b60006020820190508181036000830152612376816120b8565b9050919050565b60006020820190508181036000830152612396816120db565b9050919050565b600060208201905081810360008301526123b6816120fe565b9050919050565b60006020820190506123d26000830184612121565b92915050565b60006123e26123f3565b90506123ee8282612663565b919050565b6000604051905090565b600067ffffffffffffffff82111561241857612417612721565b5b6124218261276e565b9050602081019050919050565b600081519050919050565b600081519050919050565b600082825260208201905092915050565b600082825260208201905092915050565b6000612471826125e5565b915061247c836125e5565b9250827fffffffffffffffffffffffffffffffffffffffffffffffffffffffffffffffff038211156124b1576124b0612694565b5b828201905092915050565b60006124c7826125e5565b91506124d2836125e5565b9250826124e2576124e16126c3565b5b828204905092915050565b60006124f8826125e5565b9150612503836125e5565b9250817fffffffffffffffffffffffffffffffffffffffffffffffffffffffffffffffff048311821515161561253c5761253b612694565b5b828202905092915050565b6000612552826125e5565b915061255d836125e5565b9250828210156125705761256f612694565b5b828203905092915050565b6000612586826125c5565b9050919050565b60008115159050919050565b60007fffffffff0000000000000000000000000000000000000000000000000000000082169050919050565b600073ffffffffffffffffffffffffffffffffffffffff82169050919050565b6000819050919050565b82818337600083830152505050565b60005b8381101561261c578082015181840152602081019050612601565b8381111561262b576000848401525b50505050565b6000600282049050600182168061264957607f821691505b6020821081141561265d5761265c6126f2565b5b50919050565b61266c8261276e565b810181811067ffffffffffffffff8211171561268b5761268a612721565b5b80604052505050565b7f4e487b7100000000000000000000000000000000000000000000000000000000600052601160045260246000fd5b7f4e487b7100000000000000000000000000000000000000000000000000000000600052601260045260246000fd5b7f4e487b7100000000000000000000000000000000000000000000000000000000600052602260045260246000fd5b7f4e487b7100000000000000000000000000000000000000000000000000000000600052604160045260246000fd5b600080fd5b600080fd5b600080fd5b600080fd5b600080fd5b600080fd5b6000601f19601f8301169050919050565b7f4552433732313a207472616e7366657220746f206e6f6e20455243373231526560008201527f63656976657220696d706c656d656e7465720000000000000000000000000000602082015250565b7f4552433732313a20746f6b656e20616c7265616479206d696e74656400000000600082015250565b7f4552433732313a207472616e7366657220746f20746865207a65726f2061646460008201527f7265737300000000000000000000000000000000000000000000000000000000602082015250565b7f4552433732313a20617070726f766520746f2063616c6c657200000000000000600082015250565b7f4552433732313a206f70657261746f7220717565727920666f72206e6f6e657860008201527f697374656e7420746f6b656e0000000000000000000000000000000000000000602082015250565b7f4552433732313a20617070726f76652063616c6c6572206973206e6f74206f7760008201527f6e6572206e6f7220617070726f76656420666f7220616c6c0000000000000000602082015250565b7f4552433732313a2062616c616e636520717565727920666f7220746865207a6560008201527f726f206164647265737300000000000000000000000000000000000000000000602082015250565b7f4552433732313a206f776e657220717565727920666f72206e6f6e657869737460008201527f656e7420746f6b656e0000000000000000000000000000000000000000000000602082015250565b7f4552433732313a206d696e7420746f20746865207a65726f2061646472657373600082015250565b7f4552433732313a20617070726f76656420717565727920666f72206e6f6e657860008201527f697374656e7420746f6b656e0000000000000000000000000000000000000000602082015250565b7f4552433732313a207472616e73666572206f6620746f6b656e2074686174206960008201527f73206e6f74206f776e0000000000000000000000000000000000000000000000602082015250565b7f4552433732314d657461646174613a2055524920717565727920666f72206e6f60008201527f6e6578697374656e7420746f6b656e0000000000000000000000000000000000602082015250565b7f4552433732313a20617070726f76616c20746f2063757272656e74206f776e6560008201527f7200000000000000000000000000000000000000000000000000000000000000602082015250565b7f4552433732313a207472616e736665722063616c6c6572206973206e6f74206f60008201527f776e6572206e6f7220617070726f766564000000000000000000000000000000602082015250565b612b688161257b565b8114612b7357600080fd5b50565b612b7f8161258d565b8114612b8a57600080fd5b50565b612b9681612599565b8114612ba157600080fd5b50565b612bad816125e5565b8114612bb857600080fd5b5056fea26469706673582212206cf75bd6b23586fc23df86e66bfe87cea21cbcb2e72d3fac9b1fdafe1616de8964736f6c63430008060033",
  "immutableReferences": {},
  "source": "// SPDX-License-Identifier: MIT\r\n\r\npragma solidity ^0.8.6;\r\n\r\nimport \"@openzeppelin/contracts/token/ERC721/ERC721.sol\";\r\nimport \"@openzeppelin/contracts/interfaces/IERC2981.sol\";\r\nimport \"@openzeppelin/contracts/utils/Counters.sol\";\r\n\r\ncontract ERC721WithRoyalty is ERC721, IERC2981 {\r\n    using Counters for Counters.Counter;\r\n    address royaltyReceiver;\r\n    uint256 royaltyPercentage;\r\n    Counters.Counter public tokenCounter;\r\n\r\n    mapping(uint256 => string) private tokenToUri;\r\n\r\n    constructor(string memory name, \r\n                string memory symbol) ERC721(name, symbol) {\r\n        \r\n    }\r\n\r\n    function exists(uint256 tokenId) public view returns (bool) {\r\n        return _exists(tokenId);\r\n    }\r\n\r\n    function mint(address to, string calldata uri) public {\r\n        uint256 tokenId = tokenCounter.current();\r\n        _mint(to, tokenId, uri);\r\n        tokenCounter.increment();\r\n    }\r\n\r\n    function safeMint(address to, string calldata uri) public {\r\n        uint256 tokenId = tokenCounter.current();\r\n        _safeMint(to, tokenId, uri);\r\n        tokenCounter.increment();\r\n    }\r\n\r\n    function safeMint(\r\n        address to,\r\n        string calldata uri,\r\n        bytes memory _data\r\n    ) public {\r\n        uint256 tokenId = tokenCounter.current();\r\n        _safeMint(to, tokenId, uri, _data);\r\n        tokenCounter.increment();\r\n    }\r\n\r\n    function burn(uint256 tokenId) public {\r\n        _burn(tokenId);\r\n    }\r\n\r\n    function tokenURI(uint256 tokenId) public view override returns (string memory) {\r\n        require(_exists(tokenId), \"ERC721Metadata: URI query for nonexistent token\");\r\n\r\n        return tokenToUri[tokenId];\r\n    }\r\n\r\n    function supportsInterface(bytes4 interfaceId) public view override(ERC721, IERC165) returns (bool) {\r\n        return\r\n            interfaceId == type(IERC2981).interfaceId ||\r\n            super.supportsInterface(interfaceId);\r\n    }\r\n\r\n    function royaltyInfo(uint256, uint256 salePrice) external view override returns (address, uint256) {\r\n        return (royaltyReceiver, salePrice * royaltyPercentage / 100);\r\n    }\r\n\r\n    function _mint(address to, uint256 tokenId, string calldata uri) private {\r\n        super._mint(to, tokenId);\r\n        tokenToUri[tokenId] = uri;\r\n    }\r\n\r\n    function _safeMint(\r\n        address to,\r\n        uint256 tokenId,\r\n        string calldata uri\r\n        // bytes memory _data\r\n    ) private {\r\n        super._safeMint(to, tokenId);\r\n        tokenToUri[tokenId] = uri;\r\n    }\r\n\r\n    function _safeMint(\r\n        address to,\r\n        uint256 tokenId,\r\n        string calldata uri,\r\n        bytes memory _data\r\n    ) private {\r\n        super._safeMint(to, tokenId, _data);\r\n        tokenToUri[tokenId] = uri;\r\n    }\r\n}",
  "sourcePath": "/Users/angelsatorresalmenara/Desktop/Privi-Polygon/privi-NFT-royalties/contracts/contracts/ERC721WithRoyalty.sol",
  "compiler": {
    "name": "solc",
    "version": "0.8.6+commit.11564f7e.Emscripten.clang"
  },
  "schemaVersion": "3.4.3",
  "updatedAt": "2021-10-17T13:36:39.501Z",
  "networkType": "ethereum",
  "devdoc": {
    "kind": "dev",
    "methods": {
      "approve(address,uint256)": {
        "details": "See {IERC721-approve}."
      },
      "balanceOf(address)": {
        "details": "See {IERC721-balanceOf}."
      },
      "getApproved(uint256)": {
        "details": "See {IERC721-getApproved}."
      },
      "isApprovedForAll(address,address)": {
        "details": "See {IERC721-isApprovedForAll}."
      },
      "name()": {
        "details": "See {IERC721Metadata-name}."
      },
      "ownerOf(uint256)": {
        "details": "See {IERC721-ownerOf}."
      },
      "safeTransferFrom(address,address,uint256)": {
        "details": "See {IERC721-safeTransferFrom}."
      },
      "safeTransferFrom(address,address,uint256,bytes)": {
        "details": "See {IERC721-safeTransferFrom}."
      },
      "setApprovalForAll(address,bool)": {
        "details": "See {IERC721-setApprovalForAll}."
      },
      "symbol()": {
        "details": "See {IERC721Metadata-symbol}."
      },
      "tokenURI(uint256)": {
        "details": "See {IERC721Metadata-tokenURI}."
      },
      "transferFrom(address,address,uint256)": {
        "details": "See {IERC721-transferFrom}."
      }
    },
    "version": 1
  },
  "userdoc": {
    "kind": "user",
    "methods": {},
    "version": 1
  }
}