{
  "_format": "hh-sol-artifact-1",
  "contractName": "OpenSalesManager",
  "sourceName": "contracts/OpenSalesManager.sol",
  "abi": [
    {
      "inputs": [
        {
          "internalType": "address",
          "name": "feeCollector_",
          "type": "address"
        },
        {
          "internalType": "address",
          "name": "protocol_",
          "type": "address"
        }
      ],
      "stateMutability": "nonpayable",
      "type": "constructor"
    },
    {
      "anonymous": false,
      "inputs": [
        {
          "indexed": false,
          "internalType": "address",
          "name": "previousAdmin",
          "type": "address"
        },
        {
          "indexed": false,
          "internalType": "address",
          "name": "newAdmin",
          "type": "address"
        }
      ],
      "name": "AdminChanged",
      "type": "event"
    },
    {
      "anonymous": false,
      "inputs": [
        {
          "indexed": true,
          "internalType": "address",
          "name": "beacon",
          "type": "address"
        }
      ],
      "name": "BeaconUpgraded",
      "type": "event"
    },
    {
      "anonymous": false,
      "inputs": [
        {
          "indexed": true,
          "internalType": "address",
          "name": "token",
          "type": "address"
        }
      ],
      "name": "Blacklist",
      "type": "event"
    },
    {
      "anonymous": false,
      "inputs": [
        {
          "indexed": true,
          "internalType": "address",
          "name": "previousOwner",
          "type": "address"
        },
        {
          "indexed": true,
          "internalType": "address",
          "name": "newOwner",
          "type": "address"
        }
      ],
      "name": "OwnershipTransferred",
      "type": "event"
    },
    {
      "anonymous": false,
      "inputs": [
        {
          "indexed": false,
          "internalType": "address",
          "name": "fromBuyer",
          "type": "address"
        },
        {
          "indexed": false,
          "internalType": "address",
          "name": "collection",
          "type": "address"
        },
        {
          "indexed": false,
          "internalType": "uint256",
          "name": "tokenId",
          "type": "uint256"
        },
        {
          "indexed": false,
          "internalType": "address",
          "name": "paymentToken",
          "type": "address"
        }
      ],
      "name": "PurchaseCanceled",
      "type": "event"
    },
    {
      "anonymous": false,
      "inputs": [
        {
          "indexed": false,
          "internalType": "address",
          "name": "fromBuyer",
          "type": "address"
        },
        {
          "indexed": false,
          "internalType": "address",
          "name": "toSeller",
          "type": "address"
        },
        {
          "indexed": false,
          "internalType": "address",
          "name": "collection",
          "type": "address"
        },
        {
          "indexed": false,
          "internalType": "uint256",
          "name": "tokenId",
          "type": "uint256"
        },
        {
          "indexed": false,
          "internalType": "address",
          "name": "paymentToken",
          "type": "address"
        },
        {
          "indexed": false,
          "internalType": "uint256",
          "name": "price",
          "type": "uint256"
        }
      ],
      "name": "PurchaseCompleted",
      "type": "event"
    },
    {
      "anonymous": false,
      "inputs": [
        {
          "indexed": false,
          "internalType": "address",
          "name": "fromBuyer",
          "type": "address"
        },
        {
          "indexed": false,
          "internalType": "address",
          "name": "collection",
          "type": "address"
        },
        {
          "indexed": false,
          "internalType": "uint256",
          "name": "tokenId",
          "type": "uint256"
        },
        {
          "indexed": false,
          "internalType": "address",
          "name": "paymentToken",
          "type": "address"
        },
        {
          "indexed": false,
          "internalType": "uint256",
          "name": "price",
          "type": "uint256"
        }
      ],
      "name": "PurchaseProposed",
      "type": "event"
    },
    {
      "anonymous": false,
      "inputs": [
        {
          "indexed": false,
          "internalType": "address",
          "name": "fromSeller",
          "type": "address"
        },
        {
          "indexed": false,
          "internalType": "address",
          "name": "collection",
          "type": "address"
        },
        {
          "indexed": false,
          "internalType": "uint256",
          "name": "tokenId",
          "type": "uint256"
        },
        {
          "indexed": false,
          "internalType": "address",
          "name": "paymentToken",
          "type": "address"
        }
      ],
      "name": "SaleCanceled",
      "type": "event"
    },
    {
      "anonymous": false,
      "inputs": [
        {
          "indexed": false,
          "internalType": "address",
          "name": "fromSeller",
          "type": "address"
        },
        {
          "indexed": false,
          "internalType": "address",
          "name": "toBuyer",
          "type": "address"
        },
        {
          "indexed": false,
          "internalType": "address",
          "name": "collection",
          "type": "address"
        },
        {
          "indexed": false,
          "internalType": "uint256",
          "name": "tokenId",
          "type": "uint256"
        },
        {
          "indexed": false,
          "internalType": "address",
          "name": "paymentToken",
          "type": "address"
        },
        {
          "indexed": false,
          "internalType": "uint256",
          "name": "price",
          "type": "uint256"
        }
      ],
      "name": "SaleCompleted",
      "type": "event"
    },
    {
      "anonymous": false,
      "inputs": [
        {
          "indexed": false,
          "internalType": "address",
          "name": "fromSeller",
          "type": "address"
        },
        {
          "indexed": false,
          "internalType": "address",
          "name": "collection",
          "type": "address"
        },
        {
          "indexed": false,
          "internalType": "uint256",
          "name": "tokenId",
          "type": "uint256"
        },
        {
          "indexed": false,
          "internalType": "address",
          "name": "paymentToken",
          "type": "address"
        },
        {
          "indexed": false,
          "internalType": "uint256",
          "name": "price",
          "type": "uint256"
        }
      ],
      "name": "SaleProposed",
      "type": "event"
    },
    {
      "anonymous": false,
      "inputs": [
        {
          "indexed": true,
          "internalType": "address",
          "name": "implementation",
          "type": "address"
        }
      ],
      "name": "Upgraded",
      "type": "event"
    },
    {
      "anonymous": false,
      "inputs": [
        {
          "indexed": true,
          "internalType": "address",
          "name": "token",
          "type": "address"
        }
      ],
      "name": "Whitelist",
      "type": "event"
    },
    {
      "inputs": [
        {
          "internalType": "address",
          "name": "collection_",
          "type": "address"
        },
        {
          "internalType": "uint256",
          "name": "tokenId_",
          "type": "uint256"
        },
        {
          "internalType": "address",
          "name": "paymentToken_",
          "type": "address"
        },
        {
          "internalType": "uint256",
          "name": "price_",
          "type": "uint256"
        },
        {
          "internalType": "address",
          "name": "beneficiary_",
          "type": "address"
        },
        {
          "internalType": "address",
          "name": "sellerToMatch_",
          "type": "address"
        }
      ],
      "name": "approvePurchase",
      "outputs": [],
      "stateMutability": "nonpayable",
      "type": "function"
    },
    {
      "inputs": [
        {
          "internalType": "address",
          "name": "collection_",
          "type": "address"
        },
        {
          "internalType": "uint256",
          "name": "tokenId_",
          "type": "uint256"
        },
        {
          "internalType": "address",
          "name": "paymentToken_",
          "type": "address"
        },
        {
          "internalType": "uint256",
          "name": "price_",
          "type": "uint256"
        },
        {
          "internalType": "address",
          "name": "beneficiary_",
          "type": "address"
        },
        {
          "internalType": "address",
          "name": "buyerToMatch_",
          "type": "address"
        }
      ],
      "name": "approveSale",
      "outputs": [],
      "stateMutability": "nonpayable",
      "type": "function"
    },
    {
      "inputs": [
        {
          "internalType": "address",
          "name": "token_",
          "type": "address"
        }
      ],
      "name": "blacklistToken",
      "outputs": [],
      "stateMutability": "nonpayable",
      "type": "function"
    },
    {
      "inputs": [
        {
          "internalType": "address",
          "name": "collection_",
          "type": "address"
        },
        {
          "internalType": "uint256",
          "name": "tokenId_",
          "type": "uint256"
        },
        {
          "internalType": "address",
          "name": "paymentToken_",
          "type": "address"
        },
        {
          "internalType": "uint256",
          "name": "price_",
          "type": "uint256"
        },
        {
          "internalType": "address",
          "name": "buyer_",
          "type": "address"
        }
      ],
      "name": "cancelPurchaseProposal",
      "outputs": [],
      "stateMutability": "nonpayable",
      "type": "function"
    },
    {
      "inputs": [
        {
          "internalType": "address",
          "name": "collection_",
          "type": "address"
        },
        {
          "internalType": "uint256",
          "name": "tokenId_",
          "type": "uint256"
        },
        {
          "internalType": "address",
          "name": "paymentToken_",
          "type": "address"
        },
        {
          "internalType": "uint256",
          "name": "price_",
          "type": "uint256"
        },
        {
          "internalType": "address",
          "name": "owner_",
          "type": "address"
        }
      ],
      "name": "cancelSaleProposal",
      "outputs": [],
      "stateMutability": "nonpayable",
      "type": "function"
    },
    {
      "inputs": [],
      "name": "feeCollector",
      "outputs": [
        {
          "internalType": "address",
          "name": "",
          "type": "address"
        }
      ],
      "stateMutability": "view",
      "type": "function"
    },
    {
      "inputs": [
        {
          "internalType": "address",
          "name": "collection_",
          "type": "address"
        },
        {
          "internalType": "uint256",
          "name": "tokenId_",
          "type": "uint256"
        },
        {
          "internalType": "address",
          "name": "paymentToken_",
          "type": "address"
        },
        {
          "internalType": "uint256",
          "name": "price_",
          "type": "uint256"
        },
        {
          "internalType": "address",
          "name": "buyer_",
          "type": "address"
        }
      ],
      "name": "getOpenPurchaseProposal",
      "outputs": [
        {
          "components": [
            {
              "internalType": "address",
              "name": "collection",
              "type": "address"
            },
            {
              "internalType": "uint256",
              "name": "tokenId",
              "type": "uint256"
            },
            {
              "internalType": "address",
              "name": "paymentToken",
              "type": "address"
            },
            {
              "internalType": "uint256",
              "name": "price",
              "type": "uint256"
            },
            {
              "internalType": "address",
              "name": "buyer",
              "type": "address"
            },
            {
              "internalType": "address",
              "name": "beneficiary",
              "type": "address"
            }
          ],
          "internalType": "struct OpenPurchaseProposal",
          "name": "proposal",
          "type": "tuple"
        },
        {
          "internalType": "bytes32",
          "name": "id",
          "type": "bytes32"
        }
      ],
      "stateMutability": "view",
      "type": "function"
    },
    {
      "inputs": [
        {
          "internalType": "bytes32",
          "name": "id_",
          "type": "bytes32"
        }
      ],
      "name": "getOpenPurchaseProposalById",
      "outputs": [
        {
          "components": [
            {
              "internalType": "address",
              "name": "collection",
              "type": "address"
            },
            {
              "internalType": "uint256",
              "name": "tokenId",
              "type": "uint256"
            },
            {
              "internalType": "address",
              "name": "paymentToken",
              "type": "address"
            },
            {
              "internalType": "uint256",
              "name": "price",
              "type": "uint256"
            },
            {
              "internalType": "address",
              "name": "buyer",
              "type": "address"
            },
            {
              "internalType": "address",
              "name": "beneficiary",
              "type": "address"
            }
          ],
          "internalType": "struct OpenPurchaseProposal",
          "name": "proposal",
          "type": "tuple"
        }
      ],
      "stateMutability": "view",
      "type": "function"
    },
    {
      "inputs": [
        {
          "internalType": "address",
          "name": "collection_",
          "type": "address"
        },
        {
          "internalType": "uint256",
          "name": "tokenId_",
          "type": "uint256"
        },
        {
          "internalType": "address",
          "name": "paymentToken_",
          "type": "address"
        },
        {
          "internalType": "uint256",
          "name": "price_",
          "type": "uint256"
        },
        {
          "internalType": "address",
          "name": "owner_",
          "type": "address"
        }
      ],
      "name": "getOpenSaleProposal",
      "outputs": [
        {
          "components": [
            {
              "internalType": "address",
              "name": "collection",
              "type": "address"
            },
            {
              "internalType": "uint256",
              "name": "tokenId",
              "type": "uint256"
            },
            {
              "internalType": "address",
              "name": "paymentToken",
              "type": "address"
            },
            {
              "internalType": "uint256",
              "name": "price",
              "type": "uint256"
            },
            {
              "internalType": "address",
              "name": "owner",
              "type": "address"
            },
            {
              "internalType": "address",
              "name": "beneficiary",
              "type": "address"
            }
          ],
          "internalType": "struct OpenSaleProposal",
          "name": "proposal",
          "type": "tuple"
        },
        {
          "internalType": "bytes32",
          "name": "id",
          "type": "bytes32"
        }
      ],
      "stateMutability": "view",
      "type": "function"
    },
    {
      "inputs": [
        {
          "internalType": "bytes32",
          "name": "id_",
          "type": "bytes32"
        }
      ],
      "name": "getOpenSaleProposalById",
      "outputs": [
        {
          "components": [
            {
              "internalType": "address",
              "name": "collection",
              "type": "address"
            },
            {
              "internalType": "uint256",
              "name": "tokenId",
              "type": "uint256"
            },
            {
              "internalType": "address",
              "name": "paymentToken",
              "type": "address"
            },
            {
              "internalType": "uint256",
              "name": "price",
              "type": "uint256"
            },
            {
              "internalType": "address",
              "name": "owner",
              "type": "address"
            },
            {
              "internalType": "address",
              "name": "beneficiary",
              "type": "address"
            }
          ],
          "internalType": "struct OpenSaleProposal",
          "name": "proposal",
          "type": "tuple"
        }
      ],
      "stateMutability": "view",
      "type": "function"
    },
    {
      "inputs": [],
      "name": "initialize",
      "outputs": [],
      "stateMutability": "nonpayable",
      "type": "function"
    },
    {
      "inputs": [],
      "name": "owner",
      "outputs": [
        {
          "internalType": "address",
          "name": "",
          "type": "address"
        }
      ],
      "stateMutability": "view",
      "type": "function"
    },
    {
      "inputs": [],
      "name": "protocol",
      "outputs": [
        {
          "internalType": "address",
          "name": "",
          "type": "address"
        }
      ],
      "stateMutability": "view",
      "type": "function"
    },
    {
      "inputs": [],
      "name": "renounceOwnership",
      "outputs": [],
      "stateMutability": "nonpayable",
      "type": "function"
    },
    {
      "inputs": [
        {
          "internalType": "address",
          "name": "newOwner",
          "type": "address"
        }
      ],
      "name": "transferOwnership",
      "outputs": [],
      "stateMutability": "nonpayable",
      "type": "function"
    },
    {
      "inputs": [
        {
          "internalType": "address",
          "name": "newImplementation",
          "type": "address"
        }
      ],
      "name": "upgradeTo",
      "outputs": [],
      "stateMutability": "nonpayable",
      "type": "function"
    },
    {
      "inputs": [
        {
          "internalType": "address",
          "name": "newImplementation",
          "type": "address"
        },
        {
          "internalType": "bytes",
          "name": "data",
          "type": "bytes"
        }
      ],
      "name": "upgradeToAndCall",
      "outputs": [],
      "stateMutability": "payable",
      "type": "function"
    },
    {
      "inputs": [
        {
          "internalType": "address",
          "name": "token_",
          "type": "address"
        }
      ],
      "name": "whitelistToken",
      "outputs": [],
      "stateMutability": "nonpayable",
      "type": "function"
    },
    {
      "inputs": [
        {
          "internalType": "address",
          "name": "",
          "type": "address"
        }
      ],
      "name": "whitelistedTokens",
      "outputs": [
        {
          "internalType": "bool",
          "name": "",
          "type": "bool"
        }
      ],
      "stateMutability": "view",
      "type": "function"
    }
  ],
  "bytecode": "0x60e06040523060601b6080523480156200001857600080fd5b5060405162002968380380620029688339810160408190526200003b9162000164565b600154610100900460ff16620000585760015460ff161562000062565b6200006262000123565b620000ca5760405162461bcd60e51b815260206004820152602e60248201527f496e697469616c697a61626c653a20636f6e747261637420697320616c72656160448201526d191e481a5b9a5d1a585b1a5e995960921b606482015260840160405180910390fd5b600154610100900460ff16158015620000ed576001805461ffff19166101011790555b6001600160601b0319606084811b821660a05283901b1660c05280156200011a576001805461ff00191690555b5050506200019b565b60006200013b306200014160201b620015401760201c565b15905090565b3b151590565b80516001600160a01b03811681146200015f57600080fd5b919050565b6000806040838503121562000177578182fd5b620001828362000147565b9150620001926020840162000147565b90509250929050565b60805160601c60a05160601c60c05160601c61276a620001fe600039600081816102410152611f480152600081816102cb015281816119730152611c3d0152600081816103e50152818161042e015281816105070152610547015261276a6000f3fe6080604052600436106101145760003560e01c80638ce74426116100a0578063e125455911610064578063e12545591461032d578063ebaef4ec1461034d578063f181fb721461037a578063f26369361461039a578063f2fde38b146103ba57600080fd5b80638ce744261461022f5780638da5cb5b1461027b578063b97cfb3d14610299578063c415b95c146102b9578063daf9c210146102ed57600080fd5b80636247f6f2116100e75780636247f6f2146101a5578063715018a6146101c5578063740bd957146101da5780638129fc1c146101fa57806387623bf61461020f57600080fd5b80633659cfe61461011957806341bec8371461013b5780634f1ef286146101725780635dd9abe414610185575b600080fd5b34801561012557600080fd5b506101396101343660046120c9565b6103da565b005b34801561014757600080fd5b5061015b6101563660046121c0565b6104ac565b604051610169929190612528565b60405180910390f35b610139610180366004612101565b6104fc565b34801561019157600080fd5b506101396101a03660046121c0565b6105b6565b3480156101b157600080fd5b506101396101c03660046120c9565b6106c9565b3480156101d157600080fd5b506101396106fc565b3480156101e657600080fd5b506101396101f536600461221e565b610732565b34801561020657600080fd5b50610139610c33565b34801561021b57600080fd5b5061013961022a36600461221e565b610cfb565b34801561023b57600080fd5b506102637f000000000000000000000000000000000000000000000000000000000000000081565b6040516001600160a01b039091168152602001610169565b34801561028757600080fd5b5060ca546001600160a01b0316610263565b3480156102a557600080fd5b506101396102b43660046121c0565b6111a1565b3480156102c557600080fd5b506102637f000000000000000000000000000000000000000000000000000000000000000081565b3480156102f957600080fd5b5061031d6103083660046120c9565b60006020819052908152604090205460ff1681565b6040519015158152602001610169565b34801561033957600080fd5b506101396103483660046120c9565b6112a7565b34801561035957600080fd5b5061036d6103683660046122ad565b6112da565b604051610169919061251a565b34801561038657600080fd5b5061036d6103953660046122ad565b61139f565b3480156103a657600080fd5b5061015b6103b53660046121c0565b611464565b3480156103c657600080fd5b506101396103d53660046120c9565b6114a8565b306001600160a01b037f000000000000000000000000000000000000000000000000000000000000000016141561042c5760405162461bcd60e51b815260040161042390612402565b60405180910390fd5b7f00000000000000000000000000000000000000000000000000000000000000006001600160a01b031661045e611546565b6001600160a01b0316146104845760405162461bcd60e51b81526004016104239061244e565b61048d81611574565b604080516000808252602082019092526104a99183919061159e565b50565b6104b4612094565b600086868686866040516020016104cf95949392919061239f565b6040516020818303038152906040528051906020012090506104f08161139f565b91509550959350505050565b306001600160a01b037f00000000000000000000000000000000000000000000000000000000000000001614156105455760405162461bcd60e51b815260040161042390612402565b7f00000000000000000000000000000000000000000000000000000000000000006001600160a01b0316610577611546565b6001600160a01b03161461059d5760405162461bcd60e51b81526004016104239061244e565b6105a682611574565b6105b28282600161159e565b5050565b6000806105c687878787876104ac565b608082015191935091506001600160a01b0316331461061f5760405162461bcd60e51b815260206004820152601560248201527413db9b1e48189d5e595c8818d85b8818d85b98d95b605a1b6044820152606401610423565b600081815260fd6020908152604080832080546001600160a01b031990811682556001820185905560028201805482169055600382019490945560048101805485169055600501805490931690925581513381526001600160a01b03808b1692820192909252918201889052861660608201527f281f1f5ca7fc0a1512116115d989698208820236a6395666502a472d9cd62980906080015b60405180910390a150505050505050565b60ca546001600160a01b031633146106f35760405162461bcd60e51b81526004016104239061249a565b6104a9816116e9565b60ca546001600160a01b031633146107265760405162461bcd60e51b81526004016104239061249a565b6107306000611735565b565b6002805414156107845760405162461bcd60e51b815260206004820152601f60248201527f5265656e7472616e637947756172643a207265656e7472616e742063616c6c006044820152606401610423565b600280556001600160a01b03841660009081526020819052604090205460ff166107e55760405162461bcd60e51b81526020600482015260126024820152712737b716b0b8383937bb32b2103a37b5b2b760711b6044820152606401610423565b6040516331a9108f60e11b81526004810186905233906001600160a01b03881690636352211e9060240160206040518083038186803b15801561082757600080fd5b505afa15801561083b573d6000803e3d6000fd5b505050506040513d601f19601f8201168201806040525081019061085f91906120e5565b6001600160a01b0316146108ae5760405162461bcd60e51b81526020600482015260166024820152754f6e6c79206f776e65722063616e20617070726f766560501b6044820152606401610423565b600086868686336040516020016108c995949392919061239f565b60408051601f19818403018152919052805160209091012090506001600160a01b03821615610b09576000878787878660405160200161090d95949392919061239f565b60408051601f198184030181529181528151602092830120600081815260fd90935291206003015490915015610b0757600081815260fd6020908152604091829020825160c08101845281546001600160a01b039081168252600183015493820193909352600282015483169381019390935260038101546060840181905260048201548316608085015260059091015490911660a08301528611610b05576109b7818688611787565b15610ab957600082815260fd6020908152604080832080546001600160a01b031990811682556001820185905560028201805482169055600382018590556004820180548216905560059091018054909116905585835260fc9091529020546001600160a01b031615610a7057600083815260fc6020526040812080546001600160a01b031990811682556001820183905560028201805482169055600382019290925560048101805483169055600501805490911690555b7f3959dfa16ba45a84bd4fe6edc9e37e2773163d9d059d2def9c7b4a90debbe00a33858b8b8b8b604051610aa996959493929190612340565b60405180910390a1505050610c26565b600083815260fd6020526040812080546001600160a01b031990811682556001820183905560028201805482169055600382019290925560048101805483169055600501805490911690555b505b505b6040805160c0810182526001600160a01b03808a16825260208083018a8152898316848601908152606085018a815233608087018181528b871660a0890190815260008b815260fc90975295899020975188549088166001600160a01b031991821617895594516001890155925160028801805491881691861691909117905590516003870155905160048601805491861691841691909117905591516005909401805494909316931692909217905590517fc106739850356f0802df58fdc2fefe13951872fe411f844ca520b1311780f4c091610c1c918a908a908a908a906001600160a01b039586168152938516602085015260408401929092529092166060820152608081019190915260a00190565b60405180910390a1505b5050600160025550505050565b600154610100900460ff16610c4e5760015460ff1615610c52565b303b155b610cb55760405162461bcd60e51b815260206004820152602e60248201527f496e697469616c697a61626c653a20636f6e747261637420697320616c72656160448201526d191e481a5b9a5d1a585b1a5e995960921b6064820152608401610423565b600154610100900460ff16158015610cd7576001805461ffff19166101011790555b610cdf611a5f565b610ce7611a96565b80156104a9576001805461ff001916905550565b600280541415610d4d5760405162461bcd60e51b815260206004820152601f60248201527f5265656e7472616e637947756172643a207265656e7472616e742063616c6c006044820152606401610423565b600280556001600160a01b03841660009081526020819052604090205460ff16610dae5760405162461bcd60e51b81526020600482015260126024820152712737b716b0b8383937bb32b2103a37b5b2b760711b6044820152606401610423565b6040516370a0823160e01b815233600482015283906001600160a01b038616906370a082319060240160206040518083038186803b158015610def57600080fd5b505afa158015610e03573d6000803e3d6000fd5b505050506040513d601f19601f82011682018060405250810190610e2791906122c5565b1015610e6a5760405162461bcd60e51b81526020600482015260126024820152714e6f7420656e6f7567682062616c616e636560701b6044820152606401610423565b60008686868633604051602001610e8595949392919061239f565b60405160208183030381529060405280519060200120905060008411610ee05760405162461bcd60e51b815260206004820152601060248201526f050726963652063616e277420626520360841b6044820152606401610423565b6001600160a01b0382161561108e5760008787878786604051602001610f0a95949392919061239f565b60408051601f198184030181529181528151602092830120600081815260fc9093529120600301549091501561108c57600081815260fc6020908152604091829020825160c08101845281546001600160a01b039081168252600183015493820193909352600282015483169381019390935260038101546060840181905260048201548316608085015260059091015490911660a0830152861061108a57610fb4818688611acd565b1561103e57600082815260fc602052604080822080546001600160a01b0319908116825560018201849055600282018054821690556003820193909355600481018054841690556005018054909216909155517fee02277bfba3b2d67692c79305782c19b5c743868ba23b21788b88941e047ba490610aa990339087908d908d908d908d90612340565b600082815260fc6020526040812080546001600160a01b031990811682556001820183905560028201805482169055600382019290925560048101805483169055600501805490911690555b505b505b6040805160c0810182526001600160a01b03808a16825260208083018a8152898316848601908152606085018a815233608087018181528b871660a0890190815260008b815260fd90975295899020975188549088166001600160a01b031991821617895594516001890155925160028801805491881691861691909117905590516003870155905160048601805491861691841691909117905591516005909401805494909316931692909217905590517fd83853056ab34d6b9b36a5296dbc6895dde2079b27f42bd542c3f4aae64b4e5691610c1c918a908a908a908a906001600160a01b039586168152938516602085015260408401929092529092166060820152608081019190915260a00190565b6000806111b18787878787611464565b608082015191935091506001600160a01b0316331461120a5760405162461bcd60e51b815260206004820152601560248201527413db9b1e481bdddb995c8818d85b8818d85b98d95b605a1b6044820152606401610423565b600081815260fc6020908152604080832080546001600160a01b031990811682556001820185905560028201805482169055600382019490945560048101805485169055600501805490931690925581513381526001600160a01b03808b1692820192909252918201889052861660608201527ffb6e65910f0811fe7aff693844640571ca7e71936c1adf8203f8c14a9d7a1c3c906080016106b8565b60ca546001600160a01b031633146112d15760405162461bcd60e51b81526004016104239061249a565b6104a981611d28565b6112e2612094565b600082815260fc60205260409020600301546113385760405162461bcd60e51b8152602060048201526015602482015274139bdb8b595e1a5cdd195b9d081c1c9bdc1bdcd85b605a1b6044820152606401610423565b50600090815260fc6020908152604091829020825160c08101845281546001600160a01b039081168252600183015493820193909352600282015483169381019390935260038101546060840152600481015482166080840152600501541660a082015290565b6113a7612094565b600082815260fd60205260409020600301546113fd5760405162461bcd60e51b8152602060048201526015602482015274139bdb8b595e1a5cdd195b9d081c1c9bdc1bdcd85b605a1b6044820152606401610423565b50600090815260fd6020908152604091829020825160c08101845281546001600160a01b039081168252600183015493820193909352600282015483169381019390935260038101546060840152600481015482166080840152600501541660a082015290565b61146c612094565b6000868686868660405160200161148795949392919061239f565b6040516020818303038152906040528051906020012090506104f0816112da565b60ca546001600160a01b031633146114d25760405162461bcd60e51b81526004016104239061249a565b6001600160a01b0381166115375760405162461bcd60e51b815260206004820152602660248201527f4f776e61626c653a206e6577206f776e657220697320746865207a65726f206160448201526564647265737360d01b6064820152608401610423565b6104a981611735565b3b151590565b7f360894a13ba1a3210667c828492db98dca3e2076cc3735a920a3ca505d382bbc546001600160a01b031690565b60ca546001600160a01b031633146104a95760405162461bcd60e51b81526004016104239061249a565b60006115a8611546565b90506115b384611d71565b6000835111806115c05750815b156115d1576115cf8484611e16565b505b7f4910fdfa16fed3260ed0e7147f7cc6da11a60208b5b9406d12a635614ffd9143805460ff166116e257805460ff191660011781556040516001600160a01b038316602482015261165090869060440160408051601f198184030181529190526020810180516001600160e01b0316631b2ce7f360e11b179052611e16565b50805460ff19168155611661611546565b6001600160a01b0316826001600160a01b0316146116d95760405162461bcd60e51b815260206004820152602f60248201527f45524331393637557067726164653a207570677261646520627265616b73206660448201526e75727468657220757067726164657360881b6064820152608401610423565b6116e285611f03565b5050505050565b6001600160a01b038116600081815260208190526040808220805460ff19166001179055517feb73900b98b6a3e2b8b01708fe544760cf570d21e7fbe5225f24e48b5b2b432e9190a250565b60ca80546001600160a01b038381166001600160a01b0319831681179093556040519116919082907f8be0079c531659141344cd1fd0a4f28419497f9722a3daafe3b4186f6b6457e090600090a35050565b60008061179383611f43565b60408087015160808801519151636eb1769f60e11b81526001600160a01b03928316600482015230602482015292935060009291169063dd62ed3e9060440160206040518083038186803b1580156117ea57600080fd5b505afa1580156117fe573d6000803e3d6000fd5b505050506040513d601f19601f8201168201806040525081019061182291906122c5565b905061182e8285612543565b81101561184057600092505050611a58565b85604001516001600160a01b03166323b872dd87608001518785886118659190612685565b6040518463ffffffff1660e01b81526004016118839392919061237b565b602060405180830381600087803b15801561189d57600080fd5b505af19250505080156118cd575060408051601f3d908101601f191682019092526118ca9181019061228d565b60015b6118dc57600092505050611a58565b806118ed5760009350505050611a58565b50855160a087015160208801516040516323b872dd60e01b81526001600160a01b03909316926323b872dd9261192792339260040161237b565b600060405180830381600087803b15801561194157600080fd5b505af1158015611955573d6000803e3d6000fd5b5050505085604001516001600160a01b03166323b872dd87608001517f000000000000000000000000000000000000000000000000000000000000000085600261199f9190612666565b6040518463ffffffff1660e01b81526004016119bd9392919061237b565b602060405180830381600087803b1580156119d757600080fd5b505af11580156119eb573d6000803e3d6000fd5b505050506040513d601f19601f82011682018060405250810190611a0f919061228d565b611a515760405162461bcd60e51b81526020600482015260136024820152724661696c20746f20706179207468652066656560681b6044820152606401610423565b6001925050505b9392505050565b600154610100900460ff16611a865760405162461bcd60e51b8152600401610423906124cf565b611a8e612004565b61073061202b565b600154610100900460ff16611abd5760405162461bcd60e51b8152600401610423906124cf565b611ac5612004565b610730612004565b8251608084015160208501516040516323b872dd60e01b81526000936001600160a01b0316926323b872dd92611b089288919060040161237b565b600060405180830381600087803b158015611b2257600080fd5b505af1925050508015611b33575060015b611b3f57506000611a58565b6000611b4a83611f43565b905084604001516001600160a01b03166323b872dd338760a001518487611b719190612685565b6040518463ffffffff1660e01b8152600401611b8f9392919061237b565b602060405180830381600087803b158015611ba957600080fd5b505af1158015611bbd573d6000803e3d6000fd5b505050506040513d601f19601f82011682018060405250810190611be1919061228d565b611c275760405162461bcd60e51b815260206004820152601760248201527611985a5b081d1bc81d1c985b9cd9995c88185b5bdd5b9d604a1b6044820152606401610423565b60408501516001600160a01b03166323b872dd337f0000000000000000000000000000000000000000000000000000000000000000611c67856002612666565b6040518463ffffffff1660e01b8152600401611c859392919061237b565b602060405180830381600087803b158015611c9f57600080fd5b505af1158015611cb3573d6000803e3d6000fd5b505050506040513d601f19601f82011682018060405250810190611cd7919061228d565b611d1d5760405162461bcd60e51b815260206004820152601760248201527611985a5b081d1bc81d1c985b9cd9995c88185b5bdd5b9d604a1b6044820152606401610423565b505060019392505050565b6001600160a01b038116600081815260208190526040808220805460ff19169055517f7811ed4e4b787e4f0f046ffb4a5ec1e064b0eb6d191ffabb66270ed8be89b3259190a250565b803b611dd55760405162461bcd60e51b815260206004820152602d60248201527f455243313936373a206e657720696d706c656d656e746174696f6e206973206e60448201526c1bdd08184818dbdb9d1c9858dd609a1b6064820152608401610423565b7f360894a13ba1a3210667c828492db98dca3e2076cc3735a920a3ca505d382bbc80546001600160a01b0319166001600160a01b0392909216919091179055565b6060823b611e755760405162461bcd60e51b815260206004820152602660248201527f416464726573733a2064656c65676174652063616c6c20746f206e6f6e2d636f6044820152651b9d1c9858dd60d21b6064820152608401610423565b600080846001600160a01b031684604051611e909190612324565b600060405180830381855af49150503d8060008114611ecb576040519150601f19603f3d011682016040523d82523d6000602084013e611ed0565b606091505b5091509150611ef8828260405180606001604052806027815260200161270e6027913961205b565b925050505b92915050565b611f0c81611d71565b6040516001600160a01b038216907fbc7cd75a20ee27fd9adebab32041f755214dbc6bffa90cc0225b39da2e5c2d3b90600090a250565b6000807f00000000000000000000000000000000000000000000000000000000000000006001600160a01b031663b0e21e8a6040518163ffffffff1660e01b815260040160206040518083038186803b158015611f9f57600080fd5b505afa158015611fb3573d6000803e3d6000fd5b505050506040513d601f19601f82011682018060405250810190611fd791906122c5565b9050611fe56002600a6125be565b611ff0906064612666565b611ffa8285612666565b611a58919061255b565b600154610100900460ff166107305760405162461bcd60e51b8152600401610423906124cf565b600154610100900460ff166120525760405162461bcd60e51b8152600401610423906124cf565b61073033611735565b6060831561206a575081611a58565b82511561207a5782518084602001fd5b8160405162461bcd60e51b815260040161042391906123cf565b6040805160c081018252600080825260208201819052918101829052606081018290526080810182905260a081019190915290565b6000602082840312156120da578081fd5b8135611a58816126f8565b6000602082840312156120f6578081fd5b8151611a58816126f8565b60008060408385031215612113578081fd5b823561211e816126f8565b9150602083013567ffffffffffffffff8082111561213a578283fd5b818501915085601f83011261214d578283fd5b81358181111561215f5761215f6126e2565b604051601f8201601f19908116603f01168101908382118183101715612187576121876126e2565b8160405282815288602084870101111561219f578586fd5b82602086016020830137856020848301015280955050505050509250929050565b600080600080600060a086880312156121d7578081fd5b85356121e2816126f8565b94506020860135935060408601356121f9816126f8565b9250606086013591506080860135612210816126f8565b809150509295509295909350565b60008060008060008060c08789031215612236578081fd5b8635612241816126f8565b9550602087013594506040870135612258816126f8565b935060608701359250608087013561226f816126f8565b915060a087013561227f816126f8565b809150509295509295509295565b60006020828403121561229e578081fd5b81518015158114611a58578182fd5b6000602082840312156122be578081fd5b5035919050565b6000602082840312156122d6578081fd5b5051919050565b80516001600160a01b039081168352602080830151908401526040808301518216908401526060808301519084015260808083015182169084015260a09182015116910152565b6000825161233681846020870161269c565b9190910192915050565b6001600160a01b039687168152948616602086015292851660408501526060840191909152909216608082015260a081019190915260c00190565b6001600160a01b039384168152919092166020820152604081019190915260600190565b6001600160a01b039586168152602081019490945291841660408401526060830152909116608082015260a00190565b60208152600082518060208401526123ee81604085016020870161269c565b601f01601f19169190910160400192915050565b6020808252602c908201527f46756e6374696f6e206d7573742062652063616c6c6564207468726f7567682060408201526b19195b1959d85d1958d85b1b60a21b606082015260800190565b6020808252602c908201527f46756e6374696f6e206d7573742062652063616c6c6564207468726f7567682060408201526b6163746976652070726f787960a01b606082015260800190565b6020808252818101527f4f776e61626c653a2063616c6c6572206973206e6f7420746865206f776e6572604082015260600190565b6020808252602b908201527f496e697469616c697a61626c653a20636f6e7472616374206973206e6f74206960408201526a6e697469616c697a696e6760a81b606082015260800190565b60c08101611efd82846122dd565b60e0810161253682856122dd565b8260c08301529392505050565b60008219821115612556576125566126cc565b500190565b60008261257657634e487b7160e01b81526012600452602481fd5b500490565b600181815b808511156125b657816000190482111561259c5761259c6126cc565b808516156125a957918102915b93841c9390800290612580565b509250929050565b6000611a5883836000826125d457506001611efd565b816125e157506000611efd565b81600181146125f757600281146126015761261d565b6001915050611efd565b60ff841115612612576126126126cc565b50506001821b611efd565b5060208310610133831016604e8410600b8410161715612640575081810a611efd565b61264a838361257b565b806000190482111561265e5761265e6126cc565b029392505050565b6000816000190483118215151615612680576126806126cc565b500290565b600082821015612697576126976126cc565b500390565b60005b838110156126b757818101518382015260200161269f565b838111156126c6576000848401525b50505050565b634e487b7160e01b600052601160045260246000fd5b634e487b7160e01b600052604160045260246000fd5b6001600160a01b03811681146104a957600080fdfe416464726573733a206c6f772d6c6576656c2064656c65676174652063616c6c206661696c6564a2646970667358221220b8e594c68724e970c6a2f80859b5c789e86d6328cdb63036e752259b360aeaca64736f6c63430008040033",
  "linkReferences": {},
  "deployedLinkReferences": {}
}