{
  "_format": "hh-sol-artifact-1",
  "contractName": "OpenSalesManager",
  "sourceName": "contracts/OpenSalesManager.sol",
  "abi": [
    {
      "inputs": [],
      "stateMutability": "nonpayable",
      "type": "constructor"
    },
    {
      "anonymous": false,
      "inputs": [
        {
          "indexed": false,
          "internalType": "address",
          "name": "previousAdmin",
          "type": "address"
        },
        {
          "indexed": false,
          "internalType": "address",
          "name": "newAdmin",
          "type": "address"
        }
      ],
      "name": "AdminChanged",
      "type": "event"
    },
    {
      "anonymous": false,
      "inputs": [
        {
          "indexed": true,
          "internalType": "address",
          "name": "beacon",
          "type": "address"
        }
      ],
      "name": "BeaconUpgraded",
      "type": "event"
    },
    {
      "anonymous": false,
      "inputs": [
        {
          "indexed": true,
          "internalType": "address",
          "name": "token",
          "type": "address"
        }
      ],
      "name": "Blacklist",
      "type": "event"
    },
    {
      "anonymous": false,
      "inputs": [
        {
          "indexed": true,
          "internalType": "address",
          "name": "previousOwner",
          "type": "address"
        },
        {
          "indexed": true,
          "internalType": "address",
          "name": "newOwner",
          "type": "address"
        }
      ],
      "name": "OwnershipTransferred",
      "type": "event"
    },
    {
      "anonymous": false,
      "inputs": [
        {
          "indexed": false,
          "internalType": "address",
          "name": "collection",
          "type": "address"
        },
        {
          "indexed": false,
          "internalType": "uint256",
          "name": "tokenId",
          "type": "uint256"
        },
        {
          "indexed": false,
          "internalType": "address",
          "name": "paymentToken",
          "type": "address"
        }
      ],
      "name": "PurchaseCanceled",
      "type": "event"
    },
    {
      "anonymous": false,
      "inputs": [
        {
          "indexed": false,
          "internalType": "address",
          "name": "collection",
          "type": "address"
        },
        {
          "indexed": false,
          "internalType": "uint256",
          "name": "tokenId",
          "type": "uint256"
        },
        {
          "indexed": false,
          "internalType": "address",
          "name": "paymentToken",
          "type": "address"
        },
        {
          "indexed": false,
          "internalType": "uint256",
          "name": "price",
          "type": "uint256"
        }
      ],
      "name": "PurchaseCompleted",
      "type": "event"
    },
    {
      "anonymous": false,
      "inputs": [
        {
          "indexed": false,
          "internalType": "address",
          "name": "collection",
          "type": "address"
        },
        {
          "indexed": false,
          "internalType": "uint256",
          "name": "tokenId",
          "type": "uint256"
        },
        {
          "indexed": false,
          "internalType": "address",
          "name": "paymentToken",
          "type": "address"
        },
        {
          "indexed": false,
          "internalType": "uint256",
          "name": "price",
          "type": "uint256"
        }
      ],
      "name": "PurchaseProposed",
      "type": "event"
    },
    {
      "anonymous": false,
      "inputs": [
        {
          "indexed": false,
          "internalType": "address",
          "name": "collection",
          "type": "address"
        },
        {
          "indexed": false,
          "internalType": "uint256",
          "name": "tokenId",
          "type": "uint256"
        },
        {
          "indexed": false,
          "internalType": "address",
          "name": "paymentToken",
          "type": "address"
        }
      ],
      "name": "SaleCanceled",
      "type": "event"
    },
    {
      "anonymous": false,
      "inputs": [
        {
          "indexed": false,
          "internalType": "address",
          "name": "collection",
          "type": "address"
        },
        {
          "indexed": false,
          "internalType": "uint256",
          "name": "tokenId",
          "type": "uint256"
        },
        {
          "indexed": false,
          "internalType": "address",
          "name": "paymentToken",
          "type": "address"
        },
        {
          "indexed": false,
          "internalType": "uint256",
          "name": "price",
          "type": "uint256"
        }
      ],
      "name": "SaleCompleted",
      "type": "event"
    },
    {
      "anonymous": false,
      "inputs": [
        {
          "indexed": false,
          "internalType": "address",
          "name": "collection",
          "type": "address"
        },
        {
          "indexed": false,
          "internalType": "uint256",
          "name": "tokenId",
          "type": "uint256"
        },
        {
          "indexed": false,
          "internalType": "address",
          "name": "paymentToken",
          "type": "address"
        },
        {
          "indexed": false,
          "internalType": "uint256",
          "name": "price",
          "type": "uint256"
        }
      ],
      "name": "SaleProposed",
      "type": "event"
    },
    {
      "anonymous": false,
      "inputs": [
        {
          "indexed": true,
          "internalType": "address",
          "name": "implementation",
          "type": "address"
        }
      ],
      "name": "Upgraded",
      "type": "event"
    },
    {
      "anonymous": false,
      "inputs": [
        {
          "indexed": true,
          "internalType": "address",
          "name": "token",
          "type": "address"
        }
      ],
      "name": "Whitelist",
      "type": "event"
    },
    {
      "inputs": [
        {
          "internalType": "address",
          "name": "collection_",
          "type": "address"
        },
        {
          "internalType": "uint256",
          "name": "tokenId_",
          "type": "uint256"
        },
        {
          "internalType": "address",
          "name": "paymentToken_",
          "type": "address"
        },
        {
          "internalType": "uint256",
          "name": "price_",
          "type": "uint256"
        },
        {
          "internalType": "address",
          "name": "beneficiary_",
          "type": "address"
        },
        {
          "internalType": "address",
          "name": "sellerToMatch_",
          "type": "address"
        }
      ],
      "name": "approvePurchase",
      "outputs": [],
      "stateMutability": "nonpayable",
      "type": "function"
    },
    {
      "inputs": [
        {
          "internalType": "address",
          "name": "collection_",
          "type": "address"
        },
        {
          "internalType": "uint256",
          "name": "tokenId_",
          "type": "uint256"
        },
        {
          "internalType": "address",
          "name": "paymentToken_",
          "type": "address"
        },
        {
          "internalType": "uint256",
          "name": "price_",
          "type": "uint256"
        },
        {
          "internalType": "address",
          "name": "beneficiary_",
          "type": "address"
        },
        {
          "internalType": "address",
          "name": "buyerToMatch_",
          "type": "address"
        }
      ],
      "name": "approveSale",
      "outputs": [],
      "stateMutability": "nonpayable",
      "type": "function"
    },
    {
      "inputs": [
        {
          "internalType": "address",
          "name": "token_",
          "type": "address"
        }
      ],
      "name": "blacklistToken",
      "outputs": [],
      "stateMutability": "nonpayable",
      "type": "function"
    },
    {
      "inputs": [
        {
          "internalType": "address",
          "name": "collection_",
          "type": "address"
        },
        {
          "internalType": "uint256",
          "name": "tokenId_",
          "type": "uint256"
        },
        {
          "internalType": "address",
          "name": "paymentToken_",
          "type": "address"
        },
        {
          "internalType": "uint256",
          "name": "price_",
          "type": "uint256"
        },
        {
          "internalType": "address",
          "name": "buyer_",
          "type": "address"
        }
      ],
      "name": "cancelPurchaseProposal",
      "outputs": [],
      "stateMutability": "nonpayable",
      "type": "function"
    },
    {
      "inputs": [
        {
          "internalType": "address",
          "name": "collection_",
          "type": "address"
        },
        {
          "internalType": "uint256",
          "name": "tokenId_",
          "type": "uint256"
        },
        {
          "internalType": "address",
          "name": "paymentToken_",
          "type": "address"
        },
        {
          "internalType": "uint256",
          "name": "price_",
          "type": "uint256"
        },
        {
          "internalType": "address",
          "name": "owner_",
          "type": "address"
        }
      ],
      "name": "cancelSaleProposal",
      "outputs": [],
      "stateMutability": "nonpayable",
      "type": "function"
    },
    {
      "inputs": [
        {
          "internalType": "address",
          "name": "collection_",
          "type": "address"
        },
        {
          "internalType": "uint256",
          "name": "tokenId_",
          "type": "uint256"
        },
        {
          "internalType": "address",
          "name": "paymentToken_",
          "type": "address"
        },
        {
          "internalType": "uint256",
          "name": "price_",
          "type": "uint256"
        },
        {
          "internalType": "address",
          "name": "buyer_",
          "type": "address"
        }
      ],
      "name": "getOpenPurchaseProposal",
      "outputs": [
        {
          "components": [
            {
              "internalType": "address",
              "name": "collection",
              "type": "address"
            },
            {
              "internalType": "uint256",
              "name": "tokenId",
              "type": "uint256"
            },
            {
              "internalType": "address",
              "name": "paymentToken",
              "type": "address"
            },
            {
              "internalType": "uint256",
              "name": "price",
              "type": "uint256"
            },
            {
              "internalType": "address",
              "name": "buyer",
              "type": "address"
            },
            {
              "internalType": "address",
              "name": "beneficiary",
              "type": "address"
            }
          ],
          "internalType": "struct OpenPurchaseProposal",
          "name": "proposal",
          "type": "tuple"
        },
        {
          "internalType": "bytes32",
          "name": "id",
          "type": "bytes32"
        }
      ],
      "stateMutability": "view",
      "type": "function"
    },
    {
      "inputs": [
        {
          "internalType": "bytes32",
          "name": "id_",
          "type": "bytes32"
        }
      ],
      "name": "getOpenPurchaseProposalById",
      "outputs": [
        {
          "components": [
            {
              "internalType": "address",
              "name": "collection",
              "type": "address"
            },
            {
              "internalType": "uint256",
              "name": "tokenId",
              "type": "uint256"
            },
            {
              "internalType": "address",
              "name": "paymentToken",
              "type": "address"
            },
            {
              "internalType": "uint256",
              "name": "price",
              "type": "uint256"
            },
            {
              "internalType": "address",
              "name": "buyer",
              "type": "address"
            },
            {
              "internalType": "address",
              "name": "beneficiary",
              "type": "address"
            }
          ],
          "internalType": "struct OpenPurchaseProposal",
          "name": "proposal",
          "type": "tuple"
        }
      ],
      "stateMutability": "view",
      "type": "function"
    },
    {
      "inputs": [
        {
          "internalType": "address",
          "name": "collection_",
          "type": "address"
        },
        {
          "internalType": "uint256",
          "name": "tokenId_",
          "type": "uint256"
        },
        {
          "internalType": "address",
          "name": "paymentToken_",
          "type": "address"
        },
        {
          "internalType": "uint256",
          "name": "price_",
          "type": "uint256"
        },
        {
          "internalType": "address",
          "name": "owner_",
          "type": "address"
        }
      ],
      "name": "getOpenSaleProposal",
      "outputs": [
        {
          "components": [
            {
              "internalType": "address",
              "name": "collection",
              "type": "address"
            },
            {
              "internalType": "uint256",
              "name": "tokenId",
              "type": "uint256"
            },
            {
              "internalType": "address",
              "name": "paymentToken",
              "type": "address"
            },
            {
              "internalType": "uint256",
              "name": "price",
              "type": "uint256"
            },
            {
              "internalType": "address",
              "name": "owner",
              "type": "address"
            },
            {
              "internalType": "address",
              "name": "beneficiary",
              "type": "address"
            }
          ],
          "internalType": "struct OpenSaleProposal",
          "name": "proposal",
          "type": "tuple"
        },
        {
          "internalType": "bytes32",
          "name": "id",
          "type": "bytes32"
        }
      ],
      "stateMutability": "view",
      "type": "function"
    },
    {
      "inputs": [
        {
          "internalType": "bytes32",
          "name": "id_",
          "type": "bytes32"
        }
      ],
      "name": "getOpenSaleProposalById",
      "outputs": [
        {
          "components": [
            {
              "internalType": "address",
              "name": "collection",
              "type": "address"
            },
            {
              "internalType": "uint256",
              "name": "tokenId",
              "type": "uint256"
            },
            {
              "internalType": "address",
              "name": "paymentToken",
              "type": "address"
            },
            {
              "internalType": "uint256",
              "name": "price",
              "type": "uint256"
            },
            {
              "internalType": "address",
              "name": "owner",
              "type": "address"
            },
            {
              "internalType": "address",
              "name": "beneficiary",
              "type": "address"
            }
          ],
          "internalType": "struct OpenSaleProposal",
          "name": "proposal",
          "type": "tuple"
        }
      ],
      "stateMutability": "view",
      "type": "function"
    },
    {
      "inputs": [],
      "name": "initialize",
      "outputs": [],
      "stateMutability": "nonpayable",
      "type": "function"
    },
    {
      "inputs": [],
      "name": "owner",
      "outputs": [
        {
          "internalType": "address",
          "name": "",
          "type": "address"
        }
      ],
      "stateMutability": "view",
      "type": "function"
    },
    {
      "inputs": [],
      "name": "renounceOwnership",
      "outputs": [],
      "stateMutability": "nonpayable",
      "type": "function"
    },
    {
      "inputs": [
        {
          "internalType": "address",
          "name": "newOwner",
          "type": "address"
        }
      ],
      "name": "transferOwnership",
      "outputs": [],
      "stateMutability": "nonpayable",
      "type": "function"
    },
    {
      "inputs": [
        {
          "internalType": "address",
          "name": "newImplementation",
          "type": "address"
        }
      ],
      "name": "upgradeTo",
      "outputs": [],
      "stateMutability": "nonpayable",
      "type": "function"
    },
    {
      "inputs": [
        {
          "internalType": "address",
          "name": "newImplementation",
          "type": "address"
        },
        {
          "internalType": "bytes",
          "name": "data",
          "type": "bytes"
        }
      ],
      "name": "upgradeToAndCall",
      "outputs": [],
      "stateMutability": "payable",
      "type": "function"
    },
    {
      "inputs": [
        {
          "internalType": "address",
          "name": "token_",
          "type": "address"
        }
      ],
      "name": "whitelistToken",
      "outputs": [],
      "stateMutability": "nonpayable",
      "type": "function"
    },
    {
      "inputs": [
        {
          "internalType": "address",
          "name": "",
          "type": "address"
        }
      ],
      "name": "whitelistedTokens",
      "outputs": [
        {
          "internalType": "bool",
          "name": "",
          "type": "bool"
        }
      ],
      "stateMutability": "view",
      "type": "function"
    }
  ],
  "bytecode": "0x60a06040523060601b6080523480156200001857600080fd5b50600154610100900460ff16620000365760015460ff161562000040565b62000040620000e5565b620000a85760405162461bcd60e51b815260206004820152602e60248201527f496e697469616c697a61626c653a20636f6e747261637420697320616c72656160448201526d191e481a5b9a5d1a585b1a5e995960921b606482015260840160405180910390fd5b600154610100900460ff16158015620000cb576001805461ffff19166101011790555b8015620000de576001805461ff00191690555b5062000109565b6000620000fd306200010360201b620014401760201c565b15905090565b3b151590565b60805160601c6121526200013d60003960008181610359015281816103a20152818161047b01526104bb01526121526000f3fe6080604052600436106100fe5760003560e01c806387623bf611610095578063e125455911610064578063e1254559146102a1578063ebaef4ec146102c1578063f181fb72146102ee578063f26369361461030e578063f2fde38b1461032e57600080fd5b806387623bf6146101f95780638da5cb5b14610219578063b97cfb3d14610241578063daf9c2101461026157600080fd5b80636247f6f2116100d15780636247f6f21461018f578063715018a6146101af578063740bd957146101c45780638129fc1c146101e457600080fd5b80633659cfe61461010357806341bec837146101255780634f1ef2861461015c5780635dd9abe41461016f575b600080fd5b34801561010f57600080fd5b5061012361011e366004611c31565b61034e565b005b34801561013157600080fd5b50610145610140366004611d28565b610420565b60405161015392919061207f565b60405180910390f35b61012361016a366004611c69565b610470565b34801561017b57600080fd5b5061012361018a366004611d28565b61052a565b34801561019b57600080fd5b506101236101aa366004611c31565b610638565b3480156101bb57600080fd5b5061012361066b565b3480156101d057600080fd5b506101236101df366004611d86565b6106a1565b3480156101f057600080fd5b50610123610b6d565b34801561020557600080fd5b50610123610214366004611d86565b610c35565b34801561022557600080fd5b5060ca546040516001600160a01b039091168152602001610153565b34801561024d57600080fd5b5061012361025c366004611d28565b6110a6565b34801561026d57600080fd5b5061029161027c366004611c31565b60006020819052908152604090205460ff1681565b6040519015158152602001610153565b3480156102ad57600080fd5b506101236102bc366004611c31565b6111a7565b3480156102cd57600080fd5b506102e16102dc366004611e15565b6111da565b6040516101539190612071565b3480156102fa57600080fd5b506102e1610309366004611e15565b61129f565b34801561031a57600080fd5b50610145610329366004611d28565b611364565b34801561033a57600080fd5b50610123610349366004611c31565b6113a8565b306001600160a01b037f00000000000000000000000000000000000000000000000000000000000000001614156103a05760405162461bcd60e51b815260040161039790611f59565b60405180910390fd5b7f00000000000000000000000000000000000000000000000000000000000000006001600160a01b03166103d2611446565b6001600160a01b0316146103f85760405162461bcd60e51b815260040161039790611fa5565b61040181611474565b6040805160008082526020820190925261041d9183919061149e565b50565b610428611bfc565b60008686868686604051602001610443959493929190611ef6565b6040516020818303038152906040528051906020012090506104648161129f565b91509550959350505050565b306001600160a01b037f00000000000000000000000000000000000000000000000000000000000000001614156104b95760405162461bcd60e51b815260040161039790611f59565b7f00000000000000000000000000000000000000000000000000000000000000006001600160a01b03166104eb611446565b6001600160a01b0316146105115760405162461bcd60e51b815260040161039790611fa5565b61051a82611474565b6105268282600161149e565b5050565b60008061053a8787878787610420565b608082015191935091506001600160a01b031633146105935760405162461bcd60e51b815260206004820152601560248201527413db9b1e48189d5e595c8818d85b8818d85b98d95b605a1b6044820152606401610397565b600081815260fd6020908152604080832080546001600160a01b031990811682556001820185905560028201805482169055600382019490945560048101805485169055600501805490931690925581516001600160a01b03808b168252918101899052908716918101919091527fc61812f3d8ca029ae8b23d54585f48386b2faa731c4d0f8a7fc63fa2a3e6dbd2906060015b60405180910390a150505050505050565b60ca546001600160a01b031633146106625760405162461bcd60e51b815260040161039790611ff1565b61041d816115e9565b60ca546001600160a01b031633146106955760405162461bcd60e51b815260040161039790611ff1565b61069f6000611635565b565b6002805414156106f35760405162461bcd60e51b815260206004820152601f60248201527f5265656e7472616e637947756172643a207265656e7472616e742063616c6c006044820152606401610397565b600280556001600160a01b03841660009081526020819052604090205460ff166107545760405162461bcd60e51b81526020600482015260126024820152712737b716b0b8383937bb32b2103a37b5b2b760711b6044820152606401610397565b6040516331a9108f60e11b81526004810186905233906001600160a01b03881690636352211e9060240160206040518083038186803b15801561079657600080fd5b505afa1580156107aa573d6000803e3d6000fd5b505050506040513d601f19601f820116820180604052508101906107ce9190611c4d565b6001600160a01b03161461081d5760405162461bcd60e51b81526020600482015260166024820152754f6e6c79206f776e65722063616e20617070726f766560501b6044820152606401610397565b60008686868633604051602001610838959493929190611ef6565b60408051601f19818403018152919052805160209091012090506001600160a01b03821615610a74576000878787878660405160200161087c959493929190611ef6565b60408051601f198184030181529181528151602092830120600081815260fd90935291206003015490915015610a7257600081815260fd6020908152604091829020825160c08101845281546001600160a01b039081168252600183015493820193909352600282015483169381019390935260038101546060840181905260048201548316608085015260059091015490911660a08301528611610a7057610926818688611687565b15610a2457600082815260fd6020908152604080832080546001600160a01b031990811682556001820185905560028201805482169055600382018590556004820180548216905560059091018054909116905585835260fc9091529020546001600160a01b0316156109df57600083815260fc6020526040812080546001600160a01b031990811682556001820183905560028201805482169055600382019290925560048101805483169055600501805490911690555b7fae4950ba145302e21d93b168ced1b5d6a0c62fea92ac229e1a2343e512fd66d889898989604051610a149493929190611ecc565b60405180910390a1505050610b60565b600083815260fd6020526040812080546001600160a01b031990811682556001820183905560028201805482169055600382019290925560048101805483169055600501805490911690555b505b505b6040805160c0810182526001600160a01b03808a16825260208083018a8152898316848601908152606085018a815233608087019081528a861660a0880190815260008a815260fc90965294889020965187549087166001600160a01b031991821617885593516001880155915160028701805491871691851691909117905551600386015551600485018054918516918316919091179055905160059093018054939092169216919091179055517f95d0b2ea9cbe18f5c78256a63f743490f16a0db7b52baa86f92a91b01eaa451790610b56908990899089908990611ecc565b60405180910390a1505b5050600160025550505050565b600154610100900460ff16610b885760015460ff1615610b8c565b303b155b610bef5760405162461bcd60e51b815260206004820152602e60248201527f496e697469616c697a61626c653a20636f6e747261637420697320616c72656160448201526d191e481a5b9a5d1a585b1a5e995960921b6064820152608401610397565b600154610100900460ff16158015610c11576001805461ffff19166101011790555b610c1961179e565b610c216117d5565b801561041d576001805461ff001916905550565b600280541415610c875760405162461bcd60e51b815260206004820152601f60248201527f5265656e7472616e637947756172643a207265656e7472616e742063616c6c006044820152606401610397565b600280556001600160a01b03841660009081526020819052604090205460ff16610ce85760405162461bcd60e51b81526020600482015260126024820152712737b716b0b8383937bb32b2103a37b5b2b760711b6044820152606401610397565b6040516370a0823160e01b815233600482015283906001600160a01b038616906370a082319060240160206040518083038186803b158015610d2957600080fd5b505afa158015610d3d573d6000803e3d6000fd5b505050506040513d601f19601f82011682018060405250810190610d619190611e2d565b1015610da45760405162461bcd60e51b81526020600482015260126024820152714e6f7420656e6f7567682062616c616e636560701b6044820152606401610397565b60008686868633604051602001610dbf959493929190611ef6565b60405160208183030381529060405280519060200120905060008411610e1a5760405162461bcd60e51b815260206004820152601060248201526f050726963652063616e277420626520360841b6044820152606401610397565b6001600160a01b03821615610fc45760008787878786604051602001610e44959493929190611ef6565b60408051601f198184030181529181528151602092830120600081815260fc90935291206003015490915015610fc257600081815260fc6020908152604091829020825160c08101845281546001600160a01b039081168252600183015493820193909352600282015483169381019390935260038101546060840181905260048201548316608085015260059091015490911660a08301528610610fc057610eee81868861180c565b15610f7457600082815260fc602052604080822080546001600160a01b0319908116825560018201849055600282018054821690556003820193909355600481018054841690556005018054909216909155517f69436c0a127b6068115c4c2f6d6f5e5092b15b4cdbb59f21fe2c988a48d3489a90610a14908b908b908b908b90611ecc565b600082815260fc6020526040812080546001600160a01b031990811682556001820183905560028201805482169055600382019290925560048101805483169055600501805490911690555b505b505b6040805160c0810182526001600160a01b03808a16825260208083018a8152898316848601908152606085018a815233608087019081528a861660a0880190815260008a815260fd90965294889020965187549087166001600160a01b031991821617885593516001880155915160028701805491871691851691909117905551600386015551600485018054918516918316919091179055905160059093018054939092169216919091179055517f5fc28a92870ef0d55abd8fd5a116230a0e075312dc41022f7ad8f9b255abd2b490610b56908990899089908990611ecc565b6000806110b68787878787611364565b608082015191935091506001600160a01b0316331461110f5760405162461bcd60e51b815260206004820152601560248201527413db9b1e481bdddb995c8818d85b8818d85b98d95b605a1b6044820152606401610397565b600081815260fc6020908152604080832080546001600160a01b031990811682556001820185905560028201805482169055600382019490945560048101805485169055600501805490931690925581516001600160a01b03808b168252918101899052908716918101919091527fb6b76561a5cd44d408b3b141c386de7b24fc54479a54bfea565da91da93acbc390606001610627565b60ca546001600160a01b031633146111d15760405162461bcd60e51b815260040161039790611ff1565b61041d81611951565b6111e2611bfc565b600082815260fc60205260409020600301546112385760405162461bcd60e51b8152602060048201526015602482015274139bdb8b595e1a5cdd195b9d081c1c9bdc1bdcd85b605a1b6044820152606401610397565b50600090815260fc6020908152604091829020825160c08101845281546001600160a01b039081168252600183015493820193909352600282015483169381019390935260038101546060840152600481015482166080840152600501541660a082015290565b6112a7611bfc565b600082815260fd60205260409020600301546112fd5760405162461bcd60e51b8152602060048201526015602482015274139bdb8b595e1a5cdd195b9d081c1c9bdc1bdcd85b605a1b6044820152606401610397565b50600090815260fd6020908152604091829020825160c08101845281546001600160a01b039081168252600183015493820193909352600282015483169381019390935260038101546060840152600481015482166080840152600501541660a082015290565b61136c611bfc565b60008686868686604051602001611387959493929190611ef6565b604051602081830303815290604052805190602001209050610464816111da565b60ca546001600160a01b031633146113d25760405162461bcd60e51b815260040161039790611ff1565b6001600160a01b0381166114375760405162461bcd60e51b815260206004820152602660248201527f4f776e61626c653a206e6577206f776e657220697320746865207a65726f206160448201526564647265737360d01b6064820152608401610397565b61041d81611635565b3b151590565b7f360894a13ba1a3210667c828492db98dca3e2076cc3735a920a3ca505d382bbc546001600160a01b031690565b60ca546001600160a01b0316331461041d5760405162461bcd60e51b815260040161039790611ff1565b60006114a8611446565b90506114b38461199a565b6000835111806114c05750815b156114d1576114cf8484611a3f565b505b7f4910fdfa16fed3260ed0e7147f7cc6da11a60208b5b9406d12a635614ffd9143805460ff166115e257805460ff191660011781556040516001600160a01b038316602482015261155090869060440160408051601f198184030181529190526020810180516001600160e01b0316631b2ce7f360e11b179052611a3f565b50805460ff19168155611561611446565b6001600160a01b0316826001600160a01b0316146115d95760405162461bcd60e51b815260206004820152602f60248201527f45524331393637557067726164653a207570677261646520627265616b73206660448201526e75727468657220757067726164657360881b6064820152608401610397565b6115e285611b2c565b5050505050565b6001600160a01b038116600081815260208190526040808220805460ff19166001179055517feb73900b98b6a3e2b8b01708fe544760cf570d21e7fbe5225f24e48b5b2b432e9190a250565b60ca80546001600160a01b038381166001600160a01b0319831681179093556040519116919082907f8be0079c531659141344cd1fd0a4f28419497f9722a3daafe3b4186f6b6457e090600090a35050565b600083604001516001600160a01b03166323b872dd856080015185856040518463ffffffff1660e01b81526004016116c193929190611ea8565b602060405180830381600087803b1580156116db57600080fd5b505af192505050801561170b575060408051601f3d908101601f1916820190925261170891810190611df5565b60015b61171757506000611797565b80611726576000915050611797565b50835160a085015160208601516040516323b872dd60e01b81526001600160a01b03909316926323b872dd92611760923392600401611ea8565b600060405180830381600087803b15801561177a57600080fd5b505af115801561178e573d6000803e3d6000fd5b50505050600190505b9392505050565b600154610100900460ff166117c55760405162461bcd60e51b815260040161039790612026565b6117cd611b6c565b61069f611b93565b600154610100900460ff166117fc5760405162461bcd60e51b815260040161039790612026565b611804611b6c565b61069f611b6c565b8251608084015160208501516040516323b872dd60e01b81526000936001600160a01b0316926323b872dd9261184792889190600401611ea8565b600060405180830381600087803b15801561186157600080fd5b505af1925050508015611872575060015b61187e57506000611797565b83604001516001600160a01b03166323b872dd338660a00151856040518463ffffffff1660e01b81526004016118b693929190611ea8565b602060405180830381600087803b1580156118d057600080fd5b505af11580156118e4573d6000803e3d6000fd5b505050506040513d601f19601f820116820180604052508101906119089190611df5565b6119475760405162461bcd60e51b815260206004820152601060248201526f2330b4b6103a37903a3930b739b332b960811b6044820152606401610397565b5060019392505050565b6001600160a01b038116600081815260208190526040808220805460ff19169055517f7811ed4e4b787e4f0f046ffb4a5ec1e064b0eb6d191ffabb66270ed8be89b3259190a250565b803b6119fe5760405162461bcd60e51b815260206004820152602d60248201527f455243313936373a206e657720696d706c656d656e746174696f6e206973206e60448201526c1bdd08184818dbdb9d1c9858dd609a1b6064820152608401610397565b7f360894a13ba1a3210667c828492db98dca3e2076cc3735a920a3ca505d382bbc80546001600160a01b0319166001600160a01b0392909216919091179055565b6060823b611a9e5760405162461bcd60e51b815260206004820152602660248201527f416464726573733a2064656c65676174652063616c6c20746f206e6f6e2d636f6044820152651b9d1c9858dd60d21b6064820152608401610397565b600080846001600160a01b031684604051611ab99190611e8c565b600060405180830381855af49150503d8060008114611af4576040519150601f19603f3d011682016040523d82523d6000602084013e611af9565b606091505b5091509150611b2182826040518060600160405280602781526020016120f660279139611bc3565b925050505b92915050565b611b358161199a565b6040516001600160a01b038216907fbc7cd75a20ee27fd9adebab32041f755214dbc6bffa90cc0225b39da2e5c2d3b90600090a250565b600154610100900460ff1661069f5760405162461bcd60e51b815260040161039790612026565b600154610100900460ff16611bba5760405162461bcd60e51b815260040161039790612026565b61069f33611635565b60608315611bd2575081611797565b825115611be25782518084602001fd5b8160405162461bcd60e51b81526004016103979190611f26565b6040805160c081018252600080825260208201819052918101829052606081018290526080810182905260a081019190915290565b600060208284031215611c42578081fd5b8135611797816120e0565b600060208284031215611c5e578081fd5b8151611797816120e0565b60008060408385031215611c7b578081fd5b8235611c86816120e0565b9150602083013567ffffffffffffffff80821115611ca2578283fd5b818501915085601f830112611cb5578283fd5b813581811115611cc757611cc76120ca565b604051601f8201601f19908116603f01168101908382118183101715611cef57611cef6120ca565b81604052828152886020848701011115611d07578586fd5b82602086016020830137856020848301015280955050505050509250929050565b600080600080600060a08688031215611d3f578081fd5b8535611d4a816120e0565b9450602086013593506040860135611d61816120e0565b9250606086013591506080860135611d78816120e0565b809150509295509295909350565b60008060008060008060c08789031215611d9e578081fd5b8635611da9816120e0565b9550602087013594506040870135611dc0816120e0565b9350606087013592506080870135611dd7816120e0565b915060a0870135611de7816120e0565b809150509295509295509295565b600060208284031215611e06578081fd5b81518015158114611797578182fd5b600060208284031215611e26578081fd5b5035919050565b600060208284031215611e3e578081fd5b5051919050565b80516001600160a01b039081168352602080830151908401526040808301518216908401526060808301519084015260808083015182169084015260a09182015116910152565b60008251611e9e81846020870161209a565b9190910192915050565b6001600160a01b039384168152919092166020820152604081019190915260600190565b6001600160a01b039485168152602081019390935292166040820152606081019190915260800190565b6001600160a01b039586168152602081019490945291841660408401526060830152909116608082015260a00190565b6020815260008251806020840152611f4581604085016020870161209a565b601f01601f19169190910160400192915050565b6020808252602c908201527f46756e6374696f6e206d7573742062652063616c6c6564207468726f7567682060408201526b19195b1959d85d1958d85b1b60a21b606082015260800190565b6020808252602c908201527f46756e6374696f6e206d7573742062652063616c6c6564207468726f7567682060408201526b6163746976652070726f787960a01b606082015260800190565b6020808252818101527f4f776e61626c653a2063616c6c6572206973206e6f7420746865206f776e6572604082015260600190565b6020808252602b908201527f496e697469616c697a61626c653a20636f6e7472616374206973206e6f74206960408201526a6e697469616c697a696e6760a81b606082015260800190565b60c08101611b268284611e45565b60e0810161208d8285611e45565b8260c08301529392505050565b60005b838110156120b557818101518382015260200161209d565b838111156120c4576000848401525b50505050565b634e487b7160e01b600052604160045260246000fd5b6001600160a01b038116811461041d57600080fdfe416464726573733a206c6f772d6c6576656c2064656c65676174652063616c6c206661696c6564a2646970667358221220c262d1badbd4ebe4d66e4c234a3a1ac124ccca0a80180ded13ba7cf24b4a740064736f6c63430008040033",
  "linkReferences": {},
  "deployedLinkReferences": {}
}