{
  "address": "0x9d268B40f89d990bA94391fA4d84e609a46e0Ac5",
  "abi": [
    {
      "inputs": [],
      "stateMutability": "nonpayable",
      "type": "constructor"
    },
    {
      "anonymous": false,
      "inputs": [
        {
          "indexed": true,
          "internalType": "address",
          "name": "account",
          "type": "address"
        },
        {
          "indexed": true,
          "internalType": "address",
          "name": "operator",
          "type": "address"
        },
        {
          "indexed": false,
          "internalType": "bool",
          "name": "approved",
          "type": "bool"
        }
      ],
      "name": "ApprovalForAll",
      "type": "event"
    },
    {
      "anonymous": false,
      "inputs": [
        {
          "indexed": true,
          "internalType": "address",
          "name": "previousOwner",
          "type": "address"
        },
        {
          "indexed": true,
          "internalType": "address",
          "name": "newOwner",
          "type": "address"
        }
      ],
      "name": "OwnershipTransferred",
      "type": "event"
    },
    {
      "anonymous": false,
      "inputs": [
        {
          "indexed": false,
          "internalType": "uint256",
          "name": "proposalId",
          "type": "uint256"
        },
        {
          "indexed": false,
          "internalType": "address",
          "name": "nftAddress",
          "type": "address"
        },
        {
          "indexed": false,
          "internalType": "uint256",
          "name": "nftId",
          "type": "uint256"
        },
        {
          "indexed": false,
          "internalType": "uint256",
          "name": "extensionId",
          "type": "uint256"
        }
      ],
      "name": "ProposalAccepted",
      "type": "event"
    },
    {
      "anonymous": false,
      "inputs": [
        {
          "indexed": false,
          "internalType": "uint256",
          "name": "proposalId",
          "type": "uint256"
        },
        {
          "indexed": false,
          "internalType": "address",
          "name": "nftAddress",
          "type": "address"
        },
        {
          "indexed": false,
          "internalType": "uint256",
          "name": "nftId",
          "type": "uint256"
        },
        {
          "indexed": false,
          "internalType": "address",
          "name": "owner",
          "type": "address"
        },
        {
          "indexed": false,
          "internalType": "string",
          "name": "proposalType",
          "type": "string"
        }
      ],
      "name": "ProposalSubmitted",
      "type": "event"
    },
    {
      "anonymous": false,
      "inputs": [
        {
          "indexed": true,
          "internalType": "address",
          "name": "operator",
          "type": "address"
        },
        {
          "indexed": true,
          "internalType": "address",
          "name": "from",
          "type": "address"
        },
        {
          "indexed": true,
          "internalType": "address",
          "name": "to",
          "type": "address"
        },
        {
          "indexed": false,
          "internalType": "uint256[]",
          "name": "ids",
          "type": "uint256[]"
        },
        {
          "indexed": false,
          "internalType": "uint256[]",
          "name": "values",
          "type": "uint256[]"
        }
      ],
      "name": "TransferBatch",
      "type": "event"
    },
    {
      "anonymous": false,
      "inputs": [
        {
          "indexed": true,
          "internalType": "address",
          "name": "operator",
          "type": "address"
        },
        {
          "indexed": true,
          "internalType": "address",
          "name": "from",
          "type": "address"
        },
        {
          "indexed": true,
          "internalType": "address",
          "name": "to",
          "type": "address"
        },
        {
          "indexed": false,
          "internalType": "uint256",
          "name": "id",
          "type": "uint256"
        },
        {
          "indexed": false,
          "internalType": "uint256",
          "name": "value",
          "type": "uint256"
        }
      ],
      "name": "TransferSingle",
      "type": "event"
    },
    {
      "anonymous": false,
      "inputs": [
        {
          "indexed": false,
          "internalType": "string",
          "name": "value",
          "type": "string"
        },
        {
          "indexed": true,
          "internalType": "uint256",
          "name": "id",
          "type": "uint256"
        }
      ],
      "name": "URI",
      "type": "event"
    },
    {
      "anonymous": false,
      "inputs": [
        {
          "indexed": false,
          "internalType": "uint256",
          "name": "proposalId",
          "type": "uint256"
        },
        {
          "indexed": false,
          "internalType": "address",
          "name": "voter",
          "type": "address"
        }
      ],
      "name": "Voted",
      "type": "event"
    },
    {
      "inputs": [
        {
          "internalType": "address",
          "name": "nftToAttachAddress",
          "type": "address"
        },
        {
          "internalType": "uint256",
          "name": "nftToAttachId",
          "type": "uint256"
        }
      ],
      "name": "addExtension",
      "outputs": [],
      "stateMutability": "payable",
      "type": "function"
    },
    {
      "inputs": [
        {
          "internalType": "address",
          "name": "account",
          "type": "address"
        },
        {
          "internalType": "uint256",
          "name": "id",
          "type": "uint256"
        }
      ],
      "name": "balanceOf",
      "outputs": [
        {
          "internalType": "uint256",
          "name": "",
          "type": "uint256"
        }
      ],
      "stateMutability": "view",
      "type": "function"
    },
    {
      "inputs": [
        {
          "internalType": "address[]",
          "name": "accounts",
          "type": "address[]"
        },
        {
          "internalType": "uint256[]",
          "name": "ids",
          "type": "uint256[]"
        }
      ],
      "name": "balanceOfBatch",
      "outputs": [
        {
          "internalType": "uint256[]",
          "name": "",
          "type": "uint256[]"
        }
      ],
      "stateMutability": "view",
      "type": "function"
    },
    {
      "inputs": [],
      "name": "depositFee",
      "outputs": [
        {
          "internalType": "uint256",
          "name": "",
          "type": "uint256"
        }
      ],
      "stateMutability": "view",
      "type": "function"
    },
    {
      "inputs": [
        {
          "internalType": "uint256",
          "name": "proposalId",
          "type": "uint256"
        }
      ],
      "name": "getProposalOwner",
      "outputs": [
        {
          "internalType": "address",
          "name": "",
          "type": "address"
        }
      ],
      "stateMutability": "view",
      "type": "function"
    },
    {
      "inputs": [
        {
          "internalType": "uint256",
          "name": "proposalId",
          "type": "uint256"
        }
      ],
      "name": "getProposalTokenAddress",
      "outputs": [
        {
          "internalType": "address",
          "name": "",
          "type": "address"
        }
      ],
      "stateMutability": "view",
      "type": "function"
    },
    {
      "inputs": [
        {
          "internalType": "uint256",
          "name": "proposalId",
          "type": "uint256"
        }
      ],
      "name": "getProposalTokenId",
      "outputs": [
        {
          "internalType": "uint256",
          "name": "",
          "type": "uint256"
        }
      ],
      "stateMutability": "view",
      "type": "function"
    },
    {
      "inputs": [
        {
          "internalType": "uint256",
          "name": "proposalId",
          "type": "uint256"
        }
      ],
      "name": "getProposalVotes",
      "outputs": [
        {
          "internalType": "uint256",
          "name": "",
          "type": "uint256"
        }
      ],
      "stateMutability": "view",
      "type": "function"
    },
    {
      "inputs": [
        {
          "internalType": "uint256",
          "name": "proposalId",
          "type": "uint256"
        }
      ],
      "name": "getProposalVotingEnd",
      "outputs": [
        {
          "internalType": "uint256",
          "name": "",
          "type": "uint256"
        }
      ],
      "stateMutability": "view",
      "type": "function"
    },
    {
      "inputs": [
        {
          "internalType": "uint256",
          "name": "extensionId",
          "type": "uint256"
        }
      ],
      "name": "getRealmLandsAddress",
      "outputs": [
        {
          "internalType": "address",
          "name": "",
          "type": "address"
        }
      ],
      "stateMutability": "view",
      "type": "function"
    },
    {
      "inputs": [
        {
          "internalType": "string",
          "name": "uri",
          "type": "string"
        },
        {
          "internalType": "address",
          "name": "caller",
          "type": "address"
        },
        {
          "internalType": "uint256",
          "name": "taxRate_",
          "type": "uint256"
        },
        {
          "internalType": "uint256",
          "name": "creatorShare",
          "type": "uint256"
        },
        {
          "internalType": "address",
          "name": "nftToAttachAddress",
          "type": "address"
        },
        {
          "internalType": "uint256",
          "name": "nftToAttachId",
          "type": "uint256"
        }
      ],
      "name": "initialize",
      "outputs": [],
      "stateMutability": "nonpayable",
      "type": "function"
    },
    {
      "inputs": [
        {
          "internalType": "address",
          "name": "account",
          "type": "address"
        },
        {
          "internalType": "address",
          "name": "operator",
          "type": "address"
        }
      ],
      "name": "isApprovedForAll",
      "outputs": [
        {
          "internalType": "bool",
          "name": "",
          "type": "bool"
        }
      ],
      "stateMutability": "view",
      "type": "function"
    },
    {
      "inputs": [],
      "name": "owner",
      "outputs": [
        {
          "internalType": "address",
          "name": "",
          "type": "address"
        }
      ],
      "stateMutability": "view",
      "type": "function"
    },
    {
      "inputs": [
        {
          "internalType": "uint256",
          "name": "",
          "type": "uint256"
        }
      ],
      "name": "proposals",
      "outputs": [
        {
          "internalType": "address",
          "name": "tokenAddress",
          "type": "address"
        },
        {
          "internalType": "uint256",
          "name": "tokenId",
          "type": "uint256"
        },
        {
          "internalType": "address",
          "name": "owner",
          "type": "address"
        },
        {
          "internalType": "uint256",
          "name": "votes",
          "type": "uint256"
        },
        {
          "internalType": "uint256",
          "name": "votingEnd",
          "type": "uint256"
        }
      ],
      "stateMutability": "view",
      "type": "function"
    },
    {
      "inputs": [],
      "name": "protocolFee",
      "outputs": [
        {
          "internalType": "uint256",
          "name": "",
          "type": "uint256"
        }
      ],
      "stateMutability": "view",
      "type": "function"
    },
    {
      "inputs": [
        {
          "internalType": "uint256",
          "name": "extensionTokenId",
          "type": "uint256"
        }
      ],
      "name": "removeExtension",
      "outputs": [],
      "stateMutability": "nonpayable",
      "type": "function"
    },
    {
      "inputs": [],
      "name": "renounceOwnership",
      "outputs": [],
      "stateMutability": "nonpayable",
      "type": "function"
    },
    {
      "inputs": [
        {
          "internalType": "address",
          "name": "from",
          "type": "address"
        },
        {
          "internalType": "address",
          "name": "to",
          "type": "address"
        },
        {
          "internalType": "uint256[]",
          "name": "ids",
          "type": "uint256[]"
        },
        {
          "internalType": "uint256[]",
          "name": "amounts",
          "type": "uint256[]"
        },
        {
          "internalType": "bytes",
          "name": "data",
          "type": "bytes"
        }
      ],
      "name": "safeBatchTransferFrom",
      "outputs": [],
      "stateMutability": "nonpayable",
      "type": "function"
    },
    {
      "inputs": [
        {
          "internalType": "address",
          "name": "from",
          "type": "address"
        },
        {
          "internalType": "address",
          "name": "to",
          "type": "address"
        },
        {
          "internalType": "uint256",
          "name": "id",
          "type": "uint256"
        },
        {
          "internalType": "uint256",
          "name": "amount",
          "type": "uint256"
        },
        {
          "internalType": "bytes",
          "name": "data",
          "type": "bytes"
        }
      ],
      "name": "safeTransferFrom",
      "outputs": [],
      "stateMutability": "nonpayable",
      "type": "function"
    },
    {
      "inputs": [
        {
          "internalType": "address",
          "name": "operator",
          "type": "address"
        },
        {
          "internalType": "bool",
          "name": "approved",
          "type": "bool"
        }
      ],
      "name": "setApprovalForAll",
      "outputs": [],
      "stateMutability": "nonpayable",
      "type": "function"
    },
    {
      "inputs": [
        {
          "internalType": "uint256",
          "name": "depositFee_",
          "type": "uint256"
        }
      ],
      "name": "setDepositFee",
      "outputs": [],
      "stateMutability": "nonpayable",
      "type": "function"
    },
    {
      "inputs": [
        {
          "internalType": "uint256",
          "name": "protocolFee_",
          "type": "uint256"
        }
      ],
      "name": "setProtocolFee",
      "outputs": [],
      "stateMutability": "nonpayable",
      "type": "function"
    },
    {
      "inputs": [
        {
          "internalType": "uint256",
          "name": "taxRate_",
          "type": "uint256"
        }
      ],
      "name": "setTaxRate",
      "outputs": [],
      "stateMutability": "nonpayable",
      "type": "function"
    },
    {
      "inputs": [
        {
          "internalType": "uint256",
          "name": "votingTime_",
          "type": "uint256"
        }
      ],
      "name": "setVotingTime",
      "outputs": [],
      "stateMutability": "nonpayable",
      "type": "function"
    },
    {
      "inputs": [
        {
          "internalType": "bytes4",
          "name": "interfaceId",
          "type": "bytes4"
        }
      ],
      "name": "supportsInterface",
      "outputs": [
        {
          "internalType": "bool",
          "name": "",
          "type": "bool"
        }
      ],
      "stateMutability": "view",
      "type": "function"
    },
    {
      "inputs": [],
      "name": "taxRate",
      "outputs": [
        {
          "internalType": "uint256",
          "name": "",
          "type": "uint256"
        }
      ],
      "stateMutability": "view",
      "type": "function"
    },
    {
      "inputs": [
        {
          "internalType": "address",
          "name": "newOwner",
          "type": "address"
        }
      ],
      "name": "transferOwnership",
      "outputs": [],
      "stateMutability": "nonpayable",
      "type": "function"
    },
    {
      "inputs": [
        {
          "internalType": "uint256",
          "name": "",
          "type": "uint256"
        }
      ],
      "name": "uri",
      "outputs": [
        {
          "internalType": "string",
          "name": "",
          "type": "string"
        }
      ],
      "stateMutability": "view",
      "type": "function"
    },
    {
      "inputs": [
        {
          "internalType": "uint256",
          "name": "proposalId",
          "type": "uint256"
        }
      ],
      "name": "voteForProposal",
      "outputs": [],
      "stateMutability": "nonpayable",
      "type": "function"
    },
    {
      "inputs": [],
      "name": "votingPower",
      "outputs": [
        {
          "internalType": "uint256",
          "name": "",
          "type": "uint256"
        }
      ],
      "stateMutability": "view",
      "type": "function"
    },
    {
      "inputs": [
        {
          "internalType": "address",
          "name": "",
          "type": "address"
        }
      ],
      "name": "votingPowerByAddress",
      "outputs": [
        {
          "internalType": "uint256",
          "name": "",
          "type": "uint256"
        }
      ],
      "stateMutability": "view",
      "type": "function"
    },
    {
      "inputs": [],
      "name": "votingTime",
      "outputs": [
        {
          "internalType": "uint256",
          "name": "",
          "type": "uint256"
        }
      ],
      "stateMutability": "view",
      "type": "function"
    },
    {
      "inputs": [
        {
          "internalType": "uint256",
          "name": "proposalId",
          "type": "uint256"
        }
      ],
      "name": "withdrawDepositFee",
      "outputs": [],
      "stateMutability": "nonpayable",
      "type": "function"
    }
  ],
  "transactionHash": "0xe3cd9da691633ad8029be2610ff2aa646b3e3fba864c89f259785ff0650b80f1",
  "args": [],
  "solcInputHash": "89a74922be3f0a05d20c4bd1c84312b2",
  "bytecode": "0x60806040523480156200001157600080fd5b506040805160208101909152600081526200002c8162000033565b506200012f565b8051620000489060029060208401906200004c565b5050565b8280546200005a90620000f2565b90600052602060002090601f0160209004810192826200007e5760008555620000c9565b82601f106200009957805160ff1916838001178555620000c9565b82800160010185558215620000c9579182015b82811115620000c9578251825591602001919060010190620000ac565b50620000d7929150620000db565b5090565b5b80821115620000d75760008155600101620000dc565b600181811c908216806200010757607f821691505b602082108114156200012957634e487b7160e01b600052602260045260246000fd5b50919050565b612fca806200013f6000396000f3fe6080604052600436106101ed5760003560e01c806367a527931161010d578063b920ef71116100a0578063d7c819761161006f578063d7c819761461065e578063e985e9c51461067e578063f242432a146106c7578063f2fde38b146106e7578063f4b5157b1461070757600080fd5b8063b920ef71146105eb578063b92a479e1461060b578063c6d69a301461061e578063cfe6b6d01461063e57600080fd5b8063787dce3d116100dc578063787dce3d146105775780638da5cb5b14610597578063a22cb465146105b5578063b0e21e8a146105d557600080fd5b806367a5279314610520578063715018a61461053657806377174f851461054b578063771a3a1d1461056157600080fd5b80632bb5edec11610185578063490ae21011610154578063490ae2101461047d5780634df161a11461049d5780634e1273f4146104bd5780635ab24f59146104ea57600080fd5b80632bb5edec146103ca5780632eb2c2d61461040057806339997a021461042057806347c661401461044d57600080fd5b80630e89341c116101c15780630e89341c1461030657806317826ac41461033357806319be726d146103845780631cbe482d146103b457600080fd5b8062fdd58e146101f2578063013cf08b1461022557806301ffc9a7146102b4578063045c6ce0146102e4575b600080fd5b3480156101fe57600080fd5b5061021261020d3660046128da565b610737565b6040519081526020015b60405180910390f35b34801561023157600080fd5b5061027b610240366004612a9b565b600860205260009081526040902080546001820154600283015460038401546004909401546001600160a01b03938416949293909116919085565b604080516001600160a01b039687168152602081019590955292909416918301919091526060820152608081019190915260a00161021c565b3480156102c057600080fd5b506102d46102cf3660046129d2565b6107ce565b604051901515815260200161021c565b3480156102f057600080fd5b506103046102ff366004612a9b565b610820565b005b34801561031257600080fd5b50610326610321366004612a9b565b610a0c565b60405161021c9190612c1c565b34801561033f57600080fd5b5061036c61034e366004612a9b565b6000908152600860205260409020600201546001600160a01b031690565b6040516001600160a01b03909116815260200161021c565b34801561039057600080fd5b5061021261039f366004612a9b565b60009081526008602052604090206001015490565b3480156103c057600080fd5b5061021260725481565b3480156103d657600080fd5b5061036c6103e5366004612a9b565b6000908152607860205260409020546001600160a01b031690565b34801561040c57600080fd5b5061030461041b366004612798565b610aa0565b34801561042c57600080fd5b5061021261043b366004612728565b60076020526000908152604090205481565b34801561045957600080fd5b50610212610468366004612a9b565b60009081526008602052604090206003015490565b34801561048957600080fd5b50610304610498366004612a9b565b610b37565b3480156104a957600080fd5b506103046104b8366004612a9b565b610b66565b3480156104c957600080fd5b506104dd6104d8366004612905565b610c7d565b60405161021c9190612bdb565b3480156104f657600080fd5b5061036c610505366004612a9b565b6000908152600860205260409020546001600160a01b031690565b34801561052c57600080fd5b5061021260745481565b34801561054257600080fd5b50610304610ddf565b34801561055757600080fd5b5061021260045481565b34801561056d57600080fd5b50610212606f5481565b34801561058357600080fd5b50610304610592366004612a9b565b610e15565b3480156105a357600080fd5b50603d546001600160a01b031661036c565b3480156105c157600080fd5b506103046105d03660046128a9565b610e44565b3480156105e157600080fd5b5061021260705481565b3480156105f757600080fd5b50610304610606366004612a9b565b610e53565b6103046106193660046128da565b610f91565b34801561062a57600080fd5b50610304610639366004612a9b565b6112fe565b34801561064a57600080fd5b50610304610659366004612a0a565b611334565b34801561066a57600080fd5b50610304610679366004612a9b565b61145f565b34801561068a57600080fd5b506102d4610699366004612760565b6001600160a01b03918216600090815260016020908152604080832093909416825291909152205460ff1690565b3480156106d357600080fd5b506103046106e2366004612842565b61148e565b3480156106f357600080fd5b50610304610702366004612728565b611515565b34801561071357600080fd5b50610212610722366004612a9b565b60009081526008602052604090206004015490565b60006001600160a01b0383166107a85760405162461bcd60e51b815260206004820152602b60248201527f455243313135353a2062616c616e636520717565727920666f7220746865207a60448201526a65726f206164647265737360a81b60648201526084015b60405180910390fd5b506000908152602081815260408083206001600160a01b03949094168352929052205490565b60006001600160e01b03198216636cdb3d1360e11b14806107ff57506001600160e01b031982166303a24d0760e21b145b8061081a57506301ffc9a760e01b6001600160e01b03198316145b92915050565b600061082b826115ad565b905080156109d05760008281526075602052604081205460ff16600181111561086457634e487b7160e01b600052602160045260246000fd5b14156108fc576000806000610878856117c5565b925092509250600061088b8484846117f1565b600081815260766020526040902087905590506108a7826118a0565b604080518781526001600160a01b0386166020820152908101849052606081018290527fb180d23f07a381509523d52a37e7da63c2b098fbccf7e84dea6b6648e062e15c9060800160405180910390a1505050505b600160008381526075602052604090205460ff16600181111561092f57634e487b7160e01b600052602160045260246000fd5b14156109d05760008281526077602090815260408083205480845260769092528220549091808061095f846117c5565b9250925092506109718383838861194d565b61097a816119c7565b604080518881526001600160a01b0385166020820152908101839052606081018690527fb180d23f07a381509523d52a37e7da63c2b098fbccf7e84dea6b6648e062e15c9060800160405180910390a150505050505b604080518381523360208201527f030b0f8dcd86a031eddb071f91882edeac8173663ba775713b677b42b51be44b910160405180910390a15050565b606060028054610a1b90612e18565b80601f0160208091040260200160405190810160405280929190818152602001828054610a4790612e18565b8015610a945780601f10610a6957610100808354040283529160200191610a94565b820191906000526020600020905b815481529060010190602001808311610a7757829003601f168201915b50505050509050919050565b6001600160a01b038516331480610abc5750610abc8533610699565b610b235760405162461bcd60e51b815260206004820152603260248201527f455243313135353a207472616e736665722063616c6c6572206973206e6f74206044820152711bdddb995c881b9bdc88185c1c1c9bdd995960721b606482015260840161079f565b610b3085858585856119db565b5050505050565b603d546001600160a01b03163314610b615760405162461bcd60e51b815260040161079f90612d06565b607455565b600081815260086020526040902060048101546002909101546001600160a01b0316338114610be65760405162461bcd60e51b815260206004820152602660248201527f596f7520617265206e6f7420746865206f776e6572206f66207468652070726f604482015265706f73616c2160d01b606482015260840161079f565b42821115610c365760405162461bcd60e51b815260206004820152601760248201527f566f74696e67206973206e6f742066696e697368656421000000000000000000604482015260640161079f565b33600081815260796020908152604080832087845290915280822054905190929183156108fc02918491818181858888f19350505050158015610b30573d6000803e3d6000fd5b60608151835114610ce25760405162461bcd60e51b815260206004820152602960248201527f455243313135353a206163636f756e747320616e6420696473206c656e677468604482015268040dad2e6dac2e8c6d60bb1b606482015260840161079f565b6000835167ffffffffffffffff811115610d0c57634e487b7160e01b600052604160045260246000fd5b604051908082528060200260200182016040528015610d35578160200160208202803683370190505b50905060005b8451811015610dd757610d9c858281518110610d6757634e487b7160e01b600052603260045260246000fd5b6020026020010151858381518110610d8f57634e487b7160e01b600052603260045260246000fd5b6020026020010151610737565b828281518110610dbc57634e487b7160e01b600052603260045260246000fd5b6020908102919091010152610dd081612e80565b9050610d3b565b509392505050565b603d546001600160a01b03163314610e095760405162461bcd60e51b815260040161079f90612d06565b610e136000611bd4565b565b603d546001600160a01b03163314610e3f5760405162461bcd60e51b815260040161079f90612d06565b607055565b610e4f338383611c26565b5050565b6000610e5f3383610737565b905060008111610ec05760405162461bcd60e51b815260206004820152602660248201527f596f7520617265206e6f7420746865206f776e6572206f66207468652065787460448201526532b739b4b7b760d11b606482015260840161079f565b600082815260766020526040812054908080610edb846117c5565b9250925092506000610ef1848484607254611d07565b6000818152607560209081526040808320805460ff1916600117905560778252918290208a905581518381526001600160a01b0388169181019190915290810185905233606082015260a0608082018190526006908201526552454d4f564560d01b60c08201529091507f43bbe839ef82dc941f31c1b50c3aef00ac608996af8aaff4ac3e6e5bf6eae8749060e00160405180910390a150505050505050565b6040516331a9108f60e11b8152600481018290526000906001600160a01b03841690636352211e9060240160206040518083038186803b158015610fd457600080fd5b505afa158015610fe8573d6000803e3d6000fd5b505050506040513d601f19601f8201168201806040525081019061100c9190612744565b60405163020604bf60e21b8152600481018490529091506000906001600160a01b0385169063081812fc9060240160206040518083038186803b15801561105257600080fd5b505afa158015611066573d6000803e3d6000fd5b505050506040513d601f19601f8201168201806040525081019061108a9190612744565b90506001600160a01b03821633146110dd5760405162461bcd60e51b8152602060048201526016602482015275596f7520617265206e6f7420746865206f776e65722160501b604482015260640161079f565b6001600160a01b03811630146111355760405162461bcd60e51b815260206004820152601960248201527f5265616c6d2073686f756c6420626520617070726f7665642100000000000000604482015260640161079f565b6000611145858533607254611d07565b6000818152607560205260409020805460ff191690556074549091501561128d5760745434146111c25760405162461bcd60e51b815260206004820152602260248201527f6d73672e76616c75652073686f756c6420657175616c206465706f7369744665604482015261652160f01b606482015260840161079f565b606f54349015611210576000612710606f54346111df9190612de2565b6111e99190612dc2565b90506111f58183612e01565b915080607a60008282546112099190612daa565b9091555050505b6070541561125c576000612710607b543461122b9190612de2565b6112359190612dc2565b90506112418183612e01565b915080607b60008282546112559190612daa565b9091555050505b33600090815260796020908152604080832085845290915281208054839290611286908490612daa565b9091555050505b604080518281526001600160a01b038716602082015290810185905233606082015260a0608082018190526003908201526210511160ea1b60c08201527f43bbe839ef82dc941f31c1b50c3aef00ac608996af8aaff4ac3e6e5bf6eae8749060e00160405180910390a15050505050565b603d546001600160a01b031633146113285760405162461bcd60e51b815260040161079f90612d06565b61133181611dd3565b50565b600a54610100900460ff1661134f57600a5460ff1615611353565b303b155b6113b65760405162461bcd60e51b815260206004820152602e60248201527f496e697469616c697a61626c653a20636f6e747261637420697320616c72656160448201526d191e481a5b9a5d1a585b1a5e995960921b606482015260840161079f565b600a54610100900460ff161580156113d857600a805461ffff19166101011790555b603d546001600160a01b031633146114025760405162461bcd60e51b815260040161079f90612d06565b61140a611e29565b61141387611e60565b61141c85611dd3565b61142584611e73565b6114308383886117f1565b5061143b8685611ed4565b611444866118a0565b801561145657600a805461ff00191690555b50505050505050565b603d546001600160a01b031633146114895760405162461bcd60e51b815260040161079f90612d06565b607255565b6001600160a01b0385163314806114aa57506114aa8533610699565b6115085760405162461bcd60e51b815260206004820152602960248201527f455243313135353a2063616c6c6572206973206e6f74206f776e6572206e6f7260448201526808185c1c1c9bdd995960ba1b606482015260840161079f565b610b308585858585611f1a565b603d546001600160a01b0316331461153f5760405162461bcd60e51b815260040161079f90612d06565b6001600160a01b0381166115a45760405162461bcd60e51b815260206004820152602660248201527f4f776e61626c653a206e6577206f776e657220697320746865207a65726f206160448201526564647265737360d01b606482015260840161079f565b61133181611bd4565b6000818152600860205260408120546001600160a01b03166116095760405162461bcd60e51b8152602060048201526015602482015274139bdb88195e1a5cdd195b9d081c1c9bdc1bdcd85b605a1b604482015260640161079f565b33600090815260096020908152604080832085845290915290205460ff16156116805760405162461bcd60e51b815260206004820152602360248201527f43616e277420766f746520666f722073616d652070726f706f73616c2074776960448201526263652160e81b606482015260840161079f565b60008281526008602052604090206004015442106116d75760405162461bcd60e51b8152602060048201526014602482015273141c9bdc1bdcd85b081a185cc8195e1c1a5c995960621b604482015260640161079f565b336000908152600760205260409020546117335760405162461bcd60e51b815260206004820152601c60248201527f596f7520646f206e6f74206861766520766f74696e6720706f77657200000000604482015260640161079f565b3360009081526007602090815260408083205485845260089092528220600301805491929091611764908490612daa565b90915550503360009081526009602090815260408083208584529091529020805460ff1916600117905560045461179d90600290612dc2565b60008381526008602052604090206003015411156117bd57506001919050565b506000919050565b6000908152600860205260409020805460018201546002909201546001600160a01b0391821693911690565b6040516323b872dd60e01b81526001600160a01b03828116600483015230602483015260448201849052600091908516906323b872dd90606401600060405180830381600087803b15801561184557600080fd5b505af1158015611859573d6000803e3d6000fd5b505050506001607160008282546118709190612daa565b9250508190555061189582607154600160405180602001604052806000815250612037565b506071549392505050565b612710600460008282546118b49190612daa565b9091555050600654600090612710906118cd9082612de2565b6118d79190612dc2565b905060006118e782612710612e01565b6005546001600160a01b0316600090815260076020526040812080549293508492909190611916908490612daa565b90915550506001600160a01b03831660009081526007602052604081208054839290611943908490612daa565b9091555050505050565b6040516323b872dd60e01b81523060048201526001600160a01b038381166024830152604482018590528516906323b872dd90606401600060405180830381600087803b15801561199d57600080fd5b505af11580156119b1573d6000803e3d6000fd5b505050506119c182826001612138565b50505050565b612710600460008282546118b49190612e01565b8151835114611a3d5760405162461bcd60e51b815260206004820152602860248201527f455243313135353a2069647320616e6420616d6f756e7473206c656e677468206044820152670dad2e6dac2e8c6d60c31b606482015260840161079f565b6001600160a01b038416611a635760405162461bcd60e51b815260040161079f90612c77565b3360005b8451811015611b66576000858281518110611a9257634e487b7160e01b600052603260045260246000fd5b602002602001015190506000858381518110611abe57634e487b7160e01b600052603260045260246000fd5b602090810291909101810151600084815280835260408082206001600160a01b038e168352909352919091205490915081811015611b0e5760405162461bcd60e51b815260040161079f90612cbc565b6000838152602081815260408083206001600160a01b038e8116855292528083208585039055908b16825281208054849290611b4b908490612daa565b9250508190555050505080611b5f90612e80565b9050611a67565b50846001600160a01b0316866001600160a01b0316826001600160a01b03167f4a39dc06d4c0dbc64b70af90fd698a233a518aa5d07e595d983b8c0526c8f7fb8787604051611bb6929190612bee565b60405180910390a4611bcc8187878787876122b2565b505050505050565b603d80546001600160a01b038381166001600160a01b0319831681179093556040519116919082907f8be0079c531659141344cd1fd0a4f28419497f9722a3daafe3b4186f6b6457e090600090a35050565b816001600160a01b0316836001600160a01b03161415611c9a5760405162461bcd60e51b815260206004820152602960248201527f455243313135353a2073657474696e6720617070726f76616c20737461747573604482015268103337b91039b2b63360b91b606482015260840161079f565b6001600160a01b03838116600081815260016020908152604080832094871680845294825291829020805460ff191686151590811790915591519182527f17307eab39ab6107e8899845ad3d59bd9653f200f220920489ca2b5937696c31910160405180910390a3505050565b60006040518060a00160405280866001600160a01b03168152602001858152602001846001600160a01b03168152602001600081526020018342611d4b9190612daa565b9052600380546000908152600860209081526040808320855181546001600160a01b03199081166001600160a01b0392831617835593870151600180840191909155928701516002830180549095169116179092556060850151828501556080909401516004909101558154611dc2908490612daa565b909155505060035495945050505050565b6127108110611e245760405162461bcd60e51b815260206004820152601c60248201527f74617852617465206d757374206265203c207468616e20313030303000000000604482015260640161079f565b606f55565b600a54610100900460ff16611e505760405162461bcd60e51b815260040161079f90612d3b565b611e5861241d565b610e13612444565b8051610e4f906002906020840190612597565b6127108110611ecf5760405162461bcd60e51b815260206004820152602260248201527f63726561746f7253686172655f206d757374206265203c207468616e20313030604482015261030360f41b606482015260840161079f565b607355565b6001600160a01b038216611ee757600080fd5b60008111611ef457600080fd5b600580546001600160a01b0319166001600160a01b039390931692909217909155600655565b6001600160a01b038416611f405760405162461bcd60e51b815260040161079f90612c77565b33611f59818787611f5088612474565b610b3088612474565b6000848152602081815260408083206001600160a01b038a16845290915290205483811015611f9a5760405162461bcd60e51b815260040161079f90612cbc565b6000858152602081815260408083206001600160a01b038b8116855292528083208785039055908816825281208054869290611fd7908490612daa565b909155505060408051868152602081018690526001600160a01b03808916928a821692918616917fc3d58168c5ae7397731d063d5bbf3d657854427343f4c083240f7aacaa2d0f62910160405180910390a46114568288888888886124cd565b6001600160a01b0384166120975760405162461bcd60e51b815260206004820152602160248201527f455243313135353a206d696e7420746f20746865207a65726f206164647265736044820152607360f81b606482015260840161079f565b336120a881600087611f5088612474565b6000848152602081815260408083206001600160a01b0389168452909152812080548592906120d8908490612daa565b909155505060408051858152602081018590526001600160a01b0380881692600092918516917fc3d58168c5ae7397731d063d5bbf3d657854427343f4c083240f7aacaa2d0f62910160405180910390a4610b30816000878787876124cd565b6001600160a01b03831661219a5760405162461bcd60e51b815260206004820152602360248201527f455243313135353a206275726e2066726f6d20746865207a65726f206164647260448201526265737360e81b606482015260840161079f565b336121ca818560006121ab87612474565b6121b487612474565b5050604080516020810190915260009052505050565b6000838152602081815260408083206001600160a01b0388168452909152902054828110156122475760405162461bcd60e51b8152602060048201526024808201527f455243313135353a206275726e20616d6f756e7420657863656564732062616c604482015263616e636560e01b606482015260840161079f565b6000848152602081815260408083206001600160a01b03898116808652918452828520888703905582518981529384018890529092908616917fc3d58168c5ae7397731d063d5bbf3d657854427343f4c083240f7aacaa2d0f62910160405180910390a45050505050565b6001600160a01b0384163b15611bcc5760405163bc197c8160e01b81526001600160a01b0385169063bc197c81906122f69089908990889088908890600401612b38565b602060405180830381600087803b15801561231057600080fd5b505af1925050508015612340575060408051601f3d908101601f1916820190925261233d918101906129ee565b60015b6123ed5761234c612ec7565b806308c379a014156123865750612361612edf565b8061236c5750612388565b8060405162461bcd60e51b815260040161079f9190612c1c565b505b60405162461bcd60e51b815260206004820152603460248201527f455243313135353a207472616e7366657220746f206e6f6e20455243313135356044820152732932b1b2b4bb32b91034b6b83632b6b2b73a32b960611b606482015260840161079f565b6001600160e01b0319811663bc197c8160e01b146114565760405162461bcd60e51b815260040161079f90612c2f565b600a54610100900460ff16610e135760405162461bcd60e51b815260040161079f90612d3b565b600a54610100900460ff1661246b5760405162461bcd60e51b815260040161079f90612d3b565b610e1333611bd4565b604080516001808252818301909252606091600091906020808301908036833701905050905082816000815181106124bc57634e487b7160e01b600052603260045260246000fd5b602090810291909101015292915050565b6001600160a01b0384163b15611bcc5760405163f23a6e6160e01b81526001600160a01b0385169063f23a6e61906125119089908990889088908890600401612b96565b602060405180830381600087803b15801561252b57600080fd5b505af192505050801561255b575060408051601f3d908101601f19168201909252612558918101906129ee565b60015b6125675761234c612ec7565b6001600160e01b0319811663f23a6e6160e01b146114565760405162461bcd60e51b815260040161079f90612c2f565b8280546125a390612e18565b90600052602060002090601f0160209004810192826125c5576000855561260b565b82601f106125de57805160ff191683800117855561260b565b8280016001018555821561260b579182015b8281111561260b5782518255916020019190600101906125f0565b5061261792915061261b565b5090565b5b80821115612617576000815560010161261c565b600067ffffffffffffffff83111561264a5761264a612eb1565b604051612661601f8501601f191660200182612e53565b80915083815284848401111561267657600080fd5b83836020830137600060208583010152509392505050565b600082601f83011261269e578081fd5b813560206126ab82612d86565b6040516126b88282612e53565b8381528281019150858301600585901b870184018810156126d7578586fd5b855b858110156126f5578135845292840192908401906001016126d9565b5090979650505050505050565b600082601f830112612712578081fd5b61272183833560208501612630565b9392505050565b600060208284031215612739578081fd5b813561272181612f69565b600060208284031215612755578081fd5b815161272181612f69565b60008060408385031215612772578081fd5b823561277d81612f69565b9150602083013561278d81612f69565b809150509250929050565b600080600080600060a086880312156127af578081fd5b85356127ba81612f69565b945060208601356127ca81612f69565b9350604086013567ffffffffffffffff808211156127e6578283fd5b6127f289838a0161268e565b94506060880135915080821115612807578283fd5b61281389838a0161268e565b93506080880135915080821115612828578283fd5b5061283588828901612702565b9150509295509295909350565b600080600080600060a08688031215612859578081fd5b853561286481612f69565b9450602086013561287481612f69565b93506040860135925060608601359150608086013567ffffffffffffffff81111561289d578182fd5b61283588828901612702565b600080604083850312156128bb578182fd5b82356128c681612f69565b91506020830135801515811461278d578182fd5b600080604083850312156128ec578182fd5b82356128f781612f69565b946020939093013593505050565b60008060408385031215612917578182fd5b823567ffffffffffffffff8082111561292e578384fd5b818501915085601f830112612941578384fd5b8135602061294e82612d86565b60405161295b8282612e53565b8381528281019150858301600585901b870184018b101561297a578889fd5b8896505b848710156129a557803561299181612f69565b83526001969096019591830191830161297e565b50965050860135925050808211156129bb578283fd5b506129c88582860161268e565b9150509250929050565b6000602082840312156129e3578081fd5b813561272181612f7e565b6000602082840312156129ff578081fd5b815161272181612f7e565b60008060008060008060c08789031215612a22578384fd5b863567ffffffffffffffff811115612a38578485fd5b8701601f81018913612a48578485fd5b612a5789823560208401612630565b9650506020870135612a6881612f69565b945060408701359350606087013592506080870135612a8681612f69565b8092505060a087013590509295509295509295565b600060208284031215612aac578081fd5b5035919050565b6000815180845260208085019450808401835b83811015612ae257815187529582019590820190600101612ac6565b509495945050505050565b60008151808452815b81811015612b1257602081850181015186830182015201612af6565b81811115612b235782602083870101525b50601f01601f19169290920160200192915050565b6001600160a01b0386811682528516602082015260a060408201819052600090612b6490830186612ab3565b8281036060840152612b768186612ab3565b90508281036080840152612b8a8185612aed565b98975050505050505050565b6001600160a01b03868116825285166020820152604081018490526060810183905260a060808201819052600090612bd090830184612aed565b979650505050505050565b6020815260006127216020830184612ab3565b604081526000612c016040830185612ab3565b8281036020840152612c138185612ab3565b95945050505050565b6020815260006127216020830184612aed565b60208082526028908201527f455243313135353a204552433131353552656365697665722072656a656374656040820152676420746f6b656e7360c01b606082015260800190565b60208082526025908201527f455243313135353a207472616e7366657220746f20746865207a65726f206164604082015264647265737360d81b606082015260800190565b6020808252602a908201527f455243313135353a20696e73756666696369656e742062616c616e636520666f60408201526939103a3930b739b332b960b11b606082015260800190565b6020808252818101527f4f776e61626c653a2063616c6c6572206973206e6f7420746865206f776e6572604082015260600190565b6020808252602b908201527f496e697469616c697a61626c653a20636f6e7472616374206973206e6f74206960408201526a6e697469616c697a696e6760a81b606082015260800190565b600067ffffffffffffffff821115612da057612da0612eb1565b5060051b60200190565b60008219821115612dbd57612dbd612e9b565b500190565b600082612ddd57634e487b7160e01b81526012600452602481fd5b500490565b6000816000190483118215151615612dfc57612dfc612e9b565b500290565b600082821015612e1357612e13612e9b565b500390565b600181811c90821680612e2c57607f821691505b60208210811415612e4d57634e487b7160e01b600052602260045260246000fd5b50919050565b601f8201601f1916810167ffffffffffffffff81118282101715612e7957612e79612eb1565b6040525050565b6000600019821415612e9457612e94612e9b565b5060010190565b634e487b7160e01b600052601160045260246000fd5b634e487b7160e01b600052604160045260246000fd5b600060033d1115612edc57600481823e5160e01c5b90565b600060443d1015612eed5790565b6040516003193d81016004833e81513d67ffffffffffffffff8160248401118184111715612f1d57505050505090565b8285019150815181811115612f355750505050505090565b843d8701016020828501011115612f4f5750505050505090565b612f5e60208286010187612e53565b509095945050505050565b6001600160a01b038116811461133157600080fd5b6001600160e01b03198116811461133157600080fdfea2646970667358221220507e86b9aab8c237dba6ff790ac960f7bcd3e6042e872f9bafc570f0540d354e64736f6c63430008040033",
  "devdoc": {
    "kind": "dev",
    "methods": {
      "addExtension(address,uint256)": {
        "params": {
          "nftToAttachAddress": "address of the NFT to attach",
          "nftToAttachId": "ID of the NFT to attach"
        }
      },
      "balanceOf(address,uint256)": {
        "details": "See {IERC1155-balanceOf}. Requirements: - `account` cannot be the zero address."
      },
      "balanceOfBatch(address[],uint256[])": {
        "details": "See {IERC1155-balanceOfBatch}. Requirements: - `accounts` and `ids` must have the same length."
      },
      "isApprovedForAll(address,address)": {
        "details": "See {IERC1155-isApprovedForAll}."
      },
      "owner()": {
        "details": "Returns the address of the current owner."
      },
      "renounceOwnership()": {
        "details": "Leaves the contract without owner. It will not be possible to call `onlyOwner` functions anymore. Can only be called by the current owner. NOTE: Renouncing ownership will leave the contract without an owner, thereby removing any functionality that is only available to the owner."
      },
      "safeBatchTransferFrom(address,address,uint256[],uint256[],bytes)": {
        "details": "See {IERC1155-safeBatchTransferFrom}."
      },
      "safeTransferFrom(address,address,uint256,uint256,bytes)": {
        "details": "See {IERC1155-safeTransferFrom}."
      },
      "setApprovalForAll(address,bool)": {
        "details": "See {IERC1155-setApprovalForAll}."
      },
      "supportsInterface(bytes4)": {
        "details": "See {IERC165-supportsInterface}."
      },
      "transferOwnership(address)": {
        "details": "Transfers ownership of the contract to a new account (`newOwner`). Can only be called by the current owner."
      },
      "uri(uint256)": {
        "details": "See {IERC1155MetadataURI-uri}. This implementation returns the same URI for *all* token types. It relies on the token type ID substitution mechanism https://eips.ethereum.org/EIPS/eip-1155#metadata[defined in the EIP]. Clients calling this function must replace the `\\{id\\}` substring with the actual token type ID."
      }
    },
    "stateVariables": {
      "_extensionRealmLands": {
        "details": "extension ID => realmLands address"
      },
      "_extensionToAddProposal": {
        "details": "extension ID => add proposal ID"
      },
      "_proposalToExtension": {
        "details": "remove extension proposal ID => extension ID"
      },
      "_proposalTypes": {
        "details": "proposal id => proposal type"
      }
    },
    "version": 1
  },
  "userdoc": {
    "kind": "user",
    "methods": {
      "addExtension(address,uint256)": {
        "notice": "Submit proposal to add an extension"
      },
      "removeExtension(uint256)": {
        "notice": "Submit proposal to remove an extension"
      }
    },
    "version": 1
  },
  "storageLayout": {
    "storage": [
      {
        "astId": 1641,
        "contract": "contracts/Realm.sol:Realm",
        "label": "_balances",
        "offset": 0,
        "slot": "0",
        "type": "t_mapping(t_uint256,t_mapping(t_address,t_uint256))"
      },
      {
        "astId": 1647,
        "contract": "contracts/Realm.sol:Realm",
        "label": "_operatorApprovals",
        "offset": 0,
        "slot": "1",
        "type": "t_mapping(t_address,t_mapping(t_address,t_bool))"
      },
      {
        "astId": 1649,
        "contract": "contracts/Realm.sol:Realm",
        "label": "_uri",
        "offset": 0,
        "slot": "2",
        "type": "t_string_storage"
      },
      {
        "astId": 6875,
        "contract": "contracts/Realm.sol:Realm",
        "label": "_votingProposalCounter",
        "offset": 0,
        "slot": "3",
        "type": "t_uint256"
      },
      {
        "astId": 6877,
        "contract": "contracts/Realm.sol:Realm",
        "label": "votingPower",
        "offset": 0,
        "slot": "4",
        "type": "t_uint256"
      },
      {
        "astId": 6879,
        "contract": "contracts/Realm.sol:Realm",
        "label": "_creatorAddress",
        "offset": 0,
        "slot": "5",
        "type": "t_address"
      },
      {
        "astId": 6881,
        "contract": "contracts/Realm.sol:Realm",
        "label": "_creatorShare",
        "offset": 0,
        "slot": "6",
        "type": "t_uint256"
      },
      {
        "astId": 6885,
        "contract": "contracts/Realm.sol:Realm",
        "label": "votingPowerByAddress",
        "offset": 0,
        "slot": "7",
        "type": "t_mapping(t_address,t_uint256)"
      },
      {
        "astId": 6901,
        "contract": "contracts/Realm.sol:Realm",
        "label": "proposals",
        "offset": 0,
        "slot": "8",
        "type": "t_mapping(t_uint256,t_struct(Proposal)6896_storage)"
      },
      {
        "astId": 6907,
        "contract": "contracts/Realm.sol:Realm",
        "label": "hasVotedForProposal",
        "offset": 0,
        "slot": "9",
        "type": "t_mapping(t_address,t_mapping(t_uint256,t_bool))"
      },
      {
        "astId": 132,
        "contract": "contracts/Realm.sol:Realm",
        "label": "_initialized",
        "offset": 0,
        "slot": "10",
        "type": "t_bool"
      },
      {
        "astId": 135,
        "contract": "contracts/Realm.sol:Realm",
        "label": "_initializing",
        "offset": 1,
        "slot": "10",
        "type": "t_bool"
      },
      {
        "astId": 487,
        "contract": "contracts/Realm.sol:Realm",
        "label": "__gap",
        "offset": 0,
        "slot": "11",
        "type": "t_array(t_uint256)50_storage"
      },
      {
        "astId": 10,
        "contract": "contracts/Realm.sol:Realm",
        "label": "_owner",
        "offset": 0,
        "slot": "61",
        "type": "t_address"
      },
      {
        "astId": 124,
        "contract": "contracts/Realm.sol:Realm",
        "label": "__gap",
        "offset": 0,
        "slot": "62",
        "type": "t_array(t_uint256)49_storage"
      },
      {
        "astId": 6061,
        "contract": "contracts/Realm.sol:Realm",
        "label": "taxRate",
        "offset": 0,
        "slot": "111",
        "type": "t_uint256"
      },
      {
        "astId": 6063,
        "contract": "contracts/Realm.sol:Realm",
        "label": "protocolFee",
        "offset": 0,
        "slot": "112",
        "type": "t_uint256"
      },
      {
        "astId": 6065,
        "contract": "contracts/Realm.sol:Realm",
        "label": "_tokenId",
        "offset": 0,
        "slot": "113",
        "type": "t_uint256"
      },
      {
        "astId": 6067,
        "contract": "contracts/Realm.sol:Realm",
        "label": "votingTime",
        "offset": 0,
        "slot": "114",
        "type": "t_uint256"
      },
      {
        "astId": 6069,
        "contract": "contracts/Realm.sol:Realm",
        "label": "_creatorShare",
        "offset": 0,
        "slot": "115",
        "type": "t_uint256"
      },
      {
        "astId": 6071,
        "contract": "contracts/Realm.sol:Realm",
        "label": "depositFee",
        "offset": 0,
        "slot": "116",
        "type": "t_uint256"
      },
      {
        "astId": 6077,
        "contract": "contracts/Realm.sol:Realm",
        "label": "_proposalTypes",
        "offset": 0,
        "slot": "117",
        "type": "t_mapping(t_uint256,t_enum(ProposalTypes)6031)"
      },
      {
        "astId": 6082,
        "contract": "contracts/Realm.sol:Realm",
        "label": "_extensionToAddProposal",
        "offset": 0,
        "slot": "118",
        "type": "t_mapping(t_uint256,t_uint256)"
      },
      {
        "astId": 6087,
        "contract": "contracts/Realm.sol:Realm",
        "label": "_proposalToExtension",
        "offset": 0,
        "slot": "119",
        "type": "t_mapping(t_uint256,t_uint256)"
      },
      {
        "astId": 6092,
        "contract": "contracts/Realm.sol:Realm",
        "label": "_extensionRealmLands",
        "offset": 0,
        "slot": "120",
        "type": "t_mapping(t_uint256,t_address)"
      },
      {
        "astId": 6098,
        "contract": "contracts/Realm.sol:Realm",
        "label": "_deposits",
        "offset": 0,
        "slot": "121",
        "type": "t_mapping(t_address,t_mapping(t_uint256,t_uint256))"
      },
      {
        "astId": 6100,
        "contract": "contracts/Realm.sol:Realm",
        "label": "_taxes",
        "offset": 0,
        "slot": "122",
        "type": "t_uint256"
      },
      {
        "astId": 6102,
        "contract": "contracts/Realm.sol:Realm",
        "label": "_protocolFees",
        "offset": 0,
        "slot": "123",
        "type": "t_uint256"
      }
    ],
    "types": {
      "t_address": {
        "encoding": "inplace",
        "label": "address",
        "numberOfBytes": "20"
      },
      "t_array(t_uint256)49_storage": {
        "base": "t_uint256",
        "encoding": "inplace",
        "label": "uint256[49]",
        "numberOfBytes": "1568"
      },
      "t_array(t_uint256)50_storage": {
        "base": "t_uint256",
        "encoding": "inplace",
        "label": "uint256[50]",
        "numberOfBytes": "1600"
      },
      "t_bool": {
        "encoding": "inplace",
        "label": "bool",
        "numberOfBytes": "1"
      },
      "t_enum(ProposalTypes)6031": {
        "encoding": "inplace",
        "label": "enum Realm.ProposalTypes",
        "numberOfBytes": "1"
      },
      "t_mapping(t_address,t_bool)": {
        "encoding": "mapping",
        "key": "t_address",
        "label": "mapping(address => bool)",
        "numberOfBytes": "32",
        "value": "t_bool"
      },
      "t_mapping(t_address,t_mapping(t_address,t_bool))": {
        "encoding": "mapping",
        "key": "t_address",
        "label": "mapping(address => mapping(address => bool))",
        "numberOfBytes": "32",
        "value": "t_mapping(t_address,t_bool)"
      },
      "t_mapping(t_address,t_mapping(t_uint256,t_bool))": {
        "encoding": "mapping",
        "key": "t_address",
        "label": "mapping(address => mapping(uint256 => bool))",
        "numberOfBytes": "32",
        "value": "t_mapping(t_uint256,t_bool)"
      },
      "t_mapping(t_address,t_mapping(t_uint256,t_uint256))": {
        "encoding": "mapping",
        "key": "t_address",
        "label": "mapping(address => mapping(uint256 => uint256))",
        "numberOfBytes": "32",
        "value": "t_mapping(t_uint256,t_uint256)"
      },
      "t_mapping(t_address,t_uint256)": {
        "encoding": "mapping",
        "key": "t_address",
        "label": "mapping(address => uint256)",
        "numberOfBytes": "32",
        "value": "t_uint256"
      },
      "t_mapping(t_uint256,t_address)": {
        "encoding": "mapping",
        "key": "t_uint256",
        "label": "mapping(uint256 => address)",
        "numberOfBytes": "32",
        "value": "t_address"
      },
      "t_mapping(t_uint256,t_bool)": {
        "encoding": "mapping",
        "key": "t_uint256",
        "label": "mapping(uint256 => bool)",
        "numberOfBytes": "32",
        "value": "t_bool"
      },
      "t_mapping(t_uint256,t_enum(ProposalTypes)6031)": {
        "encoding": "mapping",
        "key": "t_uint256",
        "label": "mapping(uint256 => enum Realm.ProposalTypes)",
        "numberOfBytes": "32",
        "value": "t_enum(ProposalTypes)6031"
      },
      "t_mapping(t_uint256,t_mapping(t_address,t_uint256))": {
        "encoding": "mapping",
        "key": "t_uint256",
        "label": "mapping(uint256 => mapping(address => uint256))",
        "numberOfBytes": "32",
        "value": "t_mapping(t_address,t_uint256)"
      },
      "t_mapping(t_uint256,t_struct(Proposal)6896_storage)": {
        "encoding": "mapping",
        "key": "t_uint256",
        "label": "mapping(uint256 => struct Voting.Proposal)",
        "numberOfBytes": "32",
        "value": "t_struct(Proposal)6896_storage"
      },
      "t_mapping(t_uint256,t_uint256)": {
        "encoding": "mapping",
        "key": "t_uint256",
        "label": "mapping(uint256 => uint256)",
        "numberOfBytes": "32",
        "value": "t_uint256"
      },
      "t_string_storage": {
        "encoding": "bytes",
        "label": "string",
        "numberOfBytes": "32"
      },
      "t_struct(Proposal)6896_storage": {
        "encoding": "inplace",
        "label": "struct Voting.Proposal",
        "members": [
          {
            "astId": 6887,
            "contract": "contracts/Realm.sol:Realm",
            "label": "tokenAddress",
            "offset": 0,
            "slot": "0",
            "type": "t_address"
          },
          {
            "astId": 6889,
            "contract": "contracts/Realm.sol:Realm",
            "label": "tokenId",
            "offset": 0,
            "slot": "1",
            "type": "t_uint256"
          },
          {
            "astId": 6891,
            "contract": "contracts/Realm.sol:Realm",
            "label": "owner",
            "offset": 0,
            "slot": "2",
            "type": "t_address"
          },
          {
            "astId": 6893,
            "contract": "contracts/Realm.sol:Realm",
            "label": "votes",
            "offset": 0,
            "slot": "3",
            "type": "t_uint256"
          },
          {
            "astId": 6895,
            "contract": "contracts/Realm.sol:Realm",
            "label": "votingEnd",
            "offset": 0,
            "slot": "4",
            "type": "t_uint256"
          }
        ],
        "numberOfBytes": "160"
      },
      "t_uint256": {
        "encoding": "inplace",
        "label": "uint256",
        "numberOfBytes": "32"
      }
    }
  }
}