{
  "address": "0xB1c26Acc60b7f5232c6a49BDca543eB861F31A77",
  "abi": [
    {
      "inputs": [],
      "stateMutability": "nonpayable",
      "type": "constructor"
    },
    {
      "anonymous": false,
      "inputs": [
        {
          "indexed": false,
          "internalType": "address",
          "name": "previousAdmin",
          "type": "address"
        },
        {
          "indexed": false,
          "internalType": "address",
          "name": "newAdmin",
          "type": "address"
        }
      ],
      "name": "AdminChanged",
      "type": "event"
    },
    {
      "anonymous": false,
      "inputs": [
        {
          "indexed": true,
          "internalType": "address",
          "name": "account",
          "type": "address"
        },
        {
          "indexed": true,
          "internalType": "address",
          "name": "operator",
          "type": "address"
        },
        {
          "indexed": false,
          "internalType": "bool",
          "name": "approved",
          "type": "bool"
        }
      ],
      "name": "ApprovalForAll",
      "type": "event"
    },
    {
      "anonymous": false,
      "inputs": [
        {
          "indexed": true,
          "internalType": "address",
          "name": "beacon",
          "type": "address"
        }
      ],
      "name": "BeaconUpgraded",
      "type": "event"
    },
    {
      "anonymous": false,
      "inputs": [
        {
          "indexed": false,
          "internalType": "uint256",
          "name": "proposalId",
          "type": "uint256"
        },
        {
          "indexed": false,
          "internalType": "address",
          "name": "nftAddress",
          "type": "address"
        },
        {
          "indexed": false,
          "internalType": "uint256",
          "name": "nftId",
          "type": "uint256"
        },
        {
          "indexed": false,
          "internalType": "uint256",
          "name": "extensionId",
          "type": "uint256"
        }
      ],
      "name": "ProposalAccepted",
      "type": "event"
    },
    {
      "anonymous": false,
      "inputs": [
        {
          "indexed": false,
          "internalType": "uint256",
          "name": "proposalId",
          "type": "uint256"
        },
        {
          "indexed": false,
          "internalType": "address",
          "name": "nftAddress",
          "type": "address"
        },
        {
          "indexed": false,
          "internalType": "uint256",
          "name": "nftId",
          "type": "uint256"
        },
        {
          "indexed": false,
          "internalType": "address",
          "name": "owner",
          "type": "address"
        },
        {
          "indexed": false,
          "internalType": "string",
          "name": "proposalType",
          "type": "string"
        }
      ],
      "name": "ProposalSubmitted",
      "type": "event"
    },
    {
      "anonymous": false,
      "inputs": [
        {
          "indexed": false,
          "internalType": "uint256",
          "name": "extensionId",
          "type": "uint256"
        },
        {
          "indexed": false,
          "internalType": "address",
          "name": "to",
          "type": "address"
        },
        {
          "indexed": false,
          "internalType": "uint256",
          "name": "tokenId",
          "type": "uint256"
        }
      ],
      "name": "RealmLandsMinted",
      "type": "event"
    },
    {
      "anonymous": false,
      "inputs": [
        {
          "indexed": true,
          "internalType": "bytes32",
          "name": "role",
          "type": "bytes32"
        },
        {
          "indexed": true,
          "internalType": "bytes32",
          "name": "previousAdminRole",
          "type": "bytes32"
        },
        {
          "indexed": true,
          "internalType": "bytes32",
          "name": "newAdminRole",
          "type": "bytes32"
        }
      ],
      "name": "RoleAdminChanged",
      "type": "event"
    },
    {
      "anonymous": false,
      "inputs": [
        {
          "indexed": true,
          "internalType": "bytes32",
          "name": "role",
          "type": "bytes32"
        },
        {
          "indexed": true,
          "internalType": "address",
          "name": "account",
          "type": "address"
        },
        {
          "indexed": true,
          "internalType": "address",
          "name": "sender",
          "type": "address"
        }
      ],
      "name": "RoleGranted",
      "type": "event"
    },
    {
      "anonymous": false,
      "inputs": [
        {
          "indexed": true,
          "internalType": "bytes32",
          "name": "role",
          "type": "bytes32"
        },
        {
          "indexed": true,
          "internalType": "address",
          "name": "account",
          "type": "address"
        },
        {
          "indexed": true,
          "internalType": "address",
          "name": "sender",
          "type": "address"
        }
      ],
      "name": "RoleRevoked",
      "type": "event"
    },
    {
      "anonymous": false,
      "inputs": [
        {
          "indexed": true,
          "internalType": "address",
          "name": "operator",
          "type": "address"
        },
        {
          "indexed": true,
          "internalType": "address",
          "name": "from",
          "type": "address"
        },
        {
          "indexed": true,
          "internalType": "address",
          "name": "to",
          "type": "address"
        },
        {
          "indexed": false,
          "internalType": "uint256[]",
          "name": "ids",
          "type": "uint256[]"
        },
        {
          "indexed": false,
          "internalType": "uint256[]",
          "name": "values",
          "type": "uint256[]"
        }
      ],
      "name": "TransferBatch",
      "type": "event"
    },
    {
      "anonymous": false,
      "inputs": [
        {
          "indexed": true,
          "internalType": "address",
          "name": "operator",
          "type": "address"
        },
        {
          "indexed": true,
          "internalType": "address",
          "name": "from",
          "type": "address"
        },
        {
          "indexed": true,
          "internalType": "address",
          "name": "to",
          "type": "address"
        },
        {
          "indexed": false,
          "internalType": "uint256",
          "name": "id",
          "type": "uint256"
        },
        {
          "indexed": false,
          "internalType": "uint256",
          "name": "value",
          "type": "uint256"
        }
      ],
      "name": "TransferSingle",
      "type": "event"
    },
    {
      "anonymous": false,
      "inputs": [
        {
          "indexed": false,
          "internalType": "string",
          "name": "value",
          "type": "string"
        },
        {
          "indexed": true,
          "internalType": "uint256",
          "name": "id",
          "type": "uint256"
        }
      ],
      "name": "URI",
      "type": "event"
    },
    {
      "anonymous": false,
      "inputs": [
        {
          "indexed": true,
          "internalType": "address",
          "name": "implementation",
          "type": "address"
        }
      ],
      "name": "Upgraded",
      "type": "event"
    },
    {
      "anonymous": false,
      "inputs": [
        {
          "indexed": false,
          "internalType": "uint256",
          "name": "proposalId",
          "type": "uint256"
        },
        {
          "indexed": false,
          "internalType": "address",
          "name": "voter",
          "type": "address"
        }
      ],
      "name": "Voted",
      "type": "event"
    },
    {
      "inputs": [],
      "name": "DEFAULT_ADMIN_ROLE",
      "outputs": [
        {
          "internalType": "bytes32",
          "name": "",
          "type": "bytes32"
        }
      ],
      "stateMutability": "view",
      "type": "function"
    },
    {
      "inputs": [],
      "name": "REALM_OWNER",
      "outputs": [
        {
          "internalType": "bytes32",
          "name": "",
          "type": "bytes32"
        }
      ],
      "stateMutability": "view",
      "type": "function"
    },
    {
      "inputs": [],
      "name": "UPGRADER",
      "outputs": [
        {
          "internalType": "bytes32",
          "name": "",
          "type": "bytes32"
        }
      ],
      "stateMutability": "view",
      "type": "function"
    },
    {
      "inputs": [
        {
          "internalType": "address",
          "name": "nftToAttachAddress",
          "type": "address"
        },
        {
          "internalType": "uint256",
          "name": "nftToAttachId",
          "type": "uint256"
        }
      ],
      "name": "addExtension",
      "outputs": [],
      "stateMutability": "payable",
      "type": "function"
    },
    {
      "inputs": [
        {
          "internalType": "address",
          "name": "account",
          "type": "address"
        },
        {
          "internalType": "uint256",
          "name": "id",
          "type": "uint256"
        }
      ],
      "name": "balanceOf",
      "outputs": [
        {
          "internalType": "uint256",
          "name": "",
          "type": "uint256"
        }
      ],
      "stateMutability": "view",
      "type": "function"
    },
    {
      "inputs": [
        {
          "internalType": "address[]",
          "name": "accounts",
          "type": "address[]"
        },
        {
          "internalType": "uint256[]",
          "name": "ids",
          "type": "uint256[]"
        }
      ],
      "name": "balanceOfBatch",
      "outputs": [
        {
          "internalType": "uint256[]",
          "name": "",
          "type": "uint256[]"
        }
      ],
      "stateMutability": "view",
      "type": "function"
    },
    {
      "inputs": [],
      "name": "getDistributionManagerAddress",
      "outputs": [
        {
          "internalType": "address",
          "name": "",
          "type": "address"
        }
      ],
      "stateMutability": "view",
      "type": "function"
    },
    {
      "inputs": [
        {
          "internalType": "uint256",
          "name": "proposalId",
          "type": "uint256"
        }
      ],
      "name": "getProposalOwner",
      "outputs": [
        {
          "internalType": "address",
          "name": "",
          "type": "address"
        }
      ],
      "stateMutability": "view",
      "type": "function"
    },
    {
      "inputs": [
        {
          "internalType": "uint256",
          "name": "proposalId",
          "type": "uint256"
        }
      ],
      "name": "getProposalTokenAddress",
      "outputs": [
        {
          "internalType": "address",
          "name": "",
          "type": "address"
        }
      ],
      "stateMutability": "view",
      "type": "function"
    },
    {
      "inputs": [
        {
          "internalType": "uint256",
          "name": "proposalId",
          "type": "uint256"
        }
      ],
      "name": "getProposalTokenId",
      "outputs": [
        {
          "internalType": "uint256",
          "name": "",
          "type": "uint256"
        }
      ],
      "stateMutability": "view",
      "type": "function"
    },
    {
      "inputs": [
        {
          "internalType": "uint256",
          "name": "proposalId",
          "type": "uint256"
        }
      ],
      "name": "getProposalVotes",
      "outputs": [
        {
          "internalType": "uint256",
          "name": "",
          "type": "uint256"
        }
      ],
      "stateMutability": "view",
      "type": "function"
    },
    {
      "inputs": [
        {
          "internalType": "uint256",
          "name": "proposalId",
          "type": "uint256"
        }
      ],
      "name": "getProposalVotingEnd",
      "outputs": [
        {
          "internalType": "uint256",
          "name": "",
          "type": "uint256"
        }
      ],
      "stateMutability": "view",
      "type": "function"
    },
    {
      "inputs": [
        {
          "internalType": "uint256",
          "name": "extensionId",
          "type": "uint256"
        }
      ],
      "name": "getRealmLandsAddress",
      "outputs": [
        {
          "internalType": "address",
          "name": "",
          "type": "address"
        }
      ],
      "stateMutability": "view",
      "type": "function"
    },
    {
      "inputs": [
        {
          "internalType": "bytes32",
          "name": "role",
          "type": "bytes32"
        }
      ],
      "name": "getRoleAdmin",
      "outputs": [
        {
          "internalType": "bytes32",
          "name": "",
          "type": "bytes32"
        }
      ],
      "stateMutability": "view",
      "type": "function"
    },
    {
      "inputs": [
        {
          "internalType": "bytes32",
          "name": "role",
          "type": "bytes32"
        },
        {
          "internalType": "address",
          "name": "account",
          "type": "address"
        }
      ],
      "name": "grantRole",
      "outputs": [],
      "stateMutability": "nonpayable",
      "type": "function"
    },
    {
      "inputs": [
        {
          "internalType": "bytes32",
          "name": "role",
          "type": "bytes32"
        },
        {
          "internalType": "address",
          "name": "account",
          "type": "address"
        }
      ],
      "name": "hasRole",
      "outputs": [
        {
          "internalType": "bool",
          "name": "",
          "type": "bool"
        }
      ],
      "stateMutability": "view",
      "type": "function"
    },
    {
      "inputs": [
        {
          "internalType": "address",
          "name": "protocolParameters_",
          "type": "address"
        },
        {
          "internalType": "string",
          "name": "uri",
          "type": "string"
        },
        {
          "internalType": "address",
          "name": "caller",
          "type": "address"
        },
        {
          "internalType": "address",
          "name": "upgrader",
          "type": "address"
        },
        {
          "internalType": "address",
          "name": "distributionManager_",
          "type": "address"
        },
        {
          "internalType": "uint256",
          "name": "votingTime_",
          "type": "uint256"
        },
        {
          "internalType": "uint256",
          "name": "taxRate_",
          "type": "uint256"
        },
        {
          "internalType": "uint256",
          "name": "creatorShare",
          "type": "uint256"
        },
        {
          "internalType": "uint256",
          "name": "votingConsensus",
          "type": "uint256"
        },
        {
          "internalType": "address",
          "name": "nftToAttachAddress",
          "type": "address"
        },
        {
          "internalType": "uint256",
          "name": "nftToAttachId",
          "type": "uint256"
        }
      ],
      "name": "initialize",
      "outputs": [],
      "stateMutability": "nonpayable",
      "type": "function"
    },
    {
      "inputs": [
        {
          "internalType": "address",
          "name": "account",
          "type": "address"
        },
        {
          "internalType": "address",
          "name": "operator",
          "type": "address"
        }
      ],
      "name": "isApprovedForAll",
      "outputs": [
        {
          "internalType": "bool",
          "name": "",
          "type": "bool"
        }
      ],
      "stateMutability": "view",
      "type": "function"
    },
    {
      "inputs": [
        {
          "internalType": "uint256",
          "name": "extensionId",
          "type": "uint256"
        },
        {
          "internalType": "address",
          "name": "to",
          "type": "address"
        }
      ],
      "name": "mintLand",
      "outputs": [],
      "stateMutability": "nonpayable",
      "type": "function"
    },
    {
      "inputs": [
        {
          "internalType": "uint256",
          "name": "",
          "type": "uint256"
        }
      ],
      "name": "proposals",
      "outputs": [
        {
          "internalType": "address",
          "name": "tokenAddress",
          "type": "address"
        },
        {
          "internalType": "uint256",
          "name": "tokenId",
          "type": "uint256"
        },
        {
          "internalType": "address",
          "name": "owner",
          "type": "address"
        },
        {
          "internalType": "uint256",
          "name": "votes",
          "type": "uint256"
        },
        {
          "internalType": "uint256",
          "name": "votingEnd",
          "type": "uint256"
        }
      ],
      "stateMutability": "view",
      "type": "function"
    },
    {
      "inputs": [],
      "name": "protocolParameters",
      "outputs": [
        {
          "internalType": "address",
          "name": "",
          "type": "address"
        }
      ],
      "stateMutability": "view",
      "type": "function"
    },
    {
      "inputs": [
        {
          "internalType": "uint256",
          "name": "extensionTokenId",
          "type": "uint256"
        }
      ],
      "name": "removeExtension",
      "outputs": [],
      "stateMutability": "nonpayable",
      "type": "function"
    },
    {
      "inputs": [
        {
          "internalType": "bytes32",
          "name": "role",
          "type": "bytes32"
        },
        {
          "internalType": "address",
          "name": "account",
          "type": "address"
        }
      ],
      "name": "renounceRole",
      "outputs": [],
      "stateMutability": "nonpayable",
      "type": "function"
    },
    {
      "inputs": [
        {
          "internalType": "bytes32",
          "name": "role",
          "type": "bytes32"
        },
        {
          "internalType": "address",
          "name": "account",
          "type": "address"
        }
      ],
      "name": "revokeRole",
      "outputs": [],
      "stateMutability": "nonpayable",
      "type": "function"
    },
    {
      "inputs": [
        {
          "internalType": "address",
          "name": "from",
          "type": "address"
        },
        {
          "internalType": "address",
          "name": "to",
          "type": "address"
        },
        {
          "internalType": "uint256[]",
          "name": "ids",
          "type": "uint256[]"
        },
        {
          "internalType": "uint256[]",
          "name": "amounts",
          "type": "uint256[]"
        },
        {
          "internalType": "bytes",
          "name": "data",
          "type": "bytes"
        }
      ],
      "name": "safeBatchTransferFrom",
      "outputs": [],
      "stateMutability": "nonpayable",
      "type": "function"
    },
    {
      "inputs": [
        {
          "internalType": "address",
          "name": "from",
          "type": "address"
        },
        {
          "internalType": "address",
          "name": "to",
          "type": "address"
        },
        {
          "internalType": "uint256",
          "name": "id",
          "type": "uint256"
        },
        {
          "internalType": "uint256",
          "name": "amount",
          "type": "uint256"
        },
        {
          "internalType": "bytes",
          "name": "data",
          "type": "bytes"
        }
      ],
      "name": "safeTransferFrom",
      "outputs": [],
      "stateMutability": "nonpayable",
      "type": "function"
    },
    {
      "inputs": [
        {
          "internalType": "address",
          "name": "operator",
          "type": "address"
        },
        {
          "internalType": "bool",
          "name": "approved",
          "type": "bool"
        }
      ],
      "name": "setApprovalForAll",
      "outputs": [],
      "stateMutability": "nonpayable",
      "type": "function"
    },
    {
      "inputs": [
        {
          "internalType": "uint256",
          "name": "taxRate_",
          "type": "uint256"
        }
      ],
      "name": "setTaxRate",
      "outputs": [],
      "stateMutability": "nonpayable",
      "type": "function"
    },
    {
      "inputs": [
        {
          "internalType": "bytes4",
          "name": "interfaceId",
          "type": "bytes4"
        }
      ],
      "name": "supportsInterface",
      "outputs": [
        {
          "internalType": "bool",
          "name": "",
          "type": "bool"
        }
      ],
      "stateMutability": "view",
      "type": "function"
    },
    {
      "inputs": [],
      "name": "taxRate",
      "outputs": [
        {
          "internalType": "uint256",
          "name": "",
          "type": "uint256"
        }
      ],
      "stateMutability": "view",
      "type": "function"
    },
    {
      "inputs": [
        {
          "internalType": "address",
          "name": "newImplementation",
          "type": "address"
        }
      ],
      "name": "upgradeTo",
      "outputs": [],
      "stateMutability": "nonpayable",
      "type": "function"
    },
    {
      "inputs": [
        {
          "internalType": "address",
          "name": "newImplementation",
          "type": "address"
        },
        {
          "internalType": "bytes",
          "name": "data",
          "type": "bytes"
        }
      ],
      "name": "upgradeToAndCall",
      "outputs": [],
      "stateMutability": "payable",
      "type": "function"
    },
    {
      "inputs": [
        {
          "internalType": "uint256",
          "name": "",
          "type": "uint256"
        }
      ],
      "name": "uri",
      "outputs": [
        {
          "internalType": "string",
          "name": "",
          "type": "string"
        }
      ],
      "stateMutability": "view",
      "type": "function"
    },
    {
      "inputs": [
        {
          "internalType": "uint256",
          "name": "proposalId",
          "type": "uint256"
        }
      ],
      "name": "voteForProposal",
      "outputs": [],
      "stateMutability": "nonpayable",
      "type": "function"
    },
    {
      "inputs": [],
      "name": "votingPower",
      "outputs": [
        {
          "internalType": "uint256",
          "name": "",
          "type": "uint256"
        }
      ],
      "stateMutability": "view",
      "type": "function"
    },
    {
      "inputs": [
        {
          "internalType": "address",
          "name": "",
          "type": "address"
        }
      ],
      "name": "votingPowerByAddress",
      "outputs": [
        {
          "internalType": "uint256",
          "name": "",
          "type": "uint256"
        }
      ],
      "stateMutability": "view",
      "type": "function"
    },
    {
      "inputs": [],
      "name": "votingTime",
      "outputs": [
        {
          "internalType": "uint256",
          "name": "",
          "type": "uint256"
        }
      ],
      "stateMutability": "view",
      "type": "function"
    },
    {
      "inputs": [
        {
          "internalType": "uint256",
          "name": "proposalId",
          "type": "uint256"
        }
      ],
      "name": "withdrawDepositFee",
      "outputs": [],
      "stateMutability": "nonpayable",
      "type": "function"
    }
  ],
  "transactionHash": "0x285ef69ca317c5f6af18da17346d6f038ff8dfcad45ac7a25a2f27a888ecf68b",
  "args": [],
  "solcInputHash": "839b07d2d9a1d25229e8462fcf1c1dff",
  "bytecode": "0x60a06040523060601b6080523480156200001857600080fd5b5060408051602081019091526000815262000033816200003a565b5062000136565b80516200004f90600290602084019062000053565b5050565b8280546200006190620000f9565b90600052602060002090601f016020900481019282620000855760008555620000d0565b82601f10620000a057805160ff1916838001178555620000d0565b82800160010185558215620000d0579182015b82811115620000d0578251825591602001919060010190620000b3565b50620000de929150620000e2565b5090565b5b80821115620000de5760008155600101620000e3565b600181811c908216806200010e57607f821691505b602082108114156200013057634e487b7160e01b600052602260045260246000fd5b50919050565b60805160601c615a196200016a60003960008181610e7a01528181610ebd01528181611207015261124a0152615a196000f3fe608060405260043610620002525760003560e01c80635ab24f59116200013b578063b920ef7111620000b9578063e985e9c51162000078578063e985e9c51462000833578063effa78231462000880578063f242432a14620008a5578063f4b5157b14620008ca578063ffad235f14620008fe57600080fd5b8063b920ef711462000777578063b92a479e146200079c578063c6d69a3014620007b3578063d547741f14620007d8578063e7d41f7314620007fd57600080fd5b806391d14854116200010657806391d1485414620006bf578063930c83d514620006e4578063a217fddf146200071a578063a22cb4651462000731578063a7ae5935146200075657600080fd5b80635ab24f59146200062f57806377174f851462000669578063771a3a1d14620006815780638e31ac85146200069a57600080fd5b80632bb5edec11620001d557806339997a02116200019457806339997a02146200055a57806347c66140146200058b5780634df161a114620005bf5780634e1273f414620005e45780634f1ef286146200061857600080fd5b80632bb5edec146200048b5780632eb2c2d614620004c65780632f2ff15d14620004eb57806336568abe14620005105780633659cfe6146200053557600080fd5b80630e89341c11620002225780630e89341c146200038057806317826ac414620003b457806319be726d146200040a5780631cbe482d146200043e578063248a9ca3146200045757600080fd5b8062fdd58e1462000257578063013cf08b146200028f57806301ffc9a71462000323578063045c6ce01462000359575b600080fd5b3480156200026457600080fd5b506200027c62000276366004620039c6565b62000921565b6040519081526020015b60405180910390f35b3480156200029c57600080fd5b50620002e9620002ae36600462003ac6565b600960205260009081526040902080546001820154600283015460038401546004909401546001600160a01b03938416949293909116919085565b604080516001600160a01b039687168152602081019590955292909416918301919091526060820152608081019190915260a00162000286565b3480156200033057600080fd5b50620003486200034236600462003b06565b620009b9565b604051901515815260200162000286565b3480156200036657600080fd5b506200037e6200037836600462003ac6565b62000a1f565b005b3480156200038d57600080fd5b50620003a56200039f36600462003ac6565b62000c84565b60405162000286919062003d47565b348015620003c157600080fd5b50620003f1620003d336600462003ac6565b6000908152600960205260409020600201546001600160a01b031690565b6040516001600160a01b03909116815260200162000286565b3480156200041757600080fd5b506200027c6200042936600462003ac6565b60009081526009602052604090206001015490565b3480156200044b57600080fd5b506200027c6101085481565b3480156200046457600080fd5b506200027c6200047636600462003ac6565b60009081526070602052604090206001015490565b3480156200049857600080fd5b50620003f1620004aa36600462003ac6565b600090815261010d60205260409020546001600160a01b031690565b348015620004d357600080fd5b506200037e620004e536600462003742565b62000d20565b348015620004f857600080fd5b506200037e6200050a36600462003adf565b62000dbe565b3480156200051d57600080fd5b506200037e6200052f36600462003adf565b62000ded565b3480156200054257600080fd5b506200037e62000554366004620036c7565b62000e6f565b3480156200056757600080fd5b506200027c62000579366004620036c7565b60086020526000908152604090205481565b3480156200059857600080fd5b506200027c620005aa36600462003ac6565b60009081526009602052604090206003015490565b348015620005cc57600080fd5b506200037e620005de36600462003ac6565b62000f44565b348015620005f157600080fd5b506200060962000603366004620039f4565b6200108d565b60405162000286919062003d09565b6200037e620006293660046200389e565b620011fc565b3480156200063c57600080fd5b50620003f16200064e36600462003ac6565b6000908152600960205260409020546001600160a01b031690565b3480156200067657600080fd5b506200027c60045481565b3480156200068e57600080fd5b506200027c6101065481565b348015620006a757600080fd5b506200037e620006b936600462003adf565b620012be565b348015620006cc57600080fd5b5062000348620006de36600462003adf565b620013d3565b348015620006f157600080fd5b506200027c7fa615a8afb6fffcb8c6809ac0997b5c9c12b8cc97651150f14c8f6203168cff4c81565b3480156200072757600080fd5b506200027c600081565b3480156200073e57600080fd5b506200037e6200075036600462003869565b620013fe565b3480156200076357600080fd5b5061010f546001600160a01b0316620003f1565b3480156200078457600080fd5b506200037e6200079636600462003ac6565b6200140b565b6200037e620007ad366004620039c6565b62001517565b348015620007c057600080fd5b506200037e620007d236600462003ac6565b620019a4565b348015620007e557600080fd5b506200037e620007f736600462003adf565b620019af565b3480156200080a57600080fd5b506200027c7f4b93cc127ac8aa5ae29c895d6f8256127b3ad24896e9757367f2697703340ef181565b3480156200084057600080fd5b50620003486200085236600462003705565b6001600160a01b03918216600090815260016020908152604080832093909416825291909152205460ff1690565b3480156200088d57600080fd5b506200037e6200089f366004620038f2565b620019d9565b348015620008b257600080fd5b506200037e620008c4366004620037fa565b62001b89565b348015620008d757600080fd5b506200027c620008e936600462003ac6565b60009081526009602052604090206004015490565b3480156200090b57600080fd5b5061011054620003f1906001600160a01b031681565b60006001600160a01b038316620009935760405162461bcd60e51b815260206004820152602b60248201527f455243313135353a2062616c616e636520717565727920666f7220746865207a60448201526a65726f206164647265737360a81b60648201526084015b60405180910390fd5b506000908152602081815260408083206001600160a01b03949094168352929052205490565b60006001600160e01b03198216637965db0b60e01b1480620009eb57506001600160e01b03198216636cdb3d1360e11b145b8062000a0757506001600160e01b031982166303a24d0760e21b145b8062000a19575062000a198262001c17565b92915050565b600062000a2c8262001c4e565b9050801562000c4857600082815261010a602052604081205460ff16600181111562000a6857634e487b7160e01b600052602160045260246000fd5b141562000b6957600080600062000a7f8562001e88565b925092509250600062000a9484848462001eb4565b600081815261010b602090815260408083208a905533835261010e82528083208a8452909152902054909150801562000b1357604051339082156108fc029083906000818181858888f1935050505015801562000af5573d6000803e3d6000fd5b5033600090815261010e602090815260408083208a84529091528120555b604080518881526001600160a01b0387166020820152908101859052606081018390527fb180d23f07a381509523d52a37e7da63c2b098fbccf7e84dea6b6648e062e15c9060800160405180910390a150505050505b6001600083815261010a602052604090205460ff16600181111562000b9e57634e487b7160e01b600052602160045260246000fd5b141562000c4857600082815261010c602090815260408083205480845261010b9092528220549091808062000bd38462001e88565b92509250925062000be78383838862001ee2565b62000bf28162001ef0565b604080518881526001600160a01b0385166020820152908101839052606081018690527fb180d23f07a381509523d52a37e7da63c2b098fbccf7e84dea6b6648e062e15c9060800160405180910390a150505050505b604080518381523360208201527f030b0f8dcd86a031eddb071f91882edeac8173663ba775713b677b42b51be44b910160405180910390a15050565b60606002805462000c959062004044565b80601f016020809104026020016040519081016040528092919081815260200182805462000cc39062004044565b801562000d145780601f1062000ce85761010080835404028352916020019162000d14565b820191906000526020600020905b81548152906001019060200180831162000cf657829003601f168201915b50505050509050919050565b6001600160a01b03851633148062000d3f575062000d3f853362000852565b62000da85760405162461bcd60e51b815260206004820152603260248201527f455243313135353a207472616e736665722063616c6c6572206973206e6f74206044820152711bdddb995c881b9bdc88185c1c1c9bdd995960721b60648201526084016200098a565b62000db7858585858562001f88565b5050505050565b60008281526070602052604090206001015462000ddc813362002195565b62000de8838362002204565b505050565b6001600160a01b038116331462000e5f5760405162461bcd60e51b815260206004820152602f60248201527f416363657373436f6e74726f6c3a2063616e206f6e6c792072656e6f756e636560448201526e103937b632b9903337b91039b2b63360891b60648201526084016200098a565b62000e6b82826200228e565b5050565b306001600160a01b037f000000000000000000000000000000000000000000000000000000000000000016141562000ebb5760405162461bcd60e51b81526004016200098a9062003da4565b7f00000000000000000000000000000000000000000000000000000000000000006001600160a01b031662000eef620022f8565b6001600160a01b03161462000f185760405162461bcd60e51b81526004016200098a9062003e36565b62000f238162002326565b6040805160008082526020820190925262000f419183919062002353565b50565b600081815260096020526040902060048101546002909101546001600160a01b031633811462000fc65760405162461bcd60e51b815260206004820152602660248201527f596f7520617265206e6f7420746865206f776e6572206f66207468652070726f604482015265706f73616c2160d01b60648201526084016200098a565b42821115620010185760405162461bcd60e51b815260206004820152601760248201527f566f74696e67206973206e6f742066696e69736865642100000000000000000060448201526064016200098a565b33600090815261010e6020908152604080832086845290915290205480156200108757604051339082156108fc029083906000818181858888f1935050505015801562001069573d6000803e3d6000fd5b5033600090815261010e602090815260408083208784529091528120555b50505050565b60608151835114620010f45760405162461bcd60e51b815260206004820152602960248201527f455243313135353a206163636f756e747320616e6420696473206c656e677468604482015268040dad2e6dac2e8c6d60bb1b60648201526084016200098a565b6000835167ffffffffffffffff8111156200111f57634e487b7160e01b600052604160045260246000fd5b60405190808252806020026020018201604052801562001149578160200160208202803683370190505b50905060005b8451811015620011f457620011b58582815181106200117e57634e487b7160e01b600052603260045260246000fd5b6020026020010151858381518110620011a757634e487b7160e01b600052603260045260246000fd5b602002602001015162000921565b828281518110620011d657634e487b7160e01b600052603260045260246000fd5b6020908102919091010152620011ec81620040b1565b90506200114f565b509392505050565b306001600160a01b037f0000000000000000000000000000000000000000000000000000000000000000161415620012485760405162461bcd60e51b81526004016200098a9062003da4565b7f00000000000000000000000000000000000000000000000000000000000000006001600160a01b03166200127c620022f8565b6001600160a01b031614620012a55760405162461bcd60e51b81526004016200098a9062003e36565b620012b08262002326565b62000e6b8282600162002353565b6000620012cc338462000921565b905060008111620012f15760405162461bcd60e51b81526004016200098a9062003df0565b600083815261010d60205260408082205490516335313c2160e11b81526001600160a01b03858116600483015290911690636a62784290602401602060405180830381600087803b1580156200134657600080fd5b505af11580156200135b573d6000803e3d6000fd5b505050506040513d601f19601f8201168201806040525081019062001381919062003b44565b604080518681526001600160a01b03861660208201529081018290529091507f6af2462550ffcec7e156c83737e7c6937b7a88fba6b455739891c1b2d956dea69060600160405180910390a150505050565b60009182526070602090815260408084206001600160a01b0393909316845291905290205460ff1690565b62000e6b338383620024a8565b600062001419338362000921565b9050600081116200143e5760405162461bcd60e51b81526004016200098a9062003df0565b600082815261010b60205260408120549080806200145c8462001e88565b925092509250600062001475848484610108546200258b565b600081815261010a60209081526040808320805460ff1916600117905561010c8252918290208a905581518381526001600160a01b0388169181019190915290810185905233606082015260a0608082018190526006908201526552454d4f564560d01b60c08201529091507f43bbe839ef82dc941f31c1b50c3aef00ac608996af8aaff4ac3e6e5bf6eae8749060e00160405180910390a150505050505050565b6040516331a9108f60e11b8152600481018290526000906001600160a01b03841690636352211e9060240160206040518083038186803b1580156200155b57600080fd5b505afa15801562001570573d6000803e3d6000fd5b505050506040513d601f19601f82011682018060405250810190620015969190620036e6565b90506001600160a01b0381163314620015eb5760405162461bcd60e51b8152602060048201526016602482015275596f7520617265206e6f7420746865206f776e65722160501b60448201526064016200098a565b6000620015fe848433610108546200258b565b600081815261010a60209081526040808320805460ff191690556101105481516367a5279360e01b8152915194955092936001600160a01b03909316926367a5279392600480840193919291829003018186803b1580156200165f57600080fd5b505afa15801562001674573d6000803e3d6000fd5b505050506040513d601f19601f820116820180604052508101906200169a919062003b44565b905080156200193357803414620016ff5760405162461bcd60e51b815260206004820152602260248201527f6d73672e76616c75652073686f756c6420657175616c206465706f7369744665604482015261652160f01b60648201526084016200098a565b610106543490156200177b576000612710610106543462001721919062003fbf565b6200172d919062003f9e565b90506200173b818362003fe1565b61010f546040519193506001600160a01b03169082156108fc029083906000818181858888f1935050505015801562001778573d6000803e3d6000fd5b50505b61011054604080516358710f4560e11b815290516000926001600160a01b03169163b0e21e8a916004808301926020929190829003018186803b158015620017c257600080fd5b505afa158015620017d7573d6000803e3d6000fd5b505050506040513d601f19601f82011682018060405250810190620017fd919062003b44565b90508015620018fe57600061271062001817833462003fbf565b62001823919062003f9e565b905062001831818462003fe1565b9250600061011060009054906101000a90046001600160a01b03166001600160a01b031663c415b95c6040518163ffffffff1660e01b815260040160206040518083038186803b1580156200188557600080fd5b505afa1580156200189a573d6000803e3d6000fd5b505050506040513d601f19601f82011682018060405250810190620018c09190620036e6565b6040519091506001600160a01b0382169083156108fc029084906000818181858888f19350505050158015620018fa573d6000803e3d6000fd5b5050505b33600090815261010e60209081526040808320878452909152812080548492906200192b90849062003f83565b909155505050505b604080518381526001600160a01b038716602082015290810185905233606082015260a0608082018190526003908201526210511160ea1b60c08201527f43bbe839ef82dc941f31c1b50c3aef00ac608996af8aaff4ac3e6e5bf6eae8749060e00160405180910390a15050505050565b62000f41816200265b565b600082815260706020526040902060010154620019cd813362002195565b62000de883836200228e565b600b54610100900460ff16620019f657600b5460ff1615620019fa565b303b155b62001a5f5760405162461bcd60e51b815260206004820152602e60248201527f496e697469616c697a61626c653a20636f6e747261637420697320616c72656160448201526d191e481a5b9a5d1a585b1a5e995960921b60648201526084016200098a565b600b54610100900460ff1615801562001a8257600b805461ffff19166101011790555b62001a8c620026b4565b62001a96620026fe565b62001aa360008a62002728565b62001acf7fa615a8afb6fffcb8c6809ac0997b5c9c12b8cc97651150f14c8f6203168cff4c8a62002728565b62001afb7f4b93cc127ac8aa5ae29c895d6f8256127b3ad24896e9757367f2697703340ef18b62002728565b62001b068b62002734565b62001b11866200265b565b62001b1d8a8662002749565b62001b2a83838c62001eb4565b5062001b368462002878565b61010f80546001600160a01b03808b166001600160a01b0319928316179092556101108054928f1692909116919091179055801562001b7b57600b805461ff00191690555b505050505050505050505050565b6001600160a01b03851633148062001ba8575062001ba8853362000852565b62001c085760405162461bcd60e51b815260206004820152602960248201527f455243313135353a2063616c6c6572206973206e6f74206f776e6572206e6f7260448201526808185c1c1c9bdd995960ba1b60648201526084016200098a565b62000db7858585858562002923565b60006001600160e01b03198216637965db0b60e01b148062000a1957506301ffc9a760e01b6001600160e01b031983161462000a19565b6000818152600960205260408120546001600160a01b031662001cac5760405162461bcd60e51b8152602060048201526015602482015274139bdb88195e1a5cdd195b9d081c1c9bdc1bdcd85b605a1b60448201526064016200098a565b336000908152600a6020908152604080832085845290915290205460ff161562001d255760405162461bcd60e51b815260206004820152602360248201527f43616e277420766f746520666f722073616d652070726f706f73616c2074776960448201526263652160e81b60648201526084016200098a565b600082815260096020526040902060040154421062001d7e5760405162461bcd60e51b8152602060048201526014602482015273141c9bdc1bdcd85b081a185cc8195e1c1a5c995960621b60448201526064016200098a565b3360009081526008602052604090205462001ddc5760405162461bcd60e51b815260206004820152601c60248201527f596f7520646f206e6f74206861766520766f74696e6720706f7765720000000060448201526064016200098a565b336000908152600860209081526040808320548584526009909252822060030180549192909162001e0f90849062003f83565b9091555050336000908152600a602090815260408083208584529091529020805460ff191660011790556007546004546127109162001e4e9162003fbf565b62001e5a919062003f9e565b600083815260096020526040902060030154111562001e7b57506001919050565b506000919050565b919050565b6000908152600960205260409020805460018201546002909201546001600160a01b0391821693911690565b600062001ec384848462002a58565b905062001ed08262002aa4565b62001edb8162002b3c565b9392505050565b620010878282600162002b9b565b6127106004600082825462001f06919062003fe1565b909155505060065460009062001f1f9061271062003fe1565b6006546005546001600160a01b031660009081526008602052604081208054939450919262001f5090849062003f83565b90915550506001600160a01b0382166000908152600860205260408120805483929062001f7f90849062003f83565b90915550505050565b815183511462001fec5760405162461bcd60e51b815260206004820152602860248201527f455243313135353a2069647320616e6420616d6f756e7473206c656e677468206044820152670dad2e6dac2e8c6d60c31b60648201526084016200098a565b6001600160a01b038416620020155760405162461bcd60e51b81526004016200098a9062003e82565b3360005b8451811015620021235760008582815181106200204657634e487b7160e01b600052603260045260246000fd5b6020026020010151905060008583815181106200207357634e487b7160e01b600052603260045260246000fd5b602090810291909101810151600084815280835260408082206001600160a01b038e168352909352919091205490915081811015620020c65760405162461bcd60e51b81526004016200098a9062003ec7565b6000838152602081815260408083206001600160a01b038e8116855292528083208585039055908b168252812080548492906200210590849062003f83565b92505081905550505050806200211b90620040b1565b905062002019565b50846001600160a01b0316866001600160a01b0316826001600160a01b03167f4a39dc06d4c0dbc64b70af90fd698a233a518aa5d07e595d983b8c0526c8f7fb87876040516200217592919062003d1e565b60405180910390a46200218d81878787878762002d1e565b505050505050565b620021a18282620013d3565b62000e6b57620021bc816001600160a01b0316601462002e9e565b620021c983602062002e9e565b604051602001620021dc92919062003be5565b60408051601f198184030181529082905262461bcd60e51b82526200098a9160040162003d47565b620022108282620013d3565b62000e6b5760008281526070602090815260408083206001600160a01b03851684529091529020805460ff191660011790556200224a3390565b6001600160a01b0316816001600160a01b0316837f2f8788117e7eff1d82e926ec794901d17c78024a50270940304540a733656f0d60405160405180910390a45050565b6200229a8282620013d3565b1562000e6b5760008281526070602090815260408083206001600160a01b0385168085529252808320805460ff1916905551339285917ff6391f5c32d9c69d2a47ea670b442974b53935d1edc7fd64eb21e047a839171b9190a45050565b7f360894a13ba1a3210667c828492db98dca3e2076cc3735a920a3ca505d382bbc546001600160a01b031690565b7fa615a8afb6fffcb8c6809ac0997b5c9c12b8cc97651150f14c8f6203168cff4c62000e6b813362002195565b60006200235f620022f8565b90506200236c8462003094565b6000835111806200237a5750815b156200238e576200238c84846200313b565b505b7f4910fdfa16fed3260ed0e7147f7cc6da11a60208b5b9406d12a635614ffd9143805460ff1662000db757805460ff191660011781556040516001600160a01b03831660248201526200241090869060440160408051601f198184030181529190526020810180516001600160e01b0316631b2ce7f360e11b1790526200313b565b50805460ff1916815562002423620022f8565b6001600160a01b0316826001600160a01b0316146200249d5760405162461bcd60e51b815260206004820152602f60248201527f45524331393637557067726164653a207570677261646520627265616b73206660448201526e75727468657220757067726164657360881b60648201526084016200098a565b62000db7856200322f565b816001600160a01b0316836001600160a01b031614156200251e5760405162461bcd60e51b815260206004820152602960248201527f455243313135353a2073657474696e6720617070726f76616c20737461747573604482015268103337b91039b2b63360b91b60648201526084016200098a565b6001600160a01b03838116600081815260016020908152604080832094871680845294825291829020805460ff191686151590811790915591519182527f17307eab39ab6107e8899845ad3d59bd9653f200f220920489ca2b5937696c31910160405180910390a3505050565b60006040518060a00160405280866001600160a01b03168152602001858152602001846001600160a01b03168152602001600081526020018342620025d1919062003f83565b9052600380546000908152600960209081526040808320855181546001600160a01b03199081166001600160a01b03928316178355938701516001808401919091559287015160028301805490951691161790925560608501518285015560809094015160049091015581546200264a90849062003f83565b909155505060035495945050505050565b6127108110620026ae5760405162461bcd60e51b815260206004820152601c60248201527f74617852617465206d757374206265203c207468616e2031303030300000000060448201526064016200098a565b61010655565b600b54610100900460ff16620026de5760405162461bcd60e51b81526004016200098a9062003f11565b620026e862003271565b620026f262003271565b620026fc62003271565b565b600b54610100900460ff16620026e85760405162461bcd60e51b81526004016200098a9062003f11565b62000e6b828262002204565b805162000e6b90600290602084019062003514565b6001600160a01b038216620027ad5760405162461bcd60e51b8152602060048201526024808201527f63726561746f72416464726573732063616e27742062652061646472657373206044820152637a65726f60e01b60648201526084016200098a565b60008111620027ff5760405162461bcd60e51b815260206004820152601d60248201527f63726561746f725368617265206d757374206265203e207468616e203000000060448201526064016200098a565b6127108110620028525760405162461bcd60e51b815260206004820152601d60248201527f63726561746f725368617265206d757374206265203d3c20313030303000000060448201526064016200098a565b600580546001600160a01b0319166001600160a01b039390931692909217909155600655565b60008111620028ca5760405162461bcd60e51b815260206004820181905260248201527f766f74696e67436f6e73656e737573206d757374206265203e207468616e203060448201526064016200098a565b6127108111156200291e5760405162461bcd60e51b815260206004820181905260248201527f766f74696e67436f6e73656e737573206d757374206265203d3c20313030303060448201526064016200098a565b600755565b6001600160a01b0384166200294c5760405162461bcd60e51b81526004016200098a9062003e82565b336200296a8187876200295f886200329b565b62000db7886200329b565b6000848152602081815260408083206001600160a01b038a16845290915290205483811015620029ae5760405162461bcd60e51b81526004016200098a9062003ec7565b6000858152602081815260408083206001600160a01b038b8116855292528083208785039055908816825281208054869290620029ed90849062003f83565b909155505060408051868152602081018690526001600160a01b03808916928a821692918616917fc3d58168c5ae7397731d063d5bbf3d657854427343f4c083240f7aacaa2d0f62910160405180910390a462002a4f828888888888620032f5565b50505050505050565b60006001610107600082825462002a70919062003f83565b9250508190555062002a988261010754600160405180602001604052806000815250620033cc565b50610107549392505050565b6127106004600082825462002aba919062003f83565b9091555050600654600062002ad28261271062003fe1565b6006546005546001600160a01b031660009081526008602052604081208054939450919262002b0390849062003f83565b90915550506001600160a01b0383166000908152600860205260408120805483929062002b3290849062003f83565b9091555050505050565b600060405162002b4c90620035a3565b604051809103906000f08015801562002b69573d6000803e3d6000fd5b50600092835261010d602052604090922080546001600160a01b0319166001600160a01b039093169290921790915550565b6001600160a01b03831662002bff5760405162461bcd60e51b815260206004820152602360248201527f455243313135353a206275726e2066726f6d20746865207a65726f206164647260448201526265737360e81b60648201526084016200098a565b3362002c348185600062002c13876200329b565b62002c1e876200329b565b5050604080516020810190915260009052505050565b6000838152602081815260408083206001600160a01b03881684529091529020548281101562002cb35760405162461bcd60e51b8152602060048201526024808201527f455243313135353a206275726e20616d6f756e7420657863656564732062616c604482015263616e636560e01b60648201526084016200098a565b6000848152602081815260408083206001600160a01b03898116808652918452828520888703905582518981529384018890529092908616917fc3d58168c5ae7397731d063d5bbf3d657854427343f4c083240f7aacaa2d0f62910160405180910390a45050505050565b6001600160a01b0384163b156200218d5760405163bc197c8160e01b81526001600160a01b0385169063bc197c819062002d65908990899088908890889060040162003c5e565b602060405180830381600087803b15801562002d8057600080fd5b505af192505050801562002db3575060408051601f3d908101601f1916820190925262002db09181019062003b25565b60015b62002e6b5762002dc2620040fb565b806308c379a0141562002e03575062002dda62004114565b8062002de7575062002e05565b8060405162461bcd60e51b81526004016200098a919062003d47565b505b60405162461bcd60e51b815260206004820152603460248201527f455243313135353a207472616e7366657220746f206e6f6e20455243313135356044820152732932b1b2b4bb32b91034b6b83632b6b2b73a32b960611b60648201526084016200098a565b6001600160e01b0319811663bc197c8160e01b1462002a4f5760405162461bcd60e51b81526004016200098a9062003d5c565b6060600062002eaf83600262003fbf565b62002ebc90600262003f83565b67ffffffffffffffff81111562002ee357634e487b7160e01b600052604160045260246000fd5b6040519080825280601f01601f19166020018201604052801562002f0e576020820181803683370190505b509050600360fc1b8160008151811062002f3857634e487b7160e01b600052603260045260246000fd5b60200101906001600160f81b031916908160001a905350600f60fb1b8160018151811062002f7657634e487b7160e01b600052603260045260246000fd5b60200101906001600160f81b031916908160001a905350600062002f9c84600262003fbf565b62002fa990600162003f83565b90505b600181111562003043576f181899199a1a9b1b9c1cb0b131b232b360811b85600f166010811062002fed57634e487b7160e01b600052603260045260246000fd5b1a60f81b8282815181106200301257634e487b7160e01b600052603260045260246000fd5b60200101906001600160f81b031916908160001a90535060049490941c936200303b816200402a565b905062002fac565b50831562001edb5760405162461bcd60e51b815260206004820181905260248201527f537472696e67733a20686578206c656e67746820696e73756666696369656e7460448201526064016200098a565b803b620030fa5760405162461bcd60e51b815260206004820152602d60248201527f455243313936373a206e657720696d706c656d656e746174696f6e206973206e60448201526c1bdd08184818dbdb9d1c9858dd609a1b60648201526084016200098a565b7f360894a13ba1a3210667c828492db98dca3e2076cc3735a920a3ca505d382bbc80546001600160a01b0319166001600160a01b0392909216919091179055565b6060823b6200319c5760405162461bcd60e51b815260206004820152602660248201527f416464726573733a2064656c65676174652063616c6c20746f206e6f6e2d636f6044820152651b9d1c9858dd60d21b60648201526084016200098a565b600080846001600160a01b031684604051620031b9919062003bc7565b600060405180830381855af49150503d8060008114620031f6576040519150601f19603f3d011682016040523d82523d6000602084013e620031fb565b606091505b5091509150620032268282604051806060016040528060278152602001620059bd60279139620034d6565b95945050505050565b6200323a8162003094565b6040516001600160a01b038216907fbc7cd75a20ee27fd9adebab32041f755214dbc6bffa90cc0225b39da2e5c2d3b90600090a250565b600b54610100900460ff16620026fc5760405162461bcd60e51b81526004016200098a9062003f11565b60408051600180825281830190925260609160009190602080830190803683370190505090508281600081518110620032e457634e487b7160e01b600052603260045260246000fd5b602090810291909101015292915050565b6001600160a01b0384163b156200218d5760405163f23a6e6160e01b81526001600160a01b0385169063f23a6e61906200333c908990899088908890889060040162003cc2565b602060405180830381600087803b1580156200335757600080fd5b505af19250505080156200338a575060408051601f3d908101601f19168201909252620033879181019062003b25565b60015b620033995762002dc2620040fb565b6001600160e01b0319811663f23a6e6160e01b1462002a4f5760405162461bcd60e51b81526004016200098a9062003d5c565b6001600160a01b0384166200342e5760405162461bcd60e51b815260206004820152602160248201527f455243313135353a206d696e7420746f20746865207a65726f206164647265736044820152607360f81b60648201526084016200098a565b3362003442816000876200295f886200329b565b6000848152602081815260408083206001600160a01b0389168452909152812080548592906200347490849062003f83565b909155505060408051858152602081018590526001600160a01b0380881692600092918516917fc3d58168c5ae7397731d063d5bbf3d657854427343f4c083240f7aacaa2d0f62910160405180910390a462000db781600087878787620032f5565b60608315620034e757508162001edb565b825115620034f85782518084602001fd5b8160405162461bcd60e51b81526004016200098a919062003d47565b828054620035229062004044565b90600052602060002090601f01602090048101928262003546576000855562003591565b82601f106200356157805160ff191683800117855562003591565b8280016001018555821562003591579182015b828111156200359157825182559160200191906001019062003574565b506200359f929150620035b1565b5090565b6117eb80620041d283390190565b5b808211156200359f5760008155600101620035b2565b803562001e8381620041a4565b600082601f830112620035e6578081fd5b81356020620035f58262003f5c565b60405162003604828262004081565b8381528281019150858301600585901b8701840188101562003624578586fd5b855b85811015620036445781358452928401929084019060010162003626565b5090979650505050505050565b600082601f83011262003662578081fd5b813567ffffffffffffffff8111156200367f576200367f620040e5565b60405162003698601f8301601f19166020018262004081565b818152846020838601011115620036ad578283fd5b816020850160208301379081016020019190915292915050565b600060208284031215620036d9578081fd5b813562001edb81620041a4565b600060208284031215620036f8578081fd5b815162001edb81620041a4565b6000806040838503121562003718578081fd5b82356200372581620041a4565b915060208301356200373781620041a4565b809150509250929050565b600080600080600060a086880312156200375a578081fd5b85356200376781620041a4565b945060208601356200377981620041a4565b9350604086013567ffffffffffffffff8082111562003796578283fd5b620037a489838a01620035d5565b94506060880135915080821115620037ba578283fd5b620037c889838a01620035d5565b93506080880135915080821115620037de578283fd5b50620037ed8882890162003651565b9150509295509295909350565b600080600080600060a0868803121562003812578081fd5b85356200381f81620041a4565b945060208601356200383181620041a4565b93506040860135925060608601359150608086013567ffffffffffffffff8111156200385b578182fd5b620037ed8882890162003651565b600080604083850312156200387c578182fd5b82356200388981620041a4565b91506020830135801515811462003737578182fd5b60008060408385031215620038b1578182fd5b8235620038be81620041a4565b9150602083013567ffffffffffffffff811115620038da578182fd5b620038e88582860162003651565b9150509250929050565b60008060008060008060008060008060006101608c8e03121562003914578889fd5b8b356200392181620041a4565b9a5060208c013567ffffffffffffffff8111156200393d57898afd5b6200394b8e828f0162003651565b9a505060408c01356200395e81620041a4565b98506200396e60608d01620035c8565b97506200397e60808d01620035c8565b965060a08c0135955060c08c0135945060e08c013593506101008c01359250620039ac6101208d01620035c8565b91506101408c013590509295989b509295989b9093969950565b60008060408385031215620039d9578182fd5b8235620039e681620041a4565b946020939093013593505050565b6000806040838503121562003a07578182fd5b823567ffffffffffffffff8082111562003a1f578384fd5b818501915085601f83011262003a33578384fd5b8135602062003a428262003f5c565b60405162003a51828262004081565b8381528281019150858301600585901b870184018b101562003a71578889fd5b8896505b8487101562003aa057803562003a8b81620041a4565b83526001969096019591830191830162003a75565b509650508601359250508082111562003ab7578283fd5b50620038e885828601620035d5565b60006020828403121562003ad8578081fd5b5035919050565b6000806040838503121562003af2578182fd5b8235915060208301356200373781620041a4565b60006020828403121562003b18578081fd5b813562001edb81620041ba565b60006020828403121562003b37578081fd5b815162001edb81620041ba565b60006020828403121562003b56578081fd5b5051919050565b6000815180845260208085019450808401835b8381101562003b8e5781518752958201959082019060010162003b70565b509495945050505050565b6000815180845262003bb381602086016020860162003ffb565b601f01601f19169290920160200192915050565b6000825162003bdb81846020870162003ffb565b9190910192915050565b7f416363657373436f6e74726f6c3a206163636f756e742000000000000000000081526000835162003c1f81601785016020880162003ffb565b7001034b99036b4b9b9b4b733903937b6329607d1b601791840191820152835162003c5281602884016020880162003ffb565b01602801949350505050565b6001600160a01b0386811682528516602082015260a06040820181905260009062003c8c9083018662003b5d565b828103606084015262003ca0818662003b5d565b9050828103608084015262003cb6818562003b99565b98975050505050505050565b6001600160a01b03868116825285166020820152604081018490526060810183905260a06080820181905260009062003cfe9083018462003b99565b979650505050505050565b60208152600062001edb602083018462003b5d565b60408152600062003d33604083018562003b5d565b828103602084015262003226818562003b5d565b60208152600062001edb602083018462003b99565b60208082526028908201527f455243313135353a204552433131353552656365697665722072656a656374656040820152676420746f6b656e7360c01b606082015260800190565b6020808252602c908201527f46756e6374696f6e206d7573742062652063616c6c6564207468726f7567682060408201526b19195b1959d85d1958d85b1b60a21b606082015260800190565b60208082526026908201527f596f7520617265206e6f7420746865206f776e6572206f66207468652065787460408201526532b739b4b7b760d11b606082015260800190565b6020808252602c908201527f46756e6374696f6e206d7573742062652063616c6c6564207468726f7567682060408201526b6163746976652070726f787960a01b606082015260800190565b60208082526025908201527f455243313135353a207472616e7366657220746f20746865207a65726f206164604082015264647265737360d81b606082015260800190565b6020808252602a908201527f455243313135353a20696e73756666696369656e742062616c616e636520666f60408201526939103a3930b739b332b960b11b606082015260800190565b6020808252602b908201527f496e697469616c697a61626c653a20636f6e7472616374206973206e6f74206960408201526a6e697469616c697a696e6760a81b606082015260800190565b600067ffffffffffffffff82111562003f795762003f79620040e5565b5060051b60200190565b6000821982111562003f995762003f99620040cf565b500190565b60008262003fba57634e487b7160e01b81526012600452602481fd5b500490565b600081600019048311821515161562003fdc5762003fdc620040cf565b500290565b60008282101562003ff65762003ff6620040cf565b500390565b60005b838110156200401857818101518382015260200162003ffe565b83811115620010875750506000910152565b6000816200403c576200403c620040cf565b506000190190565b600181811c908216806200405957607f821691505b602082108114156200407b57634e487b7160e01b600052602260045260246000fd5b50919050565b601f8201601f1916810167ffffffffffffffff81118282101715620040aa57620040aa620040e5565b6040525050565b6000600019821415620040c857620040c8620040cf565b5060010190565b634e487b7160e01b600052601160045260246000fd5b634e487b7160e01b600052604160045260246000fd5b600060033d11156200411157600481823e5160e01c5b90565b600060443d1015620041235790565b6040516003193d81016004833e81513d67ffffffffffffffff81602484011181841117156200415457505050505090565b82850191508151818111156200416d5750505050505090565b843d8701016020828501011115620041885750505050505090565b620041996020828601018762004081565b509095945050505050565b6001600160a01b038116811462000f4157600080fd5b6001600160e01b03198116811462000f4157600080fdfe60806040523480156200001157600080fd5b50604080518082018252600b81526a5265616c6d204c616e647360a81b602080830191825283518085019094526006845265524c414e445360d01b9084015281519192916200006391600091620000f2565b50805162000079906001906020840190620000f2565b50505062000096620000906200009c60201b60201c565b620000a0565b620001d5565b3390565b600680546001600160a01b038381166001600160a01b0319831681179093556040519116919082907f8be0079c531659141344cd1fd0a4f28419497f9722a3daafe3b4186f6b6457e090600090a35050565b828054620001009062000198565b90600052602060002090601f0160209004810192826200012457600085556200016f565b82601f106200013f57805160ff19168380011785556200016f565b828001600101855582156200016f579182015b828111156200016f57825182559160200191906001019062000152565b506200017d92915062000181565b5090565b5b808211156200017d576000815560010162000182565b600181811c90821680620001ad57607f821691505b60208210811415620001cf57634e487b7160e01b600052602260045260246000fd5b50919050565b61160680620001e56000396000f3fe608060405234801561001057600080fd5b506004361061010b5760003560e01c806370a08231116100a2578063a22cb46511610071578063a22cb4651461021b578063b88d4fde1461022e578063c87b56dd14610241578063e985e9c514610254578063f2fde38b1461029057600080fd5b806370a08231146101e7578063715018a6146101fa5780638da5cb5b1461020257806395d89b411461021357600080fd5b806323b872dd116100de57806323b872dd1461018d57806342842e0e146101a05780636352211e146101b35780636a627842146101c657600080fd5b806301ffc9a71461011057806306fdde0314610138578063081812fc1461014d578063095ea7b314610178575b600080fd5b61012361011e3660046112cc565b6102a3565b60405190151581526020015b60405180910390f35b6101406102f5565b60405161012f91906113b4565b61016061015b366004611304565b610387565b6040516001600160a01b03909116815260200161012f565b61018b6101863660046112a3565b610421565b005b61018b61019b366004611159565b610537565b61018b6101ae366004611159565b610568565b6101606101c1366004611304565b610583565b6101d96101d436600461110d565b6105fa565b60405190815260200161012f565b6101d96101f536600461110d565b610651565b61018b6106d8565b6006546001600160a01b0316610160565b61014061070e565b61018b610229366004611269565b61071d565b61018b61023c366004611194565b61072c565b61014061024f366004611304565b610764565b610123610262366004611127565b6001600160a01b03918216600090815260056020908152604080832093909416825291909152205460ff1690565b61018b61029e36600461110d565b61084c565b60006001600160e01b031982166380ac58cd60e01b14806102d457506001600160e01b03198216635b5e139f60e01b145b806102ef57506301ffc9a760e01b6001600160e01b03198316145b92915050565b6060600080546103049061150e565b80601f01602080910402602001604051908101604052809291908181526020018280546103309061150e565b801561037d5780601f106103525761010080835404028352916020019161037d565b820191906000526020600020905b81548152906001019060200180831161036057829003601f168201915b5050505050905090565b6000818152600260205260408120546001600160a01b03166104055760405162461bcd60e51b815260206004820152602c60248201527f4552433732313a20617070726f76656420717565727920666f72206e6f6e657860448201526b34b9ba32b73a103a37b5b2b760a11b60648201526084015b60405180910390fd5b506000908152600460205260409020546001600160a01b031690565b600061042c82610583565b9050806001600160a01b0316836001600160a01b0316141561049a5760405162461bcd60e51b815260206004820152602160248201527f4552433732313a20617070726f76616c20746f2063757272656e74206f776e656044820152603960f91b60648201526084016103fc565b336001600160a01b03821614806104b657506104b68133610262565b6105285760405162461bcd60e51b815260206004820152603860248201527f4552433732313a20617070726f76652063616c6c6572206973206e6f74206f7760448201527f6e6572206e6f7220617070726f76656420666f7220616c6c000000000000000060648201526084016103fc565b61053283836108e7565b505050565b6105413382610955565b61055d5760405162461bcd60e51b81526004016103fc9061144e565b610532838383610a4c565b6105328383836040518060200160405280600081525061072c565b6000818152600260205260408120546001600160a01b0316806102ef5760405162461bcd60e51b815260206004820152602960248201527f4552433732313a206f776e657220717565727920666f72206e6f6e657869737460448201526832b73a103a37b5b2b760b91b60648201526084016103fc565b6006546000906001600160a01b031633146106275760405162461bcd60e51b81526004016103fc90611419565b506007805490600190600061063c838561149f565b9091555061064c90508282610bec565b919050565b60006001600160a01b0382166106bc5760405162461bcd60e51b815260206004820152602a60248201527f4552433732313a2062616c616e636520717565727920666f7220746865207a65604482015269726f206164647265737360b01b60648201526084016103fc565b506001600160a01b031660009081526003602052604090205490565b6006546001600160a01b031633146107025760405162461bcd60e51b81526004016103fc90611419565b61070c6000610c06565b565b6060600180546103049061150e565b610728338383610c58565b5050565b6107363383610955565b6107525760405162461bcd60e51b81526004016103fc9061144e565b61075e84848484610d27565b50505050565b6000818152600260205260409020546060906001600160a01b03166107e35760405162461bcd60e51b815260206004820152602f60248201527f4552433732314d657461646174613a2055524920717565727920666f72206e6f60448201526e3732bc34b9ba32b73a103a37b5b2b760891b60648201526084016103fc565b60006107fa60408051602081019091526000815290565b9050600081511161081a5760405180602001604052806000815250610845565b8061082484610d5a565b604051602001610835929190611348565b6040516020818303038152906040525b9392505050565b6006546001600160a01b031633146108765760405162461bcd60e51b81526004016103fc90611419565b6001600160a01b0381166108db5760405162461bcd60e51b815260206004820152602660248201527f4f776e61626c653a206e6577206f776e657220697320746865207a65726f206160448201526564647265737360d01b60648201526084016103fc565b6108e481610c06565b50565b600081815260046020526040902080546001600160a01b0319166001600160a01b038416908117909155819061091c82610583565b6001600160a01b03167f8c5be1e5ebec7d5bd14f71427d1e84f3dd0314c0f7b2291e5b200ac8c7c3b92560405160405180910390a45050565b6000818152600260205260408120546001600160a01b03166109ce5760405162461bcd60e51b815260206004820152602c60248201527f4552433732313a206f70657261746f7220717565727920666f72206e6f6e657860448201526b34b9ba32b73a103a37b5b2b760a11b60648201526084016103fc565b60006109d983610583565b9050806001600160a01b0316846001600160a01b03161480610a145750836001600160a01b0316610a0984610387565b6001600160a01b0316145b80610a4457506001600160a01b0380821660009081526005602090815260408083209388168352929052205460ff165b949350505050565b826001600160a01b0316610a5f82610583565b6001600160a01b031614610ac75760405162461bcd60e51b815260206004820152602960248201527f4552433732313a207472616e73666572206f6620746f6b656e2074686174206960448201526839903737ba1037bbb760b91b60648201526084016103fc565b6001600160a01b038216610b295760405162461bcd60e51b8152602060048201526024808201527f4552433732313a207472616e7366657220746f20746865207a65726f206164646044820152637265737360e01b60648201526084016103fc565b610b346000826108e7565b6001600160a01b0383166000908152600360205260408120805460019290610b5d9084906114cb565b90915550506001600160a01b0382166000908152600360205260408120805460019290610b8b90849061149f565b909155505060008181526002602052604080822080546001600160a01b0319166001600160a01b0386811691821790925591518493918716917fddf252ad1be2c89b69c2b068fc378daa952ba7f163c4a11628f55a4df523b3ef91a4505050565b610728828260405180602001604052806000815250610e74565b600680546001600160a01b038381166001600160a01b0319831681179093556040519116919082907f8be0079c531659141344cd1fd0a4f28419497f9722a3daafe3b4186f6b6457e090600090a35050565b816001600160a01b0316836001600160a01b03161415610cba5760405162461bcd60e51b815260206004820152601960248201527f4552433732313a20617070726f766520746f2063616c6c65720000000000000060448201526064016103fc565b6001600160a01b03838116600081815260056020908152604080832094871680845294825291829020805460ff191686151590811790915591519182527f17307eab39ab6107e8899845ad3d59bd9653f200f220920489ca2b5937696c31910160405180910390a3505050565b610d32848484610a4c565b610d3e84848484610ea7565b61075e5760405162461bcd60e51b81526004016103fc906113c7565b606081610d7e5750506040805180820190915260018152600360fc1b602082015290565b8160005b8115610da85780610d9281611549565b9150610da19050600a836114b7565b9150610d82565b60008167ffffffffffffffff811115610dd157634e487b7160e01b600052604160045260246000fd5b6040519080825280601f01601f191660200182016040528015610dfb576020820181803683370190505b5090505b8415610a4457610e106001836114cb565b9150610e1d600a86611564565b610e2890603061149f565b60f81b818381518110610e4b57634e487b7160e01b600052603260045260246000fd5b60200101906001600160f81b031916908160001a905350610e6d600a866114b7565b9450610dff565b610e7e8383610fb4565b610e8b6000848484610ea7565b6105325760405162461bcd60e51b81526004016103fc906113c7565b60006001600160a01b0384163b15610fa957604051630a85bd0160e11b81526001600160a01b0385169063150b7a0290610eeb903390899088908890600401611377565b602060405180830381600087803b158015610f0557600080fd5b505af1925050508015610f35575060408051601f3d908101601f19168201909252610f32918101906112e8565b60015b610f8f573d808015610f63576040519150601f19603f3d011682016040523d82523d6000602084013e610f68565b606091505b508051610f875760405162461bcd60e51b81526004016103fc906113c7565b805181602001fd5b6001600160e01b031916630a85bd0160e11b149050610a44565b506001949350505050565b6001600160a01b03821661100a5760405162461bcd60e51b815260206004820181905260248201527f4552433732313a206d696e7420746f20746865207a65726f206164647265737360448201526064016103fc565b6000818152600260205260409020546001600160a01b03161561106f5760405162461bcd60e51b815260206004820152601c60248201527f4552433732313a20746f6b656e20616c7265616479206d696e7465640000000060448201526064016103fc565b6001600160a01b038216600090815260036020526040812080546001929061109890849061149f565b909155505060008181526002602052604080822080546001600160a01b0319166001600160a01b03861690811790915590518392907fddf252ad1be2c89b69c2b068fc378daa952ba7f163c4a11628f55a4df523b3ef908290a45050565b80356001600160a01b038116811461064c57600080fd5b60006020828403121561111e578081fd5b610845826110f6565b60008060408385031215611139578081fd5b611142836110f6565b9150611150602084016110f6565b90509250929050565b60008060006060848603121561116d578081fd5b611176846110f6565b9250611184602085016110f6565b9150604084013590509250925092565b600080600080608085870312156111a9578081fd5b6111b2856110f6565b93506111c0602086016110f6565b925060408501359150606085013567ffffffffffffffff808211156111e3578283fd5b818701915087601f8301126111f6578283fd5b813581811115611208576112086115a4565b604051601f8201601f19908116603f01168101908382118183101715611230576112306115a4565b816040528281528a6020848701011115611248578586fd5b82602086016020830137918201602001949094529598949750929550505050565b6000806040838503121561127b578182fd5b611284836110f6565b915060208301358015158114611298578182fd5b809150509250929050565b600080604083850312156112b5578182fd5b6112be836110f6565b946020939093013593505050565b6000602082840312156112dd578081fd5b8135610845816115ba565b6000602082840312156112f9578081fd5b8151610845816115ba565b600060208284031215611315578081fd5b5035919050565b600081518084526113348160208601602086016114e2565b601f01601f19169290920160200192915050565b6000835161135a8184602088016114e2565b83519083019061136e8183602088016114e2565b01949350505050565b6001600160a01b03858116825284166020820152604081018390526080606082018190526000906113aa9083018461131c565b9695505050505050565b602081526000610845602083018461131c565b60208082526032908201527f4552433732313a207472616e7366657220746f206e6f6e20455243373231526560408201527131b2b4bb32b91034b6b83632b6b2b73a32b960711b606082015260800190565b6020808252818101527f4f776e61626c653a2063616c6c6572206973206e6f7420746865206f776e6572604082015260600190565b60208082526031908201527f4552433732313a207472616e736665722063616c6c6572206973206e6f74206f6040820152701ddb995c881b9bdc88185c1c1c9bdd9959607a1b606082015260800190565b600082198211156114b2576114b2611578565b500190565b6000826114c6576114c661158e565b500490565b6000828210156114dd576114dd611578565b500390565b60005b838110156114fd5781810151838201526020016114e5565b8381111561075e5750506000910152565b600181811c9082168061152257607f821691505b6020821081141561154357634e487b7160e01b600052602260045260246000fd5b50919050565b600060001982141561155d5761155d611578565b5060010190565b6000826115735761157361158e565b500690565b634e487b7160e01b600052601160045260246000fd5b634e487b7160e01b600052601260045260246000fd5b634e487b7160e01b600052604160045260246000fd5b6001600160e01b0319811681146108e457600080fdfea264697066735822122028e35791de92295546d9e9f2f3da8b800a566e8a148301072f28a02ff5a3a73564736f6c63430008040033416464726573733a206c6f772d6c6576656c2064656c65676174652063616c6c206661696c6564a26469706673582212204dda8ce4f0c496328bf0748172376a03ddf355855701569000e5f478334ca08664736f6c63430008040033",
  "devdoc": {
    "kind": "dev",
    "methods": {
      "addExtension(address,uint256)": {
        "params": {
          "nftToAttachAddress": "address of the NFT to attach",
          "nftToAttachId": "ID of the NFT to attach"
        }
      },
      "balanceOf(address,uint256)": {
        "details": "See {IERC1155-balanceOf}. Requirements: - `account` cannot be the zero address."
      },
      "balanceOfBatch(address[],uint256[])": {
        "details": "See {IERC1155-balanceOfBatch}. Requirements: - `accounts` and `ids` must have the same length."
      },
      "getRoleAdmin(bytes32)": {
        "details": "Returns the admin role that controls `role`. See {grantRole} and {revokeRole}. To change a role's admin, use {_setRoleAdmin}."
      },
      "grantRole(bytes32,address)": {
        "details": "Grants `role` to `account`. If `account` had not been already granted `role`, emits a {RoleGranted} event. Requirements: - the caller must have ``role``'s admin role."
      },
      "hasRole(bytes32,address)": {
        "details": "Returns `true` if `account` has been granted `role`."
      },
      "isApprovedForAll(address,address)": {
        "details": "See {IERC1155-isApprovedForAll}."
      },
      "renounceRole(bytes32,address)": {
        "details": "Revokes `role` from the calling account. Roles are often managed via {grantRole} and {revokeRole}: this function's purpose is to provide a mechanism for accounts to lose their privileges if they are compromised (such as when a trusted device is misplaced). If the calling account had been revoked `role`, emits a {RoleRevoked} event. Requirements: - the caller must be `account`."
      },
      "revokeRole(bytes32,address)": {
        "details": "Revokes `role` from `account`. If `account` had been granted `role`, emits a {RoleRevoked} event. Requirements: - the caller must have ``role``'s admin role."
      },
      "safeBatchTransferFrom(address,address,uint256[],uint256[],bytes)": {
        "details": "See {IERC1155-safeBatchTransferFrom}."
      },
      "safeTransferFrom(address,address,uint256,uint256,bytes)": {
        "details": "See {IERC1155-safeTransferFrom}."
      },
      "setApprovalForAll(address,bool)": {
        "details": "See {IERC1155-setApprovalForAll}."
      },
      "upgradeTo(address)": {
        "details": "Upgrade the implementation of the proxy to `newImplementation`. Calls {_authorizeUpgrade}. Emits an {Upgraded} event."
      },
      "upgradeToAndCall(address,bytes)": {
        "details": "Upgrade the implementation of the proxy to `newImplementation`, and subsequently execute the function call encoded in `data`. Calls {_authorizeUpgrade}. Emits an {Upgraded} event."
      },
      "uri(uint256)": {
        "details": "See {IERC1155MetadataURI-uri}. This implementation returns the same URI for *all* token types. It relies on the token type ID substitution mechanism https://eips.ethereum.org/EIPS/eip-1155#metadata[defined in the EIP]. Clients calling this function must replace the `\\{id\\}` substring with the actual token type ID."
      }
    },
    "stateVariables": {
      "_extensionRealmLands": {
        "details": "extension ID => realmLands address"
      },
      "_extensionToAddProposal": {
        "details": "extension ID => add proposal ID"
      },
      "_proposalToExtension": {
        "details": "remove extension proposal ID => extension ID"
      },
      "_proposalTypes": {
        "details": "proposal id => proposal type"
      }
    },
    "version": 1
  },
  "userdoc": {
    "kind": "user",
    "methods": {
      "addExtension(address,uint256)": {
        "notice": "Submit proposal to add an extension"
      },
      "removeExtension(uint256)": {
        "notice": "Submit proposal to remove an extension"
      }
    },
    "version": 1
  },
  "storageLayout": {
    "storage": [
      {
        "astId": 3193,
        "contract": "contracts/Realm.sol:Realm",
        "label": "_balances",
        "offset": 0,
        "slot": "0",
        "type": "t_mapping(t_uint256,t_mapping(t_address,t_uint256))"
      },
      {
        "astId": 3199,
        "contract": "contracts/Realm.sol:Realm",
        "label": "_operatorApprovals",
        "offset": 0,
        "slot": "1",
        "type": "t_mapping(t_address,t_mapping(t_address,t_bool))"
      },
      {
        "astId": 3201,
        "contract": "contracts/Realm.sol:Realm",
        "label": "_uri",
        "offset": 0,
        "slot": "2",
        "type": "t_string_storage"
      },
      {
        "astId": 8772,
        "contract": "contracts/Realm.sol:Realm",
        "label": "_votingProposalCounter",
        "offset": 0,
        "slot": "3",
        "type": "t_uint256"
      },
      {
        "astId": 8774,
        "contract": "contracts/Realm.sol:Realm",
        "label": "votingPower",
        "offset": 0,
        "slot": "4",
        "type": "t_uint256"
      },
      {
        "astId": 8776,
        "contract": "contracts/Realm.sol:Realm",
        "label": "_creatorAddress",
        "offset": 0,
        "slot": "5",
        "type": "t_address"
      },
      {
        "astId": 8778,
        "contract": "contracts/Realm.sol:Realm",
        "label": "_creatorShare",
        "offset": 0,
        "slot": "6",
        "type": "t_uint256"
      },
      {
        "astId": 8780,
        "contract": "contracts/Realm.sol:Realm",
        "label": "_votingConsensus",
        "offset": 0,
        "slot": "7",
        "type": "t_uint256"
      },
      {
        "astId": 8784,
        "contract": "contracts/Realm.sol:Realm",
        "label": "votingPowerByAddress",
        "offset": 0,
        "slot": "8",
        "type": "t_mapping(t_address,t_uint256)"
      },
      {
        "astId": 8800,
        "contract": "contracts/Realm.sol:Realm",
        "label": "proposals",
        "offset": 0,
        "slot": "9",
        "type": "t_mapping(t_uint256,t_struct(Proposal)8795_storage)"
      },
      {
        "astId": 8806,
        "contract": "contracts/Realm.sol:Realm",
        "label": "hasVotedForProposal",
        "offset": 0,
        "slot": "10",
        "type": "t_mapping(t_address,t_mapping(t_uint256,t_bool))"
      },
      {
        "astId": 950,
        "contract": "contracts/Realm.sol:Realm",
        "label": "_initialized",
        "offset": 0,
        "slot": "11",
        "type": "t_bool"
      },
      {
        "astId": 953,
        "contract": "contracts/Realm.sol:Realm",
        "label": "_initializing",
        "offset": 1,
        "slot": "11",
        "type": "t_bool"
      },
      {
        "astId": 1718,
        "contract": "contracts/Realm.sol:Realm",
        "label": "__gap",
        "offset": 0,
        "slot": "12",
        "type": "t_array(t_uint256)50_storage"
      },
      {
        "astId": 2027,
        "contract": "contracts/Realm.sol:Realm",
        "label": "__gap",
        "offset": 0,
        "slot": "62",
        "type": "t_array(t_uint256)50_storage"
      },
      {
        "astId": 48,
        "contract": "contracts/Realm.sol:Realm",
        "label": "_roles",
        "offset": 0,
        "slot": "112",
        "type": "t_mapping(t_bytes32,t_struct(RoleData)43_storage)"
      },
      {
        "astId": 335,
        "contract": "contracts/Realm.sol:Realm",
        "label": "__gap",
        "offset": 0,
        "slot": "113",
        "type": "t_array(t_uint256)49_storage"
      },
      {
        "astId": 932,
        "contract": "contracts/Realm.sol:Realm",
        "label": "__gap",
        "offset": 0,
        "slot": "162",
        "type": "t_array(t_uint256)50_storage"
      },
      {
        "astId": 1127,
        "contract": "contracts/Realm.sol:Realm",
        "label": "__gap",
        "offset": 0,
        "slot": "212",
        "type": "t_array(t_uint256)50_storage"
      },
      {
        "astId": 7760,
        "contract": "contracts/Realm.sol:Realm",
        "label": "taxRate",
        "offset": 0,
        "slot": "262",
        "type": "t_uint256"
      },
      {
        "astId": 7762,
        "contract": "contracts/Realm.sol:Realm",
        "label": "_tokenId",
        "offset": 0,
        "slot": "263",
        "type": "t_uint256"
      },
      {
        "astId": 7764,
        "contract": "contracts/Realm.sol:Realm",
        "label": "votingTime",
        "offset": 0,
        "slot": "264",
        "type": "t_uint256"
      },
      {
        "astId": 7766,
        "contract": "contracts/Realm.sol:Realm",
        "label": "_creatorShare",
        "offset": 0,
        "slot": "265",
        "type": "t_uint256"
      },
      {
        "astId": 7772,
        "contract": "contracts/Realm.sol:Realm",
        "label": "_proposalTypes",
        "offset": 0,
        "slot": "266",
        "type": "t_mapping(t_uint256,t_enum(ProposalTypes)7722)"
      },
      {
        "astId": 7777,
        "contract": "contracts/Realm.sol:Realm",
        "label": "_extensionToAddProposal",
        "offset": 0,
        "slot": "267",
        "type": "t_mapping(t_uint256,t_uint256)"
      },
      {
        "astId": 7782,
        "contract": "contracts/Realm.sol:Realm",
        "label": "_proposalToExtension",
        "offset": 0,
        "slot": "268",
        "type": "t_mapping(t_uint256,t_uint256)"
      },
      {
        "astId": 7787,
        "contract": "contracts/Realm.sol:Realm",
        "label": "_extensionRealmLands",
        "offset": 0,
        "slot": "269",
        "type": "t_mapping(t_uint256,t_address)"
      },
      {
        "astId": 7793,
        "contract": "contracts/Realm.sol:Realm",
        "label": "_deposits",
        "offset": 0,
        "slot": "270",
        "type": "t_mapping(t_address,t_mapping(t_uint256,t_uint256))"
      },
      {
        "astId": 7795,
        "contract": "contracts/Realm.sol:Realm",
        "label": "_distributionManager",
        "offset": 0,
        "slot": "271",
        "type": "t_address"
      },
      {
        "astId": 7797,
        "contract": "contracts/Realm.sol:Realm",
        "label": "protocolParameters",
        "offset": 0,
        "slot": "272",
        "type": "t_address"
      }
    ],
    "types": {
      "t_address": {
        "encoding": "inplace",
        "label": "address",
        "numberOfBytes": "20"
      },
      "t_array(t_uint256)49_storage": {
        "base": "t_uint256",
        "encoding": "inplace",
        "label": "uint256[49]",
        "numberOfBytes": "1568"
      },
      "t_array(t_uint256)50_storage": {
        "base": "t_uint256",
        "encoding": "inplace",
        "label": "uint256[50]",
        "numberOfBytes": "1600"
      },
      "t_bool": {
        "encoding": "inplace",
        "label": "bool",
        "numberOfBytes": "1"
      },
      "t_bytes32": {
        "encoding": "inplace",
        "label": "bytes32",
        "numberOfBytes": "32"
      },
      "t_enum(ProposalTypes)7722": {
        "encoding": "inplace",
        "label": "enum Realm.ProposalTypes",
        "numberOfBytes": "1"
      },
      "t_mapping(t_address,t_bool)": {
        "encoding": "mapping",
        "key": "t_address",
        "label": "mapping(address => bool)",
        "numberOfBytes": "32",
        "value": "t_bool"
      },
      "t_mapping(t_address,t_mapping(t_address,t_bool))": {
        "encoding": "mapping",
        "key": "t_address",
        "label": "mapping(address => mapping(address => bool))",
        "numberOfBytes": "32",
        "value": "t_mapping(t_address,t_bool)"
      },
      "t_mapping(t_address,t_mapping(t_uint256,t_bool))": {
        "encoding": "mapping",
        "key": "t_address",
        "label": "mapping(address => mapping(uint256 => bool))",
        "numberOfBytes": "32",
        "value": "t_mapping(t_uint256,t_bool)"
      },
      "t_mapping(t_address,t_mapping(t_uint256,t_uint256))": {
        "encoding": "mapping",
        "key": "t_address",
        "label": "mapping(address => mapping(uint256 => uint256))",
        "numberOfBytes": "32",
        "value": "t_mapping(t_uint256,t_uint256)"
      },
      "t_mapping(t_address,t_uint256)": {
        "encoding": "mapping",
        "key": "t_address",
        "label": "mapping(address => uint256)",
        "numberOfBytes": "32",
        "value": "t_uint256"
      },
      "t_mapping(t_bytes32,t_struct(RoleData)43_storage)": {
        "encoding": "mapping",
        "key": "t_bytes32",
        "label": "mapping(bytes32 => struct AccessControlUpgradeable.RoleData)",
        "numberOfBytes": "32",
        "value": "t_struct(RoleData)43_storage"
      },
      "t_mapping(t_uint256,t_address)": {
        "encoding": "mapping",
        "key": "t_uint256",
        "label": "mapping(uint256 => address)",
        "numberOfBytes": "32",
        "value": "t_address"
      },
      "t_mapping(t_uint256,t_bool)": {
        "encoding": "mapping",
        "key": "t_uint256",
        "label": "mapping(uint256 => bool)",
        "numberOfBytes": "32",
        "value": "t_bool"
      },
      "t_mapping(t_uint256,t_enum(ProposalTypes)7722)": {
        "encoding": "mapping",
        "key": "t_uint256",
        "label": "mapping(uint256 => enum Realm.ProposalTypes)",
        "numberOfBytes": "32",
        "value": "t_enum(ProposalTypes)7722"
      },
      "t_mapping(t_uint256,t_mapping(t_address,t_uint256))": {
        "encoding": "mapping",
        "key": "t_uint256",
        "label": "mapping(uint256 => mapping(address => uint256))",
        "numberOfBytes": "32",
        "value": "t_mapping(t_address,t_uint256)"
      },
      "t_mapping(t_uint256,t_struct(Proposal)8795_storage)": {
        "encoding": "mapping",
        "key": "t_uint256",
        "label": "mapping(uint256 => struct Voting.Proposal)",
        "numberOfBytes": "32",
        "value": "t_struct(Proposal)8795_storage"
      },
      "t_mapping(t_uint256,t_uint256)": {
        "encoding": "mapping",
        "key": "t_uint256",
        "label": "mapping(uint256 => uint256)",
        "numberOfBytes": "32",
        "value": "t_uint256"
      },
      "t_string_storage": {
        "encoding": "bytes",
        "label": "string",
        "numberOfBytes": "32"
      },
      "t_struct(Proposal)8795_storage": {
        "encoding": "inplace",
        "label": "struct Voting.Proposal",
        "members": [
          {
            "astId": 8786,
            "contract": "contracts/Realm.sol:Realm",
            "label": "tokenAddress",
            "offset": 0,
            "slot": "0",
            "type": "t_address"
          },
          {
            "astId": 8788,
            "contract": "contracts/Realm.sol:Realm",
            "label": "tokenId",
            "offset": 0,
            "slot": "1",
            "type": "t_uint256"
          },
          {
            "astId": 8790,
            "contract": "contracts/Realm.sol:Realm",
            "label": "owner",
            "offset": 0,
            "slot": "2",
            "type": "t_address"
          },
          {
            "astId": 8792,
            "contract": "contracts/Realm.sol:Realm",
            "label": "votes",
            "offset": 0,
            "slot": "3",
            "type": "t_uint256"
          },
          {
            "astId": 8794,
            "contract": "contracts/Realm.sol:Realm",
            "label": "votingEnd",
            "offset": 0,
            "slot": "4",
            "type": "t_uint256"
          }
        ],
        "numberOfBytes": "160"
      },
      "t_struct(RoleData)43_storage": {
        "encoding": "inplace",
        "label": "struct AccessControlUpgradeable.RoleData",
        "members": [
          {
            "astId": 40,
            "contract": "contracts/Realm.sol:Realm",
            "label": "members",
            "offset": 0,
            "slot": "0",
            "type": "t_mapping(t_address,t_bool)"
          },
          {
            "astId": 42,
            "contract": "contracts/Realm.sol:Realm",
            "label": "adminRole",
            "offset": 0,
            "slot": "1",
            "type": "t_bytes32"
          }
        ],
        "numberOfBytes": "64"
      },
      "t_uint256": {
        "encoding": "inplace",
        "label": "uint256",
        "numberOfBytes": "32"
      }
    }
  }
}