{
  "contractName": "RoyaltyFactory",
  "abi": [
    {
      "inputs": [],
      "stateMutability": "nonpayable",
      "type": "constructor"
    },
    {
      "anonymous": false,
      "inputs": [
        {
          "indexed": false,
          "internalType": "string",
          "name": "name",
          "type": "string"
        },
        {
          "indexed": false,
          "internalType": "string",
          "name": "symbol",
          "type": "string"
        },
        {
          "indexed": false,
          "internalType": "address",
          "name": "_royaltyReceiver",
          "type": "address"
        },
        {
          "indexed": false,
          "internalType": "uint256",
          "name": "_royaltyPercentage",
          "type": "uint256"
        },
        {
          "indexed": false,
          "internalType": "uint256",
          "name": "",
          "type": "uint256"
        }
      ],
      "name": "LoyaltyERC721Created",
      "type": "event"
    },
    {
      "inputs": [
        {
          "internalType": "uint256",
          "name": "",
          "type": "uint256"
        }
      ],
      "name": "allRoyalties",
      "outputs": [
        {
          "internalType": "address",
          "name": "",
          "type": "address"
        }
      ],
      "stateMutability": "view",
      "type": "function",
      "constant": true
    },
    {
      "inputs": [
        {
          "internalType": "string",
          "name": "name",
          "type": "string"
        },
        {
          "internalType": "string",
          "name": "symbol",
          "type": "string"
        },
        {
          "internalType": "address",
          "name": "_royaltyReceiver",
          "type": "address"
        },
        {
          "internalType": "uint256",
          "name": "_royaltyPercentage",
          "type": "uint256"
        }
      ],
      "name": "createRoyaltyERC721",
      "outputs": [
        {
          "internalType": "address",
          "name": "loyalty",
          "type": "address"
        },
        {
          "internalType": "uint256",
          "name": "counter",
          "type": "uint256"
        }
      ],
      "stateMutability": "nonpayable",
      "type": "function"
    }
  ],
  "bytecode": "0x608060405234801561001057600080fd5b5060006001819055506137ce806100286000396000f3fe60806040523480156200001157600080fd5b50600436106200003a5760003560e01c8063aa18c4c6146200003f578063fdf7c4431462000075575b600080fd5b6200005d600480360381019062000057919062000371565b620000ac565b6040516200006c919062000406565b60405180910390f35b6200009360048036038101906200008d9190620002c1565b620000ec565b604051620000a392919062000423565b60405180910390f35b60008181548110620000bd57600080fd5b906000526020600020016000915054906101000a900473ffffffffffffffffffffffffffffffffffffffff1681565b600080600086868686604051620001039062000207565b62000112949392919062000450565b604051809103906000f0801580156200012f573d6000803e3d6000fd5b5090508092506000839080600181540180825580915050600190039060005260206000200160009091909190916101000a81548173ffffffffffffffffffffffffffffffffffffffff021916908373ffffffffffffffffffffffffffffffffffffffff1602179055507f91480b276af62056f954d9732ca1ae43c504671b4596798899785fbc3ff8c3a887878787600080549050604051620001d6959493929190620004ab565b60405180910390a160016000815480929190620001f3906200064a565b919050555060015491505094509492505050565b613049806200075083390190565b60006200022c62000226846200053f565b62000516565b9050828152602081018484840111156200024b576200024a620006fb565b5b62000258848285620005cf565b509392505050565b60008135905062000271816200071b565b92915050565b600082601f8301126200028f576200028e620006f6565b5b8135620002a184826020860162000215565b91505092915050565b600081359050620002bb8162000735565b92915050565b60008060008060808587031215620002de57620002dd62000705565b5b600085013567ffffffffffffffff811115620002ff57620002fe62000700565b5b6200030d8782880162000277565b945050602085013567ffffffffffffffff81111562000331576200033062000700565b5b6200033f8782880162000277565b9350506040620003528782880162000260565b92505060606200036587828801620002aa565b91505092959194509250565b6000602082840312156200038a576200038962000705565b5b60006200039a84828501620002aa565b91505092915050565b620003ae8162000591565b82525050565b6000620003c18262000575565b620003cd818562000580565b9350620003df818560208601620005de565b620003ea816200070a565b840191505092915050565b6200040081620005c5565b82525050565b60006020820190506200041d6000830184620003a3565b92915050565b60006040820190506200043a6000830185620003a3565b620004496020830184620003f5565b9392505050565b600060808201905081810360008301526200046c8187620003b4565b90508181036020830152620004828186620003b4565b9050620004936040830185620003a3565b620004a26060830184620003f5565b95945050505050565b600060a0820190508181036000830152620004c78188620003b4565b90508181036020830152620004dd8187620003b4565b9050620004ee6040830186620003a3565b620004fd6060830185620003f5565b6200050c6080830184620003f5565b9695505050505050565b60006200052262000535565b905062000530828262000614565b919050565b6000604051905090565b600067ffffffffffffffff8211156200055d576200055c620006c7565b5b62000568826200070a565b9050602081019050919050565b600081519050919050565b600082825260208201905092915050565b60006200059e82620005a5565b9050919050565b600073ffffffffffffffffffffffffffffffffffffffff82169050919050565b6000819050919050565b82818337600083830152505050565b60005b83811015620005fe578082015181840152602081019050620005e1565b838111156200060e576000848401525b50505050565b6200061f826200070a565b810181811067ffffffffffffffff82111715620006415762000640620006c7565b5b80604052505050565b60006200065782620005c5565b91507fffffffffffffffffffffffffffffffffffffffffffffffffffffffffffffffff8214156200068d576200068c62000698565b5b600182019050919050565b7f4e487b7100000000000000000000000000000000000000000000000000000000600052601160045260246000fd5b7f4e487b7100000000000000000000000000000000000000000000000000000000600052604160045260246000fd5b600080fd5b600080fd5b600080fd5b600080fd5b6000601f19601f8301169050919050565b620007268162000591565b81146200073257600080fd5b50565b6200074081620005c5565b81146200074c57600080fd5b5056fe60806040523480156200001157600080fd5b50604051620030493803806200304983398181016040528101906200003791906200021b565b8383816000908051906020019062000051929190620000bf565b5080600190805190602001906200006a929190620000bf565b50505081600660006101000a81548173ffffffffffffffffffffffffffffffffffffffff021916908373ffffffffffffffffffffffffffffffffffffffff1602179055508060078190555050505050620004c1565b828054620000cd906200039e565b90600052602060002090601f016020900481019282620000f157600085556200013d565b82601f106200010c57805160ff19168380011785556200013d565b828001600101855582156200013d579182015b828111156200013c5782518255916020019190600101906200011f565b5b5090506200014c919062000150565b5090565b5b808211156200016b57600081600090555060010162000151565b5090565b6000620001866200018084620002f4565b620002cb565b905082815260208101848484011115620001a557620001a46200046d565b5b620001b284828562000368565b509392505050565b600081519050620001cb816200048d565b92915050565b600082601f830112620001e957620001e862000468565b5b8151620001fb8482602086016200016f565b91505092915050565b6000815190506200021581620004a7565b92915050565b6000806000806080858703121562000238576200023762000477565b5b600085015167ffffffffffffffff81111562000259576200025862000472565b5b6200026787828801620001d1565b945050602085015167ffffffffffffffff8111156200028b576200028a62000472565b5b6200029987828801620001d1565b9350506040620002ac87828801620001ba565b9250506060620002bf8782880162000204565b91505092959194509250565b6000620002d7620002ea565b9050620002e58282620003d4565b919050565b6000604051905090565b600067ffffffffffffffff82111562000312576200031162000439565b5b6200031d826200047c565b9050602081019050919050565b600062000337826200033e565b9050919050565b600073ffffffffffffffffffffffffffffffffffffffff82169050919050565b6000819050919050565b60005b83811015620003885780820151818401526020810190506200036b565b8381111562000398576000848401525b50505050565b60006002820490506001821680620003b757607f821691505b60208210811415620003ce57620003cd6200040a565b5b50919050565b620003df826200047c565b810181811067ffffffffffffffff8211171562000401576200040062000439565b5b80604052505050565b7f4e487b7100000000000000000000000000000000000000000000000000000000600052602260045260246000fd5b7f4e487b7100000000000000000000000000000000000000000000000000000000600052604160045260246000fd5b600080fd5b600080fd5b600080fd5b600080fd5b6000601f19601f8301169050919050565b62000498816200032a565b8114620004a457600080fd5b50565b620004b2816200035e565b8114620004be57600080fd5b50565b612b7880620004d16000396000f3fe608060405234801561001057600080fd5b50600436106101215760003560e01c80636352211e116100ad578063b88d4fde11610071578063b88d4fde1461032b578063c87b56dd14610347578063cd279c7c14610377578063d3fc986414610393578063e985e9c5146103af57610121565b80636352211e1461027557806370a08231146102a557806395d89b41146102d5578063a22cb465146102f3578063b55bc6171461030f57610121565b806323b872dd116100f457806323b872dd146101c05780632a55205a146101dc57806342842e0e1461020d57806342966c68146102295780634f558e791461024557610121565b806301ffc9a71461012657806306fdde0314610156578063081812fc14610174578063095ea7b3146101a4575b600080fd5b610140600480360381019061013b9190611d67565b6103df565b60405161014d9190612147565b60405180910390f35b61015e610459565b60405161016b9190612162565b60405180910390f35b61018e60048036038101906101899190611dc1565b6104eb565b60405161019b91906120b7565b60405180910390f35b6101be60048036038101906101b99190611c0f565b610570565b005b6101da60048036038101906101d59190611af9565b610688565b005b6101f660048036038101906101f19190611dee565b6106e8565b60405161020492919061211e565b60405180910390f35b61022760048036038101906102229190611af9565b610733565b005b610243600480360381019061023e9190611dc1565b610753565b005b61025f600480360381019061025a9190611dc1565b61075f565b60405161026c9190612147565b60405180910390f35b61028f600480360381019061028a9190611dc1565b610771565b60405161029c91906120b7565b60405180910390f35b6102bf60048036038101906102ba9190611a8c565b610823565b6040516102cc9190612344565b60405180910390f35b6102dd6108db565b6040516102ea9190612162565b60405180910390f35b61030d60048036038101906103089190611bcf565b61096d565b005b61032960048036038101906103249190611cc3565b610aee565b005b61034560048036038101906103409190611b4c565b610b02565b005b610361600480360381019061035c9190611dc1565b610b64565b60405161036e9190612162565b60405180910390f35b610391600480360381019061038c9190611c4f565b610c51565b005b6103ad60048036038101906103a89190611c4f565b610c63565b005b6103c960048036038101906103c49190611ab9565b610c75565b6040516103d69190612147565b60405180910390f35b60007f2a55205a000000000000000000000000000000000000000000000000000000007bffffffffffffffffffffffffffffffffffffffffffffffffffffffff1916827bffffffffffffffffffffffffffffffffffffffffffffffffffffffff19161480610452575061045182610d09565b5b9050919050565b606060008054610468906125b8565b80601f0160208091040260200160405190810160405280929190818152602001828054610494906125b8565b80156104e15780601f106104b6576101008083540402835291602001916104e1565b820191906000526020600020905b8154815290600101906020018083116104c457829003601f168201915b5050505050905090565b60006104f682610deb565b610535576040517f08c379a000000000000000000000000000000000000000000000000000000000815260040161052c906122a4565b60405180910390fd5b6004600083815260200190815260200160002060009054906101000a900473ffffffffffffffffffffffffffffffffffffffff169050919050565b600061057b82610771565b90508073ffffffffffffffffffffffffffffffffffffffff168373ffffffffffffffffffffffffffffffffffffffff1614156105ec576040517f08c379a00000000000000000000000000000000000000000000000000000000081526004016105e390612304565b60405180910390fd5b8073ffffffffffffffffffffffffffffffffffffffff1661060b610e57565b73ffffffffffffffffffffffffffffffffffffffff16148061063a575061063981610634610e57565b610c75565b5b610679576040517f08c379a000000000000000000000000000000000000000000000000000000000815260040161067090612224565b60405180910390fd5b6106838383610e5f565b505050565b610699610693610e57565b82610f18565b6106d8576040517f08c379a00000000000000000000000000000000000000000000000000000000081526004016106cf90612324565b60405180910390fd5b6106e3838383610ff6565b505050565b600080600660009054906101000a900473ffffffffffffffffffffffffffffffffffffffff1660646007548561071e9190612474565b6107289190612443565b915091509250929050565b61074e83838360405180602001604052806000815250610b02565b505050565b61075c81611252565b50565b600061076a82610deb565b9050919050565b6000806002600084815260200190815260200160002060009054906101000a900473ffffffffffffffffffffffffffffffffffffffff169050600073ffffffffffffffffffffffffffffffffffffffff168173ffffffffffffffffffffffffffffffffffffffff16141561081a576040517f08c379a000000000000000000000000000000000000000000000000000000000815260040161081190612264565b60405180910390fd5b80915050919050565b60008073ffffffffffffffffffffffffffffffffffffffff168273ffffffffffffffffffffffffffffffffffffffff161415610894576040517f08c379a000000000000000000000000000000000000000000000000000000000815260040161088b90612244565b60405180910390fd5b600360008373ffffffffffffffffffffffffffffffffffffffff1673ffffffffffffffffffffffffffffffffffffffff168152602001908152602001600020549050919050565b6060600180546108ea906125b8565b80601f0160208091040260200160405190810160405280929190818152602001828054610916906125b8565b80156109635780601f1061093857610100808354040283529160200191610963565b820191906000526020600020905b81548152906001019060200180831161094657829003601f168201915b5050505050905090565b610975610e57565b73ffffffffffffffffffffffffffffffffffffffff168273ffffffffffffffffffffffffffffffffffffffff1614156109e3576040517f08c379a00000000000000000000000000000000000000000000000000000000081526004016109da906121e4565b60405180910390fd5b80600560006109f0610e57565b73ffffffffffffffffffffffffffffffffffffffff1673ffffffffffffffffffffffffffffffffffffffff16815260200190815260200160002060008473ffffffffffffffffffffffffffffffffffffffff1673ffffffffffffffffffffffffffffffffffffffff16815260200190815260200160002060006101000a81548160ff0219169083151502179055508173ffffffffffffffffffffffffffffffffffffffff16610a9d610e57565b73ffffffffffffffffffffffffffffffffffffffff167f17307eab39ab6107e8899845ad3d59bd9653f200f220920489ca2b5937696c3183604051610ae29190612147565b60405180910390a35050565b610afb8585858585611363565b5050505050565b610b13610b0d610e57565b83610f18565b610b52576040517f08c379a0000000000000000000000000000000000000000000000000000000008152600401610b4990612324565b60405180910390fd5b610b5e84848484611398565b50505050565b6060610b6f82610deb565b610bae576040517f08c379a0000000000000000000000000000000000000000000000000000000008152600401610ba5906122e4565b60405180910390fd5b600860008381526020019081526020016000208054610bcc906125b8565b80601f0160208091040260200160405190810160405280929190818152602001828054610bf8906125b8565b8015610c455780601f10610c1a57610100808354040283529160200191610c45565b820191906000526020600020905b815481529060010190602001808311610c2857829003601f168201915b50505050509050919050565b610c5d848484846113f4565b50505050565b610c6f84848484611427565b50505050565b6000600560008473ffffffffffffffffffffffffffffffffffffffff1673ffffffffffffffffffffffffffffffffffffffff16815260200190815260200160002060008373ffffffffffffffffffffffffffffffffffffffff1673ffffffffffffffffffffffffffffffffffffffff16815260200190815260200160002060009054906101000a900460ff16905092915050565b60007f80ac58cd000000000000000000000000000000000000000000000000000000007bffffffffffffffffffffffffffffffffffffffffffffffffffffffff1916827bffffffffffffffffffffffffffffffffffffffffffffffffffffffff19161480610dd457507f5b5e139f000000000000000000000000000000000000000000000000000000007bffffffffffffffffffffffffffffffffffffffffffffffffffffffff1916827bffffffffffffffffffffffffffffffffffffffffffffffffffffffff1916145b80610de45750610de38261145a565b5b9050919050565b60008073ffffffffffffffffffffffffffffffffffffffff166002600084815260200190815260200160002060009054906101000a900473ffffffffffffffffffffffffffffffffffffffff1673ffffffffffffffffffffffffffffffffffffffff1614159050919050565b600033905090565b816004600083815260200190815260200160002060006101000a81548173ffffffffffffffffffffffffffffffffffffffff021916908373ffffffffffffffffffffffffffffffffffffffff160217905550808273ffffffffffffffffffffffffffffffffffffffff16610ed283610771565b73ffffffffffffffffffffffffffffffffffffffff167f8c5be1e5ebec7d5bd14f71427d1e84f3dd0314c0f7b2291e5b200ac8c7c3b92560405160405180910390a45050565b6000610f2382610deb565b610f62576040517f08c379a0000000000000000000000000000000000000000000000000000000008152600401610f5990612204565b60405180910390fd5b6000610f6d83610771565b90508073ffffffffffffffffffffffffffffffffffffffff168473ffffffffffffffffffffffffffffffffffffffff161480610fdc57508373ffffffffffffffffffffffffffffffffffffffff16610fc4846104eb565b73ffffffffffffffffffffffffffffffffffffffff16145b80610fed5750610fec8185610c75565b5b91505092915050565b8273ffffffffffffffffffffffffffffffffffffffff1661101682610771565b73ffffffffffffffffffffffffffffffffffffffff161461106c576040517f08c379a0000000000000000000000000000000000000000000000000000000008152600401611063906122c4565b60405180910390fd5b600073ffffffffffffffffffffffffffffffffffffffff168273ffffffffffffffffffffffffffffffffffffffff1614156110dc576040517f08c379a00000000000000000000000000000000000000000000000000000000081526004016110d3906121c4565b60405180910390fd5b6110e78383836114c4565b6110f2600082610e5f565b6001600360008573ffffffffffffffffffffffffffffffffffffffff1673ffffffffffffffffffffffffffffffffffffffff168152602001908152602001600020600082825461114291906124ce565b925050819055506001600360008473ffffffffffffffffffffffffffffffffffffffff1673ffffffffffffffffffffffffffffffffffffffff168152602001908152602001600020600082825461119991906123ed565b92505081905550816002600083815260200190815260200160002060006101000a81548173ffffffffffffffffffffffffffffffffffffffff021916908373ffffffffffffffffffffffffffffffffffffffff160217905550808273ffffffffffffffffffffffffffffffffffffffff168473ffffffffffffffffffffffffffffffffffffffff167fddf252ad1be2c89b69c2b068fc378daa952ba7f163c4a11628f55a4df523b3ef60405160405180910390a4505050565b600061125d82610771565b905061126b816000846114c4565b611276600083610e5f565b6001600360008373ffffffffffffffffffffffffffffffffffffffff1673ffffffffffffffffffffffffffffffffffffffff16815260200190815260200160002060008282546112c691906124ce565b925050819055506002600083815260200190815260200160002060006101000a81549073ffffffffffffffffffffffffffffffffffffffff021916905581600073ffffffffffffffffffffffffffffffffffffffff168273ffffffffffffffffffffffffffffffffffffffff167fddf252ad1be2c89b69c2b068fc378daa952ba7f163c4a11628f55a4df523b3ef60405160405180910390a45050565b61136e8585836114c9565b82826008600087815260200190815260200160002091906113909291906118ba565b505050505050565b6113a3848484610ff6565b6113af84848484611524565b6113ee576040517f08c379a00000000000000000000000000000000000000000000000000000000081526004016113e590612184565b60405180910390fd5b50505050565b6113fe84846116bb565b81816008600086815260200190815260200160002091906114209291906118ba565b5050505050565b61143184846116d9565b81816008600086815260200190815260200160002091906114539291906118ba565b5050505050565b60007f01ffc9a7000000000000000000000000000000000000000000000000000000007bffffffffffffffffffffffffffffffffffffffffffffffffffffffff1916827bffffffffffffffffffffffffffffffffffffffffffffffffffffffff1916149050919050565b505050565b6114d383836116d9565b6114e06000848484611524565b61151f576040517f08c379a000000000000000000000000000000000000000000000000000000000815260040161151690612184565b60405180910390fd5b505050565b60006115458473ffffffffffffffffffffffffffffffffffffffff166118a7565b156116ae578373ffffffffffffffffffffffffffffffffffffffff1663150b7a0261156e610e57565b8786866040518563ffffffff1660e01b815260040161159094939291906120d2565b602060405180830381600087803b1580156115aa57600080fd5b505af19250505080156115db57506040513d601f19601f820116820180604052508101906115d89190611d94565b60015b61165e573d806000811461160b576040519150601f19603f3d011682016040523d82523d6000602084013e611610565b606091505b50600081511415611656576040517f08c379a000000000000000000000000000000000000000000000000000000000815260040161164d90612184565b60405180910390fd5b805181602001fd5b63150b7a0260e01b7bffffffffffffffffffffffffffffffffffffffffffffffffffffffff1916817bffffffffffffffffffffffffffffffffffffffffffffffffffffffff1916149150506116b3565b600190505b949350505050565b6116d58282604051806020016040528060008152506114c9565b5050565b600073ffffffffffffffffffffffffffffffffffffffff168273ffffffffffffffffffffffffffffffffffffffff161415611749576040517f08c379a000000000000000000000000000000000000000000000000000000000815260040161174090612284565b60405180910390fd5b61175281610deb565b15611792576040517f08c379a0000000000000000000000000000000000000000000000000000000008152600401611789906121a4565b60405180910390fd5b61179e600083836114c4565b6001600360008473ffffffffffffffffffffffffffffffffffffffff1673ffffffffffffffffffffffffffffffffffffffff16815260200190815260200160002060008282546117ee91906123ed565b92505081905550816002600083815260200190815260200160002060006101000a81548173ffffffffffffffffffffffffffffffffffffffff021916908373ffffffffffffffffffffffffffffffffffffffff160217905550808273ffffffffffffffffffffffffffffffffffffffff16600073ffffffffffffffffffffffffffffffffffffffff167fddf252ad1be2c89b69c2b068fc378daa952ba7f163c4a11628f55a4df523b3ef60405160405180910390a45050565b600080823b905060008111915050919050565b8280546118c6906125b8565b90600052602060002090601f0160209004810192826118e8576000855561192f565b82601f1061190157803560ff191683800117855561192f565b8280016001018555821561192f579182015b8281111561192e578235825591602001919060010190611913565b5b50905061193c9190611940565b5090565b5b80821115611959576000816000905550600101611941565b5090565b600061197061196b84612384565b61235f565b90508281526020810184848401111561198c5761198b6126e6565b5b611997848285612576565b509392505050565b6000813590506119ae81612ae6565b92915050565b6000813590506119c381612afd565b92915050565b6000813590506119d881612b14565b92915050565b6000815190506119ed81612b14565b92915050565b600082601f830112611a0857611a076126dc565b5b8135611a1884826020860161195d565b91505092915050565b60008083601f840112611a3757611a366126dc565b5b8235905067ffffffffffffffff811115611a5457611a536126d7565b5b602083019150836001820283011115611a7057611a6f6126e1565b5b9250929050565b600081359050611a8681612b2b565b92915050565b600060208284031215611aa257611aa16126f0565b5b6000611ab08482850161199f565b91505092915050565b60008060408385031215611ad057611acf6126f0565b5b6000611ade8582860161199f565b9250506020611aef8582860161199f565b9150509250929050565b600080600060608486031215611b1257611b116126f0565b5b6000611b208682870161199f565b9350506020611b318682870161199f565b9250506040611b4286828701611a77565b9150509250925092565b60008060008060808587031215611b6657611b656126f0565b5b6000611b748782880161199f565b9450506020611b858782880161199f565b9350506040611b9687828801611a77565b925050606085013567ffffffffffffffff811115611bb757611bb66126eb565b5b611bc3878288016119f3565b91505092959194509250565b60008060408385031215611be657611be56126f0565b5b6000611bf48582860161199f565b9250506020611c05858286016119b4565b9150509250929050565b60008060408385031215611c2657611c256126f0565b5b6000611c348582860161199f565b9250506020611c4585828601611a77565b9150509250929050565b60008060008060608587031215611c6957611c686126f0565b5b6000611c778782880161199f565b9450506020611c8887828801611a77565b935050604085013567ffffffffffffffff811115611ca957611ca86126eb565b5b611cb587828801611a21565b925092505092959194509250565b600080600080600060808688031215611cdf57611cde6126f0565b5b6000611ced8882890161199f565b9550506020611cfe88828901611a77565b945050604086013567ffffffffffffffff811115611d1f57611d1e6126eb565b5b611d2b88828901611a21565b9350935050606086013567ffffffffffffffff811115611d4e57611d4d6126eb565b5b611d5a888289016119f3565b9150509295509295909350565b600060208284031215611d7d57611d7c6126f0565b5b6000611d8b848285016119c9565b91505092915050565b600060208284031215611daa57611da96126f0565b5b6000611db8848285016119de565b91505092915050565b600060208284031215611dd757611dd66126f0565b5b6000611de584828501611a77565b91505092915050565b60008060408385031215611e0557611e046126f0565b5b6000611e1385828601611a77565b9250506020611e2485828601611a77565b9150509250929050565b611e3781612502565b82525050565b611e4681612514565b82525050565b6000611e57826123b5565b611e6181856123cb565b9350611e71818560208601612585565b611e7a816126f5565b840191505092915050565b6000611e90826123c0565b611e9a81856123dc565b9350611eaa818560208601612585565b611eb3816126f5565b840191505092915050565b6000611ecb6032836123dc565b9150611ed682612706565b604082019050919050565b6000611eee601c836123dc565b9150611ef982612755565b602082019050919050565b6000611f116024836123dc565b9150611f1c8261277e565b604082019050919050565b6000611f346019836123dc565b9150611f3f826127cd565b602082019050919050565b6000611f57602c836123dc565b9150611f62826127f6565b604082019050919050565b6000611f7a6038836123dc565b9150611f8582612845565b604082019050919050565b6000611f9d602a836123dc565b9150611fa882612894565b604082019050919050565b6000611fc06029836123dc565b9150611fcb826128e3565b604082019050919050565b6000611fe36020836123dc565b9150611fee82612932565b602082019050919050565b6000612006602c836123dc565b91506120118261295b565b604082019050919050565b60006120296029836123dc565b9150612034826129aa565b604082019050919050565b600061204c602f836123dc565b9150612057826129f9565b604082019050919050565b600061206f6021836123dc565b915061207a82612a48565b604082019050919050565b60006120926031836123dc565b915061209d82612a97565b604082019050919050565b6120b18161256c565b82525050565b60006020820190506120cc6000830184611e2e565b92915050565b60006080820190506120e76000830187611e2e565b6120f46020830186611e2e565b61210160408301856120a8565b81810360608301526121138184611e4c565b905095945050505050565b60006040820190506121336000830185611e2e565b61214060208301846120a8565b9392505050565b600060208201905061215c6000830184611e3d565b92915050565b6000602082019050818103600083015261217c8184611e85565b905092915050565b6000602082019050818103600083015261219d81611ebe565b9050919050565b600060208201905081810360008301526121bd81611ee1565b9050919050565b600060208201905081810360008301526121dd81611f04565b9050919050565b600060208201905081810360008301526121fd81611f27565b9050919050565b6000602082019050818103600083015261221d81611f4a565b9050919050565b6000602082019050818103600083015261223d81611f6d565b9050919050565b6000602082019050818103600083015261225d81611f90565b9050919050565b6000602082019050818103600083015261227d81611fb3565b9050919050565b6000602082019050818103600083015261229d81611fd6565b9050919050565b600060208201905081810360008301526122bd81611ff9565b9050919050565b600060208201905081810360008301526122dd8161201c565b9050919050565b600060208201905081810360008301526122fd8161203f565b9050919050565b6000602082019050818103600083015261231d81612062565b9050919050565b6000602082019050818103600083015261233d81612085565b9050919050565b600060208201905061235960008301846120a8565b92915050565b600061236961237a565b905061237582826125ea565b919050565b6000604051905090565b600067ffffffffffffffff82111561239f5761239e6126a8565b5b6123a8826126f5565b9050602081019050919050565b600081519050919050565b600081519050919050565b600082825260208201905092915050565b600082825260208201905092915050565b60006123f88261256c565b91506124038361256c565b9250827fffffffffffffffffffffffffffffffffffffffffffffffffffffffffffffffff038211156124385761243761261b565b5b828201905092915050565b600061244e8261256c565b91506124598361256c565b9250826124695761246861264a565b5b828204905092915050565b600061247f8261256c565b915061248a8361256c565b9250817fffffffffffffffffffffffffffffffffffffffffffffffffffffffffffffffff04831182151516156124c3576124c261261b565b5b828202905092915050565b60006124d98261256c565b91506124e48361256c565b9250828210156124f7576124f661261b565b5b828203905092915050565b600061250d8261254c565b9050919050565b60008115159050919050565b60007fffffffff0000000000000000000000000000000000000000000000000000000082169050919050565b600073ffffffffffffffffffffffffffffffffffffffff82169050919050565b6000819050919050565b82818337600083830152505050565b60005b838110156125a3578082015181840152602081019050612588565b838111156125b2576000848401525b50505050565b600060028204905060018216806125d057607f821691505b602082108114156125e4576125e3612679565b5b50919050565b6125f3826126f5565b810181811067ffffffffffffffff82111715612612576126116126a8565b5b80604052505050565b7f4e487b7100000000000000000000000000000000000000000000000000000000600052601160045260246000fd5b7f4e487b7100000000000000000000000000000000000000000000000000000000600052601260045260246000fd5b7f4e487b7100000000000000000000000000000000000000000000000000000000600052602260045260246000fd5b7f4e487b7100000000000000000000000000000000000000000000000000000000600052604160045260246000fd5b600080fd5b600080fd5b600080fd5b600080fd5b600080fd5b600080fd5b6000601f19601f8301169050919050565b7f4552433732313a207472616e7366657220746f206e6f6e20455243373231526560008201527f63656976657220696d706c656d656e7465720000000000000000000000000000602082015250565b7f4552433732313a20746f6b656e20616c7265616479206d696e74656400000000600082015250565b7f4552433732313a207472616e7366657220746f20746865207a65726f2061646460008201527f7265737300000000000000000000000000000000000000000000000000000000602082015250565b7f4552433732313a20617070726f766520746f2063616c6c657200000000000000600082015250565b7f4552433732313a206f70657261746f7220717565727920666f72206e6f6e657860008201527f697374656e7420746f6b656e0000000000000000000000000000000000000000602082015250565b7f4552433732313a20617070726f76652063616c6c6572206973206e6f74206f7760008201527f6e6572206e6f7220617070726f76656420666f7220616c6c0000000000000000602082015250565b7f4552433732313a2062616c616e636520717565727920666f7220746865207a6560008201527f726f206164647265737300000000000000000000000000000000000000000000602082015250565b7f4552433732313a206f776e657220717565727920666f72206e6f6e657869737460008201527f656e7420746f6b656e0000000000000000000000000000000000000000000000602082015250565b7f4552433732313a206d696e7420746f20746865207a65726f2061646472657373600082015250565b7f4552433732313a20617070726f76656420717565727920666f72206e6f6e657860008201527f697374656e7420746f6b656e0000000000000000000000000000000000000000602082015250565b7f4552433732313a207472616e73666572206f6620746f6b656e2074686174206960008201527f73206e6f74206f776e0000000000000000000000000000000000000000000000602082015250565b7f4552433732314d657461646174613a2055524920717565727920666f72206e6f60008201527f6e6578697374656e7420746f6b656e0000000000000000000000000000000000602082015250565b7f4552433732313a20617070726f76616c20746f2063757272656e74206f776e6560008201527f7200000000000000000000000000000000000000000000000000000000000000602082015250565b7f4552433732313a207472616e736665722063616c6c6572206973206e6f74206f60008201527f776e6572206e6f7220617070726f766564000000000000000000000000000000602082015250565b612aef81612502565b8114612afa57600080fd5b50565b612b0681612514565b8114612b1157600080fd5b50565b612b1d81612520565b8114612b2857600080fd5b50565b612b348161256c565b8114612b3f57600080fd5b5056fea2646970667358221220ad19e0aea61dc2dfb0c6d2222b15c5b869301450ab508237cb490a019d24e02164736f6c63430008060033a26469706673582212201619067708d282766792bc9bdb78dd2b67dbb458ac759b4e8202d938a441f32a64736f6c63430008060033",
  "immutableReferences": {},
  "source": "// SPDX-License-Identifier: MIT\r\n\r\npragma solidity ^0.8.6;\r\n\r\nimport \"./ERC721WithRoyalty.sol\";\r\n\r\ncontract RoyaltyFactory {\r\n    address[] public allRoyalties;\r\n    uint256 royaltyCounter;\r\n\r\n    event LoyaltyERC721Created(\r\n        string name,\r\n        string symbol,\r\n        address _royaltyReceiver, \r\n        uint256 _royaltyPercentage,\r\n        uint256\r\n    );\r\n\r\n    constructor() {\r\n        royaltyCounter = 0;\r\n    }\r\n    \r\n    function createRoyaltyERC721(\r\n        string memory name, \r\n        string memory symbol, \r\n        address _royaltyReceiver, \r\n        uint256 _royaltyPercentage\r\n    ) external returns (address loyalty, uint256 counter) {\r\n        ERC721WithRoyalty _loyalty = new ERC721WithRoyalty(name, symbol, _royaltyReceiver, _royaltyPercentage);\r\n        loyalty = address(_loyalty);\r\n        allRoyalties.push(loyalty);\r\n        emit LoyaltyERC721Created(name, symbol, _royaltyReceiver, _royaltyPercentage, allRoyalties.length);\r\n\r\n        royaltyCounter++;\r\n        counter = royaltyCounter;\r\n    }\r\n}\r\n",
  "sourcePath": "/Users/angelsatorresalmenara/Desktop/ERC721-royalties/contracts/RoyaltyFactory.sol",
  "compiler": {
    "name": "solc",
    "version": "0.8.6+commit.11564f7e.Emscripten.clang"
  },
  "schemaVersion": "3.4.3",
  "updatedAt": "2021-10-16T20:37:49.652Z",
  "networkType": "ethereum",
  "devdoc": {
    "kind": "dev",
    "methods": {},
    "version": 1
  },
  "userdoc": {
    "kind": "user",
    "methods": {},
    "version": 1
  }
}