{
  "_format": "hh-sol-artifact-1",
  "contractName": "ProtocolParameters",
  "sourceName": "contracts/governance/ProtocolParameters.sol",
  "abi": [
    {
      "inputs": [],
      "stateMutability": "nonpayable",
      "type": "constructor"
    },
    {
      "anonymous": false,
      "inputs": [
        {
          "indexed": false,
          "internalType": "address",
          "name": "previousAdmin",
          "type": "address"
        },
        {
          "indexed": false,
          "internalType": "address",
          "name": "newAdmin",
          "type": "address"
        }
      ],
      "name": "AdminChanged",
      "type": "event"
    },
    {
      "anonymous": false,
      "inputs": [
        {
          "indexed": true,
          "internalType": "address",
          "name": "beacon",
          "type": "address"
        }
      ],
      "name": "BeaconUpgraded",
      "type": "event"
    },
    {
      "anonymous": false,
      "inputs": [
        {
          "indexed": false,
          "internalType": "uint256",
          "name": "from",
          "type": "uint256"
        },
        {
          "indexed": false,
          "internalType": "uint256",
          "name": "to",
          "type": "uint256"
        }
      ],
      "name": "BuyerCancelFeePercentUpdated",
      "type": "event"
    },
    {
      "anonymous": false,
      "inputs": [
        {
          "indexed": false,
          "internalType": "uint256",
          "name": "from",
          "type": "uint256"
        },
        {
          "indexed": false,
          "internalType": "uint256",
          "name": "to",
          "type": "uint256"
        }
      ],
      "name": "BuyerPurchaseGracePeriodUpdated",
      "type": "event"
    },
    {
      "anonymous": false,
      "inputs": [
        {
          "indexed": false,
          "internalType": "uint256",
          "name": "from",
          "type": "uint256"
        },
        {
          "indexed": false,
          "internalType": "uint256",
          "name": "to",
          "type": "uint256"
        }
      ],
      "name": "MinimumReservePeriodUpdated",
      "type": "event"
    },
    {
      "anonymous": false,
      "inputs": [
        {
          "indexed": true,
          "internalType": "address",
          "name": "previousOwner",
          "type": "address"
        },
        {
          "indexed": true,
          "internalType": "address",
          "name": "newOwner",
          "type": "address"
        }
      ],
      "name": "OwnershipTransferred",
      "type": "event"
    },
    {
      "anonymous": false,
      "inputs": [
        {
          "indexed": false,
          "internalType": "uint256",
          "name": "from",
          "type": "uint256"
        },
        {
          "indexed": false,
          "internalType": "uint256",
          "name": "to",
          "type": "uint256"
        }
      ],
      "name": "SellerCancelFeePercentUpdated",
      "type": "event"
    },
    {
      "anonymous": false,
      "inputs": [
        {
          "indexed": true,
          "internalType": "address",
          "name": "implementation",
          "type": "address"
        }
      ],
      "name": "Upgraded",
      "type": "event"
    },
    {
      "inputs": [],
      "name": "buyerCancelFeePercent",
      "outputs": [
        {
          "internalType": "uint256",
          "name": "",
          "type": "uint256"
        }
      ],
      "stateMutability": "view",
      "type": "function"
    },
    {
      "inputs": [],
      "name": "buyerPurchaseGracePeriod",
      "outputs": [
        {
          "internalType": "uint256",
          "name": "",
          "type": "uint256"
        }
      ],
      "stateMutability": "view",
      "type": "function"
    },
    {
      "inputs": [
        {
          "internalType": "uint256",
          "name": "minimumReservePeriod_",
          "type": "uint256"
        },
        {
          "internalType": "uint256",
          "name": "sellerCancelFeePercent_",
          "type": "uint256"
        },
        {
          "internalType": "uint256",
          "name": "buyerCancelFeePercent_",
          "type": "uint256"
        },
        {
          "internalType": "uint256",
          "name": "buyerPurchaseGracePeriod_",
          "type": "uint256"
        },
        {
          "internalType": "address",
          "name": "governanceContractAddress_",
          "type": "address"
        }
      ],
      "name": "initialize",
      "outputs": [],
      "stateMutability": "nonpayable",
      "type": "function"
    },
    {
      "inputs": [],
      "name": "minimumReservePeriod",
      "outputs": [
        {
          "internalType": "uint256",
          "name": "",
          "type": "uint256"
        }
      ],
      "stateMutability": "view",
      "type": "function"
    },
    {
      "inputs": [],
      "name": "owner",
      "outputs": [
        {
          "internalType": "address",
          "name": "",
          "type": "address"
        }
      ],
      "stateMutability": "view",
      "type": "function"
    },
    {
      "inputs": [],
      "name": "renounceOwnership",
      "outputs": [],
      "stateMutability": "nonpayable",
      "type": "function"
    },
    {
      "inputs": [],
      "name": "sellerCancelFeePercent",
      "outputs": [
        {
          "internalType": "uint256",
          "name": "",
          "type": "uint256"
        }
      ],
      "stateMutability": "view",
      "type": "function"
    },
    {
      "inputs": [
        {
          "internalType": "uint256",
          "name": "buyerCancelFeePercent_",
          "type": "uint256"
        }
      ],
      "name": "setBuyerCancelFeePercent",
      "outputs": [],
      "stateMutability": "nonpayable",
      "type": "function"
    },
    {
      "inputs": [
        {
          "internalType": "uint256",
          "name": "buyerPurchaseGracePeriod_",
          "type": "uint256"
        }
      ],
      "name": "setBuyerPurchaseGracePeriod",
      "outputs": [],
      "stateMutability": "nonpayable",
      "type": "function"
    },
    {
      "inputs": [
        {
          "internalType": "uint256",
          "name": "minimumReservePeriod_",
          "type": "uint256"
        }
      ],
      "name": "setMinimumReservePeriod",
      "outputs": [],
      "stateMutability": "nonpayable",
      "type": "function"
    },
    {
      "inputs": [
        {
          "internalType": "uint256",
          "name": "sellerCancelFeePercent_",
          "type": "uint256"
        }
      ],
      "name": "setSellerCancelFeePercent",
      "outputs": [],
      "stateMutability": "nonpayable",
      "type": "function"
    },
    {
      "inputs": [
        {
          "internalType": "address",
          "name": "newOwner",
          "type": "address"
        }
      ],
      "name": "transferOwnership",
      "outputs": [],
      "stateMutability": "nonpayable",
      "type": "function"
    },
    {
      "inputs": [
        {
          "internalType": "address",
          "name": "newImplementation",
          "type": "address"
        }
      ],
      "name": "upgradeTo",
      "outputs": [],
      "stateMutability": "nonpayable",
      "type": "function"
    },
    {
      "inputs": [
        {
          "internalType": "address",
          "name": "newImplementation",
          "type": "address"
        },
        {
          "internalType": "bytes",
          "name": "data",
          "type": "bytes"
        }
      ],
      "name": "upgradeToAndCall",
      "outputs": [],
      "stateMutability": "payable",
      "type": "function"
    }
  ],
  "bytecode": "0x60a06040523060601b60805234801561001757600080fd5b50600054610100900460ff1680610031575060005460ff16155b6100985760405162461bcd60e51b815260206004820152602e60248201527f496e697469616c697a61626c653a20636f6e747261637420697320616c72656160448201526d191e481a5b9a5d1a585b1a5e995960921b606482015260840160405180910390fd5b600054610100900460ff161580156100ba576000805461ffff19166101011790555b80156100cc576000805461ff00191690555b5060805160601c6111f56101006000396000818161028a015281816102d301528181610417015261045701526111f56000f3fe6080604052600436106100dd5760003560e01c80638da5cb5b1161007f578063ccd6529611610059578063ccd65296146101ff578063e1a057d91461021f578063e5499aba1461023f578063f2fde38b1461025f57600080fd5b80638da5cb5b146101ab578063bf15f39c146101d3578063c937f277146101e957600080fd5b80634f1ef286116100bb5780634f1ef2861461014d5780635b353dce146101605780636064b81014610176578063715018a61461019657600080fd5b80633306607d146100e25780633659cfe61461010b5780634ebcbd8e1461012d575b600080fd5b3480156100ee57600080fd5b506100f860cc5481565b6040519081526020015b60405180910390f35b34801561011757600080fd5b5061012b610126366004610e70565b61027f565b005b34801561013957600080fd5b5061012b610148366004610f47565b610351565b61012b61015b366004610e8a565b61040c565b34801561016c57600080fd5b506100f860cb5481565b34801561018257600080fd5b5061012b610191366004610f47565b6104c6565b3480156101a257600080fd5b5061012b610581565b3480156101b757600080fd5b506097546040516001600160a01b039091168152602001610102565b3480156101df57600080fd5b506100f860ca5481565b3480156101f557600080fd5b506100f860c95481565b34801561020b57600080fd5b5061012b61021a366004610f5f565b6105b7565b34801561022b57600080fd5b5061012b61023a366004610f47565b610715565b34801561024b57600080fd5b5061012b61025a366004610f47565b610780565b34801561026b57600080fd5b5061012b61027a366004610e70565b61080b565b306001600160a01b037f00000000000000000000000000000000000000000000000000000000000000001614156102d15760405162461bcd60e51b81526004016102c890611037565b60405180910390fd5b7f00000000000000000000000000000000000000000000000000000000000000006001600160a01b03166103036108a3565b6001600160a01b0316146103295760405162461bcd60e51b81526004016102c890611083565b610332816108d1565b6040805160008082526020820190925261034e918391906108fb565b50565b6097546001600160a01b0316331461037b5760405162461bcd60e51b81526004016102c89061111d565b606481106103cb5760405162461bcd60e51b815260206004820181905260248201527f496e76616c69642062757965722063616e63656c206665652070657263656e7460448201526064016102c8565b60cb5460408051918252602082018390527f3217bb5071dffb5504e068735c7004ef6937accdfcb5fb2cc811a8e2805809d9910160405180910390a160cb55565b306001600160a01b037f00000000000000000000000000000000000000000000000000000000000000001614156104555760405162461bcd60e51b81526004016102c890611037565b7f00000000000000000000000000000000000000000000000000000000000000006001600160a01b03166104876108a3565b6001600160a01b0316146104ad5760405162461bcd60e51b81526004016102c890611083565b6104b6826108d1565b6104c2828260016108fb565b5050565b6097546001600160a01b031633146104f05760405162461bcd60e51b81526004016102c89061111d565b600081116105405760405162461bcd60e51b815260206004820152601e60248201527f496e76616c6964206d696e696d756d207265736572766520706572696f64000060448201526064016102c8565b60c95460408051918252602082018390527ffd37806c747b5ee5c4abf3b401629b897d29c28dcff96b0b3e4add08eba6c5fa910160405180910390a160c955565b6097546001600160a01b031633146105ab5760405162461bcd60e51b81526004016102c89061111d565b6105b56000610a46565b565b600054610100900460ff16806105d0575060005460ff16155b6105ec5760405162461bcd60e51b81526004016102c8906110cf565b600054610100900460ff1615801561060e576000805461ffff19166101011790555b6000861161065e5760405162461bcd60e51b815260206004820152601e60248201527f496e76616c6964206d696e696d756d207265736572766520706572696f64000060448201526064016102c8565b60c9869055606485106106835760405162461bcd60e51b81526004016102c890610ff6565b60ca859055606484106106d85760405162461bcd60e51b815260206004820181905260248201527f496e76616c69642062757965722063616e63656c206665652070657263656e7460448201526064016102c8565b60cb84905560cc8390556106ea610a98565b6106f2610b13565b6106fb8261080b565b801561070d576000805461ff00191690555b505050505050565b6097546001600160a01b0316331461073f5760405162461bcd60e51b81526004016102c89061111d565b60cc5460408051918252602082018390527fb9a9bdac2123f763120831aed17095f7d7b55ed30ad6a461ce57117cd8b08d2a910160405180910390a160cc55565b6097546001600160a01b031633146107aa5760405162461bcd60e51b81526004016102c89061111d565b606481106107ca5760405162461bcd60e51b81526004016102c890610ff6565b60ca5460408051918252602082018390527f88780c1fbe15ff212329ddbf6e7598f5ec506b0d89e4a1173ab3f7b73d506ea7910160405180910390a160ca55565b6097546001600160a01b031633146108355760405162461bcd60e51b81526004016102c89061111d565b6001600160a01b03811661089a5760405162461bcd60e51b815260206004820152602660248201527f4f776e61626c653a206e6577206f776e657220697320746865207a65726f206160448201526564647265737360d01b60648201526084016102c8565b61034e81610a46565b7f360894a13ba1a3210667c828492db98dca3e2076cc3735a920a3ca505d382bbc546001600160a01b031690565b6097546001600160a01b0316331461034e5760405162461bcd60e51b81526004016102c89061111d565b60006109056108a3565b905061091084610b7a565b60008351118061091d5750815b1561092e5761092c8484610c1f565b505b7f4910fdfa16fed3260ed0e7147f7cc6da11a60208b5b9406d12a635614ffd9143805460ff16610a3f57805460ff191660011781556040516001600160a01b03831660248201526109ad90869060440160408051601f198184030181529190526020810180516001600160e01b0316631b2ce7f360e11b179052610c1f565b50805460ff191681556109be6108a3565b6001600160a01b0316826001600160a01b031614610a365760405162461bcd60e51b815260206004820152602f60248201527f45524331393637557067726164653a207570677261646520627265616b73206660448201526e75727468657220757067726164657360881b60648201526084016102c8565b610a3f85610d0a565b5050505050565b609780546001600160a01b038381166001600160a01b0319831681179093556040519116919082907f8be0079c531659141344cd1fd0a4f28419497f9722a3daafe3b4186f6b6457e090600090a35050565b600054610100900460ff1680610ab1575060005460ff16155b610acd5760405162461bcd60e51b81526004016102c8906110cf565b600054610100900460ff16158015610aef576000805461ffff19166101011790555b610af7610d4a565b610aff610db4565b801561034e576000805461ff001916905550565b600054610100900460ff1680610b2c575060005460ff16155b610b485760405162461bcd60e51b81526004016102c8906110cf565b600054610100900460ff16158015610b6a576000805461ffff19166101011790555b610b72610d4a565b610aff610d4a565b803b610bde5760405162461bcd60e51b815260206004820152602d60248201527f455243313936373a206e657720696d706c656d656e746174696f6e206973206e60448201526c1bdd08184818dbdb9d1c9858dd609a1b60648201526084016102c8565b7f360894a13ba1a3210667c828492db98dca3e2076cc3735a920a3ca505d382bbc80546001600160a01b0319166001600160a01b0392909216919091179055565b6060823b610c7e5760405162461bcd60e51b815260206004820152602660248201527f416464726573733a2064656c65676174652063616c6c20746f206e6f6e2d636f6044820152651b9d1c9858dd60d21b60648201526084016102c8565b600080846001600160a01b031684604051610c999190610fa7565b600060405180830381855af49150503d8060008114610cd4576040519150601f19603f3d011682016040523d82523d6000602084013e610cd9565b606091505b5091509150610d01828260405180606001604052806027815260200161119960279139610e14565b95945050505050565b610d1381610b7a565b6040516001600160a01b038216907fbc7cd75a20ee27fd9adebab32041f755214dbc6bffa90cc0225b39da2e5c2d3b90600090a250565b600054610100900460ff1680610d63575060005460ff16155b610d7f5760405162461bcd60e51b81526004016102c8906110cf565b600054610100900460ff16158015610aff576000805461ffff1916610101179055801561034e576000805461ff001916905550565b600054610100900460ff1680610dcd575060005460ff16155b610de95760405162461bcd60e51b81526004016102c8906110cf565b600054610100900460ff16158015610e0b576000805461ffff19166101011790555b610aff33610a46565b60608315610e23575081610e4d565b825115610e335782518084602001fd5b8160405162461bcd60e51b81526004016102c89190610fc3565b9392505050565b80356001600160a01b0381168114610e6b57600080fd5b919050565b600060208284031215610e81578081fd5b610e4d82610e54565b60008060408385031215610e9c578081fd5b610ea583610e54565b9150602083013567ffffffffffffffff80821115610ec1578283fd5b818501915085601f830112610ed4578283fd5b813581811115610ee657610ee6611182565b604051601f8201601f19908116603f01168101908382118183101715610f0e57610f0e611182565b81604052828152886020848701011115610f26578586fd5b82602086016020830137856020848301015280955050505050509250929050565b600060208284031215610f58578081fd5b5035919050565b600080600080600060a08688031215610f76578081fd5b85359450602086013593506040860135925060608601359150610f9b60808701610e54565b90509295509295909350565b60008251610fb9818460208701611152565b9190910192915050565b6020815260008251806020840152610fe2816040850160208701611152565b601f01601f19169190910160400192915050565b60208082526021908201527f496e76616c69642073656c6c65722063616e63656c206665652070657263656e6040820152601d60fa1b606082015260800190565b6020808252602c908201527f46756e6374696f6e206d7573742062652063616c6c6564207468726f7567682060408201526b19195b1959d85d1958d85b1b60a21b606082015260800190565b6020808252602c908201527f46756e6374696f6e206d7573742062652063616c6c6564207468726f7567682060408201526b6163746976652070726f787960a01b606082015260800190565b6020808252602e908201527f496e697469616c697a61626c653a20636f6e747261637420697320616c72656160408201526d191e481a5b9a5d1a585b1a5e995960921b606082015260800190565b6020808252818101527f4f776e61626c653a2063616c6c6572206973206e6f7420746865206f776e6572604082015260600190565b60005b8381101561116d578181015183820152602001611155565b8381111561117c576000848401525b50505050565b634e487b7160e01b600052604160045260246000fdfe416464726573733a206c6f772d6c6576656c2064656c65676174652063616c6c206661696c6564a264697066735822122007c71bafbdacb1682a99360a5d8424ec0991eaefc9f6092b5364e620bf222bd464736f6c63430008040033",
  "linkReferences": {},
  "deployedLinkReferences": {}
}