{
  "address": "0x4aec3649D7e4c64E91E355703fFd18185F9423CB",
  "abi": [
    {
      "inputs": [],
      "stateMutability": "nonpayable",
      "type": "constructor"
    },
    {
      "anonymous": false,
      "inputs": [
        {
          "indexed": false,
          "internalType": "address",
          "name": "previousAdmin",
          "type": "address"
        },
        {
          "indexed": false,
          "internalType": "address",
          "name": "newAdmin",
          "type": "address"
        }
      ],
      "name": "AdminChanged",
      "type": "event"
    },
    {
      "anonymous": false,
      "inputs": [
        {
          "indexed": true,
          "internalType": "address",
          "name": "beacon",
          "type": "address"
        }
      ],
      "name": "BeaconUpgraded",
      "type": "event"
    },
    {
      "anonymous": false,
      "inputs": [
        {
          "indexed": false,
          "internalType": "address",
          "name": "collection",
          "type": "address"
        },
        {
          "indexed": false,
          "internalType": "uint256",
          "name": "tokenId",
          "type": "uint256"
        },
        {
          "indexed": false,
          "internalType": "uint256",
          "name": "rentalTime",
          "type": "uint256"
        },
        {
          "indexed": false,
          "internalType": "uint256",
          "name": "pricePerSecond",
          "type": "uint256"
        },
        {
          "indexed": false,
          "internalType": "uint256",
          "name": "rentalExpiration",
          "type": "uint256"
        },
        {
          "indexed": false,
          "internalType": "address",
          "name": "fundingToken",
          "type": "address"
        },
        {
          "indexed": false,
          "internalType": "address",
          "name": "operator",
          "type": "address"
        },
        {
          "indexed": false,
          "internalType": "uint256",
          "name": "syntheticID",
          "type": "uint256"
        }
      ],
      "name": "NFTRented",
      "type": "event"
    },
    {
      "anonymous": false,
      "inputs": [
        {
          "indexed": false,
          "internalType": "bytes32",
          "name": "offerId",
          "type": "bytes32"
        }
      ],
      "name": "OfferAccepted",
      "type": "event"
    },
    {
      "anonymous": false,
      "inputs": [
        {
          "indexed": false,
          "internalType": "bytes32",
          "name": "rentalId",
          "type": "bytes32"
        }
      ],
      "name": "OfferCanceled",
      "type": "event"
    },
    {
      "anonymous": false,
      "inputs": [
        {
          "indexed": false,
          "internalType": "bytes32",
          "name": "rentalId",
          "type": "bytes32"
        }
      ],
      "name": "OfferDeclined",
      "type": "event"
    },
    {
      "anonymous": false,
      "inputs": [
        {
          "indexed": false,
          "internalType": "address",
          "name": "collection",
          "type": "address"
        },
        {
          "indexed": false,
          "internalType": "uint256",
          "name": "tokenId",
          "type": "uint256"
        },
        {
          "indexed": false,
          "internalType": "uint256",
          "name": "maximumRentTime",
          "type": "uint256"
        },
        {
          "indexed": false,
          "internalType": "uint256",
          "name": "pricePerSecond",
          "type": "uint256"
        },
        {
          "indexed": false,
          "internalType": "uint256",
          "name": "rentalExpiration",
          "type": "uint256"
        },
        {
          "indexed": false,
          "internalType": "address",
          "name": "fundingToken",
          "type": "address"
        },
        {
          "indexed": false,
          "internalType": "address",
          "name": "owner",
          "type": "address"
        },
        {
          "indexed": false,
          "internalType": "bytes32",
          "name": "rentalId",
          "type": "bytes32"
        }
      ],
      "name": "OfferListed",
      "type": "event"
    },
    {
      "anonymous": false,
      "inputs": [
        {
          "indexed": true,
          "internalType": "address",
          "name": "previousOwner",
          "type": "address"
        },
        {
          "indexed": true,
          "internalType": "address",
          "name": "newOwner",
          "type": "address"
        }
      ],
      "name": "OwnershipTransferred",
      "type": "event"
    },
    {
      "anonymous": false,
      "inputs": [
        {
          "indexed": false,
          "internalType": "address",
          "name": "collection",
          "type": "address"
        },
        {
          "indexed": false,
          "internalType": "uint256",
          "name": "tokenId",
          "type": "uint256"
        },
        {
          "indexed": false,
          "internalType": "uint256",
          "name": "rentalTime",
          "type": "uint256"
        },
        {
          "indexed": false,
          "internalType": "uint256",
          "name": "pricePerSecond",
          "type": "uint256"
        },
        {
          "indexed": false,
          "internalType": "uint256",
          "name": "rentalExpiration",
          "type": "uint256"
        },
        {
          "indexed": false,
          "internalType": "address",
          "name": "fundingToken",
          "type": "address"
        },
        {
          "indexed": false,
          "internalType": "address",
          "name": "operator",
          "type": "address"
        },
        {
          "indexed": false,
          "internalType": "bytes32",
          "name": "rentalOfferId",
          "type": "bytes32"
        }
      ],
      "name": "RentalOffered",
      "type": "event"
    },
    {
      "anonymous": false,
      "inputs": [
        {
          "indexed": true,
          "internalType": "address",
          "name": "implementation",
          "type": "address"
        }
      ],
      "name": "Upgraded",
      "type": "event"
    },
    {
      "inputs": [
        {
          "internalType": "address",
          "name": "collection_",
          "type": "address"
        },
        {
          "internalType": "uint256",
          "name": "tokenId_",
          "type": "uint256"
        },
        {
          "internalType": "uint256",
          "name": "rentalTime_",
          "type": "uint256"
        },
        {
          "internalType": "uint256",
          "name": "pricePerSecond_",
          "type": "uint256"
        },
        {
          "internalType": "uint256",
          "name": "rentalExpiration_",
          "type": "uint256"
        },
        {
          "internalType": "address",
          "name": "fundingToken_",
          "type": "address"
        },
        {
          "internalType": "address",
          "name": "offerer_",
          "type": "address"
        }
      ],
      "name": "acceptRentalOffer",
      "outputs": [],
      "stateMutability": "nonpayable",
      "type": "function"
    },
    {
      "inputs": [
        {
          "internalType": "address",
          "name": "collection_",
          "type": "address"
        },
        {
          "internalType": "uint256",
          "name": "tokenId_",
          "type": "uint256"
        },
        {
          "internalType": "uint256",
          "name": "maximumRentTime_",
          "type": "uint256"
        },
        {
          "internalType": "uint256",
          "name": "pricePerSecond_",
          "type": "uint256"
        },
        {
          "internalType": "uint256",
          "name": "rentalExpiration_",
          "type": "uint256"
        },
        {
          "internalType": "address",
          "name": "fundingToken_",
          "type": "address"
        }
      ],
      "name": "cancelListOffer",
      "outputs": [],
      "stateMutability": "nonpayable",
      "type": "function"
    },
    {
      "inputs": [
        {
          "internalType": "address",
          "name": "collection_",
          "type": "address"
        },
        {
          "internalType": "uint256",
          "name": "tokenId_",
          "type": "uint256"
        },
        {
          "internalType": "uint256",
          "name": "rentalTime_",
          "type": "uint256"
        },
        {
          "internalType": "uint256",
          "name": "pricePerSecond_",
          "type": "uint256"
        },
        {
          "internalType": "uint256",
          "name": "rentalExpiration_",
          "type": "uint256"
        },
        {
          "internalType": "address",
          "name": "fundingToken_",
          "type": "address"
        },
        {
          "internalType": "address",
          "name": "operator_",
          "type": "address"
        }
      ],
      "name": "cancelRentalOffer",
      "outputs": [],
      "stateMutability": "nonpayable",
      "type": "function"
    },
    {
      "inputs": [
        {
          "internalType": "bytes32",
          "name": "rentalOfferId_",
          "type": "bytes32"
        }
      ],
      "name": "cancelRentalOfferById",
      "outputs": [],
      "stateMutability": "nonpayable",
      "type": "function"
    },
    {
      "inputs": [
        {
          "internalType": "address",
          "name": "offerer_",
          "type": "address"
        },
        {
          "internalType": "address",
          "name": "collection_",
          "type": "address"
        },
        {
          "internalType": "uint256",
          "name": "tokenId_",
          "type": "uint256"
        },
        {
          "internalType": "uint256",
          "name": "rentalTime_",
          "type": "uint256"
        },
        {
          "internalType": "uint256",
          "name": "pricePerSecond_",
          "type": "uint256"
        },
        {
          "internalType": "uint256",
          "name": "rentalExpiration_",
          "type": "uint256"
        },
        {
          "internalType": "address",
          "name": "fundingToken_",
          "type": "address"
        },
        {
          "internalType": "address",
          "name": "operator_",
          "type": "address"
        }
      ],
      "name": "getRentalBuyID",
      "outputs": [
        {
          "internalType": "bytes32",
          "name": "rentalId",
          "type": "bytes32"
        }
      ],
      "stateMutability": "pure",
      "type": "function"
    },
    {
      "inputs": [
        {
          "internalType": "address",
          "name": "collection_",
          "type": "address"
        },
        {
          "internalType": "uint256",
          "name": "tokenId_",
          "type": "uint256"
        },
        {
          "internalType": "uint256",
          "name": "maximumRentTime_",
          "type": "uint256"
        },
        {
          "internalType": "uint256",
          "name": "pricePerSecond_",
          "type": "uint256"
        },
        {
          "internalType": "uint256",
          "name": "rentalExpiration_",
          "type": "uint256"
        },
        {
          "internalType": "address",
          "name": "fundingToken_",
          "type": "address"
        },
        {
          "internalType": "address",
          "name": "operator_",
          "type": "address"
        }
      ],
      "name": "getRentalSellID",
      "outputs": [
        {
          "internalType": "bytes32",
          "name": "rentalId",
          "type": "bytes32"
        }
      ],
      "stateMutability": "pure",
      "type": "function"
    },
    {
      "inputs": [
        {
          "internalType": "address",
          "name": "collection_",
          "type": "address"
        }
      ],
      "name": "getSyntheticNFTAddress",
      "outputs": [
        {
          "internalType": "address",
          "name": "",
          "type": "address"
        }
      ],
      "stateMutability": "view",
      "type": "function"
    },
    {
      "inputs": [
        {
          "internalType": "address",
          "name": "syntheticNFT_",
          "type": "address"
        },
        {
          "internalType": "address",
          "name": "vaultAddress_",
          "type": "address"
        },
        {
          "internalType": "address",
          "name": "protocolParameters_",
          "type": "address"
        }
      ],
      "name": "initialize",
      "outputs": [],
      "stateMutability": "nonpayable",
      "type": "function"
    },
    {
      "inputs": [
        {
          "internalType": "address",
          "name": "collection_",
          "type": "address"
        },
        {
          "internalType": "uint256",
          "name": "tokenId_",
          "type": "uint256"
        }
      ],
      "name": "isRentalExpired",
      "outputs": [
        {
          "internalType": "bool",
          "name": "",
          "type": "bool"
        }
      ],
      "stateMutability": "view",
      "type": "function"
    },
    {
      "inputs": [
        {
          "internalType": "address",
          "name": "collection",
          "type": "address"
        },
        {
          "internalType": "uint256",
          "name": "tokenId",
          "type": "uint256"
        }
      ],
      "name": "isTokenRented",
      "outputs": [
        {
          "internalType": "bool",
          "name": "",
          "type": "bool"
        }
      ],
      "stateMutability": "view",
      "type": "function"
    },
    {
      "inputs": [
        {
          "internalType": "address",
          "name": "collection_",
          "type": "address"
        },
        {
          "internalType": "uint256",
          "name": "tokenId_",
          "type": "uint256"
        },
        {
          "internalType": "uint256",
          "name": "maximumRentTime_",
          "type": "uint256"
        },
        {
          "internalType": "uint256",
          "name": "pricePerSecond_",
          "type": "uint256"
        },
        {
          "internalType": "uint256",
          "name": "rentalExpiration_",
          "type": "uint256"
        },
        {
          "internalType": "address",
          "name": "fundingToken_",
          "type": "address"
        }
      ],
      "name": "listOffer",
      "outputs": [],
      "stateMutability": "nonpayable",
      "type": "function"
    },
    {
      "inputs": [],
      "name": "owner",
      "outputs": [
        {
          "internalType": "address",
          "name": "",
          "type": "address"
        }
      ],
      "stateMutability": "view",
      "type": "function"
    },
    {
      "inputs": [],
      "name": "renounceOwnership",
      "outputs": [],
      "stateMutability": "nonpayable",
      "type": "function"
    },
    {
      "inputs": [
        {
          "internalType": "address",
          "name": "collection_",
          "type": "address"
        },
        {
          "internalType": "uint256",
          "name": "tokenId_",
          "type": "uint256"
        },
        {
          "internalType": "uint256",
          "name": "maximumRentTime_",
          "type": "uint256"
        },
        {
          "internalType": "uint256",
          "name": "pricePerSecond_",
          "type": "uint256"
        },
        {
          "internalType": "uint256",
          "name": "rentalExpiration_",
          "type": "uint256"
        },
        {
          "internalType": "address",
          "name": "fundingToken_",
          "type": "address"
        },
        {
          "internalType": "address",
          "name": "operator_",
          "type": "address"
        },
        {
          "internalType": "uint256",
          "name": "rentalTime_",
          "type": "uint256"
        }
      ],
      "name": "rentNFT",
      "outputs": [],
      "stateMutability": "nonpayable",
      "type": "function"
    },
    {
      "inputs": [
        {
          "internalType": "address",
          "name": "",
          "type": "address"
        },
        {
          "internalType": "uint256",
          "name": "",
          "type": "uint256"
        }
      ],
      "name": "rentalExpirations",
      "outputs": [
        {
          "internalType": "uint256",
          "name": "",
          "type": "uint256"
        }
      ],
      "stateMutability": "view",
      "type": "function"
    },
    {
      "inputs": [
        {
          "internalType": "address",
          "name": "collection_",
          "type": "address"
        },
        {
          "internalType": "uint256",
          "name": "tokenId_",
          "type": "uint256"
        },
        {
          "internalType": "uint256",
          "name": "rentalTime_",
          "type": "uint256"
        },
        {
          "internalType": "uint256",
          "name": "pricePerSecond_",
          "type": "uint256"
        },
        {
          "internalType": "uint256",
          "name": "rentalExpiration_",
          "type": "uint256"
        },
        {
          "internalType": "address",
          "name": "fundingToken_",
          "type": "address"
        },
        {
          "internalType": "address",
          "name": "operator_",
          "type": "address"
        }
      ],
      "name": "rentalOffer",
      "outputs": [],
      "stateMutability": "nonpayable",
      "type": "function"
    },
    {
      "inputs": [
        {
          "internalType": "address",
          "name": "",
          "type": "address"
        },
        {
          "internalType": "uint256",
          "name": "",
          "type": "uint256"
        }
      ],
      "name": "rentedTokenData",
      "outputs": [
        {
          "internalType": "address",
          "name": "collection",
          "type": "address"
        },
        {
          "internalType": "uint256",
          "name": "tokenId",
          "type": "uint256"
        },
        {
          "internalType": "uint256",
          "name": "maximumRentTime",
          "type": "uint256"
        },
        {
          "internalType": "uint256",
          "name": "pricePerSecond",
          "type": "uint256"
        },
        {
          "internalType": "uint256",
          "name": "rentalExpiration",
          "type": "uint256"
        },
        {
          "internalType": "address",
          "name": "fundingToken",
          "type": "address"
        },
        {
          "internalType": "address",
          "name": "owner",
          "type": "address"
        }
      ],
      "stateMutability": "view",
      "type": "function"
    },
    {
      "inputs": [
        {
          "internalType": "address",
          "name": "",
          "type": "address"
        },
        {
          "internalType": "uint256",
          "name": "",
          "type": "uint256"
        }
      ],
      "name": "rentedTokenSyntheticID",
      "outputs": [
        {
          "internalType": "uint256",
          "name": "",
          "type": "uint256"
        }
      ],
      "stateMutability": "view",
      "type": "function"
    },
    {
      "inputs": [
        {
          "internalType": "address",
          "name": "collection_",
          "type": "address"
        },
        {
          "internalType": "uint256",
          "name": "tokenId_",
          "type": "uint256"
        }
      ],
      "name": "syntheticNFTExists",
      "outputs": [
        {
          "internalType": "bool",
          "name": "",
          "type": "bool"
        }
      ],
      "stateMutability": "view",
      "type": "function"
    },
    {
      "inputs": [
        {
          "internalType": "address",
          "name": "newOwner",
          "type": "address"
        }
      ],
      "name": "transferOwnership",
      "outputs": [],
      "stateMutability": "nonpayable",
      "type": "function"
    },
    {
      "inputs": [
        {
          "internalType": "address",
          "name": "newImplementation",
          "type": "address"
        }
      ],
      "name": "upgradeTo",
      "outputs": [],
      "stateMutability": "nonpayable",
      "type": "function"
    },
    {
      "inputs": [
        {
          "internalType": "address",
          "name": "newImplementation",
          "type": "address"
        },
        {
          "internalType": "bytes",
          "name": "data",
          "type": "bytes"
        }
      ],
      "name": "upgradeToAndCall",
      "outputs": [],
      "stateMutability": "payable",
      "type": "function"
    },
    {
      "inputs": [],
      "name": "vaultAddress",
      "outputs": [
        {
          "internalType": "address",
          "name": "",
          "type": "address"
        }
      ],
      "stateMutability": "view",
      "type": "function"
    },
    {
      "inputs": [
        {
          "internalType": "address",
          "name": "fundingToken",
          "type": "address"
        }
      ],
      "name": "whitelistFundingToken",
      "outputs": [],
      "stateMutability": "nonpayable",
      "type": "function"
    },
    {
      "inputs": [
        {
          "internalType": "address",
          "name": "",
          "type": "address"
        }
      ],
      "name": "whitelistedFundingTokens",
      "outputs": [
        {
          "internalType": "bool",
          "name": "",
          "type": "bool"
        }
      ],
      "stateMutability": "view",
      "type": "function"
    }
  ],
  "transactionHash": "0x57c0aca27de9ea929ff67aa2446075a0658005850b3a7a3f81bef615d9b78e0d",
  "args": [],
  "solcInputHash": "06319a04233e1b3fd26e68a4b9ded85a",
  "bytecode": "0x60a06040523060601b60805234801561001757600080fd5b5060805160601c613d0661004b60003960008181610ba901528181610be901528181610c720152610cb20152613d066000f3fe6080604052600436106101665760003560e01c806386ad1dad116100d1578063af8a0ece1161008a578063e4a2826211610064578063e4a28262146104d2578063e4d007f4146104f2578063e901706414610512578063f2fde38b1461054a57600080fd5b8063af8a0ece14610462578063c0c53b8b14610482578063d28c5329146104a257600080fd5b806386ad1dad146103315780638712a3c9146103615780638da5cb5b146103815780638e3ddcb01461039f57806396d2cf83146103bf578063a8f288071461044257600080fd5b8063430bf08a11610123578063430bf08a146102715780634f1ef28614610291578063538373ba146102a4578063715018a6146102c4578063823efb04146102d9578063853b77a8146102f957600080fd5b80631a21e6681461016b57806321b36c951461019e57806326cdd052146101c05780632879488a146102115780632a5a692f146102315780633659cfe614610251575b600080fd5b34801561017757600080fd5b5061018b6101863660046135e6565b61056a565b6040519081526020015b60405180910390f35b3480156101aa57600080fd5b506101be6101b93660046136f2565b6105ac565b005b3480156101cc57600080fd5b506101f96101db3660046133cb565b6001600160a01b03908116600090815260cc60205260409020541690565b6040516001600160a01b039091168152602001610195565b34801561021d57600080fd5b506101be61022c3660046135e6565b6106cc565b34801561023d57600080fd5b5061018b61024c36600461344d565b610b30565b34801561025d57600080fd5b506101be61026c3660046133cb565b610b9e565b34801561027d57600080fd5b5060cf546101f9906001600160a01b031681565b6101be61029f3660046134d1565b610c67565b3480156102b057600080fd5b506101be6102bf3660046135e6565b610d21565b3480156102d057600080fd5b506101be6119fa565b3480156102e557600080fd5b506101be6102f4366004613657565b611a30565b34801561030557600080fd5b5061018b61031436600461355e565b60ca60209081526000928352604080842090915290825290205481565b34801561033d57600080fd5b5061035161034c36600461355e565b612477565b6040519015158152602001610195565b34801561036d57600080fd5b5061035161037c36600461355e565b61250a565b34801561038d57600080fd5b506033546001600160a01b03166101f9565b3480156103ab57600080fd5b506101be6103ba366004613589565b612534565b3480156103cb57600080fd5b5061042f6103da36600461355e565b60d160209081526000928352604080842090915290825290208054600182015460028301546003840154600485015460058601546006909601546001600160a01b039586169694959394929391928216911687565b60405161019597969594939291906138e7565b34801561044e57600080fd5b506101be61045d366004613589565b612a72565b34801561046e57600080fd5b506101be61047d3660046133cb565b612b76565b34801561048e57600080fd5b506101be61049d366004613403565b612bc9565b3480156104ae57600080fd5b506103516104bd3660046133cb565b60cd6020526000908152604090205460ff1681565b3480156104de57600080fd5b506101be6104ed3660046135e6565b612c85565b3480156104fe57600080fd5b5061035161050d36600461355e565b612cac565b34801561051e57600080fd5b5061018b61052d36600461355e565b60d260209081526000928352604080842090915290825290205481565b34801561055657600080fd5b506101be6105653660046133cb565b612cec565b60008787878787878760405160200161058997969594939291906138e7565b604051602081830303815290604052805190602001209050979650505050505050565b600081815260cb602090815260409182902082516101008101845281546001600160a01b039081168252600183015481169382019390935260028201549381019390935260038101546060840152600481015460808401819052600582015460a08501526006820154831660c085015260079091015490911660e08301526106705760405162461bcd60e51b815260206004820152601260248201527113d999995c881b9bdd08195e1a5cdd195b9d60721b60448201526064015b60405180910390fd5b50600090815260cb6020526040812080546001600160a01b031990811682556001820180548216905560028201839055600382018390556004820183905560058201929092556006810180548316905560070180549091169055565b6000851161072a5760405162461bcd60e51b815260206004820152602560248201527f52656e74616c2074696d65206d7573742062652067726561746572207468616e604482015264207a65726f60d81b6064820152608401610667565b6000841161078d5760405162461bcd60e51b815260206004820152602a60248201527f507269636520706572207365636f6e64206d7573742062652067726561746572604482015269207468616e207a65726f60b01b6064820152608401610667565b4283116107ac5760405162461bcd60e51b815260040161066790613aea565b6001600160a01b038216600090815260cd602052604090205460ff166107e45760405162461bcd60e51b815260040161066790613a0e565b604051636eb1769f60e11b81523360048201523060248201526000906001600160a01b0384169063dd62ed3e9060440160206040518083038186803b15801561082c57600080fd5b505afa158015610840573d6000803e3d6000fd5b505050506040513d601f19601f820116820180604052508101906108649190613774565b905060008060d060009054906101000a90046001600160a01b03166001600160a01b0316635de6c42f6040518163ffffffff1660e01b815260040160206040518083038186803b1580156108b757600080fd5b505afa1580156108cb573d6000803e3d6000fd5b505050506040513d601f19601f820116820180604052508101906108ef9190613774565b90506108fb8789613c06565b91508061090a61271084613be6565b6109149190613c06565b61091e9083613bce565b91508183101561097a5760405162461bcd60e51b815260206004820152602160248201527f416c6c6f77616e6365206d757374206265206173206d756368206173206665656044820152602160f81b6064820152608401610667565b600061098c338c8c8c8c8c8c8c610b30565b9050604051806101000160405280336001600160a01b031681526020018c6001600160a01b031681526020018b81526020018a8152602001898152602001888152602001876001600160a01b03168152602001866001600160a01b031681525060cb600083815260200190815260200160002060008201518160000160006101000a8154816001600160a01b0302191690836001600160a01b0316021790555060208201518160010160006101000a8154816001600160a01b0302191690836001600160a01b0316021790555060408201518160020155606082015181600301556080820151816004015560a0820151816005015560c08201518160060160006101000a8154816001600160a01b0302191690836001600160a01b0316021790555060e08201518160070160006101000a8154816001600160a01b0302191690836001600160a01b031602179055509050507fbb6b6ef4017eb6ec75b6530428410aae6c54e025b7e7bb440efbffe15d8b56e48b8b8b8b8b8b8b88604051610b1b989796959493929190613926565b60405180910390a15050505050505050505050565b604080516001600160a01b03998a16602080830191909152988a16818301526060810197909752608087019590955260a086019390935260c0850191909152851660e08401529093166101008083019190915283518083039091018152610120909101909252815191012090565b306001600160a01b037f0000000000000000000000000000000000000000000000000000000000000000161415610be75760405162461bcd60e51b8152600401610667906139c2565b7f00000000000000000000000000000000000000000000000000000000000000006001600160a01b0316610c19612d84565b6001600160a01b031614610c3f5760405162461bcd60e51b815260040161066790613a50565b610c4881612db2565b60408051600080825260208201909252610c6491839190612ddc565b50565b306001600160a01b037f0000000000000000000000000000000000000000000000000000000000000000161415610cb05760405162461bcd60e51b8152600401610667906139c2565b7f00000000000000000000000000000000000000000000000000000000000000006001600160a01b0316610ce2612d84565b6001600160a01b031614610d085760405162461bcd60e51b815260040161066790613a50565b610d1182612db2565b610d1d82826001612ddc565b5050565b6000610d338289898989898933610b30565b600081815260cb6020526040902060040154909150610d945760405162461bcd60e51b815260206004820152601960248201527f52656e74616c206f66666572206e6f74206578697374656e74000000000000006044820152606401610667565b610d9e888861250a565b15610de35760405162461bcd60e51b8152602060048201526015602482015274746f6b656e20616c72656164792072656e7465642160581b6044820152606401610667565b60405163020604bf60e21b8152600481018890526000906001600160a01b038a169063081812fc9060240160206040518083038186803b158015610e2657600080fd5b505afa158015610e3a573d6000803e3d6000fd5b505050506040513d601f19601f82011682018060405250810190610e5e91906133e7565b90506001600160a01b0381163014610eb15760405162461bcd60e51b8152602060048201526016602482015275151bdad95b881b5d5cdd08189948185c1c1c9bdd995960521b6044820152606401610667565b6001600160a01b03898116600090815260cc6020526040902054166110b15760ce548990600090610eea906001600160a01b0316612f27565b90506000826001600160a01b03166306fdde036040518163ffffffff1660e01b815260040160006040518083038186803b158015610f2757600080fd5b505afa158015610f3b573d6000803e3d6000fd5b505050506040513d6000823e601f3d908101601f19168201604052610f63919081019061370a565b90506000836001600160a01b03166395d89b416040518163ffffffff1660e01b815260040160006040518083038186803b158015610fa057600080fd5b505afa158015610fb4573d6000803e3d6000fd5b505050506040513d6000823e601f3d908101601f19168201604052610fdc919081019061370a565b9050826001600160a01b031663077f224a83604051602001610ffe9190613828565b6040516020818303038152906040528360405160200161101e91906137d4565b604051602081830303815290604052306040518463ffffffff1660e01b815260040161104c93929190613984565b600060405180830381600087803b15801561106657600080fd5b505af115801561107a573d6000803e3d6000fd5b5050506001600160a01b03808f16600090815260cc602052604090208054919095166001600160a01b031990911617909355505050505b60cf546040516323b872dd60e01b81526001600160a01b03808c16926323b872dd926110e592339216908d9060040161388f565b600060405180830381600087803b1580156110ff57600080fd5b505af1158015611113573d6000803e3d6000fd5b505060cf5460405163757f07e160e11b81526001600160a01b038d81166004830152602482018d9052336044830152909116925063eafe0fc29150606401600060405180830381600087803b15801561116b57600080fd5b505af115801561117f573d6000803e3d6000fd5b505050600083815260cb60209081526040918290205460d0548351635de6c42f60e01b815293516001600160a01b038a811696506323b872dd959381169430949190931692635de6c42f92600480840193829003018186803b1580156111e457600080fd5b505afa1580156111f8573d6000803e3d6000fd5b505050506040513d601f19601f8201168201806040525081019061121c9190613774565b6127106112298c8e613c06565b6112339190613be6565b61123d9190613c06565b6112478b8d613c06565b6112519190613bce565b6040518463ffffffff1660e01b815260040161126f9392919061388f565b602060405180830381600087803b15801561128957600080fd5b505af115801561129d573d6000803e3d6000fd5b505050506040513d601f19601f820116820180604052508101906112c191906136d2565b50836001600160a01b031663a9059cbb3360d060009054906101000a90046001600160a01b03166001600160a01b031663e1f3d55a6040518163ffffffff1660e01b815260040160206040518083038186803b15801561132057600080fd5b505afa158015611334573d6000803e3d6000fd5b505050506040513d601f19601f820116820180604052508101906113589190613774565b6127106113658b8d613c06565b61136f9190613be6565b6113799190613c06565b6113838a8c613c06565b61138d9190613c25565b6040516001600160e01b031960e085901b1681526001600160a01b0390921660048301526024820152604401602060405180830381600087803b1580156113d357600080fd5b505af11580156113e7573d6000803e3d6000fd5b505050506040513d601f19601f8201168201806040525081019061140b91906136d2565b50836001600160a01b031663a9059cbb60d060009054906101000a90046001600160a01b03166001600160a01b031663702acfa86040518163ffffffff1660e01b815260040160206040518083038186803b15801561146957600080fd5b505afa15801561147d573d6000803e3d6000fd5b505050506040513d601f19601f820116820180604052508101906114a191906133e7565b60d060009054906101000a90046001600160a01b03166001600160a01b031663e1f3d55a6040518163ffffffff1660e01b815260040160206040518083038186803b1580156114ef57600080fd5b505afa158015611503573d6000803e3d6000fd5b505050506040513d601f19601f820116820180604052508101906115279190613774565b6127106115348b8d613c06565b61153e9190613be6565b6115489190613c06565b60d060009054906101000a90046001600160a01b03166001600160a01b0316635de6c42f6040518163ffffffff1660e01b815260040160206040518083038186803b15801561159657600080fd5b505afa1580156115aa573d6000803e3d6000fd5b505050506040513d601f19601f820116820180604052508101906115ce9190613774565b6127106115db8c8e613c06565b6115e59190613be6565b6115ef9190613c06565b6115f99190613bce565b6040516001600160e01b031960e085901b1681526001600160a01b0390921660048301526024820152604401602060405180830381600087803b15801561163f57600080fd5b505af1158015611653573d6000803e3d6000fd5b505050506040513d601f19601f8201168201806040525081019061167791906136d2565b506001600160a01b03898116600081815260cc602090815260408083205487845260cb90925280832054905163c87b56dd60e01b8152600481018e905292949182169363c772745a9391909216919063c87b56dd9060240160006040518083038186803b1580156116e757600080fd5b505afa1580156116fb573d6000803e3d6000fd5b505050506040513d6000823e601f3d908101601f19168201604052611723919081019061370a565b600087815260cb6020526040908190206003015490516001600160e01b031960e086901b168152611759939291906004016138b3565b602060405180830381600087803b15801561177357600080fd5b505af1158015611787573d6000803e3d6000fd5b505050506040513d601f19601f820116820180604052508101906117ab9190613774565b600084815260cb6020526040812080546001600160a01b03199081168255600182018054821690556002820183905560038201839055600482018390556005820192909255600681018054831690556007018054909116905590506118108842613bce565b6001600160a01b038b16600090815260ca602090815260408083208d84529091529081902091909155517fe5133959d0e52f028708f0465c4570ef6fba3a1401de99318901363b4d20de9d90611875908c908c908c908c908c908c9033908a90613926565b60405180910390a16040518060e001604052808b6001600160a01b031681526020018a8152602001898152602001888152602001878152602001866001600160a01b03168152602001336001600160a01b031681525060d160008c6001600160a01b03166001600160a01b0316815260200190815260200160002060008b815260200190815260200160002060008201518160000160006101000a8154816001600160a01b0302191690836001600160a01b031602179055506020820151816001015560408201518160020155606082015181600301556080820151816004015560a08201518160050160006101000a8154816001600160a01b0302191690836001600160a01b0316021790555060c08201518160060160006101000a8154816001600160a01b0302191690836001600160a01b031602179055509050508060d260008c6001600160a01b03166001600160a01b0316815260200190815260200160002060008b81526020019081526020016000208190555050505050505050505050565b6033546001600160a01b03163314611a245760405162461bcd60e51b815260040161066790613b40565b611a2e6000612fc4565b565b611a3a888861250a565b15611a7f5760405162461bcd60e51b8152602060048201526015602482015274546f6b656e20616c72656164792072656e7465642160581b6044820152606401610667565b6000611a908989898989898961056a565b600081815260c96020908152604091829020825160e08101845281546001600160a01b039081168252600183015493820193909352600282015493810193909352600381015460608401819052600482015460808501526005820154831660a085015260069091015490911660c083015291925090611b515760405162461bcd60e51b815260206004820152601b60248201527f52656e74616c206c697374696e67206e6f74206578697374656e7400000000006044820152606401610667565b60cf546040516323b872dd60e01b81526001600160a01b03808d16926323b872dd92611b8592899216908e9060040161388f565b600060405180830381600087803b158015611b9f57600080fd5b505af1158015611bb3573d6000803e3d6000fd5b505060cf5460c084015160405163757f07e160e11b81526001600160a01b038f81166004830152602482018f905291821660448201529116925063eafe0fc29150606401600060405180830381600087803b158015611c1157600080fd5b505af1158015611c25573d6000803e3d6000fd5b5050505060008784611c379190613c06565b9050600061271060d060009054906101000a90046001600160a01b03166001600160a01b0316635de6c42f6040518163ffffffff1660e01b815260040160206040518083038186803b158015611c8c57600080fd5b505afa158015611ca0573d6000803e3d6000fd5b505050506040513d601f19601f82011682018060405250810190611cc49190613774565b611cce9084613c06565b611cd89190613be6565b611ce29083613bce565b6040516323b872dd60e01b81529091506001600160a01b038816906323b872dd90611d159033903090869060040161388f565b602060405180830381600087803b158015611d2f57600080fd5b505af1158015611d43573d6000803e3d6000fd5b505050506040513d601f19601f82011682018060405250810190611d6791906136d2565b50866001600160a01b031663a9059cbb8460c0015160d060009054906101000a90046001600160a01b03166001600160a01b031663e1f3d55a6040518163ffffffff1660e01b815260040160206040518083038186803b158015611dca57600080fd5b505afa158015611dde573d6000803e3d6000fd5b505050506040513d601f19601f82011682018060405250810190611e029190613774565b611e0e61271087613be6565b611e189190613c06565b611e229086613c25565b6040516001600160e01b031960e085901b1681526001600160a01b0390921660048301526024820152604401602060405180830381600087803b158015611e6857600080fd5b505af1158015611e7c573d6000803e3d6000fd5b505050506040513d601f19601f82011682018060405250810190611ea091906136d2565b50866001600160a01b031663a9059cbb60d060009054906101000a90046001600160a01b03166001600160a01b031663702acfa86040518163ffffffff1660e01b815260040160206040518083038186803b158015611efe57600080fd5b505afa158015611f12573d6000803e3d6000fd5b505050506040513d601f19601f82011682018060405250810190611f3691906133e7565b60d060009054906101000a90046001600160a01b03166001600160a01b031663e1f3d55a6040518163ffffffff1660e01b815260040160206040518083038186803b158015611f8457600080fd5b505afa158015611f98573d6000803e3d6000fd5b505050506040513d601f19601f82011682018060405250810190611fbc9190613774565b612710611fc98e8b613c06565b611fd39190613be6565b611fdd9190613c06565b60d060009054906101000a90046001600160a01b03166001600160a01b0316635de6c42f6040518163ffffffff1660e01b815260040160206040518083038186803b15801561202b57600080fd5b505afa15801561203f573d6000803e3d6000fd5b505050506040513d601f19601f820116820180604052508101906120639190613774565b6127106120708f8c613c06565b61207a9190613be6565b6120849190613c06565b61208e9190613bce565b6040516001600160e01b031960e085901b1681526001600160a01b0390921660048301526024820152604401602060405180830381600087803b1580156120d457600080fd5b505af11580156120e8573d6000803e3d6000fd5b505050506040513d601f19601f8201168201806040525081019061210c91906136d2565b506001600160a01b038c8116600081815260cc602090815260408083205491880151905163c87b56dd60e01b815260048101919091529193169163c772745a9133919063c87b56dd9060240160006040518083038186803b15801561217057600080fd5b505afa158015612184573d6000803e3d6000fd5b505050506040513d6000823e601f3d908101601f191682016040526121ac919081019061370a565b896040518463ffffffff1660e01b81526004016121cb939291906138b3565b602060405180830381600087803b1580156121e557600080fd5b505af11580156121f9573d6000803e3d6000fd5b505050506040513d601f19601f8201168201806040525081019061221d9190613774565b600086815260c96020526040812080546001600160a01b031990811682556001820183905560028201839055600382018390556004820192909255600581018054831690556006018054909116905590506122788642613bce565b60ca60008f6001600160a01b03166001600160a01b0316815260200190815260200160002060008e8152602001908152602001600020819055507fe5133959d0e52f028708f0465c4570ef6fba3a1401de99318901363b4d20de9d8d8d888d8d8d8d886040516122ef989796959493929190613926565b60405180910390a16040518060e001604052808e6001600160a01b031681526020018d81526020018781526020018b81526020018a8152602001896001600160a01b03168152602001886001600160a01b031681525060d160008f6001600160a01b03166001600160a01b0316815260200190815260200160002060008e815260200190815260200160002060008201518160000160006101000a8154816001600160a01b0302191690836001600160a01b031602179055506020820151816001015560408201518160020155606082015181600301556080820151816004015560a08201518160050160006101000a8154816001600160a01b0302191690836001600160a01b0316021790555060c08201518160060160006101000a8154816001600160a01b0302191690836001600160a01b031602179055509050508060d260008f6001600160a01b03166001600160a01b0316815260200190815260200160002060008e81526020019081526020016000208190555050505050505050505050505050565b6001600160a01b03828116600090815260cc6020526040808220549051634f558e7960e01b81526004810185905291921690634f558e79906024015b60206040518083038186803b1580156124cb57600080fd5b505afa1580156124df573d6000803e3d6000fd5b505050506040513d601f19601f8201168201806040525081019061250391906136d2565b9392505050565b6001600160a01b0391909116600090815260ca602090815260408083209383529290522054421090565b600084116125905760405162461bcd60e51b815260206004820152602360248201527f52656e742074696d65206d7573742062652067726561746572207468616e207a60448201526265726f60e81b6064820152608401610667565b600083116125f15760405162461bcd60e51b815260206004820152602860248201527f70726963655065725365636f6e64206d7573742062652067726561746572207460448201526768616e207a65726f60c01b6064820152608401610667565b4282116126105760405162461bcd60e51b815260040161066790613aea565b6001600160a01b038116600090815260cd602052604090205460ff166126485760405162461bcd60e51b815260040161066790613a0e565b60405163020604bf60e21b8152600481018690526000906001600160a01b0388169063081812fc9060240160206040518083038186803b15801561268b57600080fd5b505afa15801561269f573d6000803e3d6000fd5b505050506040513d601f19601f820116820180604052508101906126c391906133e7565b90506001600160a01b03811630146127165760405162461bcd60e51b8152602060048201526016602482015275151bdad95b881b5d5cdd08189948185c1c1c9bdd995960521b6044820152606401610667565b612720878761250a565b156127655760405162461bcd60e51b8152602060048201526015602482015274546f6b656e20616c72656164792072656e7465642160581b6044820152606401610667565b60006127768888888888883361056a565b6001600160a01b03898116600090815260cc6020526040902054919250166129795760ce5488906000906127b2906001600160a01b0316612f27565b90506000826001600160a01b03166306fdde036040518163ffffffff1660e01b815260040160006040518083038186803b1580156127ef57600080fd5b505afa158015612803573d6000803e3d6000fd5b505050506040513d6000823e601f3d908101601f1916820160405261282b919081019061370a565b90506000836001600160a01b03166395d89b416040518163ffffffff1660e01b815260040160006040518083038186803b15801561286857600080fd5b505afa15801561287c573d6000803e3d6000fd5b505050506040513d6000823e601f3d908101601f191682016040526128a4919081019061370a565b9050826001600160a01b031663077f224a836040516020016128c69190613857565b604051602081830303815290604052836040516020016128e691906137fd565b604051602081830303815290604052306040518463ffffffff1660e01b815260040161291493929190613984565b600060405180830381600087803b15801561292e57600080fd5b505af1158015612942573d6000803e3d6000fd5b5050506001600160a01b03808e16600090815260cc602052604090208054919095166001600160a01b031990911617909355505050505b6040805160e0810182526001600160a01b03808b16825260208083018b81528385018b8152606085018b8152608086018b81528a861660a088019081523360c0890181815260008c815260c9909852968a9020985189549089166001600160a01b0319918216178a55955160018a015593516002890155915160038801555160048701555160058601805491861691841691909117905591516006909401805494909316931692909217905590517f1d266d7dcb17eedafb21bfb212daf59fb22abf7a5bcfb506bb1cbdc2d2e9932191612a60918b918b918b918b918b918b918a90613926565b60405180910390a15050505050505050565b6000612a838787878787873361056a565b600081815260c960205260409020600601549091506001600160a01b0316612ae45760405162461bcd60e51b8152602060048201526014602482015273131a5cdd1a5b99c81b9bdd08195e1a5cdd195b9d60621b6044820152606401610667565b600081815260c9602052604080822080546001600160a01b031990811682556001820184905560028201849055600382018490556004820193909355600581018054841690556006018054909216909155517f551093dec6053933c320273f5b5e812f1ef7b496dacdb2f731e5f73fdc1d2eb990612b659083815260200190565b60405180910390a150505050505050565b6033546001600160a01b03163314612ba05760405162461bcd60e51b815260040161066790613b40565b6001600160a01b0316600090815260cd60205260409020805460ff19811660ff90911615179055565b600054610100900460ff1680612be2575060005460ff16155b612bfe5760405162461bcd60e51b815260040161066790613a9c565b600054610100900460ff16158015612c20576000805461ffff19166101011790555b612c28613016565b612c30613091565b60ce80546001600160a01b038087166001600160a01b03199283161790925560cf805486841690831617905560d08054928516929091169190911790558015612c7f576000805461ff00191690555b50505050565b6000612c973389898989898989610b30565b9050612ca2816105ac565b5050505050505050565b6001600160a01b03828116600090815260cc602052604080822054905163014899f360e51b815260048101859052919216906329133e60906024016124b3565b6033546001600160a01b03163314612d165760405162461bcd60e51b815260040161066790613b40565b6001600160a01b038116612d7b5760405162461bcd60e51b815260206004820152602660248201527f4f776e61626c653a206e6577206f776e657220697320746865207a65726f206160448201526564647265737360d01b6064820152608401610667565b610c6481612fc4565b7f360894a13ba1a3210667c828492db98dca3e2076cc3735a920a3ca505d382bbc546001600160a01b031690565b6033546001600160a01b03163314610c645760405162461bcd60e51b815260040161066790613b40565b6000612de6612d84565b9050612df1846130f8565b600083511180612dfe5750815b15612e0f57612e0d848461319d565b505b7f4910fdfa16fed3260ed0e7147f7cc6da11a60208b5b9406d12a635614ffd9143805460ff16612f2057805460ff191660011781556040516001600160a01b0383166024820152612e8e90869060440160408051601f198184030181529190526020810180516001600160e01b0316631b2ce7f360e11b17905261319d565b50805460ff19168155612e9f612d84565b6001600160a01b0316826001600160a01b031614612f175760405162461bcd60e51b815260206004820152602f60248201527f45524331393637557067726164653a207570677261646520627265616b73206660448201526e75727468657220757067726164657360881b6064820152608401610667565b612f2085613288565b5050505050565b6000604051733d602d80600a3d3981f3363d3d373d3d3d363d7360601b81528260601b60148201526e5af43d82803e903d91602b57fd5bf360881b60288201526037816000f09150506001600160a01b038116612fbf5760405162461bcd60e51b8152602060048201526016602482015275115490cc4c4d8dce8818dc99585d194819985a5b195960521b6044820152606401610667565b919050565b603380546001600160a01b038381166001600160a01b0319831681179093556040519116919082907f8be0079c531659141344cd1fd0a4f28419497f9722a3daafe3b4186f6b6457e090600090a35050565b600054610100900460ff168061302f575060005460ff16155b61304b5760405162461bcd60e51b815260040161066790613a9c565b600054610100900460ff1615801561306d576000805461ffff19166101011790555b6130756132c8565b61307d613332565b8015610c64576000805461ff001916905550565b600054610100900460ff16806130aa575060005460ff16155b6130c65760405162461bcd60e51b815260040161066790613a9c565b600054610100900460ff161580156130e8576000805461ffff19166101011790555b6130f06132c8565b61307d6132c8565b803b61315c5760405162461bcd60e51b815260206004820152602d60248201527f455243313936373a206e657720696d706c656d656e746174696f6e206973206e60448201526c1bdd08184818dbdb9d1c9858dd609a1b6064820152608401610667565b7f360894a13ba1a3210667c828492db98dca3e2076cc3735a920a3ca505d382bbc80546001600160a01b0319166001600160a01b0392909216919091179055565b6060823b6131fc5760405162461bcd60e51b815260206004820152602660248201527f416464726573733a2064656c65676174652063616c6c20746f206e6f6e2d636f6044820152651b9d1c9858dd60d21b6064820152608401610667565b600080846001600160a01b03168460405161321791906137b8565b600060405180830381855af49150503d8060008114613252576040519150601f19603f3d011682016040523d82523d6000602084013e613257565b606091505b509150915061327f8282604051806060016040528060278152602001613caa60279139613392565b95945050505050565b613291816130f8565b6040516001600160a01b038216907fbc7cd75a20ee27fd9adebab32041f755214dbc6bffa90cc0225b39da2e5c2d3b90600090a250565b600054610100900460ff16806132e1575060005460ff16155b6132fd5760405162461bcd60e51b815260040161066790613a9c565b600054610100900460ff1615801561307d576000805461ffff19166101011790558015610c64576000805461ff001916905550565b600054610100900460ff168061334b575060005460ff16155b6133675760405162461bcd60e51b815260040161066790613a9c565b600054610100900460ff16158015613389576000805461ffff19166101011790555b61307d33612fc4565b606083156133a1575081612503565b8251156133b15782518084602001fd5b8160405162461bcd60e51b81526004016106679190613971565b6000602082840312156133dc578081fd5b813561250381613c94565b6000602082840312156133f8578081fd5b815161250381613c94565b600080600060608486031215613417578182fd5b833561342281613c94565b9250602084013561343281613c94565b9150604084013561344281613c94565b809150509250925092565b600080600080600080600080610100898b031215613469578384fd5b883561347481613c94565b9750602089013561348481613c94565b965060408901359550606089013594506080890135935060a0890135925060c08901356134b081613c94565b915060e08901356134c081613c94565b809150509295985092959890939650565b600080604083850312156134e3578182fd5b82356134ee81613c94565b9150602083013567ffffffffffffffff811115613509578182fd5b8301601f81018513613519578182fd5b803561352c61352782613ba6565b613b75565b818152866020838501011115613540578384fd5b81602084016020830137908101602001929092525090939092509050565b60008060408385031215613570578182fd5b823561357b81613c94565b946020939093013593505050565b60008060008060008060c087890312156135a1578182fd5b86356135ac81613c94565b95506020870135945060408701359350606087013592506080870135915060a08701356135d881613c94565b809150509295509295509295565b600080600080600080600060e0888a031215613600578283fd5b873561360b81613c94565b96506020880135955060408801359450606088013593506080880135925060a088013561363781613c94565b915060c088013561364781613c94565b8091505092959891949750929550565b600080600080600080600080610100898b031215613673578182fd5b883561367e81613c94565b97506020890135965060408901359550606089013594506080890135935060a08901356136aa81613c94565b925060c08901356136ba81613c94565b8092505060e089013590509295985092959890939650565b6000602082840312156136e3578081fd5b81518015158114612503578182fd5b600060208284031215613703578081fd5b5035919050565b60006020828403121561371b578081fd5b815167ffffffffffffffff811115613731578182fd5b8201601f81018413613741578182fd5b805161374f61352782613ba6565b818152856020838501011115613763578384fd5b61327f826020830160208601613c3c565b600060208284031215613785578081fd5b5051919050565b600081518084526137a4816020860160208601613c3c565b601f01601f19169290920160200192915050565b600082516137ca818460208701613c3c565b9190910192915050565b603960f91b8152600082516137f0816001850160208701613c3c565b9190910160010192915050565b6270535f60e81b81526000825161381b816003850160208701613c3c565b9190910160030192915050565b6602932b73a32b2160cd1b81526000825161384a816007850160208701613c3c565b9190910160070192915050565b6f0283934bb349029bcb73a3432ba34b1960851b815260008251613882816010850160208701613c3c565b9190910160100192915050565b6001600160a01b039384168152919092166020820152604081019190915260600190565b6001600160a01b03841681526060602082018190526000906138d79083018561378c565b9050826040830152949350505050565b6001600160a01b0397881681526020810196909652604086019490945260608501929092526080840152831660a083015290911660c082015260e00190565b6001600160a01b0398891681526020810197909752604087019590955260608601939093526080850191909152841660a084015290921660c082015260e08101919091526101000190565b602081526000612503602083018461378c565b606081526000613997606083018661378c565b82810360208401526139a9818661378c565b91505060018060a01b0383166040830152949350505050565b6020808252602c908201527f46756e6374696f6e206d7573742062652063616c6c6564207468726f7567682060408201526b19195b1959d85d1958d85b1b60a21b606082015260800190565b60208082526022908201527f46756e64696e6720746f6b656e206d7573742062652077686974656c69737465604082015261642160f01b606082015260800190565b6020808252602c908201527f46756e6374696f6e206d7573742062652063616c6c6564207468726f7567682060408201526b6163746976652070726f787960a01b606082015260800190565b6020808252602e908201527f496e697469616c697a61626c653a20636f6e747261637420697320616c72656160408201526d191e481a5b9a5d1a585b1a5e995960921b606082015260800190565b60208082526036908201527f72656e74616c45787069726174696f6e206d7573742062652067726561746572604082015275207468616e20626c6f636b2074696d657374616d702160501b606082015260800190565b6020808252818101527f4f776e61626c653a2063616c6c6572206973206e6f7420746865206f776e6572604082015260600190565b604051601f8201601f1916810167ffffffffffffffff81118282101715613b9e57613b9e613c7e565b604052919050565b600067ffffffffffffffff821115613bc057613bc0613c7e565b50601f01601f191660200190565b60008219821115613be157613be1613c68565b500190565b600082613c0157634e487b7160e01b81526012600452602481fd5b500490565b6000816000190483118215151615613c2057613c20613c68565b500290565b600082821015613c3757613c37613c68565b500390565b60005b83811015613c57578181015183820152602001613c3f565b83811115612c7f5750506000910152565b634e487b7160e01b600052601160045260246000fd5b634e487b7160e01b600052604160045260246000fd5b6001600160a01b0381168114610c6457600080fdfe416464726573733a206c6f772d6c6576656c2064656c65676174652063616c6c206661696c6564a26469706673582212206dd9870f8be5edf49395b18be9b8350dcc6cda9a1a65ccf31ad91403a8d8165964736f6c63430008040033",
  "devdoc": {
    "kind": "dev",
    "methods": {
      "owner()": {
        "details": "Returns the address of the current owner."
      },
      "renounceOwnership()": {
        "details": "Leaves the contract without owner. It will not be possible to call `onlyOwner` functions anymore. Can only be called by the current owner. NOTE: Renouncing ownership will leave the contract without an owner, thereby removing any functionality that is only available to the owner."
      },
      "transferOwnership(address)": {
        "details": "Transfers ownership of the contract to a new account (`newOwner`). Can only be called by the current owner."
      },
      "upgradeTo(address)": {
        "details": "Upgrade the implementation of the proxy to `newImplementation`. Calls {_authorizeUpgrade}. Emits an {Upgraded} event."
      },
      "upgradeToAndCall(address,bytes)": {
        "details": "Upgrade the implementation of the proxy to `newImplementation`, and subsequently execute the function call encoded in `data`. Calls {_authorizeUpgrade}. Emits an {Upgraded} event."
      }
    },
    "stateVariables": {
      "_collections": {
        "details": "collection => synthetic collection"
      },
      "_rentalBuyOrders": {
        "details": "Listing ID => offer (buyer)"
      },
      "_rentalSellOrders": {
        "details": "Listing ID => offer (seller)"
      },
      "_syntheticNFT": {
        "details": "Synthetic NFT address (before initialization)"
      },
      "rentalExpirations": {
        "details": "collection - token ID - rental expiration"
      },
      "rentedTokenData": {
        "details": "collection - token ID - RentedNFT data"
      },
      "vaultAddress": {
        "details": "Vault for original NFTs"
      },
      "whitelistedFundingTokens": {
        "details": "funding token => allowed or not"
      }
    },
    "version": 1
  },
  "userdoc": {
    "kind": "user",
    "methods": {
      "acceptRentalOffer(address,uint256,uint256,uint256,uint256,address,address)": {
        "notice": "here the owner of the NFT accepts the rental of the NFT. The rental price is transfered to owner and the syntethic is minted to buyer."
      },
      "listOffer(address,uint256,uint256,uint256,uint256,address)": {
        "notice": "this is the owner listing his NFT for rental. If the collection is new, mints a new rentalSyntheticNFT contract."
      },
      "rentalOffer(address,uint256,uint256,uint256,uint256,address,address)": {
        "notice": "this is a person trying to renti an NFT. He/She gets a synthetic NFT linking to the rental manager which registered this new syntheticNFT and set in status active till the date of invalidating it. The buyer pays the rental in advance."
      }
    },
    "version": 1
  },
  "storageLayout": {
    "storage": [
      {
        "astId": 538,
        "contract": "contracts/RentalManager.sol:RentalManager",
        "label": "_initialized",
        "offset": 0,
        "slot": "0",
        "type": "t_bool"
      },
      {
        "astId": 541,
        "contract": "contracts/RentalManager.sol:RentalManager",
        "label": "_initializing",
        "offset": 1,
        "slot": "0",
        "type": "t_bool"
      },
      {
        "astId": 977,
        "contract": "contracts/RentalManager.sol:RentalManager",
        "label": "__gap",
        "offset": 0,
        "slot": "1",
        "type": "t_array(t_uint256)50_storage"
      },
      {
        "astId": 10,
        "contract": "contracts/RentalManager.sol:RentalManager",
        "label": "_owner",
        "offset": 0,
        "slot": "51",
        "type": "t_address"
      },
      {
        "astId": 123,
        "contract": "contracts/RentalManager.sol:RentalManager",
        "label": "__gap",
        "offset": 0,
        "slot": "52",
        "type": "t_array(t_uint256)49_storage"
      },
      {
        "astId": 521,
        "contract": "contracts/RentalManager.sol:RentalManager",
        "label": "__gap",
        "offset": 0,
        "slot": "101",
        "type": "t_array(t_uint256)50_storage"
      },
      {
        "astId": 688,
        "contract": "contracts/RentalManager.sol:RentalManager",
        "label": "__gap",
        "offset": 0,
        "slot": "151",
        "type": "t_array(t_uint256)50_storage"
      },
      {
        "astId": 3787,
        "contract": "contracts/RentalManager.sol:RentalManager",
        "label": "_rentalSellOrders",
        "offset": 0,
        "slot": "201",
        "type": "t_mapping(t_bytes32,t_struct(RentalListing)5045_storage)"
      },
      {
        "astId": 3794,
        "contract": "contracts/RentalManager.sol:RentalManager",
        "label": "rentalExpirations",
        "offset": 0,
        "slot": "202",
        "type": "t_mapping(t_address,t_mapping(t_uint256,t_uint256))"
      },
      {
        "astId": 3800,
        "contract": "contracts/RentalManager.sol:RentalManager",
        "label": "_rentalBuyOrders",
        "offset": 0,
        "slot": "203",
        "type": "t_mapping(t_bytes32,t_struct(RentalOffer)5062_storage)"
      },
      {
        "astId": 3805,
        "contract": "contracts/RentalManager.sol:RentalManager",
        "label": "_collections",
        "offset": 0,
        "slot": "204",
        "type": "t_mapping(t_address,t_address)"
      },
      {
        "astId": 3810,
        "contract": "contracts/RentalManager.sol:RentalManager",
        "label": "whitelistedFundingTokens",
        "offset": 0,
        "slot": "205",
        "type": "t_mapping(t_address,t_bool)"
      },
      {
        "astId": 3813,
        "contract": "contracts/RentalManager.sol:RentalManager",
        "label": "_syntheticNFT",
        "offset": 0,
        "slot": "206",
        "type": "t_address"
      },
      {
        "astId": 3816,
        "contract": "contracts/RentalManager.sol:RentalManager",
        "label": "vaultAddress",
        "offset": 0,
        "slot": "207",
        "type": "t_address"
      },
      {
        "astId": 3818,
        "contract": "contracts/RentalManager.sol:RentalManager",
        "label": "_protocolParameters",
        "offset": 0,
        "slot": "208",
        "type": "t_address"
      },
      {
        "astId": 3826,
        "contract": "contracts/RentalManager.sol:RentalManager",
        "label": "rentedTokenData",
        "offset": 0,
        "slot": "209",
        "type": "t_mapping(t_address,t_mapping(t_uint256,t_struct(RentalListing)5045_storage))"
      },
      {
        "astId": 3832,
        "contract": "contracts/RentalManager.sol:RentalManager",
        "label": "rentedTokenSyntheticID",
        "offset": 0,
        "slot": "210",
        "type": "t_mapping(t_address,t_mapping(t_uint256,t_uint256))"
      }
    ],
    "types": {
      "t_address": {
        "encoding": "inplace",
        "label": "address",
        "numberOfBytes": "20"
      },
      "t_array(t_uint256)49_storage": {
        "base": "t_uint256",
        "encoding": "inplace",
        "label": "uint256[49]",
        "numberOfBytes": "1568"
      },
      "t_array(t_uint256)50_storage": {
        "base": "t_uint256",
        "encoding": "inplace",
        "label": "uint256[50]",
        "numberOfBytes": "1600"
      },
      "t_bool": {
        "encoding": "inplace",
        "label": "bool",
        "numberOfBytes": "1"
      },
      "t_bytes32": {
        "encoding": "inplace",
        "label": "bytes32",
        "numberOfBytes": "32"
      },
      "t_mapping(t_address,t_address)": {
        "encoding": "mapping",
        "key": "t_address",
        "label": "mapping(address => address)",
        "numberOfBytes": "32",
        "value": "t_address"
      },
      "t_mapping(t_address,t_bool)": {
        "encoding": "mapping",
        "key": "t_address",
        "label": "mapping(address => bool)",
        "numberOfBytes": "32",
        "value": "t_bool"
      },
      "t_mapping(t_address,t_mapping(t_uint256,t_struct(RentalListing)5045_storage))": {
        "encoding": "mapping",
        "key": "t_address",
        "label": "mapping(address => mapping(uint256 => struct RentalListing))",
        "numberOfBytes": "32",
        "value": "t_mapping(t_uint256,t_struct(RentalListing)5045_storage)"
      },
      "t_mapping(t_address,t_mapping(t_uint256,t_uint256))": {
        "encoding": "mapping",
        "key": "t_address",
        "label": "mapping(address => mapping(uint256 => uint256))",
        "numberOfBytes": "32",
        "value": "t_mapping(t_uint256,t_uint256)"
      },
      "t_mapping(t_bytes32,t_struct(RentalListing)5045_storage)": {
        "encoding": "mapping",
        "key": "t_bytes32",
        "label": "mapping(bytes32 => struct RentalListing)",
        "numberOfBytes": "32",
        "value": "t_struct(RentalListing)5045_storage"
      },
      "t_mapping(t_bytes32,t_struct(RentalOffer)5062_storage)": {
        "encoding": "mapping",
        "key": "t_bytes32",
        "label": "mapping(bytes32 => struct RentalOffer)",
        "numberOfBytes": "32",
        "value": "t_struct(RentalOffer)5062_storage"
      },
      "t_mapping(t_uint256,t_struct(RentalListing)5045_storage)": {
        "encoding": "mapping",
        "key": "t_uint256",
        "label": "mapping(uint256 => struct RentalListing)",
        "numberOfBytes": "32",
        "value": "t_struct(RentalListing)5045_storage"
      },
      "t_mapping(t_uint256,t_uint256)": {
        "encoding": "mapping",
        "key": "t_uint256",
        "label": "mapping(uint256 => uint256)",
        "numberOfBytes": "32",
        "value": "t_uint256"
      },
      "t_struct(RentalListing)5045_storage": {
        "encoding": "inplace",
        "label": "struct RentalListing",
        "members": [
          {
            "astId": 5032,
            "contract": "contracts/RentalManager.sol:RentalManager",
            "label": "collection",
            "offset": 0,
            "slot": "0",
            "type": "t_address"
          },
          {
            "astId": 5034,
            "contract": "contracts/RentalManager.sol:RentalManager",
            "label": "tokenId",
            "offset": 0,
            "slot": "1",
            "type": "t_uint256"
          },
          {
            "astId": 5036,
            "contract": "contracts/RentalManager.sol:RentalManager",
            "label": "maximumRentTime",
            "offset": 0,
            "slot": "2",
            "type": "t_uint256"
          },
          {
            "astId": 5038,
            "contract": "contracts/RentalManager.sol:RentalManager",
            "label": "pricePerSecond",
            "offset": 0,
            "slot": "3",
            "type": "t_uint256"
          },
          {
            "astId": 5040,
            "contract": "contracts/RentalManager.sol:RentalManager",
            "label": "rentalExpiration",
            "offset": 0,
            "slot": "4",
            "type": "t_uint256"
          },
          {
            "astId": 5042,
            "contract": "contracts/RentalManager.sol:RentalManager",
            "label": "fundingToken",
            "offset": 0,
            "slot": "5",
            "type": "t_address"
          },
          {
            "astId": 5044,
            "contract": "contracts/RentalManager.sol:RentalManager",
            "label": "owner",
            "offset": 0,
            "slot": "6",
            "type": "t_address"
          }
        ],
        "numberOfBytes": "224"
      },
      "t_struct(RentalOffer)5062_storage": {
        "encoding": "inplace",
        "label": "struct RentalOffer",
        "members": [
          {
            "astId": 5047,
            "contract": "contracts/RentalManager.sol:RentalManager",
            "label": "offerer",
            "offset": 0,
            "slot": "0",
            "type": "t_address"
          },
          {
            "astId": 5049,
            "contract": "contracts/RentalManager.sol:RentalManager",
            "label": "collection",
            "offset": 0,
            "slot": "1",
            "type": "t_address"
          },
          {
            "astId": 5051,
            "contract": "contracts/RentalManager.sol:RentalManager",
            "label": "tokenId",
            "offset": 0,
            "slot": "2",
            "type": "t_uint256"
          },
          {
            "astId": 5053,
            "contract": "contracts/RentalManager.sol:RentalManager",
            "label": "rentalTime",
            "offset": 0,
            "slot": "3",
            "type": "t_uint256"
          },
          {
            "astId": 5055,
            "contract": "contracts/RentalManager.sol:RentalManager",
            "label": "pricePerSecond",
            "offset": 0,
            "slot": "4",
            "type": "t_uint256"
          },
          {
            "astId": 5057,
            "contract": "contracts/RentalManager.sol:RentalManager",
            "label": "rentalExpiration",
            "offset": 0,
            "slot": "5",
            "type": "t_uint256"
          },
          {
            "astId": 5059,
            "contract": "contracts/RentalManager.sol:RentalManager",
            "label": "fundingToken",
            "offset": 0,
            "slot": "6",
            "type": "t_address"
          },
          {
            "astId": 5061,
            "contract": "contracts/RentalManager.sol:RentalManager",
            "label": "from",
            "offset": 0,
            "slot": "7",
            "type": "t_address"
          }
        ],
        "numberOfBytes": "256"
      },
      "t_uint256": {
        "encoding": "inplace",
        "label": "uint256",
        "numberOfBytes": "32"
      }
    }
  }
}