{
  "address": "0x9fEb28B337FDE85717Fcec56D9B3B54a584daE8b",
  "abi": [
    {
      "inputs": [
        {
          "internalType": "address",
          "name": "syntheticNFT_",
          "type": "address"
        },
        {
          "internalType": "address",
          "name": "vaultAddress_",
          "type": "address"
        }
      ],
      "stateMutability": "nonpayable",
      "type": "constructor"
    },
    {
      "anonymous": false,
      "inputs": [
        {
          "indexed": false,
          "internalType": "address",
          "name": "collection",
          "type": "address"
        },
        {
          "indexed": false,
          "internalType": "uint256",
          "name": "tokenId",
          "type": "uint256"
        },
        {
          "indexed": false,
          "internalType": "uint256",
          "name": "rentalTime",
          "type": "uint256"
        },
        {
          "indexed": false,
          "internalType": "uint256",
          "name": "pricePerSecond",
          "type": "uint256"
        },
        {
          "indexed": false,
          "internalType": "uint256",
          "name": "rentalExpiration",
          "type": "uint256"
        },
        {
          "indexed": false,
          "internalType": "address",
          "name": "fundingToken",
          "type": "address"
        },
        {
          "indexed": false,
          "internalType": "address",
          "name": "operator",
          "type": "address"
        },
        {
          "indexed": false,
          "internalType": "uint256",
          "name": "syntheticID",
          "type": "uint256"
        }
      ],
      "name": "NFTRented",
      "type": "event"
    },
    {
      "anonymous": false,
      "inputs": [
        {
          "indexed": false,
          "internalType": "bytes32",
          "name": "offerId",
          "type": "bytes32"
        }
      ],
      "name": "OfferAccepted",
      "type": "event"
    },
    {
      "anonymous": false,
      "inputs": [
        {
          "indexed": false,
          "internalType": "bytes32",
          "name": "rentalId",
          "type": "bytes32"
        }
      ],
      "name": "OfferCanceled",
      "type": "event"
    },
    {
      "anonymous": false,
      "inputs": [
        {
          "indexed": false,
          "internalType": "bytes32",
          "name": "rentalId",
          "type": "bytes32"
        }
      ],
      "name": "OfferDeclined",
      "type": "event"
    },
    {
      "anonymous": false,
      "inputs": [
        {
          "indexed": false,
          "internalType": "address",
          "name": "collection",
          "type": "address"
        },
        {
          "indexed": false,
          "internalType": "uint256",
          "name": "tokenId",
          "type": "uint256"
        },
        {
          "indexed": false,
          "internalType": "uint256",
          "name": "maximumRentTime",
          "type": "uint256"
        },
        {
          "indexed": false,
          "internalType": "uint256",
          "name": "pricePerSecond",
          "type": "uint256"
        },
        {
          "indexed": false,
          "internalType": "uint256",
          "name": "rentalExpiration",
          "type": "uint256"
        },
        {
          "indexed": false,
          "internalType": "address",
          "name": "fundingToken",
          "type": "address"
        },
        {
          "indexed": false,
          "internalType": "address",
          "name": "owner",
          "type": "address"
        },
        {
          "indexed": false,
          "internalType": "bytes32",
          "name": "rentalId",
          "type": "bytes32"
        }
      ],
      "name": "OfferListed",
      "type": "event"
    },
    {
      "anonymous": false,
      "inputs": [
        {
          "indexed": false,
          "internalType": "address",
          "name": "collection",
          "type": "address"
        },
        {
          "indexed": false,
          "internalType": "uint256",
          "name": "tokenId",
          "type": "uint256"
        },
        {
          "indexed": false,
          "internalType": "uint256",
          "name": "rentalTime",
          "type": "uint256"
        },
        {
          "indexed": false,
          "internalType": "uint256",
          "name": "pricePerSecond",
          "type": "uint256"
        },
        {
          "indexed": false,
          "internalType": "uint256",
          "name": "rentalExpiration",
          "type": "uint256"
        },
        {
          "indexed": false,
          "internalType": "address",
          "name": "fundingToken",
          "type": "address"
        },
        {
          "indexed": false,
          "internalType": "address",
          "name": "operator",
          "type": "address"
        },
        {
          "indexed": false,
          "internalType": "bytes32",
          "name": "rentalOfferId",
          "type": "bytes32"
        }
      ],
      "name": "RentalOffered",
      "type": "event"
    },
    {
      "inputs": [
        {
          "internalType": "address",
          "name": "collection_",
          "type": "address"
        },
        {
          "internalType": "uint256",
          "name": "tokenId_",
          "type": "uint256"
        },
        {
          "internalType": "uint256",
          "name": "rentalTime_",
          "type": "uint256"
        },
        {
          "internalType": "uint256",
          "name": "pricePerSecond_",
          "type": "uint256"
        },
        {
          "internalType": "uint256",
          "name": "rentalExpiration_",
          "type": "uint256"
        },
        {
          "internalType": "address",
          "name": "fundingToken_",
          "type": "address"
        },
        {
          "internalType": "address",
          "name": "offerer_",
          "type": "address"
        }
      ],
      "name": "acceptRentalOffer",
      "outputs": [],
      "stateMutability": "nonpayable",
      "type": "function"
    },
    {
      "inputs": [
        {
          "internalType": "address",
          "name": "collection_",
          "type": "address"
        },
        {
          "internalType": "uint256",
          "name": "tokenId_",
          "type": "uint256"
        },
        {
          "internalType": "uint256",
          "name": "maximumRentTime_",
          "type": "uint256"
        },
        {
          "internalType": "uint256",
          "name": "pricePerSecond_",
          "type": "uint256"
        },
        {
          "internalType": "uint256",
          "name": "rentalExpiration_",
          "type": "uint256"
        },
        {
          "internalType": "address",
          "name": "fundingToken_",
          "type": "address"
        }
      ],
      "name": "cancelListOffer",
      "outputs": [],
      "stateMutability": "nonpayable",
      "type": "function"
    },
    {
      "inputs": [
        {
          "internalType": "address",
          "name": "collection_",
          "type": "address"
        },
        {
          "internalType": "uint256",
          "name": "tokenId_",
          "type": "uint256"
        },
        {
          "internalType": "uint256",
          "name": "rentalTime_",
          "type": "uint256"
        },
        {
          "internalType": "uint256",
          "name": "pricePerSecond_",
          "type": "uint256"
        },
        {
          "internalType": "uint256",
          "name": "rentalExpiration_",
          "type": "uint256"
        },
        {
          "internalType": "address",
          "name": "fundingToken_",
          "type": "address"
        },
        {
          "internalType": "address",
          "name": "operator_",
          "type": "address"
        }
      ],
      "name": "cancelRentalOffer",
      "outputs": [],
      "stateMutability": "nonpayable",
      "type": "function"
    },
    {
      "inputs": [
        {
          "internalType": "bytes32",
          "name": "rentalOfferId_",
          "type": "bytes32"
        }
      ],
      "name": "cancelRentalOfferById",
      "outputs": [],
      "stateMutability": "nonpayable",
      "type": "function"
    },
    {
      "inputs": [
        {
          "internalType": "address",
          "name": "offerer_",
          "type": "address"
        },
        {
          "internalType": "address",
          "name": "collection_",
          "type": "address"
        },
        {
          "internalType": "uint256",
          "name": "tokenId_",
          "type": "uint256"
        },
        {
          "internalType": "uint256",
          "name": "rentalTime_",
          "type": "uint256"
        },
        {
          "internalType": "uint256",
          "name": "pricePerSecond_",
          "type": "uint256"
        },
        {
          "internalType": "uint256",
          "name": "rentalExpiration_",
          "type": "uint256"
        },
        {
          "internalType": "address",
          "name": "fundingToken_",
          "type": "address"
        },
        {
          "internalType": "address",
          "name": "operator_",
          "type": "address"
        }
      ],
      "name": "getRentalBuyID",
      "outputs": [
        {
          "internalType": "bytes32",
          "name": "rentalId",
          "type": "bytes32"
        }
      ],
      "stateMutability": "pure",
      "type": "function"
    },
    {
      "inputs": [
        {
          "internalType": "address",
          "name": "collection_",
          "type": "address"
        },
        {
          "internalType": "uint256",
          "name": "tokenId_",
          "type": "uint256"
        },
        {
          "internalType": "uint256",
          "name": "maximumRentTime_",
          "type": "uint256"
        },
        {
          "internalType": "uint256",
          "name": "pricePerSecond_",
          "type": "uint256"
        },
        {
          "internalType": "uint256",
          "name": "rentalExpiration_",
          "type": "uint256"
        },
        {
          "internalType": "address",
          "name": "fundingToken_",
          "type": "address"
        },
        {
          "internalType": "address",
          "name": "operator_",
          "type": "address"
        }
      ],
      "name": "getRentalSellID",
      "outputs": [
        {
          "internalType": "bytes32",
          "name": "rentalId",
          "type": "bytes32"
        }
      ],
      "stateMutability": "pure",
      "type": "function"
    },
    {
      "inputs": [
        {
          "internalType": "address",
          "name": "collection_",
          "type": "address"
        }
      ],
      "name": "getSyntheticNFTAddress",
      "outputs": [
        {
          "internalType": "address",
          "name": "",
          "type": "address"
        }
      ],
      "stateMutability": "view",
      "type": "function"
    },
    {
      "inputs": [
        {
          "internalType": "address",
          "name": "collection_",
          "type": "address"
        },
        {
          "internalType": "uint256",
          "name": "tokenId_",
          "type": "uint256"
        }
      ],
      "name": "isRentalExpired",
      "outputs": [
        {
          "internalType": "bool",
          "name": "",
          "type": "bool"
        }
      ],
      "stateMutability": "view",
      "type": "function"
    },
    {
      "inputs": [
        {
          "internalType": "address",
          "name": "collection",
          "type": "address"
        },
        {
          "internalType": "uint256",
          "name": "tokenId",
          "type": "uint256"
        }
      ],
      "name": "isTokenRented",
      "outputs": [
        {
          "internalType": "bool",
          "name": "",
          "type": "bool"
        }
      ],
      "stateMutability": "view",
      "type": "function"
    },
    {
      "inputs": [
        {
          "internalType": "address",
          "name": "collection_",
          "type": "address"
        },
        {
          "internalType": "uint256",
          "name": "tokenId_",
          "type": "uint256"
        },
        {
          "internalType": "uint256",
          "name": "maximumRentTime_",
          "type": "uint256"
        },
        {
          "internalType": "uint256",
          "name": "pricePerSecond_",
          "type": "uint256"
        },
        {
          "internalType": "uint256",
          "name": "rentalExpiration_",
          "type": "uint256"
        },
        {
          "internalType": "address",
          "name": "fundingToken_",
          "type": "address"
        }
      ],
      "name": "listOffer",
      "outputs": [],
      "stateMutability": "nonpayable",
      "type": "function"
    },
    {
      "inputs": [
        {
          "internalType": "address",
          "name": "collection_",
          "type": "address"
        },
        {
          "internalType": "uint256",
          "name": "tokenId_",
          "type": "uint256"
        },
        {
          "internalType": "uint256",
          "name": "maximumRentTime_",
          "type": "uint256"
        },
        {
          "internalType": "uint256",
          "name": "pricePerSecond_",
          "type": "uint256"
        },
        {
          "internalType": "uint256",
          "name": "rentalExpiration_",
          "type": "uint256"
        },
        {
          "internalType": "address",
          "name": "fundingToken_",
          "type": "address"
        },
        {
          "internalType": "address",
          "name": "operator_",
          "type": "address"
        },
        {
          "internalType": "uint256",
          "name": "rentalTime_",
          "type": "uint256"
        }
      ],
      "name": "rentNFT",
      "outputs": [],
      "stateMutability": "nonpayable",
      "type": "function"
    },
    {
      "inputs": [
        {
          "internalType": "address",
          "name": "",
          "type": "address"
        },
        {
          "internalType": "uint256",
          "name": "",
          "type": "uint256"
        }
      ],
      "name": "rentalExpirations",
      "outputs": [
        {
          "internalType": "uint256",
          "name": "",
          "type": "uint256"
        }
      ],
      "stateMutability": "view",
      "type": "function"
    },
    {
      "inputs": [
        {
          "internalType": "address",
          "name": "collection_",
          "type": "address"
        },
        {
          "internalType": "uint256",
          "name": "tokenId_",
          "type": "uint256"
        },
        {
          "internalType": "uint256",
          "name": "rentalTime_",
          "type": "uint256"
        },
        {
          "internalType": "uint256",
          "name": "pricePerSecond_",
          "type": "uint256"
        },
        {
          "internalType": "uint256",
          "name": "rentalExpiration_",
          "type": "uint256"
        },
        {
          "internalType": "address",
          "name": "fundingToken_",
          "type": "address"
        },
        {
          "internalType": "address",
          "name": "operator_",
          "type": "address"
        }
      ],
      "name": "rentalOffer",
      "outputs": [],
      "stateMutability": "nonpayable",
      "type": "function"
    },
    {
      "inputs": [
        {
          "internalType": "address",
          "name": "collection_",
          "type": "address"
        },
        {
          "internalType": "uint256",
          "name": "tokenId_",
          "type": "uint256"
        }
      ],
      "name": "syntheticNFTExists",
      "outputs": [
        {
          "internalType": "bool",
          "name": "",
          "type": "bool"
        }
      ],
      "stateMutability": "view",
      "type": "function"
    },
    {
      "inputs": [],
      "name": "vaultAddress",
      "outputs": [
        {
          "internalType": "address",
          "name": "",
          "type": "address"
        }
      ],
      "stateMutability": "view",
      "type": "function"
    }
  ],
  "transactionHash": "0xd0ccf1f71abeeb3fb1a157e429453cebe3a9a68760617f7ca0aed13090c9d6b8",
  "args": [
    "0x9eE957CB83E22276F073d27A289Db4C17DdD5B55",
    "0x69ad95f8C2766275815c90b7EE6A3A68c53Cb924"
  ],
  "solcInputHash": "80d6d478c601a988965e46ab1267803f",
  "bytecode": "0x60806040523480156200001157600080fd5b506040516200217338038062002173833981016040819052620000349162000083565b600580546001600160a01b039384166001600160a01b03199182161790915560068054929093169116179055620000ba565b80516001600160a01b03811681146200007e57600080fd5b919050565b6000806040838503121562000096578182fd5b620000a18362000066565b9150620000b16020840162000066565b90509250929050565b6120a980620000ca6000396000f3fe608060405234801561001057600080fd5b50600436106100f55760003560e01c8063823efb04116100975780638e3ddcb0116100665780638e3ddcb014610239578063a8f288071461024c578063e4a282621461025f578063e4d007f41461027257600080fd5b8063823efb04146101c5578063853b77a8146101d857806386ad1dad146102035780638712a3c91461022657600080fd5b80632879488a116100d35780632879488a146101795780632a5a692f1461018c578063430bf08a1461019f578063538373ba146101b257600080fd5b80631a21e668146100fa57806321b36c951461012057806326cdd05214610135575b600080fd5b61010d610108366004611c1d565b610285565b6040519081526020015b60405180910390f35b61013361012e366004611d29565b6102ee565b005b610161610143366004611ad9565b6001600160a01b039081166000908152600460205260409020541690565b6040516001600160a01b039091168152602001610117565b610133610187366004611c1d565b61040e565b61010d61019a366004611b11565b61070a565b600654610161906001600160a01b031681565b6101336101c0366004611c1d565b610778565b6101336101d3366004611c8e565b610e90565b61010d6101e6366004611b95565b600260209081526000928352604080842090915290825290205481565b610216610211366004611b95565b611307565b6040519015158152602001610117565b610216610234366004611b95565b6113a1565b610133610247366004611bc0565b6113cb565b61013361025a366004611bc0565b6118d3565b61013361026d366004611c1d565b6119d2565b610216610280366004611b95565b6119f9565b604080516001600160a01b03808a166020830152918101889052606081018790526080810186905260a0810185905281841660c082015290821660e082015260009061010001604051602081830303815290604052805190602001209050979650505050505050565b60008181526003602081815260409283902083516101008101855281546001600160a01b0390811682526001830154811693820193909352600282015494810194909452918201546060840152600482015460808401819052600583015460a08501526006830154821660c08501526007909201541660e08301526103af5760405162461bcd60e51b815260206004820152601260248201527113d999995c881b9bdd08195e1a5cdd195b9d60721b60448201526064015b60405180910390fd5b506000908152600360208190526040822080546001600160a01b03199081168255600182018054821690556002820184905591810183905560048101839055600581019290925560068201805482169055600790910180549091169055565b6000851161046c5760405162461bcd60e51b815260206004820152602560248201527f52656e74616c2074696d65206d7573742062652067726561746572207468616e604482015264207a65726f60d81b60648201526084016103a6565b600084116104cf5760405162461bcd60e51b815260206004820152602a60248201527f507269636520706572207365636f6e64206d7573742062652067726561746572604482015269207468616e207a65726f60b01b60648201526084016103a6565b4283116104ee5760405162461bcd60e51b81526004016103a690611f72565b604051636eb1769f60e11b81523360048201523060248201526000906001600160a01b0384169063dd62ed3e9060440160206040518083038186803b15801561053657600080fd5b505afa15801561054a573d6000803e3d6000fd5b505050506040513d601f19601f8201168201806040525081019061056e9190611dea565b9050600061057c8688611fe0565b9050808210156105d85760405162461bcd60e51b815260206004820152602160248201527f416c6c6f77616e6365206d757374206265206173206d756368206173206665656044820152602160f81b60648201526084016103a6565b60006105ea338b8b8b8b8b8b8b61070a565b60408051610100810182523381526001600160a01b038d811660208084019182528385018f8152606085018f8152608086018f815260a087018f81528e871660c089019081528e881660e08a0190815260008c81526003978890528b902099518a54908a166001600160a01b0319918216178b55975160018b018054918b16918a16919091179055945160028a01559251948801949094555160048701559151600586015590516006850180549185169184169190911790555160079093018054939092169216919091179055519091507fbb6b6ef4017eb6ec75b6530428410aae6c54e025b7e7bb440efbffe15d8b56e4906106f6908c908c908c908c908c908c908c908a90611ee9565b60405180910390a150505050505050505050565b604080516001600160a01b03998a16602080830191909152988a16818301526060810197909752608087019590955260a086019390935260c0850191909152851660e08401529093166101008083019190915283518083039091018152610120909101909252815191012090565b600061078a828989898989893361070a565b6000818152600360205260409020600401549091506107eb5760405162461bcd60e51b815260206004820152601960248201527f52656e74616c206f66666572206e6f74206578697374656e740000000000000060448201526064016103a6565b6107f588886113a1565b1561083a5760405162461bcd60e51b8152602060048201526015602482015274746f6b656e20616c72656164792072656e7465642160581b60448201526064016103a6565b60405163020604bf60e21b8152600481018890526000906001600160a01b038a169063081812fc9060240160206040518083038186803b15801561087d57600080fd5b505afa158015610891573d6000803e3d6000fd5b505050506040513d601f19601f820116820180604052508101906108b59190611af5565b90506001600160a01b03811630146109085760405162461bcd60e51b8152602060048201526016602482015275151bdad95b881b5d5cdd08189948185c1c1c9bdd995960521b60448201526064016103a6565b6001600160a01b0389811660009081526004602052604090205416610b08576005548990600090610941906001600160a01b0316611a3c565b90506000826001600160a01b03166306fdde036040518163ffffffff1660e01b815260040160006040518083038186803b15801561097e57600080fd5b505afa158015610992573d6000803e3d6000fd5b505050506040513d6000823e601f3d908101601f191682016040526109ba9190810190611d41565b90506000836001600160a01b03166395d89b416040518163ffffffff1660e01b815260040160006040518083038186803b1580156109f757600080fd5b505afa158015610a0b573d6000803e3d6000fd5b505050506040513d6000823e601f3d908101601f19168201604052610a339190810190611d41565b9050826001600160a01b031663077f224a83604051602001610a559190611e59565b60405160208183030381529060405283604051602001610a759190611e2e565b604051602081830303815290604052306040518463ffffffff1660e01b8152600401610aa393929190611f34565b600060405180830381600087803b158015610abd57600080fd5b505af1158015610ad1573d6000803e3d6000fd5b5050506001600160a01b03808f1660009081526004602052604090208054919095166001600160a01b031990911617909355505050505b6006546040516323b872dd60e01b81526001600160a01b03808c16926323b872dd92610b3c92339216908d90600401611e91565b600060405180830381600087803b158015610b5657600080fd5b505af1158015610b6a573d6000803e3d6000fd5b505060065460405163757f07e160e11b81526001600160a01b038d81166004830152602482018d9052336044830152909116925063eafe0fc29150606401600060405180830381600087803b158015610bc257600080fd5b505af1158015610bd6573d6000803e3d6000fd5b5050505060008688610be89190611fe0565b600084815260036020526040908190205490516323b872dd60e01b81529192506001600160a01b03808816926323b872dd92610c2c92169033908690600401611e91565b602060405180830381600087803b158015610c4657600080fd5b505af1158015610c5a573d6000803e3d6000fd5b505050506040513d601f19601f82011682018060405250810190610c7e9190611d09565b506001600160a01b03808b16600081815260046020818152604080842054898552600390925280842054905163c87b56dd60e01b81529283018f905292949081169363c772745a939091169163c87b56dd9060240160006040518083038186803b158015610ceb57600080fd5b505afa158015610cff573d6000803e3d6000fd5b505050506040513d6000823e601f3d908101601f19168201604052610d279190810190611d41565b60036000898152602001908152602001600020600301546040518463ffffffff1660e01b8152600401610d5c93929190611eb5565b602060405180830381600087803b158015610d7657600080fd5b505af1158015610d8a573d6000803e3d6000fd5b505050506040513d601f19601f82011682018060405250810190610dae9190611dea565b6000858152600360208190526040822080546001600160a01b031990811682556001820180548216905560028201849055918101839055600481018390556005810192909255600682018054821690556007909101805490911690559050610e168942611fc8565b6001600160a01b038c1660009081526002602090815260408083208e84529091529081902091909155517fe5133959d0e52f028708f0465c4570ef6fba3a1401de99318901363b4d20de9d90610e7b908d908d908d908d908d908d9033908a90611ee9565b60405180910390a15050505050505050505050565b610e9a88886113a1565b15610edf5760405162461bcd60e51b8152602060048201526015602482015274546f6b656e20616c72656164792072656e7465642160581b60448201526064016103a6565b6000610ef089898989898989610285565b600081815260016020818152604092839020835160e08101855281546001600160a01b0390811682529382015492810192909252600281015493820193909352600383015460608201819052600484015460808301526005840154831660a083015260069093015490911660c0820152919250610faf5760405162461bcd60e51b815260206004820152601b60248201527f52656e74616c206c697374696e67206e6f74206578697374656e74000000000060448201526064016103a6565b6006546040516323b872dd60e01b81526001600160a01b03808d16926323b872dd92610fe392899216908e90600401611e91565b600060405180830381600087803b158015610ffd57600080fd5b505af1158015611011573d6000803e3d6000fd5b505060065460c084015160405163757f07e160e11b81526001600160a01b038f81166004830152602482018f905291821660448201529116925063eafe0fc29150606401600060405180830381600087803b15801561106f57600080fd5b505af1158015611083573d6000803e3d6000fd5b50505050600087846110959190611fe0565b60c08301516040516323b872dd60e01b81529192506001600160a01b038816916323b872dd916110cc913391908690600401611e91565b602060405180830381600087803b1580156110e657600080fd5b505af11580156110fa573d6000803e3d6000fd5b505050506040513d601f19601f8201168201806040525081019061111e9190611d09565b506001600160a01b038b811660008181526004602081815260408084205491880151905163c87b56dd60e01b8152928301529193919091169163c772745a9133919063c87b56dd9060240160006040518083038186803b15801561118157600080fd5b505afa158015611195573d6000803e3d6000fd5b505050506040513d6000823e601f3d908101601f191682016040526111bd9190810190611d41565b886040518463ffffffff1660e01b81526004016111dc93929190611eb5565b602060405180830381600087803b1580156111f657600080fd5b505af115801561120a573d6000803e3d6000fd5b505050506040513d601f19601f8201168201806040525081019061122e9190611dea565b6000858152600160208190526040822080546001600160a01b031990811682559181018390556002810183905560038101839055600481019290925560058201805482169055600690910180549091169055905061128c8542611fc8565b6001600160a01b038d1660009081526002602090815260408083208f84529091529081902091909155517fe5133959d0e52f028708f0465c4570ef6fba3a1401de99318901363b4d20de9d906112f1908e908e9089908e908e908e908e908a90611ee9565b60405180910390a1505050505050505050505050565b6001600160a01b038083166000908152600460208190526040808320549051634f558e7960e01b815292931691634f558e799161134a9186910190815260200190565b60206040518083038186803b15801561136257600080fd5b505afa158015611376573d6000803e3d6000fd5b505050506040513d601f19601f8201168201806040525081019061139a9190611d09565b9392505050565b6001600160a01b039190911660009081526002602090815260408083209383529290522054421090565b600084116114275760405162461bcd60e51b815260206004820152602360248201527f52656e742074696d65206d7573742062652067726561746572207468616e207a60448201526265726f60e81b60648201526084016103a6565b600083116114885760405162461bcd60e51b815260206004820152602860248201527f70726963655065725365636f6e64206d7573742062652067726561746572207460448201526768616e207a65726f60c01b60648201526084016103a6565b4282116114a75760405162461bcd60e51b81526004016103a690611f72565b60405163020604bf60e21b8152600481018690526000906001600160a01b0388169063081812fc9060240160206040518083038186803b1580156114ea57600080fd5b505afa1580156114fe573d6000803e3d6000fd5b505050506040513d601f19601f820116820180604052508101906115229190611af5565b90506001600160a01b03811630146115755760405162461bcd60e51b8152602060048201526016602482015275151bdad95b881b5d5cdd08189948185c1c1c9bdd995960521b60448201526064016103a6565b61157f87876113a1565b156115c45760405162461bcd60e51b8152602060048201526015602482015274546f6b656e20616c72656164792072656e7465642160581b60448201526064016103a6565b60006115d588888888888833610285565b6001600160a01b03898116600090815260046020526040902054919250166117d8576005548890600090611611906001600160a01b0316611a3c565b90506000826001600160a01b03166306fdde036040518163ffffffff1660e01b815260040160006040518083038186803b15801561164e57600080fd5b505afa158015611662573d6000803e3d6000fd5b505050506040513d6000823e601f3d908101601f1916820160405261168a9190810190611d41565b90506000836001600160a01b03166395d89b416040518163ffffffff1660e01b815260040160006040518083038186803b1580156116c757600080fd5b505afa1580156116db573d6000803e3d6000fd5b505050506040513d6000823e601f3d908101601f191682016040526117039190810190611d41565b9050826001600160a01b031663077f224a836040516020016117259190611e59565b604051602081830303815290604052836040516020016117459190611e2e565b604051602081830303815290604052306040518463ffffffff1660e01b815260040161177393929190611f34565b600060405180830381600087803b15801561178d57600080fd5b505af11580156117a1573d6000803e3d6000fd5b5050506001600160a01b03808e1660009081526004602052604090208054919095166001600160a01b031990911617909355505050505b6040805160e0810182526001600160a01b03808b16825260208083018b81528385018b8152606085018b8152608086018b81528a861660a088019081523360c0890181815260008c81526001988990528b902099518a54908a166001600160a01b0319918216178b559651978a019790975593516002890155915160038801555160048701555160058601805491861691841691909117905591516006909401805494909316931692909217905590517f1d266d7dcb17eedafb21bfb212daf59fb22abf7a5bcfb506bb1cbdc2d2e99321916118c1918b918b918b918b918b918b918a90611ee9565b60405180910390a15050505050505050565b60006118e487878787878733610285565b6000818152600160205260409020600601549091506001600160a01b03166119455760405162461bcd60e51b8152602060048201526014602482015273131a5cdd1a5b99c81b9bdd08195e1a5cdd195b9d60621b60448201526064016103a6565b600081815260016020818152604080842080546001600160a01b0319908116825593810185905560028101859055600381018590556004810194909455600584018054841690556006909301805490921690915590518281527f551093dec6053933c320273f5b5e812f1ef7b496dacdb2f731e5f73fdc1d2eb9910160405180910390a150505050505050565b60006119e4338989898989898961070a565b90506119ef816102ee565b5050505050505050565b6001600160a01b03808316600090815260046020819052604080832054905163014899f360e51b8152929316916329133e609161134a9186910190815260200190565b6000604051733d602d80600a3d3981f3363d3d373d3d3d363d7360601b81528260601b60148201526e5af43d82803e903d91602b57fd5bf360881b60288201526037816000f09150506001600160a01b038116611ad45760405162461bcd60e51b8152602060048201526016602482015275115490cc4c4d8dce8818dc99585d194819985a5b195960521b60448201526064016103a6565b919050565b600060208284031215611aea578081fd5b813561139a8161205b565b600060208284031215611b06578081fd5b815161139a8161205b565b600080600080600080600080610100898b031215611b2d578384fd5b8835611b388161205b565b97506020890135611b488161205b565b965060408901359550606089013594506080890135935060a0890135925060c0890135611b748161205b565b915060e0890135611b848161205b565b809150509295985092959890939650565b60008060408385031215611ba7578182fd5b8235611bb28161205b565b946020939093013593505050565b60008060008060008060c08789031215611bd8578182fd5b8635611be38161205b565b95506020870135945060408701359350606087013592506080870135915060a0870135611c0f8161205b565b809150509295509295509295565b600080600080600080600060e0888a031215611c37578283fd5b8735611c428161205b565b96506020880135955060408801359450606088013593506080880135925060a0880135611c6e8161205b565b915060c0880135611c7e8161205b565b8091505092959891949750929550565b600080600080600080600080610100898b031215611caa578384fd5b8835611cb58161205b565b97506020890135965060408901359550606089013594506080890135935060a0890135611ce18161205b565b925060c0890135611cf18161205b565b8092505060e089013590509295985092959890939650565b600060208284031215611d1a578081fd5b8151801515811461139a578182fd5b600060208284031215611d3a578081fd5b5035919050565b600060208284031215611d52578081fd5b815167ffffffffffffffff80821115611d69578283fd5b818401915084601f830112611d7c578283fd5b815181811115611d8e57611d8e612045565b604051601f8201601f19908116603f01168101908382118183101715611db657611db6612045565b81604052828152876020848701011115611dce578586fd5b611ddf836020830160208801611fff565b979650505050505050565b600060208284031215611dfb578081fd5b5051919050565b60008151808452611e1a816020860160208601611fff565b601f01601f19169290920160200192915050565b6270535f60e81b815260008251611e4c816003850160208701611fff565b9190910160030192915050565b6f0283934bb349029bcb73a3432ba34b1960851b815260008251611e84816010850160208701611fff565b9190910160100192915050565b6001600160a01b039384168152919092166020820152604081019190915260600190565b6001600160a01b0384168152606060208201819052600090611ed990830185611e02565b9050826040830152949350505050565b6001600160a01b0398891681526020810197909752604087019590955260608601939093526080850191909152841660a084015290921660c082015260e08101919091526101000190565b606081526000611f476060830186611e02565b8281036020840152611f598186611e02565b91505060018060a01b0383166040830152949350505050565b60208082526036908201527f72656e74616c45787069726174696f6e206d7573742062652067726561746572604082015275207468616e20626c6f636b2074696d657374616d702160501b606082015260800190565b60008219821115611fdb57611fdb61202f565b500190565b6000816000190483118215151615611ffa57611ffa61202f565b500290565b60005b8381101561201a578181015183820152602001612002565b83811115612029576000848401525b50505050565b634e487b7160e01b600052601160045260246000fd5b634e487b7160e01b600052604160045260246000fd5b6001600160a01b038116811461207057600080fd5b5056fea26469706673582212209ed318b05d8fef597fb7cccda77348e2ff5c8170023efa82e817f684d2ea3b7464736f6c63430008040033",
  "devdoc": {
    "kind": "dev",
    "methods": {},
    "stateVariables": {
      "_collections": {
        "details": "collection => synthetic collection"
      },
      "_rentalBuyOrders": {
        "details": "Listing ID => offer (buyer)"
      },
      "_rentalSellOrders": {
        "details": "Listing ID => offer (seller)"
      },
      "_syntheticNFT": {
        "details": "Synthetic NFT address (before initialization)"
      },
      "rentalExpirations": {
        "details": "collection - token ID - rental expiration"
      },
      "vaultAddress": {
        "details": "Vault for original NFTs"
      }
    },
    "version": 1
  },
  "userdoc": {
    "kind": "user",
    "methods": {
      "acceptRentalOffer(address,uint256,uint256,uint256,uint256,address,address)": {
        "notice": "here the owner of the NFT accepts the rental of the NFT. The rental price is transfered to owner and the syntethic is minted to buyer."
      },
      "listOffer(address,uint256,uint256,uint256,uint256,address)": {
        "notice": "this is the owner listing his NFT for rental. If the collection is new, mints a new rentalSyntheticNFT contract."
      },
      "rentalOffer(address,uint256,uint256,uint256,uint256,address,address)": {
        "notice": "this is a person trying to renti an NFT. He/She gets a synthetic NFT linking to the rental manager which registered this new syntheticNFT and set in status active till the date of invalidating it. The buyer pays the rental in advance."
      }
    },
    "version": 1
  },
  "storageLayout": {
    "storage": [
      {
        "astId": 929,
        "contract": "contracts/RentalManager.sol:RentalManager",
        "label": "_initialized",
        "offset": 0,
        "slot": "0",
        "type": "t_bool"
      },
      {
        "astId": 932,
        "contract": "contracts/RentalManager.sol:RentalManager",
        "label": "_initializing",
        "offset": 1,
        "slot": "0",
        "type": "t_bool"
      },
      {
        "astId": 2685,
        "contract": "contracts/RentalManager.sol:RentalManager",
        "label": "_rentalSellOrders",
        "offset": 0,
        "slot": "1",
        "type": "t_mapping(t_bytes32,t_struct(RentalListing)3651_storage)"
      },
      {
        "astId": 2692,
        "contract": "contracts/RentalManager.sol:RentalManager",
        "label": "rentalExpirations",
        "offset": 0,
        "slot": "2",
        "type": "t_mapping(t_address,t_mapping(t_uint256,t_uint256))"
      },
      {
        "astId": 2698,
        "contract": "contracts/RentalManager.sol:RentalManager",
        "label": "_rentalBuyOrders",
        "offset": 0,
        "slot": "3",
        "type": "t_mapping(t_bytes32,t_struct(RentalOffer)3668_storage)"
      },
      {
        "astId": 2703,
        "contract": "contracts/RentalManager.sol:RentalManager",
        "label": "_collections",
        "offset": 0,
        "slot": "4",
        "type": "t_mapping(t_address,t_address)"
      },
      {
        "astId": 2706,
        "contract": "contracts/RentalManager.sol:RentalManager",
        "label": "_syntheticNFT",
        "offset": 0,
        "slot": "5",
        "type": "t_address"
      },
      {
        "astId": 2709,
        "contract": "contracts/RentalManager.sol:RentalManager",
        "label": "vaultAddress",
        "offset": 0,
        "slot": "6",
        "type": "t_address"
      }
    ],
    "types": {
      "t_address": {
        "encoding": "inplace",
        "label": "address",
        "numberOfBytes": "20"
      },
      "t_bool": {
        "encoding": "inplace",
        "label": "bool",
        "numberOfBytes": "1"
      },
      "t_bytes32": {
        "encoding": "inplace",
        "label": "bytes32",
        "numberOfBytes": "32"
      },
      "t_mapping(t_address,t_address)": {
        "encoding": "mapping",
        "key": "t_address",
        "label": "mapping(address => address)",
        "numberOfBytes": "32",
        "value": "t_address"
      },
      "t_mapping(t_address,t_mapping(t_uint256,t_uint256))": {
        "encoding": "mapping",
        "key": "t_address",
        "label": "mapping(address => mapping(uint256 => uint256))",
        "numberOfBytes": "32",
        "value": "t_mapping(t_uint256,t_uint256)"
      },
      "t_mapping(t_bytes32,t_struct(RentalListing)3651_storage)": {
        "encoding": "mapping",
        "key": "t_bytes32",
        "label": "mapping(bytes32 => struct RentalListing)",
        "numberOfBytes": "32",
        "value": "t_struct(RentalListing)3651_storage"
      },
      "t_mapping(t_bytes32,t_struct(RentalOffer)3668_storage)": {
        "encoding": "mapping",
        "key": "t_bytes32",
        "label": "mapping(bytes32 => struct RentalOffer)",
        "numberOfBytes": "32",
        "value": "t_struct(RentalOffer)3668_storage"
      },
      "t_mapping(t_uint256,t_uint256)": {
        "encoding": "mapping",
        "key": "t_uint256",
        "label": "mapping(uint256 => uint256)",
        "numberOfBytes": "32",
        "value": "t_uint256"
      },
      "t_struct(RentalListing)3651_storage": {
        "encoding": "inplace",
        "label": "struct RentalListing",
        "members": [
          {
            "astId": 3638,
            "contract": "contracts/RentalManager.sol:RentalManager",
            "label": "collection",
            "offset": 0,
            "slot": "0",
            "type": "t_address"
          },
          {
            "astId": 3640,
            "contract": "contracts/RentalManager.sol:RentalManager",
            "label": "tokenId",
            "offset": 0,
            "slot": "1",
            "type": "t_uint256"
          },
          {
            "astId": 3642,
            "contract": "contracts/RentalManager.sol:RentalManager",
            "label": "maximumRentTime",
            "offset": 0,
            "slot": "2",
            "type": "t_uint256"
          },
          {
            "astId": 3644,
            "contract": "contracts/RentalManager.sol:RentalManager",
            "label": "pricePerSecond",
            "offset": 0,
            "slot": "3",
            "type": "t_uint256"
          },
          {
            "astId": 3646,
            "contract": "contracts/RentalManager.sol:RentalManager",
            "label": "rentalExpiration",
            "offset": 0,
            "slot": "4",
            "type": "t_uint256"
          },
          {
            "astId": 3648,
            "contract": "contracts/RentalManager.sol:RentalManager",
            "label": "fundingToken",
            "offset": 0,
            "slot": "5",
            "type": "t_address"
          },
          {
            "astId": 3650,
            "contract": "contracts/RentalManager.sol:RentalManager",
            "label": "owner",
            "offset": 0,
            "slot": "6",
            "type": "t_address"
          }
        ],
        "numberOfBytes": "224"
      },
      "t_struct(RentalOffer)3668_storage": {
        "encoding": "inplace",
        "label": "struct RentalOffer",
        "members": [
          {
            "astId": 3653,
            "contract": "contracts/RentalManager.sol:RentalManager",
            "label": "offerer",
            "offset": 0,
            "slot": "0",
            "type": "t_address"
          },
          {
            "astId": 3655,
            "contract": "contracts/RentalManager.sol:RentalManager",
            "label": "collection",
            "offset": 0,
            "slot": "1",
            "type": "t_address"
          },
          {
            "astId": 3657,
            "contract": "contracts/RentalManager.sol:RentalManager",
            "label": "tokenId",
            "offset": 0,
            "slot": "2",
            "type": "t_uint256"
          },
          {
            "astId": 3659,
            "contract": "contracts/RentalManager.sol:RentalManager",
            "label": "rentalTime",
            "offset": 0,
            "slot": "3",
            "type": "t_uint256"
          },
          {
            "astId": 3661,
            "contract": "contracts/RentalManager.sol:RentalManager",
            "label": "pricePerSecond",
            "offset": 0,
            "slot": "4",
            "type": "t_uint256"
          },
          {
            "astId": 3663,
            "contract": "contracts/RentalManager.sol:RentalManager",
            "label": "rentalExpiration",
            "offset": 0,
            "slot": "5",
            "type": "t_uint256"
          },
          {
            "astId": 3665,
            "contract": "contracts/RentalManager.sol:RentalManager",
            "label": "fundingToken",
            "offset": 0,
            "slot": "6",
            "type": "t_address"
          },
          {
            "astId": 3667,
            "contract": "contracts/RentalManager.sol:RentalManager",
            "label": "from",
            "offset": 0,
            "slot": "7",
            "type": "t_address"
          }
        ],
        "numberOfBytes": "256"
      },
      "t_uint256": {
        "encoding": "inplace",
        "label": "uint256",
        "numberOfBytes": "32"
      }
    }
  }
}