{
  "address": "0xC4f9285BE294016B6d9E6eb74a8d43d56936024D",
  "abi": [
    {
      "inputs": [],
      "stateMutability": "nonpayable",
      "type": "constructor"
    },
    {
      "anonymous": false,
      "inputs": [
        {
          "indexed": false,
          "internalType": "address",
          "name": "previousAdmin",
          "type": "address"
        },
        {
          "indexed": false,
          "internalType": "address",
          "name": "newAdmin",
          "type": "address"
        }
      ],
      "name": "AdminChanged",
      "type": "event"
    },
    {
      "anonymous": false,
      "inputs": [
        {
          "indexed": true,
          "internalType": "address",
          "name": "beacon",
          "type": "address"
        }
      ],
      "name": "BeaconUpgraded",
      "type": "event"
    },
    {
      "anonymous": false,
      "inputs": [
        {
          "indexed": false,
          "internalType": "address",
          "name": "collection",
          "type": "address"
        },
        {
          "indexed": false,
          "internalType": "uint256",
          "name": "tokenId",
          "type": "uint256"
        },
        {
          "indexed": false,
          "internalType": "uint256",
          "name": "rentalTime",
          "type": "uint256"
        },
        {
          "indexed": false,
          "internalType": "uint256",
          "name": "pricePerSecond",
          "type": "uint256"
        },
        {
          "indexed": false,
          "internalType": "uint256",
          "name": "rentalExpiration",
          "type": "uint256"
        },
        {
          "indexed": false,
          "internalType": "address",
          "name": "fundingToken",
          "type": "address"
        },
        {
          "indexed": false,
          "internalType": "address",
          "name": "operator",
          "type": "address"
        },
        {
          "indexed": false,
          "internalType": "uint256",
          "name": "syntheticID",
          "type": "uint256"
        }
      ],
      "name": "NFTRented",
      "type": "event"
    },
    {
      "anonymous": false,
      "inputs": [
        {
          "indexed": false,
          "internalType": "bytes32",
          "name": "offerId",
          "type": "bytes32"
        }
      ],
      "name": "OfferAccepted",
      "type": "event"
    },
    {
      "anonymous": false,
      "inputs": [
        {
          "indexed": false,
          "internalType": "bytes32",
          "name": "rentalId",
          "type": "bytes32"
        }
      ],
      "name": "OfferCanceled",
      "type": "event"
    },
    {
      "anonymous": false,
      "inputs": [
        {
          "indexed": false,
          "internalType": "bytes32",
          "name": "rentalId",
          "type": "bytes32"
        }
      ],
      "name": "OfferDeclined",
      "type": "event"
    },
    {
      "anonymous": false,
      "inputs": [
        {
          "indexed": false,
          "internalType": "address",
          "name": "collection",
          "type": "address"
        },
        {
          "indexed": false,
          "internalType": "uint256",
          "name": "tokenId",
          "type": "uint256"
        },
        {
          "indexed": false,
          "internalType": "uint256",
          "name": "maximumRentTime",
          "type": "uint256"
        },
        {
          "indexed": false,
          "internalType": "uint256",
          "name": "pricePerSecond",
          "type": "uint256"
        },
        {
          "indexed": false,
          "internalType": "uint256",
          "name": "rentalExpiration",
          "type": "uint256"
        },
        {
          "indexed": false,
          "internalType": "address",
          "name": "fundingToken",
          "type": "address"
        },
        {
          "indexed": false,
          "internalType": "address",
          "name": "owner",
          "type": "address"
        },
        {
          "indexed": false,
          "internalType": "bytes32",
          "name": "rentalId",
          "type": "bytes32"
        }
      ],
      "name": "OfferListed",
      "type": "event"
    },
    {
      "anonymous": false,
      "inputs": [
        {
          "indexed": true,
          "internalType": "address",
          "name": "previousOwner",
          "type": "address"
        },
        {
          "indexed": true,
          "internalType": "address",
          "name": "newOwner",
          "type": "address"
        }
      ],
      "name": "OwnershipTransferred",
      "type": "event"
    },
    {
      "anonymous": false,
      "inputs": [
        {
          "indexed": false,
          "internalType": "address",
          "name": "collection",
          "type": "address"
        },
        {
          "indexed": false,
          "internalType": "uint256",
          "name": "tokenId",
          "type": "uint256"
        },
        {
          "indexed": false,
          "internalType": "uint256",
          "name": "rentalTime",
          "type": "uint256"
        },
        {
          "indexed": false,
          "internalType": "uint256",
          "name": "pricePerSecond",
          "type": "uint256"
        },
        {
          "indexed": false,
          "internalType": "uint256",
          "name": "rentalExpiration",
          "type": "uint256"
        },
        {
          "indexed": false,
          "internalType": "address",
          "name": "fundingToken",
          "type": "address"
        },
        {
          "indexed": false,
          "internalType": "address",
          "name": "operator",
          "type": "address"
        },
        {
          "indexed": false,
          "internalType": "bytes32",
          "name": "rentalOfferId",
          "type": "bytes32"
        }
      ],
      "name": "RentalOffered",
      "type": "event"
    },
    {
      "anonymous": false,
      "inputs": [
        {
          "indexed": true,
          "internalType": "address",
          "name": "implementation",
          "type": "address"
        }
      ],
      "name": "Upgraded",
      "type": "event"
    },
    {
      "inputs": [
        {
          "internalType": "address",
          "name": "collection_",
          "type": "address"
        },
        {
          "internalType": "uint256",
          "name": "tokenId_",
          "type": "uint256"
        },
        {
          "internalType": "uint256",
          "name": "rentalTime_",
          "type": "uint256"
        },
        {
          "internalType": "uint256",
          "name": "pricePerSecond_",
          "type": "uint256"
        },
        {
          "internalType": "uint256",
          "name": "rentalExpiration_",
          "type": "uint256"
        },
        {
          "internalType": "address",
          "name": "fundingToken_",
          "type": "address"
        },
        {
          "internalType": "address",
          "name": "offerer_",
          "type": "address"
        }
      ],
      "name": "acceptRentalOffer",
      "outputs": [],
      "stateMutability": "nonpayable",
      "type": "function"
    },
    {
      "inputs": [
        {
          "internalType": "address",
          "name": "collection_",
          "type": "address"
        },
        {
          "internalType": "uint256",
          "name": "tokenId_",
          "type": "uint256"
        },
        {
          "internalType": "uint256",
          "name": "maximumRentTime_",
          "type": "uint256"
        },
        {
          "internalType": "uint256",
          "name": "pricePerSecond_",
          "type": "uint256"
        },
        {
          "internalType": "uint256",
          "name": "rentalExpiration_",
          "type": "uint256"
        },
        {
          "internalType": "address",
          "name": "fundingToken_",
          "type": "address"
        }
      ],
      "name": "cancelListOffer",
      "outputs": [],
      "stateMutability": "nonpayable",
      "type": "function"
    },
    {
      "inputs": [
        {
          "internalType": "address",
          "name": "collection_",
          "type": "address"
        },
        {
          "internalType": "uint256",
          "name": "tokenId_",
          "type": "uint256"
        },
        {
          "internalType": "uint256",
          "name": "rentalTime_",
          "type": "uint256"
        },
        {
          "internalType": "uint256",
          "name": "pricePerSecond_",
          "type": "uint256"
        },
        {
          "internalType": "uint256",
          "name": "rentalExpiration_",
          "type": "uint256"
        },
        {
          "internalType": "address",
          "name": "fundingToken_",
          "type": "address"
        },
        {
          "internalType": "address",
          "name": "operator_",
          "type": "address"
        }
      ],
      "name": "cancelRentalOffer",
      "outputs": [],
      "stateMutability": "nonpayable",
      "type": "function"
    },
    {
      "inputs": [
        {
          "internalType": "bytes32",
          "name": "rentalOfferId_",
          "type": "bytes32"
        }
      ],
      "name": "cancelRentalOfferById",
      "outputs": [],
      "stateMutability": "nonpayable",
      "type": "function"
    },
    {
      "inputs": [
        {
          "internalType": "address",
          "name": "offerer_",
          "type": "address"
        },
        {
          "internalType": "address",
          "name": "collection_",
          "type": "address"
        },
        {
          "internalType": "uint256",
          "name": "tokenId_",
          "type": "uint256"
        },
        {
          "internalType": "uint256",
          "name": "rentalTime_",
          "type": "uint256"
        },
        {
          "internalType": "uint256",
          "name": "pricePerSecond_",
          "type": "uint256"
        },
        {
          "internalType": "uint256",
          "name": "rentalExpiration_",
          "type": "uint256"
        },
        {
          "internalType": "address",
          "name": "fundingToken_",
          "type": "address"
        },
        {
          "internalType": "address",
          "name": "operator_",
          "type": "address"
        }
      ],
      "name": "getRentalBuyID",
      "outputs": [
        {
          "internalType": "bytes32",
          "name": "rentalId",
          "type": "bytes32"
        }
      ],
      "stateMutability": "pure",
      "type": "function"
    },
    {
      "inputs": [
        {
          "internalType": "address",
          "name": "collection_",
          "type": "address"
        },
        {
          "internalType": "uint256",
          "name": "tokenId_",
          "type": "uint256"
        },
        {
          "internalType": "uint256",
          "name": "maximumRentTime_",
          "type": "uint256"
        },
        {
          "internalType": "uint256",
          "name": "pricePerSecond_",
          "type": "uint256"
        },
        {
          "internalType": "uint256",
          "name": "rentalExpiration_",
          "type": "uint256"
        },
        {
          "internalType": "address",
          "name": "fundingToken_",
          "type": "address"
        },
        {
          "internalType": "address",
          "name": "operator_",
          "type": "address"
        }
      ],
      "name": "getRentalSellID",
      "outputs": [
        {
          "internalType": "bytes32",
          "name": "rentalId",
          "type": "bytes32"
        }
      ],
      "stateMutability": "pure",
      "type": "function"
    },
    {
      "inputs": [
        {
          "internalType": "address",
          "name": "collection_",
          "type": "address"
        }
      ],
      "name": "getSyntheticNFTAddress",
      "outputs": [
        {
          "internalType": "address",
          "name": "",
          "type": "address"
        }
      ],
      "stateMutability": "view",
      "type": "function"
    },
    {
      "inputs": [
        {
          "internalType": "address",
          "name": "syntheticNFT_",
          "type": "address"
        },
        {
          "internalType": "address",
          "name": "vaultAddress_",
          "type": "address"
        },
        {
          "internalType": "address",
          "name": "protocolParameters_",
          "type": "address"
        }
      ],
      "name": "initialize",
      "outputs": [],
      "stateMutability": "nonpayable",
      "type": "function"
    },
    {
      "inputs": [
        {
          "internalType": "address",
          "name": "collection_",
          "type": "address"
        },
        {
          "internalType": "uint256",
          "name": "tokenId_",
          "type": "uint256"
        }
      ],
      "name": "isRentalExpired",
      "outputs": [
        {
          "internalType": "bool",
          "name": "",
          "type": "bool"
        }
      ],
      "stateMutability": "view",
      "type": "function"
    },
    {
      "inputs": [
        {
          "internalType": "address",
          "name": "collection",
          "type": "address"
        },
        {
          "internalType": "uint256",
          "name": "tokenId",
          "type": "uint256"
        }
      ],
      "name": "isTokenRented",
      "outputs": [
        {
          "internalType": "bool",
          "name": "",
          "type": "bool"
        }
      ],
      "stateMutability": "view",
      "type": "function"
    },
    {
      "inputs": [
        {
          "internalType": "address",
          "name": "collection_",
          "type": "address"
        },
        {
          "internalType": "uint256",
          "name": "tokenId_",
          "type": "uint256"
        },
        {
          "internalType": "uint256",
          "name": "maximumRentTime_",
          "type": "uint256"
        },
        {
          "internalType": "uint256",
          "name": "pricePerSecond_",
          "type": "uint256"
        },
        {
          "internalType": "uint256",
          "name": "rentalExpiration_",
          "type": "uint256"
        },
        {
          "internalType": "address",
          "name": "fundingToken_",
          "type": "address"
        }
      ],
      "name": "listOffer",
      "outputs": [],
      "stateMutability": "nonpayable",
      "type": "function"
    },
    {
      "inputs": [],
      "name": "owner",
      "outputs": [
        {
          "internalType": "address",
          "name": "",
          "type": "address"
        }
      ],
      "stateMutability": "view",
      "type": "function"
    },
    {
      "inputs": [],
      "name": "renounceOwnership",
      "outputs": [],
      "stateMutability": "nonpayable",
      "type": "function"
    },
    {
      "inputs": [
        {
          "internalType": "address",
          "name": "collection_",
          "type": "address"
        },
        {
          "internalType": "uint256",
          "name": "tokenId_",
          "type": "uint256"
        },
        {
          "internalType": "uint256",
          "name": "maximumRentTime_",
          "type": "uint256"
        },
        {
          "internalType": "uint256",
          "name": "pricePerSecond_",
          "type": "uint256"
        },
        {
          "internalType": "uint256",
          "name": "rentalExpiration_",
          "type": "uint256"
        },
        {
          "internalType": "address",
          "name": "fundingToken_",
          "type": "address"
        },
        {
          "internalType": "address",
          "name": "operator_",
          "type": "address"
        },
        {
          "internalType": "uint256",
          "name": "rentalTime_",
          "type": "uint256"
        }
      ],
      "name": "rentNFT",
      "outputs": [],
      "stateMutability": "nonpayable",
      "type": "function"
    },
    {
      "inputs": [
        {
          "internalType": "address",
          "name": "",
          "type": "address"
        },
        {
          "internalType": "uint256",
          "name": "",
          "type": "uint256"
        }
      ],
      "name": "rentalExpirations",
      "outputs": [
        {
          "internalType": "uint256",
          "name": "",
          "type": "uint256"
        }
      ],
      "stateMutability": "view",
      "type": "function"
    },
    {
      "inputs": [
        {
          "internalType": "address",
          "name": "collection_",
          "type": "address"
        },
        {
          "internalType": "uint256",
          "name": "tokenId_",
          "type": "uint256"
        },
        {
          "internalType": "uint256",
          "name": "rentalTime_",
          "type": "uint256"
        },
        {
          "internalType": "uint256",
          "name": "pricePerSecond_",
          "type": "uint256"
        },
        {
          "internalType": "uint256",
          "name": "rentalExpiration_",
          "type": "uint256"
        },
        {
          "internalType": "address",
          "name": "fundingToken_",
          "type": "address"
        },
        {
          "internalType": "address",
          "name": "operator_",
          "type": "address"
        }
      ],
      "name": "rentalOffer",
      "outputs": [],
      "stateMutability": "nonpayable",
      "type": "function"
    },
    {
      "inputs": [
        {
          "internalType": "address",
          "name": "collection_",
          "type": "address"
        },
        {
          "internalType": "uint256",
          "name": "tokenId_",
          "type": "uint256"
        }
      ],
      "name": "syntheticNFTExists",
      "outputs": [
        {
          "internalType": "bool",
          "name": "",
          "type": "bool"
        }
      ],
      "stateMutability": "view",
      "type": "function"
    },
    {
      "inputs": [
        {
          "internalType": "address",
          "name": "newOwner",
          "type": "address"
        }
      ],
      "name": "transferOwnership",
      "outputs": [],
      "stateMutability": "nonpayable",
      "type": "function"
    },
    {
      "inputs": [
        {
          "internalType": "address",
          "name": "newImplementation",
          "type": "address"
        }
      ],
      "name": "upgradeTo",
      "outputs": [],
      "stateMutability": "nonpayable",
      "type": "function"
    },
    {
      "inputs": [
        {
          "internalType": "address",
          "name": "newImplementation",
          "type": "address"
        },
        {
          "internalType": "bytes",
          "name": "data",
          "type": "bytes"
        }
      ],
      "name": "upgradeToAndCall",
      "outputs": [],
      "stateMutability": "payable",
      "type": "function"
    },
    {
      "inputs": [],
      "name": "vaultAddress",
      "outputs": [
        {
          "internalType": "address",
          "name": "",
          "type": "address"
        }
      ],
      "stateMutability": "view",
      "type": "function"
    },
    {
      "inputs": [
        {
          "internalType": "address",
          "name": "fundingToken",
          "type": "address"
        }
      ],
      "name": "whitelistFundingToken",
      "outputs": [],
      "stateMutability": "nonpayable",
      "type": "function"
    },
    {
      "inputs": [
        {
          "internalType": "address",
          "name": "",
          "type": "address"
        }
      ],
      "name": "whitelistedFundingTokens",
      "outputs": [
        {
          "internalType": "bool",
          "name": "",
          "type": "bool"
        }
      ],
      "stateMutability": "view",
      "type": "function"
    }
  ],
  "transactionHash": "0xde8f6958793f312f204e198b29566816d87ae3a0b3f0ebca08f915d301e0741f",
  "args": [],
  "solcInputHash": "edce919926861449af0282524d57abec",
  "bytecode": "0x60a06040523060601b60805234801561001757600080fd5b5060805160601c61392b61004b60003960008181610aef01528181610b2f01528181610bb80152610bf8015261392b6000f3fe6080604052600436106101405760003560e01c8063853b77a8116100b6578063af8a0ece1161006f578063af8a0ece146103b9578063c0c53b8b146103d9578063d28c5329146103f9578063e4a2826214610429578063e4d007f414610449578063f2fde38b1461046957600080fd5b8063853b77a8146102d357806386ad1dad1461030b5780638712a3c91461033b5780638da5cb5b1461035b5780638e3ddcb014610379578063a8f288071461039957600080fd5b80633659cfe6116101085780633659cfe61461022b578063430bf08a1461024b5780634f1ef2861461026b578063538373ba1461027e578063715018a61461029e578063823efb04146102b357600080fd5b80631a21e6681461014557806321b36c951461017857806326cdd0521461019a5780632879488a146101eb5780632a5a692f1461020b575b600080fd5b34801561015157600080fd5b5061016561016036600461324a565b610489565b6040519081526020015b60405180910390f35b34801561018457600080fd5b50610198610193366004613356565b6104f2565b005b3480156101a657600080fd5b506101d36101b536600461302f565b6001600160a01b03908116600090815260cc60205260409020541690565b6040516001600160a01b03909116815260200161016f565b3480156101f757600080fd5b5061019861020636600461324a565b610612565b34801561021757600080fd5b506101656102263660046130b1565b610a76565b34801561023757600080fd5b5061019861024636600461302f565b610ae4565b34801561025757600080fd5b5060cf546101d3906001600160a01b031681565b610198610279366004613135565b610bad565b34801561028a57600080fd5b5061019861029936600461324a565b610c67565b3480156102aa57600080fd5b506101986117cf565b3480156102bf57600080fd5b506101986102ce3660046132bb565b611805565b3480156102df57600080fd5b506101656102ee3660046131c2565b60ca60209081526000928352604080842090915290825290205481565b34801561031757600080fd5b5061032b6103263660046131c2565b6120db565b604051901515815260200161016f565b34801561034757600080fd5b5061032b6103563660046131c2565b61216e565b34801561036757600080fd5b506033546001600160a01b03166101d3565b34801561038557600080fd5b506101986103943660046131ed565b612198565b3480156103a557600080fd5b506101986103b43660046131ed565b6126d6565b3480156103c557600080fd5b506101986103d436600461302f565b6127da565b3480156103e557600080fd5b506101986103f4366004613067565b61282d565b34801561040557600080fd5b5061032b61041436600461302f565b60cd6020526000908152604090205460ff1681565b34801561043557600080fd5b5061019861044436600461324a565b6128e9565b34801561045557600080fd5b5061032b6104643660046131c2565b612910565b34801561047557600080fd5b5061019861048436600461302f565b612950565b604080516001600160a01b03808a166020830152918101889052606081018790526080810186905260a0810185905281841660c082015290821660e082015260009061010001604051602081830303815290604052805190602001209050979650505050505050565b600081815260cb602090815260409182902082516101008101845281546001600160a01b039081168252600183015481169382019390935260028201549381019390935260038101546060840152600481015460808401819052600582015460a08501526006820154831660c085015260079091015490911660e08301526105b65760405162461bcd60e51b815260206004820152601260248201527113d999995c881b9bdd08195e1a5cdd195b9d60721b60448201526064015b60405180910390fd5b50600090815260cb6020526040812080546001600160a01b031990811682556001820180548216905560028201839055600382018390556004820183905560058201929092556006810180548316905560070180549091169055565b600085116106705760405162461bcd60e51b815260206004820152602560248201527f52656e74616c2074696d65206d7573742062652067726561746572207468616e604482015264207a65726f60d81b60648201526084016105ad565b600084116106d35760405162461bcd60e51b815260206004820152602a60248201527f507269636520706572207365636f6e64206d7573742062652067726561746572604482015269207468616e207a65726f60b01b60648201526084016105ad565b4283116106f25760405162461bcd60e51b81526004016105ad9061370f565b6001600160a01b038216600090815260cd602052604090205460ff1661072a5760405162461bcd60e51b81526004016105ad90613633565b604051636eb1769f60e11b81523360048201523060248201526000906001600160a01b0384169063dd62ed3e9060440160206040518083038186803b15801561077257600080fd5b505afa158015610786573d6000803e3d6000fd5b505050506040513d601f19601f820116820180604052508101906107aa91906133d8565b905060008060d060009054906101000a90046001600160a01b03166001600160a01b0316635de6c42f6040518163ffffffff1660e01b815260040160206040518083038186803b1580156107fd57600080fd5b505afa158015610811573d6000803e3d6000fd5b505050506040513d601f19601f8201168201806040525081019061083591906133d8565b9050610841878961382b565b9150806108506127108461380b565b61085a919061382b565b61086490836137f3565b9150818310156108c05760405162461bcd60e51b815260206004820152602160248201527f416c6c6f77616e6365206d757374206265206173206d756368206173206665656044820152602160f81b60648201526084016105ad565b60006108d2338c8c8c8c8c8c8c610a76565b9050604051806101000160405280336001600160a01b031681526020018c6001600160a01b031681526020018b81526020018a8152602001898152602001888152602001876001600160a01b03168152602001866001600160a01b031681525060cb600083815260200190815260200160002060008201518160000160006101000a8154816001600160a01b0302191690836001600160a01b0316021790555060208201518160010160006101000a8154816001600160a01b0302191690836001600160a01b0316021790555060408201518160020155606082015181600301556080820151816004015560a0820151816005015560c08201518160060160006101000a8154816001600160a01b0302191690836001600160a01b0316021790555060e08201518160070160006101000a8154816001600160a01b0302191690836001600160a01b031602179055509050507fbb6b6ef4017eb6ec75b6530428410aae6c54e025b7e7bb440efbffe15d8b56e48b8b8b8b8b8b8b88604051610a6198979695949392919061354b565b60405180910390a15050505050505050505050565b604080516001600160a01b03998a16602080830191909152988a16818301526060810197909752608087019590955260a086019390935260c0850191909152851660e08401529093166101008083019190915283518083039091018152610120909101909252815191012090565b306001600160a01b037f0000000000000000000000000000000000000000000000000000000000000000161415610b2d5760405162461bcd60e51b81526004016105ad906135e7565b7f00000000000000000000000000000000000000000000000000000000000000006001600160a01b0316610b5f6129e8565b6001600160a01b031614610b855760405162461bcd60e51b81526004016105ad90613675565b610b8e81612a16565b60408051600080825260208201909252610baa91839190612a40565b50565b306001600160a01b037f0000000000000000000000000000000000000000000000000000000000000000161415610bf65760405162461bcd60e51b81526004016105ad906135e7565b7f00000000000000000000000000000000000000000000000000000000000000006001600160a01b0316610c286129e8565b6001600160a01b031614610c4e5760405162461bcd60e51b81526004016105ad90613675565b610c5782612a16565b610c6382826001612a40565b5050565b6000610c798289898989898933610a76565b600081815260cb6020526040902060040154909150610cda5760405162461bcd60e51b815260206004820152601960248201527f52656e74616c206f66666572206e6f74206578697374656e740000000000000060448201526064016105ad565b610ce4888861216e565b15610d295760405162461bcd60e51b8152602060048201526015602482015274746f6b656e20616c72656164792072656e7465642160581b60448201526064016105ad565b60405163020604bf60e21b8152600481018890526000906001600160a01b038a169063081812fc9060240160206040518083038186803b158015610d6c57600080fd5b505afa158015610d80573d6000803e3d6000fd5b505050506040513d601f19601f82011682018060405250810190610da4919061304b565b90506001600160a01b0381163014610df75760405162461bcd60e51b8152602060048201526016602482015275151bdad95b881b5d5cdd08189948185c1c1c9bdd995960521b60448201526064016105ad565b6001600160a01b03898116600090815260cc602052604090205416610ff75760ce548990600090610e30906001600160a01b0316612b8b565b90506000826001600160a01b03166306fdde036040518163ffffffff1660e01b815260040160006040518083038186803b158015610e6d57600080fd5b505afa158015610e81573d6000803e3d6000fd5b505050506040513d6000823e601f3d908101601f19168201604052610ea9919081019061336e565b90506000836001600160a01b03166395d89b416040518163ffffffff1660e01b815260040160006040518083038186803b158015610ee657600080fd5b505afa158015610efa573d6000803e3d6000fd5b505050506040513d6000823e601f3d908101601f19168201604052610f22919081019061336e565b9050826001600160a01b031663077f224a83604051602001610f44919061348c565b60405160208183030381529060405283604051602001610f649190613438565b604051602081830303815290604052306040518463ffffffff1660e01b8152600401610f92939291906135a9565b600060405180830381600087803b158015610fac57600080fd5b505af1158015610fc0573d6000803e3d6000fd5b5050506001600160a01b03808f16600090815260cc602052604090208054919095166001600160a01b031990911617909355505050505b60cf546040516323b872dd60e01b81526001600160a01b03808c16926323b872dd9261102b92339216908d906004016134f3565b600060405180830381600087803b15801561104557600080fd5b505af1158015611059573d6000803e3d6000fd5b505060cf5460405163757f07e160e11b81526001600160a01b038d81166004830152602482018d9052336044830152909116925063eafe0fc29150606401600060405180830381600087803b1580156110b157600080fd5b505af11580156110c5573d6000803e3d6000fd5b505050600083815260cb60209081526040918290205460d0548351635de6c42f60e01b815293516001600160a01b038a811696506323b872dd959381169430949190931692635de6c42f92600480840193829003018186803b15801561112a57600080fd5b505afa15801561113e573d6000803e3d6000fd5b505050506040513d601f19601f8201168201806040525081019061116291906133d8565b61271061116f8c8e61382b565b611179919061380b565b611183919061382b565b61118d8b8d61382b565b61119791906137f3565b6040518463ffffffff1660e01b81526004016111b5939291906134f3565b602060405180830381600087803b1580156111cf57600080fd5b505af11580156111e3573d6000803e3d6000fd5b505050506040513d601f19601f820116820180604052508101906112079190613336565b50836001600160a01b031663a9059cbb3360d060009054906101000a90046001600160a01b03166001600160a01b031663e1f3d55a6040518163ffffffff1660e01b815260040160206040518083038186803b15801561126657600080fd5b505afa15801561127a573d6000803e3d6000fd5b505050506040513d601f19601f8201168201806040525081019061129e91906133d8565b6127106112ab8b8d61382b565b6112b5919061380b565b6112bf919061382b565b6112c98a8c61382b565b6112d3919061384a565b6040516001600160e01b031960e085901b1681526001600160a01b0390921660048301526024820152604401602060405180830381600087803b15801561131957600080fd5b505af115801561132d573d6000803e3d6000fd5b505050506040513d601f19601f820116820180604052508101906113519190613336565b50836001600160a01b031663a9059cbb60d060009054906101000a90046001600160a01b03166001600160a01b031663702acfa86040518163ffffffff1660e01b815260040160206040518083038186803b1580156113af57600080fd5b505afa1580156113c3573d6000803e3d6000fd5b505050506040513d601f19601f820116820180604052508101906113e7919061304b565b60d060009054906101000a90046001600160a01b03166001600160a01b031663e1f3d55a6040518163ffffffff1660e01b815260040160206040518083038186803b15801561143557600080fd5b505afa158015611449573d6000803e3d6000fd5b505050506040513d601f19601f8201168201806040525081019061146d91906133d8565b61271061147a8b8d61382b565b611484919061380b565b61148e919061382b565b60d060009054906101000a90046001600160a01b03166001600160a01b0316635de6c42f6040518163ffffffff1660e01b815260040160206040518083038186803b1580156114dc57600080fd5b505afa1580156114f0573d6000803e3d6000fd5b505050506040513d601f19601f8201168201806040525081019061151491906133d8565b6127106115218c8e61382b565b61152b919061380b565b611535919061382b565b61153f91906137f3565b6040516001600160e01b031960e085901b1681526001600160a01b0390921660048301526024820152604401602060405180830381600087803b15801561158557600080fd5b505af1158015611599573d6000803e3d6000fd5b505050506040513d601f19601f820116820180604052508101906115bd9190613336565b506001600160a01b03898116600081815260cc602090815260408083205487845260cb90925280832054905163c87b56dd60e01b8152600481018e905292949182169363c772745a9391909216919063c87b56dd9060240160006040518083038186803b15801561162d57600080fd5b505afa158015611641573d6000803e3d6000fd5b505050506040513d6000823e601f3d908101601f19168201604052611669919081019061336e565b600087815260cb6020526040908190206003015490516001600160e01b031960e086901b16815261169f93929190600401613517565b602060405180830381600087803b1580156116b957600080fd5b505af11580156116cd573d6000803e3d6000fd5b505050506040513d601f19601f820116820180604052508101906116f191906133d8565b600084815260cb6020526040812080546001600160a01b031990811682556001820180548216905560028201839055600382018390556004820183905560058201929092556006810180548316905560070180549091169055905061175688426137f3565b6001600160a01b038b16600090815260ca602090815260408083208d84529091529081902091909155517fe5133959d0e52f028708f0465c4570ef6fba3a1401de99318901363b4d20de9d906117bb908c908c908c908c908c908c9033908a9061354b565b60405180910390a150505050505050505050565b6033546001600160a01b031633146117f95760405162461bcd60e51b81526004016105ad90613765565b6118036000612c28565b565b61180f888861216e565b156118545760405162461bcd60e51b8152602060048201526015602482015274546f6b656e20616c72656164792072656e7465642160581b60448201526064016105ad565b600061186589898989898989610489565b600081815260c96020908152604091829020825160e08101845281546001600160a01b039081168252600183015493820193909352600282015493810193909352600381015460608401819052600482015460808501526005820154831660a085015260069091015490911660c0830152919250906119265760405162461bcd60e51b815260206004820152601b60248201527f52656e74616c206c697374696e67206e6f74206578697374656e74000000000060448201526064016105ad565b60cf546040516323b872dd60e01b81526001600160a01b03808d16926323b872dd9261195a92899216908e906004016134f3565b600060405180830381600087803b15801561197457600080fd5b505af1158015611988573d6000803e3d6000fd5b505060cf5460c084015160405163757f07e160e11b81526001600160a01b038f81166004830152602482018f905291821660448201529116925063eafe0fc29150606401600060405180830381600087803b1580156119e657600080fd5b505af11580156119fa573d6000803e3d6000fd5b5050505060008784611a0c919061382b565b9050600061271060d060009054906101000a90046001600160a01b03166001600160a01b0316635de6c42f6040518163ffffffff1660e01b815260040160206040518083038186803b158015611a6157600080fd5b505afa158015611a75573d6000803e3d6000fd5b505050506040513d601f19601f82011682018060405250810190611a9991906133d8565b611aa3908461382b565b611aad919061380b565b611ab790836137f3565b6040516323b872dd60e01b81529091506001600160a01b038816906323b872dd90611aea903390309086906004016134f3565b602060405180830381600087803b158015611b0457600080fd5b505af1158015611b18573d6000803e3d6000fd5b505050506040513d601f19601f82011682018060405250810190611b3c9190613336565b50866001600160a01b031663a9059cbb8460c0015160d060009054906101000a90046001600160a01b03166001600160a01b031663e1f3d55a6040518163ffffffff1660e01b815260040160206040518083038186803b158015611b9f57600080fd5b505afa158015611bb3573d6000803e3d6000fd5b505050506040513d601f19601f82011682018060405250810190611bd791906133d8565b611be36127108761380b565b611bed919061382b565b611bf7908661384a565b6040516001600160e01b031960e085901b1681526001600160a01b0390921660048301526024820152604401602060405180830381600087803b158015611c3d57600080fd5b505af1158015611c51573d6000803e3d6000fd5b505050506040513d601f19601f82011682018060405250810190611c759190613336565b50866001600160a01b031663a9059cbb60d060009054906101000a90046001600160a01b03166001600160a01b031663702acfa86040518163ffffffff1660e01b815260040160206040518083038186803b158015611cd357600080fd5b505afa158015611ce7573d6000803e3d6000fd5b505050506040513d601f19601f82011682018060405250810190611d0b919061304b565b60d060009054906101000a90046001600160a01b03166001600160a01b031663e1f3d55a6040518163ffffffff1660e01b815260040160206040518083038186803b158015611d5957600080fd5b505afa158015611d6d573d6000803e3d6000fd5b505050506040513d601f19601f82011682018060405250810190611d9191906133d8565b612710611d9e8e8b61382b565b611da8919061380b565b611db2919061382b565b60d060009054906101000a90046001600160a01b03166001600160a01b0316635de6c42f6040518163ffffffff1660e01b815260040160206040518083038186803b158015611e0057600080fd5b505afa158015611e14573d6000803e3d6000fd5b505050506040513d601f19601f82011682018060405250810190611e3891906133d8565b612710611e458f8c61382b565b611e4f919061380b565b611e59919061382b565b611e6391906137f3565b6040516001600160e01b031960e085901b1681526001600160a01b0390921660048301526024820152604401602060405180830381600087803b158015611ea957600080fd5b505af1158015611ebd573d6000803e3d6000fd5b505050506040513d601f19601f82011682018060405250810190611ee19190613336565b506001600160a01b038c8116600081815260cc602090815260408083205491880151905163c87b56dd60e01b815260048101919091529193169163c772745a9133919063c87b56dd9060240160006040518083038186803b158015611f4557600080fd5b505afa158015611f59573d6000803e3d6000fd5b505050506040513d6000823e601f3d908101601f19168201604052611f81919081019061336e565b896040518463ffffffff1660e01b8152600401611fa093929190613517565b602060405180830381600087803b158015611fba57600080fd5b505af1158015611fce573d6000803e3d6000fd5b505050506040513d601f19601f82011682018060405250810190611ff291906133d8565b600086815260c96020526040812080546001600160a01b0319908116825560018201839055600282018390556003820183905560048201929092556005810180548316905560060180549091169055905061204d86426137f3565b60ca60008f6001600160a01b03166001600160a01b0316815260200190815260200160002060008e8152602001908152602001600020819055507fe5133959d0e52f028708f0465c4570ef6fba3a1401de99318901363b4d20de9d8d8d888d8d8d8d886040516120c498979695949392919061354b565b60405180910390a150505050505050505050505050565b6001600160a01b03828116600090815260cc6020526040808220549051634f558e7960e01b81526004810185905291921690634f558e79906024015b60206040518083038186803b15801561212f57600080fd5b505afa158015612143573d6000803e3d6000fd5b505050506040513d601f19601f820116820180604052508101906121679190613336565b9392505050565b6001600160a01b0391909116600090815260ca602090815260408083209383529290522054421090565b600084116121f45760405162461bcd60e51b815260206004820152602360248201527f52656e742074696d65206d7573742062652067726561746572207468616e207a60448201526265726f60e81b60648201526084016105ad565b600083116122555760405162461bcd60e51b815260206004820152602860248201527f70726963655065725365636f6e64206d7573742062652067726561746572207460448201526768616e207a65726f60c01b60648201526084016105ad565b4282116122745760405162461bcd60e51b81526004016105ad9061370f565b6001600160a01b038116600090815260cd602052604090205460ff166122ac5760405162461bcd60e51b81526004016105ad90613633565b60405163020604bf60e21b8152600481018690526000906001600160a01b0388169063081812fc9060240160206040518083038186803b1580156122ef57600080fd5b505afa158015612303573d6000803e3d6000fd5b505050506040513d601f19601f82011682018060405250810190612327919061304b565b90506001600160a01b038116301461237a5760405162461bcd60e51b8152602060048201526016602482015275151bdad95b881b5d5cdd08189948185c1c1c9bdd995960521b60448201526064016105ad565b612384878761216e565b156123c95760405162461bcd60e51b8152602060048201526015602482015274546f6b656e20616c72656164792072656e7465642160581b60448201526064016105ad565b60006123da88888888888833610489565b6001600160a01b03898116600090815260cc6020526040902054919250166125dd5760ce548890600090612416906001600160a01b0316612b8b565b90506000826001600160a01b03166306fdde036040518163ffffffff1660e01b815260040160006040518083038186803b15801561245357600080fd5b505afa158015612467573d6000803e3d6000fd5b505050506040513d6000823e601f3d908101601f1916820160405261248f919081019061336e565b90506000836001600160a01b03166395d89b416040518163ffffffff1660e01b815260040160006040518083038186803b1580156124cc57600080fd5b505afa1580156124e0573d6000803e3d6000fd5b505050506040513d6000823e601f3d908101601f19168201604052612508919081019061336e565b9050826001600160a01b031663077f224a8360405160200161252a91906134bb565b6040516020818303038152906040528360405160200161254a9190613461565b604051602081830303815290604052306040518463ffffffff1660e01b8152600401612578939291906135a9565b600060405180830381600087803b15801561259257600080fd5b505af11580156125a6573d6000803e3d6000fd5b5050506001600160a01b03808e16600090815260cc602052604090208054919095166001600160a01b031990911617909355505050505b6040805160e0810182526001600160a01b03808b16825260208083018b81528385018b8152606085018b8152608086018b81528a861660a088019081523360c0890181815260008c815260c9909852968a9020985189549089166001600160a01b0319918216178a55955160018a015593516002890155915160038801555160048701555160058601805491861691841691909117905591516006909401805494909316931692909217905590517f1d266d7dcb17eedafb21bfb212daf59fb22abf7a5bcfb506bb1cbdc2d2e99321916126c4918b918b918b918b918b918b918a9061354b565b60405180910390a15050505050505050565b60006126e787878787878733610489565b600081815260c960205260409020600601549091506001600160a01b03166127485760405162461bcd60e51b8152602060048201526014602482015273131a5cdd1a5b99c81b9bdd08195e1a5cdd195b9d60621b60448201526064016105ad565b600081815260c9602052604080822080546001600160a01b031990811682556001820184905560028201849055600382018490556004820193909355600581018054841690556006018054909216909155517f551093dec6053933c320273f5b5e812f1ef7b496dacdb2f731e5f73fdc1d2eb9906127c99083815260200190565b60405180910390a150505050505050565b6033546001600160a01b031633146128045760405162461bcd60e51b81526004016105ad90613765565b6001600160a01b0316600090815260cd60205260409020805460ff19811660ff90911615179055565b600054610100900460ff1680612846575060005460ff16155b6128625760405162461bcd60e51b81526004016105ad906136c1565b600054610100900460ff16158015612884576000805461ffff19166101011790555b61288c612c7a565b612894612cf5565b60ce80546001600160a01b038087166001600160a01b03199283161790925560cf805486841690831617905560d080549285169290911691909117905580156128e3576000805461ff00191690555b50505050565b60006128fb3389898989898989610a76565b9050612906816104f2565b5050505050505050565b6001600160a01b03828116600090815260cc602052604080822054905163014899f360e51b815260048101859052919216906329133e6090602401612117565b6033546001600160a01b0316331461297a5760405162461bcd60e51b81526004016105ad90613765565b6001600160a01b0381166129df5760405162461bcd60e51b815260206004820152602660248201527f4f776e61626c653a206e6577206f776e657220697320746865207a65726f206160448201526564647265737360d01b60648201526084016105ad565b610baa81612c28565b7f360894a13ba1a3210667c828492db98dca3e2076cc3735a920a3ca505d382bbc546001600160a01b031690565b6033546001600160a01b03163314610baa5760405162461bcd60e51b81526004016105ad90613765565b6000612a4a6129e8565b9050612a5584612d5c565b600083511180612a625750815b15612a7357612a718484612e01565b505b7f4910fdfa16fed3260ed0e7147f7cc6da11a60208b5b9406d12a635614ffd9143805460ff16612b8457805460ff191660011781556040516001600160a01b0383166024820152612af290869060440160408051601f198184030181529190526020810180516001600160e01b0316631b2ce7f360e11b179052612e01565b50805460ff19168155612b036129e8565b6001600160a01b0316826001600160a01b031614612b7b5760405162461bcd60e51b815260206004820152602f60248201527f45524331393637557067726164653a207570677261646520627265616b73206660448201526e75727468657220757067726164657360881b60648201526084016105ad565b612b8485612eec565b5050505050565b6000604051733d602d80600a3d3981f3363d3d373d3d3d363d7360601b81528260601b60148201526e5af43d82803e903d91602b57fd5bf360881b60288201526037816000f09150506001600160a01b038116612c235760405162461bcd60e51b8152602060048201526016602482015275115490cc4c4d8dce8818dc99585d194819985a5b195960521b60448201526064016105ad565b919050565b603380546001600160a01b038381166001600160a01b0319831681179093556040519116919082907f8be0079c531659141344cd1fd0a4f28419497f9722a3daafe3b4186f6b6457e090600090a35050565b600054610100900460ff1680612c93575060005460ff16155b612caf5760405162461bcd60e51b81526004016105ad906136c1565b600054610100900460ff16158015612cd1576000805461ffff19166101011790555b612cd9612f2c565b612ce1612f96565b8015610baa576000805461ff001916905550565b600054610100900460ff1680612d0e575060005460ff16155b612d2a5760405162461bcd60e51b81526004016105ad906136c1565b600054610100900460ff16158015612d4c576000805461ffff19166101011790555b612d54612f2c565b612ce1612f2c565b803b612dc05760405162461bcd60e51b815260206004820152602d60248201527f455243313936373a206e657720696d706c656d656e746174696f6e206973206e60448201526c1bdd08184818dbdb9d1c9858dd609a1b60648201526084016105ad565b7f360894a13ba1a3210667c828492db98dca3e2076cc3735a920a3ca505d382bbc80546001600160a01b0319166001600160a01b0392909216919091179055565b6060823b612e605760405162461bcd60e51b815260206004820152602660248201527f416464726573733a2064656c65676174652063616c6c20746f206e6f6e2d636f6044820152651b9d1c9858dd60d21b60648201526084016105ad565b600080846001600160a01b031684604051612e7b919061341c565b600060405180830381855af49150503d8060008114612eb6576040519150601f19603f3d011682016040523d82523d6000602084013e612ebb565b606091505b5091509150612ee382826040518060600160405280602781526020016138cf60279139612ff6565b95945050505050565b612ef581612d5c565b6040516001600160a01b038216907fbc7cd75a20ee27fd9adebab32041f755214dbc6bffa90cc0225b39da2e5c2d3b90600090a250565b600054610100900460ff1680612f45575060005460ff16155b612f615760405162461bcd60e51b81526004016105ad906136c1565b600054610100900460ff16158015612ce1576000805461ffff19166101011790558015610baa576000805461ff001916905550565b600054610100900460ff1680612faf575060005460ff16155b612fcb5760405162461bcd60e51b81526004016105ad906136c1565b600054610100900460ff16158015612fed576000805461ffff19166101011790555b612ce133612c28565b60608315613005575081612167565b8251156130155782518084602001fd5b8160405162461bcd60e51b81526004016105ad9190613596565b600060208284031215613040578081fd5b8135612167816138b9565b60006020828403121561305c578081fd5b8151612167816138b9565b60008060006060848603121561307b578182fd5b8335613086816138b9565b92506020840135613096816138b9565b915060408401356130a6816138b9565b809150509250925092565b600080600080600080600080610100898b0312156130cd578384fd5b88356130d8816138b9565b975060208901356130e8816138b9565b965060408901359550606089013594506080890135935060a0890135925060c0890135613114816138b9565b915060e0890135613124816138b9565b809150509295985092959890939650565b60008060408385031215613147578182fd5b8235613152816138b9565b9150602083013567ffffffffffffffff81111561316d578182fd5b8301601f8101851361317d578182fd5b803561319061318b826137cb565b61379a565b8181528660208385010111156131a4578384fd5b81602084016020830137908101602001929092525090939092509050565b600080604083850312156131d4578182fd5b82356131df816138b9565b946020939093013593505050565b60008060008060008060c08789031215613205578182fd5b8635613210816138b9565b95506020870135945060408701359350606087013592506080870135915060a087013561323c816138b9565b809150509295509295509295565b600080600080600080600060e0888a031215613264578283fd5b873561326f816138b9565b96506020880135955060408801359450606088013593506080880135925060a088013561329b816138b9565b915060c08801356132ab816138b9565b8091505092959891949750929550565b600080600080600080600080610100898b0312156132d7578182fd5b88356132e2816138b9565b97506020890135965060408901359550606089013594506080890135935060a089013561330e816138b9565b925060c089013561331e816138b9565b8092505060e089013590509295985092959890939650565b600060208284031215613347578081fd5b81518015158114612167578182fd5b600060208284031215613367578081fd5b5035919050565b60006020828403121561337f578081fd5b815167ffffffffffffffff811115613395578182fd5b8201601f810184136133a5578182fd5b80516133b361318b826137cb565b8181528560208385010111156133c7578384fd5b612ee3826020830160208601613861565b6000602082840312156133e9578081fd5b5051919050565b60008151808452613408816020860160208601613861565b601f01601f19169290920160200192915050565b6000825161342e818460208701613861565b9190910192915050565b603960f91b815260008251613454816001850160208701613861565b9190910160010192915050565b6270535f60e81b81526000825161347f816003850160208701613861565b9190910160030192915050565b6602932b73a32b2160cd1b8152600082516134ae816007850160208701613861565b9190910160070192915050565b6f0283934bb349029bcb73a3432ba34b1960851b8152600082516134e6816010850160208701613861565b9190910160100192915050565b6001600160a01b039384168152919092166020820152604081019190915260600190565b6001600160a01b038416815260606020820181905260009061353b908301856133f0565b9050826040830152949350505050565b6001600160a01b0398891681526020810197909752604087019590955260608601939093526080850191909152841660a084015290921660c082015260e08101919091526101000190565b60208152600061216760208301846133f0565b6060815260006135bc60608301866133f0565b82810360208401526135ce81866133f0565b91505060018060a01b0383166040830152949350505050565b6020808252602c908201527f46756e6374696f6e206d7573742062652063616c6c6564207468726f7567682060408201526b19195b1959d85d1958d85b1b60a21b606082015260800190565b60208082526022908201527f46756e64696e6720746f6b656e206d7573742062652077686974656c69737465604082015261642160f01b606082015260800190565b6020808252602c908201527f46756e6374696f6e206d7573742062652063616c6c6564207468726f7567682060408201526b6163746976652070726f787960a01b606082015260800190565b6020808252602e908201527f496e697469616c697a61626c653a20636f6e747261637420697320616c72656160408201526d191e481a5b9a5d1a585b1a5e995960921b606082015260800190565b60208082526036908201527f72656e74616c45787069726174696f6e206d7573742062652067726561746572604082015275207468616e20626c6f636b2074696d657374616d702160501b606082015260800190565b6020808252818101527f4f776e61626c653a2063616c6c6572206973206e6f7420746865206f776e6572604082015260600190565b604051601f8201601f1916810167ffffffffffffffff811182821017156137c3576137c36138a3565b604052919050565b600067ffffffffffffffff8211156137e5576137e56138a3565b50601f01601f191660200190565b600082198211156138065761380661388d565b500190565b60008261382657634e487b7160e01b81526012600452602481fd5b500490565b60008160001904831182151516156138455761384561388d565b500290565b60008282101561385c5761385c61388d565b500390565b60005b8381101561387c578181015183820152602001613864565b838111156128e35750506000910152565b634e487b7160e01b600052601160045260246000fd5b634e487b7160e01b600052604160045260246000fd5b6001600160a01b0381168114610baa57600080fdfe416464726573733a206c6f772d6c6576656c2064656c65676174652063616c6c206661696c6564a264697066735822122051d04bf2bdbb7112b2a32d8eda4dd2e18d3c1baaae51fe76297ce1d646ae4c6b64736f6c63430008040033",
  "devdoc": {
    "kind": "dev",
    "methods": {
      "owner()": {
        "details": "Returns the address of the current owner."
      },
      "renounceOwnership()": {
        "details": "Leaves the contract without owner. It will not be possible to call `onlyOwner` functions anymore. Can only be called by the current owner. NOTE: Renouncing ownership will leave the contract without an owner, thereby removing any functionality that is only available to the owner."
      },
      "transferOwnership(address)": {
        "details": "Transfers ownership of the contract to a new account (`newOwner`). Can only be called by the current owner."
      },
      "upgradeTo(address)": {
        "details": "Upgrade the implementation of the proxy to `newImplementation`. Calls {_authorizeUpgrade}. Emits an {Upgraded} event."
      },
      "upgradeToAndCall(address,bytes)": {
        "details": "Upgrade the implementation of the proxy to `newImplementation`, and subsequently execute the function call encoded in `data`. Calls {_authorizeUpgrade}. Emits an {Upgraded} event."
      }
    },
    "stateVariables": {
      "_collections": {
        "details": "collection => synthetic collection"
      },
      "_rentalBuyOrders": {
        "details": "Listing ID => offer (buyer)"
      },
      "_rentalSellOrders": {
        "details": "Listing ID => offer (seller)"
      },
      "_syntheticNFT": {
        "details": "Synthetic NFT address (before initialization)"
      },
      "rentalExpirations": {
        "details": "collection - token ID - rental expiration"
      },
      "vaultAddress": {
        "details": "Vault for original NFTs"
      },
      "whitelistedFundingTokens": {
        "details": "funding token => allowed or not"
      }
    },
    "version": 1
  },
  "userdoc": {
    "kind": "user",
    "methods": {
      "acceptRentalOffer(address,uint256,uint256,uint256,uint256,address,address)": {
        "notice": "here the owner of the NFT accepts the rental of the NFT. The rental price is transfered to owner and the syntethic is minted to buyer."
      },
      "listOffer(address,uint256,uint256,uint256,uint256,address)": {
        "notice": "this is the owner listing his NFT for rental. If the collection is new, mints a new rentalSyntheticNFT contract."
      },
      "rentalOffer(address,uint256,uint256,uint256,uint256,address,address)": {
        "notice": "this is a person trying to renti an NFT. He/She gets a synthetic NFT linking to the rental manager which registered this new syntheticNFT and set in status active till the date of invalidating it. The buyer pays the rental in advance."
      }
    },
    "version": 1
  },
  "storageLayout": {
    "storage": [
      {
        "astId": 538,
        "contract": "contracts/RentalManager.sol:RentalManager",
        "label": "_initialized",
        "offset": 0,
        "slot": "0",
        "type": "t_bool"
      },
      {
        "astId": 541,
        "contract": "contracts/RentalManager.sol:RentalManager",
        "label": "_initializing",
        "offset": 1,
        "slot": "0",
        "type": "t_bool"
      },
      {
        "astId": 977,
        "contract": "contracts/RentalManager.sol:RentalManager",
        "label": "__gap",
        "offset": 0,
        "slot": "1",
        "type": "t_array(t_uint256)50_storage"
      },
      {
        "astId": 10,
        "contract": "contracts/RentalManager.sol:RentalManager",
        "label": "_owner",
        "offset": 0,
        "slot": "51",
        "type": "t_address"
      },
      {
        "astId": 123,
        "contract": "contracts/RentalManager.sol:RentalManager",
        "label": "__gap",
        "offset": 0,
        "slot": "52",
        "type": "t_array(t_uint256)49_storage"
      },
      {
        "astId": 521,
        "contract": "contracts/RentalManager.sol:RentalManager",
        "label": "__gap",
        "offset": 0,
        "slot": "101",
        "type": "t_array(t_uint256)50_storage"
      },
      {
        "astId": 688,
        "contract": "contracts/RentalManager.sol:RentalManager",
        "label": "__gap",
        "offset": 0,
        "slot": "151",
        "type": "t_array(t_uint256)50_storage"
      },
      {
        "astId": 3787,
        "contract": "contracts/RentalManager.sol:RentalManager",
        "label": "_rentalSellOrders",
        "offset": 0,
        "slot": "201",
        "type": "t_mapping(t_bytes32,t_struct(RentalListing)4982_storage)"
      },
      {
        "astId": 3794,
        "contract": "contracts/RentalManager.sol:RentalManager",
        "label": "rentalExpirations",
        "offset": 0,
        "slot": "202",
        "type": "t_mapping(t_address,t_mapping(t_uint256,t_uint256))"
      },
      {
        "astId": 3800,
        "contract": "contracts/RentalManager.sol:RentalManager",
        "label": "_rentalBuyOrders",
        "offset": 0,
        "slot": "203",
        "type": "t_mapping(t_bytes32,t_struct(RentalOffer)4999_storage)"
      },
      {
        "astId": 3805,
        "contract": "contracts/RentalManager.sol:RentalManager",
        "label": "_collections",
        "offset": 0,
        "slot": "204",
        "type": "t_mapping(t_address,t_address)"
      },
      {
        "astId": 3810,
        "contract": "contracts/RentalManager.sol:RentalManager",
        "label": "whitelistedFundingTokens",
        "offset": 0,
        "slot": "205",
        "type": "t_mapping(t_address,t_bool)"
      },
      {
        "astId": 3813,
        "contract": "contracts/RentalManager.sol:RentalManager",
        "label": "_syntheticNFT",
        "offset": 0,
        "slot": "206",
        "type": "t_address"
      },
      {
        "astId": 3816,
        "contract": "contracts/RentalManager.sol:RentalManager",
        "label": "vaultAddress",
        "offset": 0,
        "slot": "207",
        "type": "t_address"
      },
      {
        "astId": 3818,
        "contract": "contracts/RentalManager.sol:RentalManager",
        "label": "_protocolParameters",
        "offset": 0,
        "slot": "208",
        "type": "t_address"
      }
    ],
    "types": {
      "t_address": {
        "encoding": "inplace",
        "label": "address",
        "numberOfBytes": "20"
      },
      "t_array(t_uint256)49_storage": {
        "base": "t_uint256",
        "encoding": "inplace",
        "label": "uint256[49]",
        "numberOfBytes": "1568"
      },
      "t_array(t_uint256)50_storage": {
        "base": "t_uint256",
        "encoding": "inplace",
        "label": "uint256[50]",
        "numberOfBytes": "1600"
      },
      "t_bool": {
        "encoding": "inplace",
        "label": "bool",
        "numberOfBytes": "1"
      },
      "t_bytes32": {
        "encoding": "inplace",
        "label": "bytes32",
        "numberOfBytes": "32"
      },
      "t_mapping(t_address,t_address)": {
        "encoding": "mapping",
        "key": "t_address",
        "label": "mapping(address => address)",
        "numberOfBytes": "32",
        "value": "t_address"
      },
      "t_mapping(t_address,t_bool)": {
        "encoding": "mapping",
        "key": "t_address",
        "label": "mapping(address => bool)",
        "numberOfBytes": "32",
        "value": "t_bool"
      },
      "t_mapping(t_address,t_mapping(t_uint256,t_uint256))": {
        "encoding": "mapping",
        "key": "t_address",
        "label": "mapping(address => mapping(uint256 => uint256))",
        "numberOfBytes": "32",
        "value": "t_mapping(t_uint256,t_uint256)"
      },
      "t_mapping(t_bytes32,t_struct(RentalListing)4982_storage)": {
        "encoding": "mapping",
        "key": "t_bytes32",
        "label": "mapping(bytes32 => struct RentalListing)",
        "numberOfBytes": "32",
        "value": "t_struct(RentalListing)4982_storage"
      },
      "t_mapping(t_bytes32,t_struct(RentalOffer)4999_storage)": {
        "encoding": "mapping",
        "key": "t_bytes32",
        "label": "mapping(bytes32 => struct RentalOffer)",
        "numberOfBytes": "32",
        "value": "t_struct(RentalOffer)4999_storage"
      },
      "t_mapping(t_uint256,t_uint256)": {
        "encoding": "mapping",
        "key": "t_uint256",
        "label": "mapping(uint256 => uint256)",
        "numberOfBytes": "32",
        "value": "t_uint256"
      },
      "t_struct(RentalListing)4982_storage": {
        "encoding": "inplace",
        "label": "struct RentalListing",
        "members": [
          {
            "astId": 4969,
            "contract": "contracts/RentalManager.sol:RentalManager",
            "label": "collection",
            "offset": 0,
            "slot": "0",
            "type": "t_address"
          },
          {
            "astId": 4971,
            "contract": "contracts/RentalManager.sol:RentalManager",
            "label": "tokenId",
            "offset": 0,
            "slot": "1",
            "type": "t_uint256"
          },
          {
            "astId": 4973,
            "contract": "contracts/RentalManager.sol:RentalManager",
            "label": "maximumRentTime",
            "offset": 0,
            "slot": "2",
            "type": "t_uint256"
          },
          {
            "astId": 4975,
            "contract": "contracts/RentalManager.sol:RentalManager",
            "label": "pricePerSecond",
            "offset": 0,
            "slot": "3",
            "type": "t_uint256"
          },
          {
            "astId": 4977,
            "contract": "contracts/RentalManager.sol:RentalManager",
            "label": "rentalExpiration",
            "offset": 0,
            "slot": "4",
            "type": "t_uint256"
          },
          {
            "astId": 4979,
            "contract": "contracts/RentalManager.sol:RentalManager",
            "label": "fundingToken",
            "offset": 0,
            "slot": "5",
            "type": "t_address"
          },
          {
            "astId": 4981,
            "contract": "contracts/RentalManager.sol:RentalManager",
            "label": "owner",
            "offset": 0,
            "slot": "6",
            "type": "t_address"
          }
        ],
        "numberOfBytes": "224"
      },
      "t_struct(RentalOffer)4999_storage": {
        "encoding": "inplace",
        "label": "struct RentalOffer",
        "members": [
          {
            "astId": 4984,
            "contract": "contracts/RentalManager.sol:RentalManager",
            "label": "offerer",
            "offset": 0,
            "slot": "0",
            "type": "t_address"
          },
          {
            "astId": 4986,
            "contract": "contracts/RentalManager.sol:RentalManager",
            "label": "collection",
            "offset": 0,
            "slot": "1",
            "type": "t_address"
          },
          {
            "astId": 4988,
            "contract": "contracts/RentalManager.sol:RentalManager",
            "label": "tokenId",
            "offset": 0,
            "slot": "2",
            "type": "t_uint256"
          },
          {
            "astId": 4990,
            "contract": "contracts/RentalManager.sol:RentalManager",
            "label": "rentalTime",
            "offset": 0,
            "slot": "3",
            "type": "t_uint256"
          },
          {
            "astId": 4992,
            "contract": "contracts/RentalManager.sol:RentalManager",
            "label": "pricePerSecond",
            "offset": 0,
            "slot": "4",
            "type": "t_uint256"
          },
          {
            "astId": 4994,
            "contract": "contracts/RentalManager.sol:RentalManager",
            "label": "rentalExpiration",
            "offset": 0,
            "slot": "5",
            "type": "t_uint256"
          },
          {
            "astId": 4996,
            "contract": "contracts/RentalManager.sol:RentalManager",
            "label": "fundingToken",
            "offset": 0,
            "slot": "6",
            "type": "t_address"
          },
          {
            "astId": 4998,
            "contract": "contracts/RentalManager.sol:RentalManager",
            "label": "from",
            "offset": 0,
            "slot": "7",
            "type": "t_address"
          }
        ],
        "numberOfBytes": "256"
      },
      "t_uint256": {
        "encoding": "inplace",
        "label": "uint256",
        "numberOfBytes": "32"
      }
    }
  }
}