{
  "_format": "hh-sol-artifact-1",
  "contractName": "ReserveMarketplace",
  "sourceName": "contracts/ReserveMarketplace.sol",
  "abi": [
    {
      "inputs": [
        {
          "internalType": "address",
          "name": "protocolParameters_",
          "type": "address"
        }
      ],
      "stateMutability": "nonpayable",
      "type": "constructor"
    },
    {
      "anonymous": false,
      "inputs": [
        {
          "indexed": false,
          "internalType": "address",
          "name": "previousAdmin",
          "type": "address"
        },
        {
          "indexed": false,
          "internalType": "address",
          "name": "newAdmin",
          "type": "address"
        }
      ],
      "name": "AdminChanged",
      "type": "event"
    },
    {
      "anonymous": false,
      "inputs": [
        {
          "indexed": true,
          "internalType": "address",
          "name": "beacon",
          "type": "address"
        }
      ],
      "name": "BeaconUpgraded",
      "type": "event"
    },
    {
      "anonymous": false,
      "inputs": [
        {
          "indexed": true,
          "internalType": "address",
          "name": "token",
          "type": "address"
        }
      ],
      "name": "Blacklist",
      "type": "event"
    },
    {
      "anonymous": false,
      "inputs": [
        {
          "indexed": true,
          "internalType": "address",
          "name": "previousOwner",
          "type": "address"
        },
        {
          "indexed": true,
          "internalType": "address",
          "name": "newOwner",
          "type": "address"
        }
      ],
      "name": "OwnershipTransferred",
      "type": "event"
    },
    {
      "anonymous": false,
      "inputs": [
        {
          "indexed": false,
          "internalType": "address",
          "name": "collection",
          "type": "address"
        },
        {
          "indexed": false,
          "internalType": "uint256",
          "name": "tokenId",
          "type": "uint256"
        },
        {
          "indexed": false,
          "internalType": "address",
          "name": "paymentToken",
          "type": "address"
        },
        {
          "indexed": false,
          "internalType": "address",
          "name": "collateralToken",
          "type": "address"
        },
        {
          "indexed": false,
          "internalType": "uint256",
          "name": "price",
          "type": "uint256"
        },
        {
          "indexed": false,
          "internalType": "uint256",
          "name": "collateralPercent",
          "type": "uint256"
        },
        {
          "indexed": false,
          "internalType": "uint256",
          "name": "reservePeriod",
          "type": "uint256"
        }
      ],
      "name": "PurchaseReserveProposalCanceled",
      "type": "event"
    },
    {
      "anonymous": false,
      "inputs": [
        {
          "indexed": false,
          "internalType": "address",
          "name": "collection",
          "type": "address"
        },
        {
          "indexed": false,
          "internalType": "uint256",
          "name": "tokenId",
          "type": "uint256"
        },
        {
          "indexed": false,
          "internalType": "address",
          "name": "paymentToken",
          "type": "address"
        },
        {
          "indexed": false,
          "internalType": "address",
          "name": "collateralToken",
          "type": "address"
        },
        {
          "indexed": false,
          "internalType": "uint256",
          "name": "price",
          "type": "uint256"
        },
        {
          "indexed": false,
          "internalType": "uint256",
          "name": "collateralPercent",
          "type": "uint256"
        },
        {
          "indexed": false,
          "internalType": "uint256",
          "name": "reservePeriod",
          "type": "uint256"
        },
        {
          "indexed": false,
          "internalType": "uint256",
          "name": "validityPeriod",
          "type": "uint256"
        }
      ],
      "name": "PurchaseReserveProposed",
      "type": "event"
    },
    {
      "anonymous": false,
      "inputs": [
        {
          "indexed": false,
          "internalType": "address",
          "name": "collection",
          "type": "address"
        },
        {
          "indexed": false,
          "internalType": "uint256",
          "name": "tokenId",
          "type": "uint256"
        },
        {
          "indexed": false,
          "internalType": "address",
          "name": "paymentToken",
          "type": "address"
        },
        {
          "indexed": false,
          "internalType": "address",
          "name": "collateralToken",
          "type": "address"
        },
        {
          "indexed": false,
          "internalType": "uint256",
          "name": "price",
          "type": "uint256"
        },
        {
          "indexed": false,
          "internalType": "uint256",
          "name": "collateralPercent",
          "type": "uint256"
        },
        {
          "indexed": false,
          "internalType": "address",
          "name": "seller",
          "type": "address"
        },
        {
          "indexed": false,
          "internalType": "address",
          "name": "buyer",
          "type": "address"
        },
        {
          "indexed": false,
          "internalType": "uint256",
          "name": "reservePeriod",
          "type": "uint256"
        }
      ],
      "name": "PurchaseReserved",
      "type": "event"
    },
    {
      "anonymous": false,
      "inputs": [
        {
          "indexed": false,
          "internalType": "address",
          "name": "collection",
          "type": "address"
        },
        {
          "indexed": false,
          "internalType": "uint256",
          "name": "tokenId",
          "type": "uint256"
        },
        {
          "indexed": false,
          "internalType": "address",
          "name": "paymentToken",
          "type": "address"
        },
        {
          "indexed": false,
          "internalType": "address",
          "name": "collateralToken",
          "type": "address"
        },
        {
          "indexed": false,
          "internalType": "uint256",
          "name": "price",
          "type": "uint256"
        },
        {
          "indexed": false,
          "internalType": "uint256",
          "name": "collateralPercent",
          "type": "uint256"
        },
        {
          "indexed": false,
          "internalType": "uint256",
          "name": "reservePeriod",
          "type": "uint256"
        }
      ],
      "name": "SaleReserveProposalCanceled",
      "type": "event"
    },
    {
      "anonymous": false,
      "inputs": [
        {
          "indexed": false,
          "internalType": "address",
          "name": "collection",
          "type": "address"
        },
        {
          "indexed": false,
          "internalType": "uint256",
          "name": "tokenId",
          "type": "uint256"
        },
        {
          "indexed": false,
          "internalType": "address",
          "name": "paymentToken",
          "type": "address"
        },
        {
          "indexed": false,
          "internalType": "address",
          "name": "collateralToken",
          "type": "address"
        },
        {
          "indexed": false,
          "internalType": "uint256",
          "name": "price",
          "type": "uint256"
        },
        {
          "indexed": false,
          "internalType": "uint256",
          "name": "collateralPercent",
          "type": "uint256"
        },
        {
          "indexed": false,
          "internalType": "uint256",
          "name": "reservePeriod",
          "type": "uint256"
        },
        {
          "indexed": false,
          "internalType": "uint256",
          "name": "validityPeriod",
          "type": "uint256"
        }
      ],
      "name": "SaleReserveProposed",
      "type": "event"
    },
    {
      "anonymous": false,
      "inputs": [
        {
          "indexed": false,
          "internalType": "address",
          "name": "collection",
          "type": "address"
        },
        {
          "indexed": false,
          "internalType": "uint256",
          "name": "tokenId",
          "type": "uint256"
        },
        {
          "indexed": false,
          "internalType": "address",
          "name": "paymentToken",
          "type": "address"
        },
        {
          "indexed": false,
          "internalType": "address",
          "name": "collateralToken",
          "type": "address"
        },
        {
          "indexed": false,
          "internalType": "uint256",
          "name": "price",
          "type": "uint256"
        },
        {
          "indexed": false,
          "internalType": "uint256",
          "name": "collateralPercent",
          "type": "uint256"
        },
        {
          "indexed": false,
          "internalType": "address",
          "name": "seller",
          "type": "address"
        },
        {
          "indexed": false,
          "internalType": "address",
          "name": "buyer",
          "type": "address"
        },
        {
          "indexed": false,
          "internalType": "uint256",
          "name": "reservePeriod",
          "type": "uint256"
        }
      ],
      "name": "SaleReserved",
      "type": "event"
    },
    {
      "anonymous": false,
      "inputs": [
        {
          "indexed": true,
          "internalType": "address",
          "name": "implementation",
          "type": "address"
        }
      ],
      "name": "Upgraded",
      "type": "event"
    },
    {
      "anonymous": false,
      "inputs": [
        {
          "indexed": true,
          "internalType": "address",
          "name": "token",
          "type": "address"
        }
      ],
      "name": "Whitelist",
      "type": "event"
    },
    {
      "inputs": [
        {
          "internalType": "address",
          "name": "collection_",
          "type": "address"
        },
        {
          "internalType": "uint256",
          "name": "tokenId_",
          "type": "uint256"
        },
        {
          "internalType": "address",
          "name": "paymentToken_",
          "type": "address"
        },
        {
          "internalType": "address",
          "name": "collateralToken_",
          "type": "address"
        },
        {
          "internalType": "uint256",
          "name": "price_",
          "type": "uint256"
        },
        {
          "internalType": "address",
          "name": "beneficiary_",
          "type": "address"
        },
        {
          "internalType": "uint80",
          "name": "collateralPercent_",
          "type": "uint80"
        },
        {
          "internalType": "uint256",
          "name": "collateralInitialAmount_",
          "type": "uint256"
        },
        {
          "internalType": "uint64",
          "name": "reservePeriod_",
          "type": "uint64"
        },
        {
          "internalType": "uint64",
          "name": "validityPeriod_",
          "type": "uint64"
        },
        {
          "internalType": "address",
          "name": "sellerToMatch_",
          "type": "address"
        }
      ],
      "name": "approveReserveToBuy",
      "outputs": [],
      "stateMutability": "nonpayable",
      "type": "function"
    },
    {
      "inputs": [
        {
          "internalType": "address",
          "name": "collection_",
          "type": "address"
        },
        {
          "internalType": "uint256",
          "name": "tokenId_",
          "type": "uint256"
        },
        {
          "internalType": "address",
          "name": "paymentToken_",
          "type": "address"
        },
        {
          "internalType": "address",
          "name": "collateralToken_",
          "type": "address"
        },
        {
          "internalType": "uint256",
          "name": "price_",
          "type": "uint256"
        },
        {
          "internalType": "address",
          "name": "beneficiary_",
          "type": "address"
        },
        {
          "internalType": "uint80",
          "name": "collateralPercent_",
          "type": "uint80"
        },
        {
          "internalType": "uint64",
          "name": "reservePeriod_",
          "type": "uint64"
        },
        {
          "internalType": "uint64",
          "name": "validityPeriod_",
          "type": "uint64"
        },
        {
          "internalType": "address",
          "name": "buyerToMatch_",
          "type": "address"
        }
      ],
      "name": "approveReserveToSell",
      "outputs": [],
      "stateMutability": "nonpayable",
      "type": "function"
    },
    {
      "inputs": [
        {
          "internalType": "address",
          "name": "token_",
          "type": "address"
        }
      ],
      "name": "blacklistToken",
      "outputs": [],
      "stateMutability": "nonpayable",
      "type": "function"
    },
    {
      "inputs": [
        {
          "internalType": "address",
          "name": "collection_",
          "type": "address"
        },
        {
          "internalType": "uint256",
          "name": "tokenId_",
          "type": "uint256"
        },
        {
          "internalType": "address",
          "name": "paymentToken_",
          "type": "address"
        },
        {
          "internalType": "address",
          "name": "collateralToken_",
          "type": "address"
        },
        {
          "internalType": "uint256",
          "name": "price_",
          "type": "uint256"
        },
        {
          "internalType": "uint80",
          "name": "collateralPercent_",
          "type": "uint80"
        },
        {
          "internalType": "uint64",
          "name": "reservePeriod_",
          "type": "uint64"
        },
        {
          "internalType": "address",
          "name": "buyer_",
          "type": "address"
        }
      ],
      "name": "cancelPurchaseReserveProposal",
      "outputs": [],
      "stateMutability": "nonpayable",
      "type": "function"
    },
    {
      "inputs": [
        {
          "internalType": "address",
          "name": "collection_",
          "type": "address"
        },
        {
          "internalType": "uint256",
          "name": "tokenId_",
          "type": "uint256"
        },
        {
          "internalType": "address",
          "name": "paymentToken_",
          "type": "address"
        },
        {
          "internalType": "address",
          "name": "collateralToken_",
          "type": "address"
        },
        {
          "internalType": "uint256",
          "name": "price_",
          "type": "uint256"
        },
        {
          "internalType": "uint80",
          "name": "collateralPercent_",
          "type": "uint80"
        },
        {
          "internalType": "uint64",
          "name": "reservePeriod_",
          "type": "uint64"
        },
        {
          "internalType": "address",
          "name": "owner_",
          "type": "address"
        }
      ],
      "name": "cancelSaleReserveProposal",
      "outputs": [],
      "stateMutability": "nonpayable",
      "type": "function"
    },
    {
      "inputs": [
        {
          "internalType": "address",
          "name": "collection_",
          "type": "address"
        },
        {
          "internalType": "uint256",
          "name": "tokenId_",
          "type": "uint256"
        },
        {
          "internalType": "address",
          "name": "paymentToken_",
          "type": "address"
        },
        {
          "internalType": "address",
          "name": "collateralToken_",
          "type": "address"
        },
        {
          "internalType": "uint256",
          "name": "price_",
          "type": "uint256"
        },
        {
          "internalType": "uint80",
          "name": "collateralPercent_",
          "type": "uint80"
        },
        {
          "internalType": "uint64",
          "name": "reservePeriod_",
          "type": "uint64"
        },
        {
          "internalType": "address",
          "name": "buyer_",
          "type": "address"
        }
      ],
      "name": "getPurchaseReserveProposal",
      "outputs": [
        {
          "components": [
            {
              "internalType": "address",
              "name": "collection",
              "type": "address"
            },
            {
              "internalType": "uint256",
              "name": "tokenId",
              "type": "uint256"
            },
            {
              "internalType": "address",
              "name": "paymentToken",
              "type": "address"
            },
            {
              "internalType": "address",
              "name": "collateralToken",
              "type": "address"
            },
            {
              "internalType": "uint64",
              "name": "expirationTimestamp",
              "type": "uint64"
            },
            {
              "internalType": "uint256",
              "name": "price",
              "type": "uint256"
            },
            {
              "internalType": "uint256",
              "name": "collateralInitialAmount",
              "type": "uint256"
            },
            {
              "internalType": "uint80",
              "name": "collateralPercent",
              "type": "uint80"
            },
            {
              "internalType": "address",
              "name": "buyer",
              "type": "address"
            },
            {
              "internalType": "address",
              "name": "beneficiary",
              "type": "address"
            },
            {
              "internalType": "uint64",
              "name": "reservePeriod",
              "type": "uint64"
            }
          ],
          "internalType": "struct PurchaseReserveProposal",
          "name": "proposal",
          "type": "tuple"
        },
        {
          "internalType": "bytes32",
          "name": "id",
          "type": "bytes32"
        }
      ],
      "stateMutability": "view",
      "type": "function"
    },
    {
      "inputs": [
        {
          "internalType": "bytes32",
          "name": "id_",
          "type": "bytes32"
        }
      ],
      "name": "getPurchaseReserveProposalById",
      "outputs": [
        {
          "components": [
            {
              "internalType": "address",
              "name": "collection",
              "type": "address"
            },
            {
              "internalType": "uint256",
              "name": "tokenId",
              "type": "uint256"
            },
            {
              "internalType": "address",
              "name": "paymentToken",
              "type": "address"
            },
            {
              "internalType": "address",
              "name": "collateralToken",
              "type": "address"
            },
            {
              "internalType": "uint64",
              "name": "expirationTimestamp",
              "type": "uint64"
            },
            {
              "internalType": "uint256",
              "name": "price",
              "type": "uint256"
            },
            {
              "internalType": "uint256",
              "name": "collateralInitialAmount",
              "type": "uint256"
            },
            {
              "internalType": "uint80",
              "name": "collateralPercent",
              "type": "uint80"
            },
            {
              "internalType": "address",
              "name": "buyer",
              "type": "address"
            },
            {
              "internalType": "address",
              "name": "beneficiary",
              "type": "address"
            },
            {
              "internalType": "uint64",
              "name": "reservePeriod",
              "type": "uint64"
            }
          ],
          "internalType": "struct PurchaseReserveProposal",
          "name": "proposal",
          "type": "tuple"
        }
      ],
      "stateMutability": "view",
      "type": "function"
    },
    {
      "inputs": [
        {
          "internalType": "address",
          "name": "collection_",
          "type": "address"
        },
        {
          "internalType": "uint256",
          "name": "tokenId_",
          "type": "uint256"
        },
        {
          "internalType": "address",
          "name": "paymentToken_",
          "type": "address"
        },
        {
          "internalType": "address",
          "name": "collateralToken_",
          "type": "address"
        },
        {
          "internalType": "uint256",
          "name": "price_",
          "type": "uint256"
        },
        {
          "internalType": "uint80",
          "name": "collateralPercent_",
          "type": "uint80"
        },
        {
          "internalType": "uint64",
          "name": "reservePeriod_",
          "type": "uint64"
        },
        {
          "internalType": "address",
          "name": "owner_",
          "type": "address"
        }
      ],
      "name": "getSaleReserveProposal",
      "outputs": [
        {
          "components": [
            {
              "internalType": "address",
              "name": "collection",
              "type": "address"
            },
            {
              "internalType": "uint256",
              "name": "tokenId",
              "type": "uint256"
            },
            {
              "internalType": "address",
              "name": "paymentToken",
              "type": "address"
            },
            {
              "internalType": "address",
              "name": "collateralToken",
              "type": "address"
            },
            {
              "internalType": "uint64",
              "name": "expirationTimestamp",
              "type": "uint64"
            },
            {
              "internalType": "uint256",
              "name": "price",
              "type": "uint256"
            },
            {
              "internalType": "uint80",
              "name": "collateralPercent",
              "type": "uint80"
            },
            {
              "internalType": "address",
              "name": "owner",
              "type": "address"
            },
            {
              "internalType": "address",
              "name": "beneficiary",
              "type": "address"
            },
            {
              "internalType": "uint64",
              "name": "reservePeriod",
              "type": "uint64"
            }
          ],
          "internalType": "struct SaleReserveProposal",
          "name": "proposal",
          "type": "tuple"
        },
        {
          "internalType": "bytes32",
          "name": "id",
          "type": "bytes32"
        }
      ],
      "stateMutability": "view",
      "type": "function"
    },
    {
      "inputs": [
        {
          "internalType": "bytes32",
          "name": "id_",
          "type": "bytes32"
        }
      ],
      "name": "getSaleReserveProposalById",
      "outputs": [
        {
          "components": [
            {
              "internalType": "address",
              "name": "collection",
              "type": "address"
            },
            {
              "internalType": "uint256",
              "name": "tokenId",
              "type": "uint256"
            },
            {
              "internalType": "address",
              "name": "paymentToken",
              "type": "address"
            },
            {
              "internalType": "address",
              "name": "collateralToken",
              "type": "address"
            },
            {
              "internalType": "uint64",
              "name": "expirationTimestamp",
              "type": "uint64"
            },
            {
              "internalType": "uint256",
              "name": "price",
              "type": "uint256"
            },
            {
              "internalType": "uint80",
              "name": "collateralPercent",
              "type": "uint80"
            },
            {
              "internalType": "address",
              "name": "owner",
              "type": "address"
            },
            {
              "internalType": "address",
              "name": "beneficiary",
              "type": "address"
            },
            {
              "internalType": "uint64",
              "name": "reservePeriod",
              "type": "uint64"
            }
          ],
          "internalType": "struct SaleReserveProposal",
          "name": "proposal",
          "type": "tuple"
        }
      ],
      "stateMutability": "view",
      "type": "function"
    },
    {
      "inputs": [
        {
          "internalType": "address",
          "name": "reservesManagerAddress_",
          "type": "address"
        }
      ],
      "name": "initialize",
      "outputs": [],
      "stateMutability": "nonpayable",
      "type": "function"
    },
    {
      "inputs": [],
      "name": "owner",
      "outputs": [
        {
          "internalType": "address",
          "name": "",
          "type": "address"
        }
      ],
      "stateMutability": "view",
      "type": "function"
    },
    {
      "inputs": [],
      "name": "protocol",
      "outputs": [
        {
          "internalType": "contract ProtocolParameters",
          "name": "",
          "type": "address"
        }
      ],
      "stateMutability": "view",
      "type": "function"
    },
    {
      "inputs": [],
      "name": "renounceOwnership",
      "outputs": [],
      "stateMutability": "nonpayable",
      "type": "function"
    },
    {
      "inputs": [],
      "name": "reservesManagerAddress",
      "outputs": [
        {
          "internalType": "address",
          "name": "",
          "type": "address"
        }
      ],
      "stateMutability": "view",
      "type": "function"
    },
    {
      "inputs": [
        {
          "internalType": "address",
          "name": "newOwner",
          "type": "address"
        }
      ],
      "name": "transferOwnership",
      "outputs": [],
      "stateMutability": "nonpayable",
      "type": "function"
    },
    {
      "inputs": [
        {
          "internalType": "address",
          "name": "newImplementation",
          "type": "address"
        }
      ],
      "name": "upgradeTo",
      "outputs": [],
      "stateMutability": "nonpayable",
      "type": "function"
    },
    {
      "inputs": [
        {
          "internalType": "address",
          "name": "newImplementation",
          "type": "address"
        },
        {
          "internalType": "bytes",
          "name": "data",
          "type": "bytes"
        }
      ],
      "name": "upgradeToAndCall",
      "outputs": [],
      "stateMutability": "payable",
      "type": "function"
    },
    {
      "inputs": [
        {
          "internalType": "address",
          "name": "token_",
          "type": "address"
        }
      ],
      "name": "whitelistToken",
      "outputs": [],
      "stateMutability": "nonpayable",
      "type": "function"
    },
    {
      "inputs": [
        {
          "internalType": "address",
          "name": "",
          "type": "address"
        }
      ],
      "name": "whitelistedTokens",
      "outputs": [
        {
          "internalType": "bool",
          "name": "",
          "type": "bool"
        }
      ],
      "stateMutability": "view",
      "type": "function"
    }
  ],
  "bytecode": "0x60c06040523060601b6080523480156200001857600080fd5b5060405162003a4b38038062003a4b8339810160408190526200003b916200010d565b600154610100900460ff168062000055575060015460ff16155b620000bd5760405162461bcd60e51b815260206004820152602e60248201527f496e697469616c697a61626c653a20636f6e747261637420697320616c72656160448201526d191e481a5b9a5d1a585b1a5e995960921b606482015260840160405180910390fd5b600154610100900460ff16158015620000e0576001805461ffff19166101011790555b6001600160601b0319606083901b1660a052801562000105576001805461ff00191690555b50506200013d565b6000602082840312156200011f578081fd5b81516001600160a01b038116811462000136578182fd5b9392505050565b60805160601c60a05160601c6138bf6200018c60003960008181610286015281816105a401526112ab015260008181610df301528181610e3301528181610f150152610f5501526138bf6000f3fe6080604052600436106101145760003560e01c80638b889964116100a0578063b8cfdb5711610064578063b8cfdb571461031e578063c4d66de81461034c578063daf9c2101461036c578063e1254559146103ac578063f2fde38b146103cc57600080fd5b80638b889964146102545780638ce74426146102745780638da5cb5b146102c0578063a20da4d8146102de578063a268c0f3146102fe57600080fd5b80634f1ef286116100e75780634f1ef286146101bf57806357d4aa24146101d25780636247f6f2146101ff578063659bf5ae1461021f578063715018a61461023f57600080fd5b806306e651f6146101195780632a6a54dd1461013b5780633659cfe6146101715780634afbb84d14610191575b600080fd5b34801561012557600080fd5b50610139610134366004612eb3565b6103ec565b005b34801561014757600080fd5b5061015b6101563660046130de565b610ccd565b6040516101689190613644565b60405180910390f35b34801561017d57600080fd5b5061013961018c366004612dbd565b610de8565b34801561019d57600080fd5b506101b16101ac36600461302c565b610eb1565b60405161016892919061367f565b6101396101cd366004612df5565b610f0a565b3480156101de57600080fd5b506101f26101ed3660046130de565b610fc4565b6040516101689190613670565b34801561020b57600080fd5b5061013961021a366004612dbd565b6110d4565b34801561022b57600080fd5b5061013961023a366004612f75565b611107565b34801561024b57600080fd5b50610139611a1e565b34801561026057600080fd5b5061013961026f36600461302c565b611a54565b34801561028057600080fd5b506102a87f000000000000000000000000000000000000000000000000000000000000000081565b6040516001600160a01b039091168152602001610168565b3480156102cc57600080fd5b506098546001600160a01b03166102a8565b3480156102ea57600080fd5b506101396102f936600461302c565b611b79565b34801561030a57600080fd5b5060fc546102a8906001600160a01b031681565b34801561032a57600080fd5b5061033e61033936600461302c565b611c92565b604051610168929190613653565b34801561035857600080fd5b50610139610367366004612dbd565b611cdc565b34801561037857600080fd5b5061039c610387366004612dbd565b60006020819052908152604090205460ff1681565b6040519015158152602001610168565b3480156103b857600080fd5b506101396103c7366004612dbd565b611d7b565b3480156103d857600080fd5b506101396103e7366004612dbd565b611dae565b600260ca5414156104445760405162461bcd60e51b815260206004820152601f60248201527f5265656e7472616e637947756172643a207265656e7472616e742063616c6c0060448201526064015b60405180910390fd5b600260ca556001600160a01b03891660009081526020819052604090205460ff16801561048957506001600160a01b03881660009081526020819052604090205460ff165b6104ca5760405162461bcd60e51b81526020600482015260126024820152712737b716b0b8383937bb32b2103a37b5b2b760711b604482015260640161043b565b6040516370a0823160e01b815233600482015284906001600160a01b038a16906370a082319060240160206040518083038186803b15801561050b57600080fd5b505afa15801561051f573d6000803e3d6000fd5b505050506040513d601f19601f8201168201806040525081019061054391906130f6565b10156105a25760405162461bcd60e51b815260206004820152602860248201527f4e6f7420656e6f7567682062616c616e636520746f2070617920666f7220636f6044820152671b1b185d195c985b60c21b606482015260840161043b565b7f00000000000000000000000000000000000000000000000000000000000000006001600160a01b031663c937f2776040518163ffffffff1660e01b815260040160206040518083038186803b1580156105fb57600080fd5b505afa15801561060f573d6000803e3d6000fd5b505050506040513d601f19601f8201168201806040525081019061063391906130f6565b836001600160401b03161161068a5760405162461bcd60e51b815260206004820152601e60248201527f5265736572766520706572696f64206d75737420626520677265617465720000604482015260640161043b565b60008b8b8b8b8b8a89336040516020016106ab989796959493929190613443565b604051602081830303815290604052805190602001209050600088116107065760405162461bcd60e51b815260206004820152601060248201526f050726963652063616e277420626520360841b604482015260640161043b565b60006107148a8c888c611e46565b9050866001600160501b03168110156107895760405162461bcd60e51b815260206004820152603160248201527f417474656d707420746f2063726561746520616e20756e646572636f6c6c6174604482015270195c985b1a5e9959081c1c9bdc1bdcd85b607a1b606482015260840161043b565b506001600160a01b03821615610aec5760008c8c8c8c8c8b8a896040516020016107ba989796959493929190613443565b60408051601f198184030181529181528151602092830120600081815260fd909352912060040154909150891415610aea57600081815260fd602090815260409182902082516101408101845281546001600160a01b0390811682526001830154938201939093526002820154831693810193909352600381015480831660608501526001600160401b03600160a01b9182900481166080860152600483015460a086015260058301546001600160501b03811660c0870152600160501b9004841660e0860152600690920154808416610100860152041661012083015260fc546108a8918391168961216c565b15610a7f5760fd6000838152602001908152602001600020600080820160006101000a8154906001600160a01b03021916905560018201600090556002820160006101000a8154906001600160a01b0302191690556003820160006101000a8154906001600160a01b0302191690556003820160146101000a8154906001600160401b03021916905560048201600090556005820160006101000a8154906001600160501b03021916905560058201600a6101000a8154906001600160a01b0302191690556006820160006101000a8154906001600160a01b0302191690556006820160146101000a8154906001600160401b030219169055505060fc60009054906101000a90046001600160a01b03166001600160a01b0316633786fddc8f8f8f8f8f8e8e8e8a60e00151336040518b63ffffffff1660e01b81526004016109fa9a99989796959493929190613386565b600060405180830381600087803b158015610a1457600080fd5b505af1158015610a28573d6000803e3d6000fd5b505050507ffb0d484621ff6d31ad720ad8423f43e6366605bf55b35b5c0fbdba25ed1c71618e8e8e8e8e8d8760e00151338e604051610a6f99989796959493929190613324565b60405180910390a1505050610cbb565b600082815260fd6020526040812080546001600160a01b031990811682556001820183905560028201805490911690556003810180546001600160e01b031990811690915560048201929092556005810180546001600160f01b031916905560060180549091169055505b505b6040518061016001604052808d6001600160a01b031681526020018c81526020018b6001600160a01b031681526020018a6001600160a01b03168152602001846001600160401b031642610b40919061369c565b6001600160401b03908116825260208083018c905260408084018a90526001600160501b03808c16606080870191909152336080808801919091526001600160a01b038f811660a0808a01919091528d881660c0998a015260008b815260fe88528690208a5181549084166001600160a01b0319918216178255978b015160018201558a870151600282018054918516919099161790975592890151600387018054938b01518916600160a01b9081026001600160e01b03199586169385169390931792909217905592890151600487015596880151600586015560e08801516006860180546101008b01518a16600160501b026001600160f01b03199091169290951691909117939093179092556101208701516007909401805461014090980151909516029516919093161792909217909155517f3d6e076a735a2a1ee6892ec3e2d6f7f1cc88e63e465b1709d8368f578145a1d590610cb1908e908e908e908e908e908d908c908c9061349b565b60405180910390a1505b5050600160ca55505050505050505050565b610cd5612cda565b600082815260fe6020526040902060040154610d2b5760405162461bcd60e51b8152602060048201526015602482015274139bdb8b595e1a5cdd195b9d081c1c9bdc1bdcd85b605a1b604482015260640161043b565b50600090815260fe602090815260409182902082516101608101845281546001600160a01b0390811682526001830154938201939093526002820154831693810193909352600381015480831660608501526001600160401b03600160a01b9182900481166080860152600483015460a0860152600583015460c086015260068301546001600160501b03811660e0870152600160501b900484166101008601526007909201549283166101208501529091041661014082015290565b306001600160a01b037f0000000000000000000000000000000000000000000000000000000000000000161415610e315760405162461bcd60e51b815260040161043b90613529565b7f00000000000000000000000000000000000000000000000000000000000000006001600160a01b0316610e63612223565b6001600160a01b031614610e895760405162461bcd60e51b815260040161043b90613575565b610e9281612251565b60408051600080825260208201909252610eae9183919061227b565b50565b610eb9612d36565b60008989898989898989604051602001610eda989796959493929190613443565b604051602081830303815290604052805190602001209050610efb81610fc4565b91509850989650505050505050565b306001600160a01b037f0000000000000000000000000000000000000000000000000000000000000000161415610f535760405162461bcd60e51b815260040161043b90613529565b7f00000000000000000000000000000000000000000000000000000000000000006001600160a01b0316610f85612223565b6001600160a01b031614610fab5760405162461bcd60e51b815260040161043b90613575565b610fb482612251565b610fc08282600161227b565b5050565b610fcc612d36565b600082815260fd60205260409020600401546110225760405162461bcd60e51b8152602060048201526015602482015274139bdb8b595e1a5cdd195b9d081c1c9bdc1bdcd85b605a1b604482015260640161043b565b50600090815260fd602090815260409182902082516101408101845281546001600160a01b0390811682526001830154938201939093526002820154831693810193909352600381015480831660608501526001600160401b03600160a01b9182900481166080860152600483015460a086015260058301546001600160501b03811660c0870152600160501b9004841660e08601526006909201549283166101008501529091041661012082015290565b6098546001600160a01b031633146110fe5760405162461bcd60e51b815260040161043b9061360f565b610eae816123c6565b600260ca54141561115a5760405162461bcd60e51b815260206004820152601f60248201527f5265656e7472616e637947756172643a207265656e7472616e742063616c6c00604482015260640161043b565b600260ca556001600160a01b03881660009081526020819052604090205460ff16801561119f57506001600160a01b03871660009081526020819052604090205460ff165b6111e05760405162461bcd60e51b81526020600482015260126024820152712737b716b0b8383937bb32b2103a37b5b2b760711b604482015260640161043b565b6040516331a9108f60e11b8152600481018a905233906001600160a01b038c1690636352211e9060240160206040518083038186803b15801561122257600080fd5b505afa158015611236573d6000803e3d6000fd5b505050506040513d601f19601f8201168201806040525081019061125a9190612dd9565b6001600160a01b0316146112a95760405162461bcd60e51b81526020600482015260166024820152754f6e6c79206f776e65722063616e20617070726f766560501b604482015260640161043b565b7f00000000000000000000000000000000000000000000000000000000000000006001600160a01b031663c937f2776040518163ffffffff1660e01b815260040160206040518083038186803b15801561130257600080fd5b505afa158015611316573d6000803e3d6000fd5b505050506040513d601f19601f8201168201806040525081019061133a91906130f6565b836001600160401b0316116113915760405162461bcd60e51b815260206004820152601e60248201527f5265736572766520706572696f64206d75737420626520677265617465720000604482015260640161043b565b61139d6002600a613717565b6113a89060646137bf565b846001600160501b0316106113ff5760405162461bcd60e51b815260206004820152601a60248201527f496e76616c696420636f6c6c61746572616c2070657263656e74000000000000604482015260640161043b565b60008a8a8a8a8a898933604051602001611420989796959493929190613443565b60408051601f19818403018152919052805160209091012090506001600160a01b0382161561184e5760008b8b8b8b8b8a8a8960405160200161146a989796959493929190613443565b60408051601f198184030181529181528151602092830120600081815260fe90935291206004015490915088141561184c57600081815260fe6020908152604080832081516101608101835281546001600160a01b0390811682526001830154948201949094526002820154841692810192909252600381015480841660608401526001600160401b03600160a01b9182900481166080850152600483015460a0850152600583015460c0850181905260068401546001600160501b03811660e0870152600160501b9004861661010086015260079093015494851661012085015293049092166101408201529190611567908c908e908d611e46565b9050876001600160501b03168110156115dc5760405162461bcd60e51b815260206004820152603160248201527f417474656d707420746f2061636365707420616e20756e646572636f6c6c6174604482015270195c985b1a5e9959081c1c9bdc1bdcd85b607a1b606482015260840161043b565b60fc546115f39083906001600160a01b0316612412565b156117d95760fe6000848152602001908152602001600020600080820160006101000a8154906001600160a01b03021916905560018201600090556002820160006101000a8154906001600160a01b0302191690556003820160006101000a8154906001600160a01b0302191690556003820160146101000a8154906001600160401b030219169055600482016000905560058201600090556006820160006101000a8154906001600160501b03021916905560068201600a6101000a8154906001600160a01b0302191690556007820160006101000a8154906001600160a01b0302191690556007820160146101000a8154906001600160401b030219169055505060fc60009054906101000a90046001600160a01b03166001600160a01b0316633786fddc8f8f8f8f8f8e8960c001518f338c61010001516040518b63ffffffff1660e01b81526004016117529a99989796959493929190613386565b600060405180830381600087803b15801561176c57600080fd5b505af1158015611780573d6000803e3d6000fd5b505050507fa05b89bd228f56f4e630122a64ee757db436b21e9b163a57f670464a6d8ea2a18e8e8e8e8e8d338961010001518f6040516117c899989796959493929190613324565b60405180910390a150505050611a0d565b600084815260fe6020526040812080546001600160a01b031990811682556001820183905560028201805490911690556003810180546001600160e01b03199081169091556004820183905560058201929092556006810180546001600160f01b03191690556007018054909116905550505b505b6040518061014001604052808c6001600160a01b031681526020018b81526020018a6001600160a01b03168152602001896001600160a01b03168152602001846001600160401b0316426118a2919061369c565b6001600160401b03908116825260208083018b90526001600160501b03808a16604080860191909152336060808701919091526001600160a01b038d81166080808901919091528c871660a09889015260008a815260fd8752849020895181549084166001600160a01b0319918216178255968a0151600182015589850151600282018054918516919098161790965591880151600386018054938a01518816600160a01b9081026001600160e01b03199586169385169390931792909217905596880151600486015560c088015160058601805460e08b01518416600160501b026001600160f01b031990911692909616919091179490941790935561010087015160069094018054610120909801519095169095029590941691161792909217909155517f047873a1db8d3a30a55350922a73dd8a14529baed0862c1c5df0bf12bbeefa2d90611a03908d908d908d908d908d908c908c908c9061349b565b60405180910390a1505b5050600160ca555050505050505050565b6098546001600160a01b03163314611a485760405162461bcd60e51b815260040161043b9061360f565b611a526000612547565b565b600080611a678a8a8a8a8a8a8a8a610eb1565b60e082015191935091506001600160a01b03163314611ac05760405162461bcd60e51b815260206004820152601560248201527413db9b1e481bdddb995c8818d85b8818d85b98d95b605a1b604482015260640161043b565b600081815260fd602052604080822080546001600160a01b031990811682556001820184905560028201805490911690556003810180546001600160e01b031990811690915560048201939093556005810180546001600160f01b03191690556006018054909216909155517f8ffaff23774f3c99bfc375c122eb97482e93c5972ecc34f2a15dbd352221803590611b65908c908c908c908c908c908c908c906133ef565b60405180910390a150505050505050505050565b600080611b8c8a8a8a8a8a8a8a8a611c92565b61010082015191935091506001600160a01b03163314611be65760405162461bcd60e51b815260206004820152601560248201527413db9b1e48189d5e595c8818d85b8818d85b98d95b605a1b604482015260640161043b565b600081815260fe602052604080822080546001600160a01b031990811682556001820184905560028201805490911690556003810180546001600160e01b03199081169091556004820184905560058201939093556006810180546001600160f01b03191690556007018054909216909155517f72caf11025606064013858acc2a37975496ba2c6584cfb8633bab443dea46da790611b65908c908c908c908c908c908c908c906133ef565b611c9a612cda565b60008989898989898989604051602001611cbb989796959493929190613443565b604051602081830303815290604052805190602001209050610efb81610ccd565b600154610100900460ff1680611cf5575060015460ff16155b611d115760405162461bcd60e51b815260040161043b906135c1565b600154610100900460ff16158015611d33576001805461ffff19166101011790555b60fc80546001600160a01b0319166001600160a01b038416179055611d56612599565b611d5e612614565b611d6661267b565b8015610fc0576001805461ff00191690555050565b6098546001600160a01b03163314611da55760405162461bcd60e51b815260040161043b9061360f565b610eae816126da565b6098546001600160a01b03163314611dd85760405162461bcd60e51b815260040161043b9061360f565b6001600160a01b038116611e3d5760405162461bcd60e51b815260206004820152602660248201527f4f776e61626c653a206e6577206f776e657220697320746865207a65726f206160448201526564647265737360d01b606482015260840161043b565b610eae81612547565b60008060fc60009054906101000a90046001600160a01b03166001600160a01b0316632630c12f6040518163ffffffff1660e01b815260040160206040518083038186803b158015611e9757600080fd5b505afa158015611eab573d6000803e3d6000fd5b505050506040513d601f19601f82011682018060405250810190611ecf9190612dd9565b90506000866001600160a01b031663313ce5676040518163ffffffff1660e01b815260040160206040518083038186803b158015611f0c57600080fd5b505afa158015611f20573d6000803e3d6000fd5b505050506040513d601f19601f82011682018060405250810190611f44919061310e565b60ff1690506000866001600160a01b031663313ce5676040518163ffffffff1660e01b815260040160206040518083038186803b158015611f8457600080fd5b505afa158015611f98573d6000803e3d6000fd5b505050506040513d601f19601f82011682018060405250810190611fbc919061310e565b6040516315d5220f60e31b81526001600160a01b038a8116600483015260ff92909216925060009185169063aea910789060240160206040518083038186803b15801561200857600080fd5b505afa15801561201c573d6000803e3d6000fd5b505050506040513d601f19601f8201168201806040525081019061204091906130f6565b6040516315d5220f60e31b81526001600160a01b038a8116600483015291925060009186169063aea910789060240160206040518083038186803b15801561208757600080fd5b505afa15801561209b573d6000803e3d6000fd5b505050506040513d601f19601f820116820180604052508101906120bf91906130f6565b905060006120cd838a6137bf565b905060006120db838a6137bf565b905060008587111561210d576120f186886137de565b6120fc90600a613717565b61210690846136b4565b905061212f565b61211787876137de565b61212290600a613717565b61212c90846137bf565b90505b8161213c6002600a613717565b6121478360646137bf565b61215191906137bf565b61215b91906136b4565b9d9c50505050505050505050505050565b600083608001516001600160401b031642111561218b5750600061221c565b835160e085015160208601516040516323b872dd60e01b81526001600160a01b03909316926323b872dd926121c7929091889190600401613300565b600060405180830381600087803b1580156121e157600080fd5b505af19250505080156121f2575060015b6121fe5750600061221c565b6060840151612218906001600160a01b0316338585612723565b5060015b9392505050565b7f360894a13ba1a3210667c828492db98dca3e2076cc3735a920a3ca505d382bbc546001600160a01b031690565b6098546001600160a01b03163314610eae5760405162461bcd60e51b815260040161043b9061360f565b6000612285612223565b905061229084612781565b60008351118061229d5750815b156122ae576122ac8484612826565b505b7f4910fdfa16fed3260ed0e7147f7cc6da11a60208b5b9406d12a635614ffd9143805460ff166123bf57805460ff191660011781556040516001600160a01b038316602482015261232d90869060440160408051601f198184030181529190526020810180516001600160e01b0316631b2ce7f360e11b179052612826565b50805460ff1916815561233e612223565b6001600160a01b0316826001600160a01b0316146123b65760405162461bcd60e51b815260206004820152602f60248201527f45524331393637557067726164653a207570677261646520627265616b73206660448201526e75727468657220757067726164657360881b606482015260840161043b565b6123bf85612911565b5050505050565b6001600160a01b038116600081815260208190526040808220805460ff19166001179055517feb73900b98b6a3e2b8b01708fe544760cf570d21e7fbe5225f24e48b5b2b432e9190a250565b600082608001516001600160401b031642111561243157506000612541565b82606001516001600160a01b03166323b872dd846101000151848660c001516040518463ffffffff1660e01b815260040161246e93929190613300565b602060405180830381600087803b15801561248857600080fd5b505af19250505080156124b8575060408051601f3d908101601f191682019092526124b5918101906130be565b60015b6124c457506000612541565b806124d3576000915050612541565b50825160208401516040516323b872dd60e01b81526001600160a01b03909216916323b872dd9161250a9133918791600401613300565b600060405180830381600087803b15801561252457600080fd5b505af1158015612538573d6000803e3d6000fd5b50505050600190505b92915050565b609880546001600160a01b038381166001600160a01b0319831681179093556040519116919082907f8be0079c531659141344cd1fd0a4f28419497f9722a3daafe3b4186f6b6457e090600090a35050565b600154610100900460ff16806125b2575060015460ff16155b6125ce5760405162461bcd60e51b815260040161043b906135c1565b600154610100900460ff161580156125f0576001805461ffff19166101011790555b6125f8612951565b6126006129bb565b8015610eae576001805461ff001916905550565b600154610100900460ff168061262d575060015460ff16155b6126495760405162461bcd60e51b815260040161043b906135c1565b600154610100900460ff1615801561266b576001805461ffff19166101011790555b612673612951565b612600612951565b600154610100900460ff1680612694575060015460ff16155b6126b05760405162461bcd60e51b815260040161043b906135c1565b600154610100900460ff161580156126d2576001805461ffff19166101011790555b612600612a1b565b6001600160a01b038116600081815260208190526040808220805460ff19169055517f7811ed4e4b787e4f0f046ffb4a5ec1e064b0eb6d191ffabb66270ed8be89b3259190a250565b61277b846323b872dd60e01b85858560405160240161274493929190613300565b60408051601f198184030181529190526020810180516001600160e01b03166001600160e01b031990931692909217909152612a8b565b50505050565b803b6127e55760405162461bcd60e51b815260206004820152602d60248201527f455243313936373a206e657720696d706c656d656e746174696f6e206973206e60448201526c1bdd08184818dbdb9d1c9858dd609a1b606482015260840161043b565b7f360894a13ba1a3210667c828492db98dca3e2076cc3735a920a3ca505d382bbc80546001600160a01b0319166001600160a01b0392909216919091179055565b6060823b6128855760405162461bcd60e51b815260206004820152602660248201527f416464726573733a2064656c65676174652063616c6c20746f206e6f6e2d636f6044820152651b9d1c9858dd60d21b606482015260840161043b565b600080846001600160a01b0316846040516128a091906132e4565b600060405180830381855af49150503d80600081146128db576040519150601f19603f3d011682016040523d82523d6000602084013e6128e0565b606091505b5091509150612908828260405180606001604052806027815260200161386360279139612b62565b95945050505050565b61291a81612781565b6040516001600160a01b038216907fbc7cd75a20ee27fd9adebab32041f755214dbc6bffa90cc0225b39da2e5c2d3b90600090a250565b600154610100900460ff168061296a575060015460ff16155b6129865760405162461bcd60e51b815260040161043b906135c1565b600154610100900460ff16158015612600576001805461ffff19166101011790558015610eae576001805461ff001916905550565b600154610100900460ff16806129d4575060015460ff16155b6129f05760405162461bcd60e51b815260040161043b906135c1565b600154610100900460ff16158015612a12576001805461ffff19166101011790555b61260033612547565b600154610100900460ff1680612a34575060015460ff16155b612a505760405162461bcd60e51b815260040161043b906135c1565b600154610100900460ff16158015612a72576001805461ffff19166101011790555b600160ca558015610eae576001805461ff001916905550565b6000612ae0826040518060400160405280602081526020017f5361666545524332303a206c6f772d6c6576656c2063616c6c206661696c6564815250856001600160a01b0316612b9b9092919063ffffffff16565b805190915015612b5d5780806020019051810190612afe91906130be565b612b5d5760405162461bcd60e51b815260206004820152602a60248201527f5361666545524332303a204552433230206f7065726174696f6e20646964206e6044820152691bdd081cdd58d8d9595960b21b606482015260840161043b565b505050565b60608315612b7157508161221c565b825115612b815782518084602001fd5b8160405162461bcd60e51b815260040161043b91906134f6565b6060612baa8484600085612bb2565b949350505050565b606082471015612c135760405162461bcd60e51b815260206004820152602660248201527f416464726573733a20696e73756666696369656e742062616c616e636520666f6044820152651c8818d85b1b60d21b606482015260840161043b565b843b612c615760405162461bcd60e51b815260206004820152601d60248201527f416464726573733a2063616c6c20746f206e6f6e2d636f6e7472616374000000604482015260640161043b565b600080866001600160a01b03168587604051612c7d91906132e4565b60006040518083038185875af1925050503d8060008114612cba576040519150601f19603f3d011682016040523d82523d6000602084013e612cbf565b606091505b5091509150612ccf828286612b62565b979650505050505050565b6040805161016081018252600080825260208201819052918101829052606081018290526080810182905260a0810182905260c0810182905260e081018290526101008101829052610120810182905261014081019190915290565b6040805161014081018252600080825260208201819052918101829052606081018290526080810182905260a0810182905260c0810182905260e08101829052610100810182905261012081019190915290565b80356001600160401b0381168114612da157600080fd5b919050565b80356001600160501b0381168114612da157600080fd5b600060208284031215612dce578081fd5b813561221c8161384d565b600060208284031215612dea578081fd5b815161221c8161384d565b60008060408385031215612e07578081fd5b8235612e128161384d565b915060208301356001600160401b0380821115612e2d578283fd5b818501915085601f830112612e40578283fd5b813581811115612e5257612e52613837565b604051601f8201601f19908116603f01168101908382118183101715612e7a57612e7a613837565b81604052828152886020848701011115612e92578586fd5b82602086016020830137856020848301015280955050505050509250929050565b60008060008060008060008060008060006101608c8e031215612ed4578687fd5b8b35612edf8161384d565b9a5060208c0135995060408c0135612ef68161384d565b985060608c0135612f068161384d565b975060808c0135965060a08c0135612f1d8161384d565b9550612f2b60c08d01612da6565b945060e08c01359350612f416101008d01612d8a565b9250612f506101208d01612d8a565b91506101408c0135612f618161384d565b809150509295989b509295989b9093969950565b6000806000806000806000806000806101408b8d031215612f94578586fd5b8a35612f9f8161384d565b995060208b0135985060408b0135612fb68161384d565b975060608b0135612fc68161384d565b965060808b0135955060a08b0135612fdd8161384d565b9450612feb60c08c01612da6565b9350612ff960e08c01612d8a565b92506130086101008c01612d8a565b91506101208b01356130198161384d565b809150509295989b9194979a5092959850565b600080600080600080600080610100898b031215613048578384fd5b88356130538161384d565b975060208901359650604089013561306a8161384d565b9550606089013561307a8161384d565b94506080890135935061308f60a08a01612da6565b925061309d60c08a01612d8a565b915060e08901356130ad8161384d565b809150509295985092959890939650565b6000602082840312156130cf578081fd5b8151801515811461221c578182fd5b6000602082840312156130ef578081fd5b5035919050565b600060208284031215613107578081fd5b5051919050565b60006020828403121561311f578081fd5b815160ff8116811461221c578182fd5b80516001600160a01b0316825260208101516020830152604081015161316060408401826001600160a01b03169052565b50606081015161317b60608401826001600160a01b03169052565b50608081015161319660808401826001600160401b03169052565b5060a081015160a083015260c081015160c083015260e08101516131c560e08401826001600160501b03169052565b50610100818101516001600160a01b038116848301525050610120818101516001600160a01b038116848301525050610140818101516001600160401b0381168483015261277b565b80516001600160a01b0316825260208101516020830152604081015161323f60408401826001600160a01b03169052565b50606081015161325a60608401826001600160a01b03169052565b50608081015161327560808401826001600160401b03169052565b5060a081015160a083015260c081015161329a60c08401826001600160501b03169052565b5060e08101516132b560e08401826001600160a01b03169052565b50610100818101516001600160a01b031690830152610120808201516001600160401b0381168285015261277b565b600082516132f68184602087016137f5565b9190910192915050565b6001600160a01b039384168152919092166020820152604081019190915260600190565b6001600160a01b03998a16815260208101989098529588166040880152938716606087015260808601929092526001600160501b031660a0850152841660c084015290921660e08201526001600160401b039091166101008201526101200190565b6001600160a01b039a8b16815260208101999099529689166040890152948816606088015260808701939093526001600160501b039190911660a086015260c08501526001600160401b031660e084015283166101008301529091166101208201526101400190565b6001600160a01b0397881681526020810196909652938616604086015291909416606084015260808301939093526001600160501b0390921660a08201526001600160401b0390911660c082015260e00190565b6001600160a01b03988916815260208101979097529487166040870152928616606086015260808501919091526001600160501b031660a08401526001600160401b031660c083015290911660e08201526101000190565b6001600160a01b0398891681526020810197909752948716604087015292909516606085015260808401526001600160501b039390931660a08301526001600160401b0392831660c083015290911660e08201526101000190565b60208152600082518060208401526135158160408501602087016137f5565b601f01601f19169190910160400192915050565b6020808252602c908201527f46756e6374696f6e206d7573742062652063616c6c6564207468726f7567682060408201526b19195b1959d85d1958d85b1b60a21b606082015260800190565b6020808252602c908201527f46756e6374696f6e206d7573742062652063616c6c6564207468726f7567682060408201526b6163746976652070726f787960a01b606082015260800190565b6020808252602e908201527f496e697469616c697a61626c653a20636f6e747261637420697320616c72656160408201526d191e481a5b9a5d1a585b1a5e995960921b606082015260800190565b6020808252818101527f4f776e61626c653a2063616c6c6572206973206e6f7420746865206f776e6572604082015260600190565b6101608101612541828461312f565b6101808101613662828561312f565b826101608301529392505050565b6101408101612541828461320e565b610160810161368e828561320e565b826101408301529392505050565b600082198211156136af576136af613821565b500190565b6000826136cf57634e487b7160e01b81526012600452602481fd5b500490565b600181815b8085111561370f5781600019048211156136f5576136f5613821565b8085161561370257918102915b93841c93908002906136d9565b509250929050565b600061221c838360008261372d57506001612541565b8161373a57506000612541565b8160018114613750576002811461375a57613776565b6001915050612541565b60ff84111561376b5761376b613821565b50506001821b612541565b5060208310610133831016604e8410600b8410161715613799575081810a612541565b6137a383836136d4565b80600019048211156137b7576137b7613821565b029392505050565b60008160001904831182151516156137d9576137d9613821565b500290565b6000828210156137f0576137f0613821565b500390565b60005b838110156138105781810151838201526020016137f8565b8381111561277b5750506000910152565b634e487b7160e01b600052601160045260246000fd5b634e487b7160e01b600052604160045260246000fd5b6001600160a01b0381168114610eae57600080fdfe416464726573733a206c6f772d6c6576656c2064656c65676174652063616c6c206661696c6564a2646970667358221220cf3e63e294142e4421e5611dab65ee799e3896ca218406bc9e9956e07fa9c90d64736f6c63430008040033",
  "linkReferences": {},
  "deployedLinkReferences": {}
}