{
  "_format": "hh-sol-artifact-1",
  "contractName": "ReservesManager",
  "sourceName": "contracts/ReservesManager.sol",
  "abi": [
    {
      "inputs": [
        {
          "internalType": "address",
          "name": "marketplace_",
          "type": "address"
        },
        {
          "internalType": "address",
          "name": "protocolParameters_",
          "type": "address"
        }
      ],
      "stateMutability": "nonpayable",
      "type": "constructor"
    },
    {
      "anonymous": false,
      "inputs": [
        {
          "indexed": false,
          "internalType": "address",
          "name": "previousAdmin",
          "type": "address"
        },
        {
          "indexed": false,
          "internalType": "address",
          "name": "newAdmin",
          "type": "address"
        }
      ],
      "name": "AdminChanged",
      "type": "event"
    },
    {
      "anonymous": false,
      "inputs": [
        {
          "indexed": true,
          "internalType": "address",
          "name": "beacon",
          "type": "address"
        }
      ],
      "name": "BeaconUpgraded",
      "type": "event"
    },
    {
      "anonymous": false,
      "inputs": [
        {
          "indexed": false,
          "internalType": "address",
          "name": "collection",
          "type": "address"
        },
        {
          "indexed": false,
          "internalType": "uint256",
          "name": "tokenId",
          "type": "uint256"
        },
        {
          "indexed": false,
          "internalType": "address",
          "name": "paymentToken",
          "type": "address"
        },
        {
          "indexed": false,
          "internalType": "address",
          "name": "collateralToken",
          "type": "address"
        },
        {
          "indexed": false,
          "internalType": "uint256",
          "name": "price",
          "type": "uint256"
        },
        {
          "indexed": false,
          "internalType": "uint256",
          "name": "collateralPercent",
          "type": "uint256"
        },
        {
          "indexed": false,
          "internalType": "address",
          "name": "seller",
          "type": "address"
        },
        {
          "indexed": false,
          "internalType": "address",
          "name": "buyer",
          "type": "address"
        }
      ],
      "name": "CollateralClaimed",
      "type": "event"
    },
    {
      "anonymous": false,
      "inputs": [
        {
          "indexed": false,
          "internalType": "bytes32",
          "name": "reserveId",
          "type": "bytes32"
        },
        {
          "indexed": false,
          "internalType": "uint256",
          "name": "amount",
          "type": "uint256"
        }
      ],
      "name": "CollateralDecreased",
      "type": "event"
    },
    {
      "anonymous": false,
      "inputs": [
        {
          "indexed": false,
          "internalType": "bytes32",
          "name": "reserveId",
          "type": "bytes32"
        },
        {
          "indexed": false,
          "internalType": "uint256",
          "name": "amount",
          "type": "uint256"
        }
      ],
      "name": "CollateralIncreased",
      "type": "event"
    },
    {
      "anonymous": false,
      "inputs": [
        {
          "indexed": true,
          "internalType": "address",
          "name": "previousOwner",
          "type": "address"
        },
        {
          "indexed": true,
          "internalType": "address",
          "name": "newOwner",
          "type": "address"
        }
      ],
      "name": "OwnershipTransferred",
      "type": "event"
    },
    {
      "anonymous": false,
      "inputs": [
        {
          "indexed": false,
          "internalType": "address",
          "name": "collection",
          "type": "address"
        },
        {
          "indexed": false,
          "internalType": "uint256",
          "name": "tokenId",
          "type": "uint256"
        },
        {
          "indexed": false,
          "internalType": "address",
          "name": "paymentToken",
          "type": "address"
        },
        {
          "indexed": false,
          "internalType": "address",
          "name": "collateralToken",
          "type": "address"
        },
        {
          "indexed": false,
          "internalType": "uint256",
          "name": "price",
          "type": "uint256"
        },
        {
          "indexed": false,
          "internalType": "uint256",
          "name": "collateralPercent",
          "type": "uint256"
        },
        {
          "indexed": false,
          "internalType": "address",
          "name": "seller",
          "type": "address"
        },
        {
          "indexed": false,
          "internalType": "address",
          "name": "buyer",
          "type": "address"
        }
      ],
      "name": "PurchaseCanceled",
      "type": "event"
    },
    {
      "anonymous": false,
      "inputs": [
        {
          "indexed": false,
          "internalType": "address",
          "name": "collection",
          "type": "address"
        },
        {
          "indexed": false,
          "internalType": "uint256",
          "name": "tokenId",
          "type": "uint256"
        },
        {
          "indexed": false,
          "internalType": "address",
          "name": "paymentToken",
          "type": "address"
        },
        {
          "indexed": false,
          "internalType": "address",
          "name": "collateralToken",
          "type": "address"
        },
        {
          "indexed": false,
          "internalType": "uint256",
          "name": "price",
          "type": "uint256"
        },
        {
          "indexed": false,
          "internalType": "uint256",
          "name": "collateralPercent",
          "type": "uint256"
        },
        {
          "indexed": false,
          "internalType": "address",
          "name": "seller",
          "type": "address"
        },
        {
          "indexed": false,
          "internalType": "address",
          "name": "buyer",
          "type": "address"
        }
      ],
      "name": "PurchaseExecuted",
      "type": "event"
    },
    {
      "anonymous": false,
      "inputs": [
        {
          "indexed": false,
          "internalType": "address",
          "name": "collection",
          "type": "address"
        },
        {
          "indexed": false,
          "internalType": "uint256",
          "name": "tokenId",
          "type": "uint256"
        },
        {
          "indexed": false,
          "internalType": "address",
          "name": "paymentToken",
          "type": "address"
        },
        {
          "indexed": false,
          "internalType": "address",
          "name": "collateralToken",
          "type": "address"
        },
        {
          "indexed": false,
          "internalType": "uint256",
          "name": "price",
          "type": "uint256"
        },
        {
          "indexed": false,
          "internalType": "uint256",
          "name": "collateralPercent",
          "type": "uint256"
        },
        {
          "indexed": false,
          "internalType": "address",
          "name": "seller",
          "type": "address"
        },
        {
          "indexed": false,
          "internalType": "address",
          "name": "buyer",
          "type": "address"
        },
        {
          "indexed": false,
          "internalType": "address",
          "name": "executor",
          "type": "address"
        }
      ],
      "name": "ReserveCanceled",
      "type": "event"
    },
    {
      "anonymous": false,
      "inputs": [
        {
          "indexed": false,
          "internalType": "address",
          "name": "collection",
          "type": "address"
        },
        {
          "indexed": false,
          "internalType": "uint256",
          "name": "tokenId",
          "type": "uint256"
        },
        {
          "indexed": false,
          "internalType": "address",
          "name": "paymentToken",
          "type": "address"
        },
        {
          "indexed": false,
          "internalType": "address",
          "name": "collateralToken",
          "type": "address"
        },
        {
          "indexed": false,
          "internalType": "uint256",
          "name": "price",
          "type": "uint256"
        },
        {
          "indexed": false,
          "internalType": "uint256",
          "name": "collateralPercent",
          "type": "uint256"
        },
        {
          "indexed": false,
          "internalType": "address",
          "name": "seller",
          "type": "address"
        },
        {
          "indexed": false,
          "internalType": "address",
          "name": "buyer",
          "type": "address"
        }
      ],
      "name": "ReservePricePaid",
      "type": "event"
    },
    {
      "anonymous": false,
      "inputs": [
        {
          "indexed": true,
          "internalType": "address",
          "name": "implementation",
          "type": "address"
        }
      ],
      "name": "Upgraded",
      "type": "event"
    },
    {
      "inputs": [
        {
          "internalType": "bytes32",
          "name": "",
          "type": "bytes32"
        }
      ],
      "name": "activeReserves",
      "outputs": [
        {
          "internalType": "address",
          "name": "collection",
          "type": "address"
        },
        {
          "internalType": "uint256",
          "name": "tokenId",
          "type": "uint256"
        },
        {
          "internalType": "uint64",
          "name": "reservePeriod",
          "type": "uint64"
        },
        {
          "internalType": "address",
          "name": "seller",
          "type": "address"
        },
        {
          "internalType": "uint64",
          "name": "activationTimestamp",
          "type": "uint64"
        },
        {
          "internalType": "address",
          "name": "buyer",
          "type": "address"
        },
        {
          "internalType": "address",
          "name": "paymentToken",
          "type": "address"
        },
        {
          "internalType": "address",
          "name": "collateralToken",
          "type": "address"
        },
        {
          "internalType": "uint80",
          "name": "collateralPercent",
          "type": "uint80"
        },
        {
          "internalType": "uint256",
          "name": "price",
          "type": "uint256"
        }
      ],
      "stateMutability": "view",
      "type": "function"
    },
    {
      "inputs": [
        {
          "internalType": "bytes32",
          "name": "activeReserveId_",
          "type": "bytes32"
        }
      ],
      "name": "cancelReserve",
      "outputs": [],
      "stateMutability": "nonpayable",
      "type": "function"
    },
    {
      "inputs": [
        {
          "internalType": "bytes32",
          "name": "activeReserveId_",
          "type": "bytes32"
        },
        {
          "internalType": "uint256",
          "name": "amount_",
          "type": "uint256"
        }
      ],
      "name": "decreaseReserveCollateral",
      "outputs": [],
      "stateMutability": "nonpayable",
      "type": "function"
    },
    {
      "inputs": [
        {
          "internalType": "bytes32",
          "name": "activeReserveId_",
          "type": "bytes32"
        },
        {
          "internalType": "uint256",
          "name": "amount_",
          "type": "uint256"
        }
      ],
      "name": "increaseReserveCollateral",
      "outputs": [],
      "stateMutability": "nonpayable",
      "type": "function"
    },
    {
      "inputs": [
        {
          "internalType": "address",
          "name": "priceOracle_",
          "type": "address"
        }
      ],
      "name": "initialize",
      "outputs": [],
      "stateMutability": "nonpayable",
      "type": "function"
    },
    {
      "inputs": [
        {
          "internalType": "bytes32",
          "name": "activeReserveId_",
          "type": "bytes32"
        }
      ],
      "name": "isUndercollateralized",
      "outputs": [
        {
          "internalType": "bool",
          "name": "undercollateralized",
          "type": "bool"
        }
      ],
      "stateMutability": "view",
      "type": "function"
    },
    {
      "inputs": [
        {
          "internalType": "bytes32",
          "name": "activeReserveId_",
          "type": "bytes32"
        }
      ],
      "name": "liquidateReserve",
      "outputs": [],
      "stateMutability": "nonpayable",
      "type": "function"
    },
    {
      "inputs": [
        {
          "internalType": "bytes32",
          "name": "activeReserveId_",
          "type": "bytes32"
        }
      ],
      "name": "liquidateUndercollateralization",
      "outputs": [],
      "stateMutability": "nonpayable",
      "type": "function"
    },
    {
      "inputs": [],
      "name": "marketplace",
      "outputs": [
        {
          "internalType": "contract ReserveMarketplace",
          "name": "",
          "type": "address"
        }
      ],
      "stateMutability": "view",
      "type": "function"
    },
    {
      "inputs": [],
      "name": "owner",
      "outputs": [
        {
          "internalType": "address",
          "name": "",
          "type": "address"
        }
      ],
      "stateMutability": "view",
      "type": "function"
    },
    {
      "inputs": [
        {
          "internalType": "bytes32",
          "name": "activeReserveId_",
          "type": "bytes32"
        }
      ],
      "name": "payThePrice",
      "outputs": [],
      "stateMutability": "nonpayable",
      "type": "function"
    },
    {
      "inputs": [],
      "name": "priceOracle",
      "outputs": [
        {
          "internalType": "contract IPriceOracle",
          "name": "",
          "type": "address"
        }
      ],
      "stateMutability": "view",
      "type": "function"
    },
    {
      "inputs": [],
      "name": "protocol",
      "outputs": [
        {
          "internalType": "contract ProtocolParameters",
          "name": "",
          "type": "address"
        }
      ],
      "stateMutability": "view",
      "type": "function"
    },
    {
      "inputs": [],
      "name": "renounceOwnership",
      "outputs": [],
      "stateMutability": "nonpayable",
      "type": "function"
    },
    {
      "inputs": [
        {
          "internalType": "bytes32",
          "name": "",
          "type": "bytes32"
        }
      ],
      "name": "reserveAmounts",
      "outputs": [
        {
          "internalType": "uint256",
          "name": "collateral",
          "type": "uint256"
        },
        {
          "internalType": "uint256",
          "name": "payment",
          "type": "uint256"
        }
      ],
      "stateMutability": "view",
      "type": "function"
    },
    {
      "inputs": [
        {
          "internalType": "address",
          "name": "collection_",
          "type": "address"
        },
        {
          "internalType": "uint256",
          "name": "tokenId_",
          "type": "uint256"
        },
        {
          "internalType": "address",
          "name": "paymentToken_",
          "type": "address"
        },
        {
          "internalType": "address",
          "name": "collateralToken_",
          "type": "address"
        },
        {
          "internalType": "uint256",
          "name": "price_",
          "type": "uint256"
        },
        {
          "internalType": "uint80",
          "name": "collateralPercent_",
          "type": "uint80"
        },
        {
          "internalType": "uint256",
          "name": "collateralInitialAmount_",
          "type": "uint256"
        },
        {
          "internalType": "uint64",
          "name": "reservePeriod_",
          "type": "uint64"
        },
        {
          "internalType": "address",
          "name": "seller_",
          "type": "address"
        },
        {
          "internalType": "address",
          "name": "buyer_",
          "type": "address"
        }
      ],
      "name": "startReserve",
      "outputs": [],
      "stateMutability": "nonpayable",
      "type": "function"
    },
    {
      "inputs": [
        {
          "internalType": "address",
          "name": "newOwner",
          "type": "address"
        }
      ],
      "name": "transferOwnership",
      "outputs": [],
      "stateMutability": "nonpayable",
      "type": "function"
    },
    {
      "inputs": [
        {
          "internalType": "address",
          "name": "newImplementation",
          "type": "address"
        }
      ],
      "name": "upgradeTo",
      "outputs": [],
      "stateMutability": "nonpayable",
      "type": "function"
    },
    {
      "inputs": [
        {
          "internalType": "address",
          "name": "newImplementation",
          "type": "address"
        },
        {
          "internalType": "bytes",
          "name": "data",
          "type": "bytes"
        }
      ],
      "name": "upgradeToAndCall",
      "outputs": [],
      "stateMutability": "payable",
      "type": "function"
    }
  ],
  "bytecode": "0x60e06040523060601b6080523480156200001857600080fd5b5060405162003a9d38038062003a9d8339810160408190526200003b9162000133565b600054610100900460ff168062000055575060005460ff16155b620000bd5760405162461bcd60e51b815260206004820152602e60248201527f496e697469616c697a61626c653a20636f6e747261637420697320616c72656160448201526d191e481a5b9a5d1a585b1a5e995960921b606482015260840160405180910390fd5b600054610100900460ff16158015620000e0576000805461ffff19166101011790555b6001600160601b0319606084811b821660a05283901b1660c05280156200010d576000805461ff00191690555b5050506200016a565b80516001600160a01b03811681146200012e57600080fd5b919050565b6000806040838503121562000146578182fd5b620001518362000116565b9150620001616020840162000116565b90509250929050565b60805160601c60a05160601c60c05160601c6138c2620001db6000396000818161038b015281816106220152818161137e01528181612514015261272a0152600081816103dd0152610c6b015260008181610ba201528181610be2015281816111ba01526111fa01526138c26000f3fe6080604052600436106101145760003560e01c806365d3649d116100a0578063b2ca4edc11610064578063b2ca4edc146103ff578063b9789aee1461041f578063c0b1f14a14610468578063c4d66de814610488578063f2fde38b146104a857600080fd5b806365d3649d1461025b578063715018a6146103645780638ce74426146103795780638da5cb5b146103ad578063abc8c7af146103cb57600080fd5b80633659cfe6116100e75780633659cfe6146101c85780633786fddc146101e85780634f1ba762146102085780634f1ef28614610228578063617f0bb21461023b57600080fd5b80630a702ab01461011957806321d31f9f1461013b5780632630c12f1461017057806332174f18146101a8575b600080fd5b34801561012557600080fd5b506101396101343660046133ca565b6104c8565b005b34801561014757600080fd5b5061015b6101563660046133ca565b6107c1565b60405190151581526020015b60405180910390f35b34801561017c57600080fd5b5060fd54610190906001600160a01b031681565b6040516001600160a01b039091168152602001610167565b3480156101b457600080fd5b506101396101c33660046133e2565b6108c6565b3480156101d457600080fd5b506101396101e3366004613216565b610b97565b3480156101f457600080fd5b506101396102033660046132ec565b610c60565b34801561021457600080fd5b506101396102233660046133ca565b610f75565b610139610236366004613230565b6111af565b34801561024757600080fd5b506101396102563660046133ca565b611269565b34801561026757600080fd5b506102f26102763660046133ca565b60fb6020526000908152604090208054600182015460028301546003840154600485015460058601546006909601546001600160a01b039586169694956001600160401b0380861696600160401b96879004831696918616959190910482169382169291811691600160a01b9091046001600160501b0316908a565b604080516001600160a01b039b8c168152602081019a909a526001600160401b03988916908a0152958916606089015295909316608087015290861660a0860152851660c08501529390931660e08301526001600160501b031661010082015261012081019190915261014001610167565b34801561037057600080fd5b50610139611614565b34801561038557600080fd5b506101907f000000000000000000000000000000000000000000000000000000000000000081565b3480156103b957600080fd5b506097546001600160a01b0316610190565b3480156103d757600080fd5b506101907f000000000000000000000000000000000000000000000000000000000000000081565b34801561040b57600080fd5b5061013961041a3660046133ca565b61164a565b34801561042b57600080fd5b5061045361043a3660046133ca565b60fc602052600090815260409020805460019091015482565b60408051928352602083019190915201610167565b34801561047457600080fd5b506101396104833660046133e2565b61198f565b34801561049457600080fd5b506101396104a3366004613216565b611b91565b3480156104b457600080fd5b506101396104c3366004613216565b611c30565b600081815260fb602090815260409182902082516101408101845281546001600160a01b03908116825260018301549382019390935260028201546001600160401b0380821695830195909552600160401b908190048416606083015260038301549485166080830152909304821660a084018190526004820154831660c0850152600582015492831660e0850152600160a01b9092046001600160501b03166101008401526006015461012083015233146105cb5760405162461bcd60e51b815260206004820152601a60248201527f4f6e6c79207265736572766520627579657220616c6c6f77656400000000000060448201526064015b60405180910390fd5b610120810151600083815260fc60205260409020600101541061061f5760405162461bcd60e51b815260206004820152600c60248201526b105b1c9958591e481c185a5960a21b60448201526064016105c2565b427f00000000000000000000000000000000000000000000000000000000000000006001600160a01b0316633306607d6040518163ffffffff1660e01b815260040160206040518083038186803b15801561067957600080fd5b505afa15801561068d573d6000803e3d6000fd5b505050506040513d601f19601f820116820180604052508101906106b19190613403565b826080015183604001516106c591906136a1565b6001600160401b03166106d89190613689565b1161071e5760405162461bcd60e51b815260206004820152601660248201527514195c9a5bd9081d1bc81c185e48199a5b9a5cda195960521b60448201526064016105c2565b61012081018051600084815260fc60205260409020600101555160c0820151610756916001600160a01b039091169033903090611cc8565b7fc01a2780b876b96a07f327550ae58483c0781980f700fee4a529047c2875e130816000015182602001518360c001518460e0015185610120015186610100015187606001518860a001516040516107b598979695949392919061347c565b60405180910390a15050565b600081815260fb6020908152604080832081516101408101835281546001600160a01b03908116825260018301549482019490945260028201546001600160401b0380821694830194909452600160401b908190048516606083015260038301549384166080830152909204831660a08301526004810154831660c0830152600581015492831660e0830152600160a01b9092046001600160501b0316610100820152600690910154610120820181905261088e5760405162461bcd60e51b81526004016105c290613500565b600083815260fc602090815260409182902082518084019093528054835260010154908201526108be8282611d26565b949350505050565b600082815260fb602090815260409182902082516101408101845281546001600160a01b03908116825260018301549382019390935260028201546001600160401b0380821695830195909552600160401b908190048416606083015260038301549485166080830152909304821660a08401526004810154821660c0840152600581015491821660e0840152600160a01b9091046001600160501b03166101008301526006015461012082018190526109925760405162461bcd60e51b81526004016105c290613500565b8060a001516001600160a01b0316336001600160a01b0316146109ec5760405162461bcd60e51b815260206004820152601260248201527113db9b1e48189d5e595c88185b1b1bddd95960721b60448201526064016105c2565b600083815260fc6020908152604091829020825180840190935280548352600101549082018190526101208301511115610ad1576000610a2e6002600a61372f565b610a399060646137d7565b8361012001518461010001516001600160501b0316610a5891906137d7565b610a6291906136cc565b8251909150610a729085906137f6565b811115610acb5760405162461bcd60e51b815260206004820152602160248201527f417474656d7020746f20756e636f6c6c61746572616c697a65207265736572766044820152606560f81b60648201526084016105c2565b50610b22565b8051831115610b225760405162461bcd60e51b815260206004820152601f60248201527f496e73756666696369656e7420616d6f756e7420666f7220726571756573740060448201526064016105c2565b8051610b2f9084906137f6565b600085815260fc602052604090205560e0820151610b57906001600160a01b03163385611ff9565b60408051858152602081018590527f2eeef412bfb6575b7cc292cd3882b79d06849f5e747c2a125ecb8c38af838c6091015b60405180910390a150505050565b306001600160a01b037f0000000000000000000000000000000000000000000000000000000000000000161415610be05760405162461bcd60e51b81526004016105c290613537565b7f00000000000000000000000000000000000000000000000000000000000000006001600160a01b0316610c1261202e565b6001600160a01b031614610c385760405162461bcd60e51b81526004016105c290613583565b610c418161205c565b60408051600080825260208201909252610c5d91839190612086565b50565b336001600160a01b037f00000000000000000000000000000000000000000000000000000000000000001614610ce35760405162461bcd60e51b815260206004820152602260248201527f4f6e6c792063616c6c61626c652066726f6d20746865206d61726b6574706c61604482015261636560f01b60648201526084016105c2565b604080516001600160a01b03808d1660208301529181018b90528184166060820152908216608082015260009060a0016040516020818303038152906040528051906020012090506040518061014001604052808c6001600160a01b031681526020018b8152602001856001600160401b03168152602001846001600160a01b03168152602001426001600160401b03168152602001836001600160a01b031681526020018a6001600160a01b03168152602001896001600160a01b03168152602001876001600160501b031681526020018881525060fb600083815260200190815260200160002060008201518160000160006101000a8154816001600160a01b0302191690836001600160a01b031602179055506020820151816001015560408201518160020160006101000a8154816001600160401b0302191690836001600160401b0316021790555060608201518160020160086101000a8154816001600160a01b0302191690836001600160a01b0316021790555060808201518160030160006101000a8154816001600160401b0302191690836001600160401b0316021790555060a08201518160030160086101000a8154816001600160a01b0302191690836001600160a01b0316021790555060c08201518160040160006101000a8154816001600160a01b0302191690836001600160a01b0316021790555060e08201518160050160006101000a8154816001600160a01b0302191690836001600160a01b031602179055506101008201518160050160146101000a8154816001600160501b0302191690836001600160501b0316021790555061012082015181600601559050508460fc6000838152602001908152602001600020600001819055505050505050505050505050565b600260c9541415610f985760405162461bcd60e51b81526004016105c290613652565b600260c9819055600082815260fb602090815260409182902082516101408101845281546001600160a01b039081168252600183015493820193909352938101546001600160401b0380821694860194909452600160401b908190048316606086015260038201549384166080860152909204811660a08401526004820154811660c0840152600582015490811660e0840152600160a01b90046001600160501b03166101008301526006015461012082018190526110695760405162461bcd60e51b81526004016105c290613500565b600082815260fc602090815260409182902082518084019093528054835260010154908201819052610120830151116110db5760405162461bcd60e51b815260206004820152601460248201527314995cd95c9d9948185b1c9958591e481c185a5960621b60448201526064016105c2565b6110e58282611d26565b6111315760405162461bcd60e51b815260206004820152601f60248201527f4e6f6e20756e646572636f6c6c61746572616c697a656420726573657276650060448201526064016105c2565b61113b81836121d1565b5050600090815260fb6020526040812080546001600160a01b0319908116825560018083018490556002830180546001600160e01b031990811690915560038401805490911690556004830180549092169091556005820180546001600160f01b031916905560069091019190915560c955565b306001600160a01b037f00000000000000000000000000000000000000000000000000000000000000001614156111f85760405162461bcd60e51b81526004016105c290613537565b7f00000000000000000000000000000000000000000000000000000000000000006001600160a01b031661122a61202e565b6001600160a01b0316146112505760405162461bcd60e51b81526004016105c290613583565b6112598261205c565b61126582826001612086565b5050565b600260c954141561128c5760405162461bcd60e51b81526004016105c290613652565b600260c9819055600082815260fb602090815260409182902082516101408101845281546001600160a01b039081168252600183015493820193909352938101546001600160401b0380821694860194909452600160401b908190048316606086015260038201549384166080860152909204811660a08401526004820154811660c0840152600582015490811660e0840152600160a01b90046001600160501b031661010083015260060154610120820181905261135d5760405162461bcd60e51b81526004016105c290613500565b80606001516001600160a01b0316336001600160a01b0316141561149257427f00000000000000000000000000000000000000000000000000000000000000006001600160a01b0316633306607d6040518163ffffffff1660e01b815260040160206040518083038186803b1580156113d557600080fd5b505afa1580156113e9573d6000803e3d6000fd5b505050506040513d601f19601f8201168201806040525081019061140d9190613403565b8260800151836040015161142191906136a1565b6001600160401b03166114349190613689565b1061148d5760405162461bcd60e51b8152602060048201526024808201527f427579657220706572696f6420746f20706179206e6f742066696e6973686564604482015263081e595d60e21b60648201526084016105c2565b611575565b8060a001516001600160a01b0316336001600160a01b0316141561151b5742816080015182604001516114c591906136a1565b6001600160401b03161061148d5760405162461bcd60e51b815260206004820152601f60248201527f5265736572766520706572696f64206e6f742066696e6973686564207965740060448201526064016105c2565b60405162461bcd60e51b815260206004820152602960248201527f496e76616c69642063616c6c65722e2053686f756c642062652062757965722060448201526837b91039b2b63632b960b91b60648201526084016105c2565b600082815260fc60209081526040918290208251808401909352805483526001015490820181905261012083015114156115e1576115dc81836000015184602001518561012001518660c001518760e0015188610100015189606001518a60a001516122b2565b61113b565b61113b81836000015184602001518561012001518660c001518760e0015188610100015189606001518a60a00151612397565b6097546001600160a01b0316331461163e5760405162461bcd60e51b81526004016105c29061361d565b61164860006124bc565b565b600260c954141561166d5760405162461bcd60e51b81526004016105c290613652565b600260c9819055600082815260fb602090815260409182902082516101408101845281546001600160a01b039081168252600183015493820193909352938101546001600160401b0380821694860194909452600160401b908190048316606086015260038201549384166080860152909204811660a08401526004820154811660c0840152600582015490811660e0840152600160a01b90046001600160501b031661010083015260060154610120820181905261173e5760405162461bcd60e51b81526004016105c290613500565b428160800151826040015161175391906136a1565b6001600160401b0316116117b35760405162461bcd60e51b815260206004820152602160248201527f5265736572766520657870697265642e20506179206f72206c697175696461746044820152606560f81b60648201526084016105c2565b600082815260fc6020908152604091829020825180840190935280548352600101549082015260608201516001600160a01b031633141561181b5761181681836000015184602001518560a001518660c001518760e0015188610120015161250e565b611861565b8160a001516001600160a01b0316336001600160a01b0316141561151b5761181681836000015184602001518560a001518660c001518760e00151886101200151612724565b600083815260fb6020908152604080832080546001600160a01b03199081168255600182018590556002820180546001600160e01b0319908116909155600383018054909116905560048201805490911690556005810180546001600160f01b03191690556006019290925583519084015160c085015160e0860151610120870151610100880151606089015160a08a015197517f818527598fe923882714e6fa6a6052e734f5bb606481d7849a3117444d335d7c9861197d989796959493929133906001600160a01b03998a16815260208101989098529588166040880152938716606087015260808601929092526001600160501b031660a0850152841660c0840152831660e08301529091166101008201526101200190565b60405180910390a15050600160c95550565b600082815260fb602090815260409182902082516101408101845281546001600160a01b03908116825260018301549382019390935260028201546001600160401b0380821695830195909552600160401b908190048416606083015260038301549485166080830152909304821660a08401526004810154821660c0840152600581015491821660e0840152600160a01b9091046001600160501b0316610100830152600601546101208201819052611a5b5760405162461bcd60e51b81526004016105c290613500565b8060a001516001600160a01b0316336001600160a01b031614611ab55760405162461bcd60e51b815260206004820152601260248201527113db9b1e48189d5e595c88185b1b1bddd95960721b60448201526064016105c2565b600083815260fc60209081526040918290208251808401909352805483526001015490820181905261012083015111611b255760405162461bcd60e51b8152602060048201526012602482015271141c9a58d948185b1c9958591e481c185a5960721b60448201526064016105c2565b8051611b32908490613689565b600085815260fc602052604090205560e0820151611b5b906001600160a01b0316333086611cc8565b60408051858152602081018590527f7a878b8a5ef84c5ab93987e3b076c5464d546d4f34625c9522a9e802d816e3509101610b89565b600054610100900460ff1680611baa575060005460ff16155b611bc65760405162461bcd60e51b81526004016105c2906135cf565b600054610100900460ff16158015611be8576000805461ffff19166101011790555b60fd80546001600160a01b0319166001600160a01b038416179055611c0b61288d565b611c13612908565b611c1b61296f565b8015611265576000805461ff00191690555050565b6097546001600160a01b03163314611c5a5760405162461bcd60e51b81526004016105c29061361d565b6001600160a01b038116611cbf5760405162461bcd60e51b815260206004820152602660248201527f4f776e61626c653a206e6577206f776e657220697320746865207a65726f206160448201526564647265737360d01b60648201526084016105c2565b610c5d816124bc565b611d20846323b872dd60e01b858585604051602401611ce993929190613458565b60408051601f198184030181529190526020810180516001600160e01b03166001600160e01b0319909316929092179091526129ce565b50505050565b6000808360e001516001600160a01b031663313ce5676040518163ffffffff1660e01b815260040160206040518083038186803b158015611d6657600080fd5b505afa158015611d7a573d6000803e3d6000fd5b505050506040513d601f19601f82011682018060405250810190611d9e919061341b565b60ff16905060008460c001516001600160a01b031663313ce5676040518163ffffffff1660e01b815260040160206040518083038186803b158015611de257600080fd5b505afa158015611df6573d6000803e3d6000fd5b505050506040513d601f19601f82011682018060405250810190611e1a919061341b565b60fd5460e08701516040516315d5220f60e31b81526001600160a01b03918216600482015260ff93909316935060009291169063aea910789060240160206040518083038186803b158015611e6e57600080fd5b505afa158015611e82573d6000803e3d6000fd5b505050506040513d601f19601f82011682018060405250810190611ea69190613403565b60fd5460c08801516040516315d5220f60e31b81526001600160a01b03918216600482015292935060009291169063aea910789060240160206040518083038186803b158015611ef557600080fd5b505afa158015611f09573d6000803e3d6000fd5b505050506040513d601f19601f82011682018060405250810190611f2d9190613403565b90506000828760000151611f4191906137d7565b9050600082896101200151611f5691906137d7565b9050600085871115611f8857611f6c86886137f6565b611f7790600a61372f565b611f8190846136cc565b9050611faa565b611f9287876137f6565b611f9d90600a61372f565b611fa790846137d7565b90505b600082611fb96002600a61372f565b611fc48460646137d7565b611fce91906137d7565b611fd891906136cc565b6101008c01516001600160501b031611985050505050505050505b92915050565b6040516001600160a01b03831660248201526044810182905261202990849063a9059cbb60e01b90606401611ce9565b505050565b7f360894a13ba1a3210667c828492db98dca3e2076cc3735a920a3ca505d382bbc546001600160a01b031690565b6097546001600160a01b03163314610c5d5760405162461bcd60e51b81526004016105c29061361d565b600061209061202e565b905061209b84612aa0565b6000835111806120a85750815b156120b9576120b78484612b45565b505b7f4910fdfa16fed3260ed0e7147f7cc6da11a60208b5b9406d12a635614ffd9143805460ff166121ca57805460ff191660011781556040516001600160a01b038316602482015261213890869060440160408051601f198184030181529190526020810180516001600160e01b0316631b2ce7f360e11b179052612b45565b50805460ff1916815561214961202e565b6001600160a01b0316826001600160a01b0316146121c15760405162461bcd60e51b815260206004820152602f60248201527f45524331393637557067726164653a207570677261646520627265616b73206660448201526e75727468657220757067726164657360881b60648201526084016105c2565b6121ca85612c30565b5050505050565b6060810151825160e08301516121f2926001600160a01b0390911691611ff9565b8051606082015160208301516040516323b872dd60e01b81526001600160a01b03909316926323b872dd9261222b923092600401613458565b600060405180830381600087803b15801561224557600080fd5b505af1158015612259573d6000803e3d6000fd5b50508251602084015160c085015160e0860151610120870151610100880151606089015160a08a01516040517f8e6cf5f873ea2619b2a562a66a30e7b7921011bca94e5b4d55e2544e937dcddb9a506107b5995061347c565b60208901516122cd906001600160a01b038716908490611ff9565b88516122e5906001600160a01b038616908390611ff9565b6040516323b872dd60e01b81526001600160a01b038916906323b872dd9061231590309085908c90600401613458565b600060405180830381600087803b15801561232f57600080fd5b505af1158015612343573d6000803e3d6000fd5b505050507f015317ba66b5b3aab1efc9f0a087701cbe6a33e15d26801a996a58086c815c37888887878a88888860405161238498979695949392919061347c565b60405180910390a1505050505050505050565b60006123a587878787612c70565b9050808a6000015111156123f1576123d882828c600001516123c791906137f6565b6001600160a01b0388169190611ff9565b6123ec6001600160a01b0386168483611ff9565b612409565b8951612409906001600160a01b038716908590611ff9565b6040516323b872dd60e01b81526001600160a01b038a16906323b872dd9061243990309087908d90600401613458565b600060405180830381600087803b15801561245357600080fd5b505af1158015612467573d6000803e3d6000fd5b505050507f8f0ac3e23f2506d067c91ee589b8a5b0af1d0c96c291b19234a4513e8af4d720898988888b8989896040516124a898979695949392919061347c565b60405180910390a150505050505050505050565b609780546001600160a01b038381166001600160a01b0319831681179093556040519116919082907f8be0079c531659141344cd1fd0a4f28419497f9722a3daafe3b4186f6b6457e090600090a35050565b600060647f00000000000000000000000000000000000000000000000000000000000000006001600160a01b031663bf15f39c6040518163ffffffff1660e01b815260040160206040518083038186803b15801561256b57600080fd5b505afa15801561257f573d6000803e3d6000fd5b505050506040513d601f19601f820116820180604052508101906125a39190613403565b6125ad90846137d7565b6125b791906136cc565b90506125ce6001600160a01b038516338784611cc8565b87516125e6906001600160a01b038516908790611ff9565b6020880151156126b857602088015160405163a9059cbb60e01b81526001600160a01b03878116600483015260248201929092529085169063a9059cbb90604401602060405180830381600087803b15801561264157600080fd5b505af1158015612655573d6000803e3d6000fd5b505050506040513d601f19601f8201168201806040525081019061267991906133aa565b6126b85760405162461bcd60e51b815260206004820152601060248201526f2330b4b6103a37903a3930b739b332b960811b60448201526064016105c2565b6040516323b872dd60e01b81526001600160a01b038816906323b872dd906126e890309033908b90600401613458565b600060405180830381600087803b15801561270257600080fd5b505af1158015612716573d6000803e3d6000fd5b505050505050505050505050565b600060647f00000000000000000000000000000000000000000000000000000000000000006001600160a01b0316635b353dce6040518163ffffffff1660e01b815260040160206040518083038186803b15801561278157600080fd5b505afa158015612795573d6000803e3d6000fd5b505050506040513d601f19601f820116820180604052508101906127b99190613403565b6127c390846137d7565b6127cd91906136cc565b90506127e46001600160a01b038516338784611cc8565b6040516323b872dd60e01b81526001600160a01b038816906323b872dd9061281490309089908b90600401613458565b600060405180830381600087803b15801561282e57600080fd5b505af1158015612842573d6000803e3d6000fd5b5050895161285e92506001600160a01b03861691503390611ff9565b602088015115612883576020880151612883906001600160a01b038616903390611ff9565b5050505050505050565b600054610100900460ff16806128a6575060005460ff16155b6128c25760405162461bcd60e51b81526004016105c2906135cf565b600054610100900460ff161580156128e4576000805461ffff19166101011790555b6128ec612f46565b6128f4612fb0565b8015610c5d576000805461ff001916905550565b600054610100900460ff1680612921575060005460ff16155b61293d5760405162461bcd60e51b81526004016105c2906135cf565b600054610100900460ff1615801561295f576000805461ffff19166101011790555b612967612f46565b6128f4612f46565b600054610100900460ff1680612988575060005460ff16155b6129a45760405162461bcd60e51b81526004016105c2906135cf565b600054610100900460ff161580156129c6576000805461ffff19166101011790555b6128f4613010565b6000612a23826040518060400160405280602081526020017f5361666545524332303a206c6f772d6c6576656c2063616c6c206661696c6564815250856001600160a01b03166130809092919063ffffffff16565b8051909150156120295780806020019051810190612a4191906133aa565b6120295760405162461bcd60e51b815260206004820152602a60248201527f5361666545524332303a204552433230206f7065726174696f6e20646964206e6044820152691bdd081cdd58d8d9595960b21b60648201526084016105c2565b803b612b045760405162461bcd60e51b815260206004820152602d60248201527f455243313936373a206e657720696d706c656d656e746174696f6e206973206e60448201526c1bdd08184818dbdb9d1c9858dd609a1b60648201526084016105c2565b7f360894a13ba1a3210667c828492db98dca3e2076cc3735a920a3ca505d382bbc80546001600160a01b0319166001600160a01b0392909216919091179055565b6060823b612ba45760405162461bcd60e51b815260206004820152602660248201527f416464726573733a2064656c65676174652063616c6c20746f206e6f6e2d636f6044820152651b9d1c9858dd60d21b60648201526084016105c2565b600080846001600160a01b031684604051612bbf919061343c565b600060405180830381855af49150503d8060008114612bfa576040519150601f19603f3d011682016040523d82523d6000602084013e612bff565b606091505b5091509150612c27828260405180606001604052806027815260200161386660279139613099565b95945050505050565b612c3981612aa0565b6040516001600160a01b038216907fbc7cd75a20ee27fd9adebab32041f755214dbc6bffa90cc0225b39da2e5c2d3b90600090a250565b600080836001600160a01b031663313ce5676040518163ffffffff1660e01b815260040160206040518083038186803b158015612cac57600080fd5b505afa158015612cc0573d6000803e3d6000fd5b505050506040513d601f19601f82011682018060405250810190612ce4919061341b565b60ff1690506000856001600160a01b031663313ce5676040518163ffffffff1660e01b815260040160206040518083038186803b158015612d2457600080fd5b505afa158015612d38573d6000803e3d6000fd5b505050506040513d601f19601f82011682018060405250810190612d5c919061341b565b60fd546040516315d5220f60e31b81526001600160a01b03888116600483015260ff9390931693506000929091169063aea910789060240160206040518083038186803b158015612dac57600080fd5b505afa158015612dc0573d6000803e3d6000fd5b505050506040513d601f19601f82011682018060405250810190612de49190613403565b60fd546040516315d5220f60e31b81526001600160a01b038a811660048301529293506000929091169063aea910789060240160206040518083038186803b158015612e2f57600080fd5b505afa158015612e43573d6000803e3d6000fd5b505050506040513d601f19601f82011682018060405250810190612e679190613403565b9050600082118015612e795750600081115b612e9357634e487b7160e01b600052600160045260246000fd5b6000612e9f828b6137d7565b90506000612eaf6002600a61372f565b612eba9060646137d7565b612ecd836001600160501b038b166137d7565b612ed791906136cc565b90506000612ee585836136cc565b905085871015612f1557612ef987876137f6565b612f0490600a61372f565b612f0e90826136cc565b9750612f37565b612f1f86886137f6565b612f2a90600a61372f565b612f3490826137d7565b97505b50505050505050949350505050565b600054610100900460ff1680612f5f575060005460ff16155b612f7b5760405162461bcd60e51b81526004016105c2906135cf565b600054610100900460ff161580156128f4576000805461ffff19166101011790558015610c5d576000805461ff001916905550565b600054610100900460ff1680612fc9575060005460ff16155b612fe55760405162461bcd60e51b81526004016105c2906135cf565b600054610100900460ff16158015613007576000805461ffff19166101011790555b6128f4336124bc565b600054610100900460ff1680613029575060005460ff16155b6130455760405162461bcd60e51b81526004016105c2906135cf565b600054610100900460ff16158015613067576000805461ffff19166101011790555b600160c9558015610c5d576000805461ff001916905550565b606061308f84846000856130d2565b90505b9392505050565b606083156130a8575081613092565b8251156130b85782518084602001fd5b8160405162461bcd60e51b81526004016105c291906134cd565b6060824710156131335760405162461bcd60e51b815260206004820152602660248201527f416464726573733a20696e73756666696369656e742062616c616e636520666f6044820152651c8818d85b1b60d21b60648201526084016105c2565b843b6131815760405162461bcd60e51b815260206004820152601d60248201527f416464726573733a2063616c6c20746f206e6f6e2d636f6e747261637400000060448201526064016105c2565b600080866001600160a01b0316858760405161319d919061343c565b60006040518083038185875af1925050503d80600081146131da576040519150601f19603f3d011682016040523d82523d6000602084013e6131df565b606091505b50915091506131ef828286613099565b979650505050505050565b80356001600160a01b038116811461321157600080fd5b919050565b600060208284031215613227578081fd5b613092826131fa565b60008060408385031215613242578081fd5b61324b836131fa565b915060208301356001600160401b0380821115613266578283fd5b818501915085601f830112613279578283fd5b81358181111561328b5761328b61384f565b604051601f8201601f19908116603f011681019083821181831017156132b3576132b361384f565b816040528281528860208487010111156132cb578586fd5b82602086016020830137856020848301015280955050505050509250929050565b6000806000806000806000806000806101408b8d03121561330b578586fd5b6133148b6131fa565b995060208b0135985061332960408c016131fa565b975061333760608c016131fa565b965060808b0135955060a08b01356001600160501b0381168114613359578586fd5b945060c08b0135935060e08b01356001600160401b038116811461337b578384fd5b925061338a6101008c016131fa565b91506133996101208c016131fa565b90509295989b9194979a5092959850565b6000602082840312156133bb578081fd5b81518015158114613092578182fd5b6000602082840312156133db578081fd5b5035919050565b600080604083850312156133f4578182fd5b50508035926020909101359150565b600060208284031215613414578081fd5b5051919050565b60006020828403121561342c578081fd5b815160ff81168114613092578182fd5b6000825161344e81846020870161380d565b9190910192915050565b6001600160a01b039384168152919092166020820152604081019190915260600190565b6001600160a01b03988916815260208101979097529487166040870152928616606086015260808501919091526001600160501b031660a0840152831660c083015290911660e08201526101000190565b60208152600082518060208401526134ec81604085016020870161380d565b601f01601f19169190910160400192915050565b6020808252601b908201527f4e6f6e2d6578697374656e742061637469766520726573657276650000000000604082015260600190565b6020808252602c908201527f46756e6374696f6e206d7573742062652063616c6c6564207468726f7567682060408201526b19195b1959d85d1958d85b1b60a21b606082015260800190565b6020808252602c908201527f46756e6374696f6e206d7573742062652063616c6c6564207468726f7567682060408201526b6163746976652070726f787960a01b606082015260800190565b6020808252602e908201527f496e697469616c697a61626c653a20636f6e747261637420697320616c72656160408201526d191e481a5b9a5d1a585b1a5e995960921b606082015260800190565b6020808252818101527f4f776e61626c653a2063616c6c6572206973206e6f7420746865206f776e6572604082015260600190565b6020808252601f908201527f5265656e7472616e637947756172643a207265656e7472616e742063616c6c00604082015260600190565b6000821982111561369c5761369c613839565b500190565b60006001600160401b038083168185168083038211156136c3576136c3613839565b01949350505050565b6000826136e757634e487b7160e01b81526012600452602481fd5b500490565b600181815b8085111561372757816000190482111561370d5761370d613839565b8085161561371a57918102915b93841c93908002906136f1565b509250929050565b6000613092838360008261374557506001611ff3565b8161375257506000611ff3565b816001811461376857600281146137725761378e565b6001915050611ff3565b60ff84111561378357613783613839565b50506001821b611ff3565b5060208310610133831016604e8410600b84101617156137b1575081810a611ff3565b6137bb83836136ec565b80600019048211156137cf576137cf613839565b029392505050565b60008160001904831182151516156137f1576137f1613839565b500290565b60008282101561380857613808613839565b500390565b60005b83811015613828578181015183820152602001613810565b83811115611d205750506000910152565b634e487b7160e01b600052601160045260246000fd5b634e487b7160e01b600052604160045260246000fdfe416464726573733a206c6f772d6c6576656c2064656c65676174652063616c6c206661696c6564a26469706673582212206be811b6bb6090f09a7e3cb4405798be77e523ed4b1868e1d3b045b667f7e84d64736f6c63430008040033",
  "linkReferences": {},
  "deployedLinkReferences": {}
}