{
  "_format": "hh-sol-artifact-1",
  "contractName": "ReservesManager",
  "sourceName": "contracts/ReservesManager.sol",
  "abi": [
    {
      "inputs": [
        {
          "internalType": "address",
          "name": "marketplace_",
          "type": "address"
        },
        {
          "internalType": "address",
          "name": "protocolParameters_",
          "type": "address"
        },
        {
          "internalType": "address",
          "name": "feeCollector_",
          "type": "address"
        }
      ],
      "stateMutability": "nonpayable",
      "type": "constructor"
    },
    {
      "anonymous": false,
      "inputs": [
        {
          "indexed": false,
          "internalType": "address",
          "name": "previousAdmin",
          "type": "address"
        },
        {
          "indexed": false,
          "internalType": "address",
          "name": "newAdmin",
          "type": "address"
        }
      ],
      "name": "AdminChanged",
      "type": "event"
    },
    {
      "anonymous": false,
      "inputs": [
        {
          "indexed": true,
          "internalType": "address",
          "name": "beacon",
          "type": "address"
        }
      ],
      "name": "BeaconUpgraded",
      "type": "event"
    },
    {
      "anonymous": false,
      "inputs": [
        {
          "indexed": false,
          "internalType": "address",
          "name": "collection",
          "type": "address"
        },
        {
          "indexed": false,
          "internalType": "uint256",
          "name": "tokenId",
          "type": "uint256"
        },
        {
          "indexed": false,
          "internalType": "address",
          "name": "paymentToken",
          "type": "address"
        },
        {
          "indexed": false,
          "internalType": "address",
          "name": "collateralToken",
          "type": "address"
        },
        {
          "indexed": false,
          "internalType": "uint256",
          "name": "price",
          "type": "uint256"
        },
        {
          "indexed": false,
          "internalType": "uint256",
          "name": "collateralPercent",
          "type": "uint256"
        },
        {
          "indexed": false,
          "internalType": "address",
          "name": "seller",
          "type": "address"
        },
        {
          "indexed": false,
          "internalType": "address",
          "name": "buyer",
          "type": "address"
        }
      ],
      "name": "CollateralClaimed",
      "type": "event"
    },
    {
      "anonymous": false,
      "inputs": [
        {
          "indexed": false,
          "internalType": "bytes32",
          "name": "reserveId",
          "type": "bytes32"
        },
        {
          "indexed": false,
          "internalType": "uint256",
          "name": "amount",
          "type": "uint256"
        }
      ],
      "name": "CollateralDecreased",
      "type": "event"
    },
    {
      "anonymous": false,
      "inputs": [
        {
          "indexed": false,
          "internalType": "bytes32",
          "name": "reserveId",
          "type": "bytes32"
        },
        {
          "indexed": false,
          "internalType": "uint256",
          "name": "amount",
          "type": "uint256"
        }
      ],
      "name": "CollateralIncreased",
      "type": "event"
    },
    {
      "anonymous": false,
      "inputs": [
        {
          "indexed": true,
          "internalType": "address",
          "name": "previousOwner",
          "type": "address"
        },
        {
          "indexed": true,
          "internalType": "address",
          "name": "newOwner",
          "type": "address"
        }
      ],
      "name": "OwnershipTransferred",
      "type": "event"
    },
    {
      "anonymous": false,
      "inputs": [
        {
          "indexed": false,
          "internalType": "address",
          "name": "collection",
          "type": "address"
        },
        {
          "indexed": false,
          "internalType": "uint256",
          "name": "tokenId",
          "type": "uint256"
        },
        {
          "indexed": false,
          "internalType": "address",
          "name": "paymentToken",
          "type": "address"
        },
        {
          "indexed": false,
          "internalType": "address",
          "name": "collateralToken",
          "type": "address"
        },
        {
          "indexed": false,
          "internalType": "uint256",
          "name": "price",
          "type": "uint256"
        },
        {
          "indexed": false,
          "internalType": "uint256",
          "name": "collateralPercent",
          "type": "uint256"
        },
        {
          "indexed": false,
          "internalType": "address",
          "name": "seller",
          "type": "address"
        },
        {
          "indexed": false,
          "internalType": "address",
          "name": "buyer",
          "type": "address"
        }
      ],
      "name": "PurchaseCanceled",
      "type": "event"
    },
    {
      "anonymous": false,
      "inputs": [
        {
          "indexed": false,
          "internalType": "address",
          "name": "collection",
          "type": "address"
        },
        {
          "indexed": false,
          "internalType": "uint256",
          "name": "tokenId",
          "type": "uint256"
        },
        {
          "indexed": false,
          "internalType": "address",
          "name": "paymentToken",
          "type": "address"
        },
        {
          "indexed": false,
          "internalType": "address",
          "name": "collateralToken",
          "type": "address"
        },
        {
          "indexed": false,
          "internalType": "uint256",
          "name": "price",
          "type": "uint256"
        },
        {
          "indexed": false,
          "internalType": "uint256",
          "name": "collateralPercent",
          "type": "uint256"
        },
        {
          "indexed": false,
          "internalType": "address",
          "name": "seller",
          "type": "address"
        },
        {
          "indexed": false,
          "internalType": "address",
          "name": "buyer",
          "type": "address"
        }
      ],
      "name": "PurchaseExecuted",
      "type": "event"
    },
    {
      "anonymous": false,
      "inputs": [
        {
          "indexed": false,
          "internalType": "address",
          "name": "collection",
          "type": "address"
        },
        {
          "indexed": false,
          "internalType": "uint256",
          "name": "tokenId",
          "type": "uint256"
        },
        {
          "indexed": false,
          "internalType": "address",
          "name": "paymentToken",
          "type": "address"
        },
        {
          "indexed": false,
          "internalType": "address",
          "name": "collateralToken",
          "type": "address"
        },
        {
          "indexed": false,
          "internalType": "uint256",
          "name": "price",
          "type": "uint256"
        },
        {
          "indexed": false,
          "internalType": "uint256",
          "name": "collateralPercent",
          "type": "uint256"
        },
        {
          "indexed": false,
          "internalType": "address",
          "name": "seller",
          "type": "address"
        },
        {
          "indexed": false,
          "internalType": "address",
          "name": "buyer",
          "type": "address"
        },
        {
          "indexed": false,
          "internalType": "address",
          "name": "executor",
          "type": "address"
        }
      ],
      "name": "ReserveCanceled",
      "type": "event"
    },
    {
      "anonymous": false,
      "inputs": [
        {
          "indexed": false,
          "internalType": "address",
          "name": "collection",
          "type": "address"
        },
        {
          "indexed": false,
          "internalType": "uint256",
          "name": "tokenId",
          "type": "uint256"
        },
        {
          "indexed": false,
          "internalType": "address",
          "name": "paymentToken",
          "type": "address"
        },
        {
          "indexed": false,
          "internalType": "address",
          "name": "collateralToken",
          "type": "address"
        },
        {
          "indexed": false,
          "internalType": "uint256",
          "name": "price",
          "type": "uint256"
        },
        {
          "indexed": false,
          "internalType": "uint256",
          "name": "collateralPercent",
          "type": "uint256"
        },
        {
          "indexed": false,
          "internalType": "address",
          "name": "seller",
          "type": "address"
        },
        {
          "indexed": false,
          "internalType": "address",
          "name": "buyer",
          "type": "address"
        }
      ],
      "name": "ReservePricePaid",
      "type": "event"
    },
    {
      "anonymous": false,
      "inputs": [
        {
          "indexed": true,
          "internalType": "address",
          "name": "implementation",
          "type": "address"
        }
      ],
      "name": "Upgraded",
      "type": "event"
    },
    {
      "inputs": [
        {
          "internalType": "bytes32",
          "name": "",
          "type": "bytes32"
        }
      ],
      "name": "activeReserves",
      "outputs": [
        {
          "internalType": "address",
          "name": "collection",
          "type": "address"
        },
        {
          "internalType": "uint256",
          "name": "tokenId",
          "type": "uint256"
        },
        {
          "internalType": "uint64",
          "name": "reservePeriod",
          "type": "uint64"
        },
        {
          "internalType": "address",
          "name": "seller",
          "type": "address"
        },
        {
          "internalType": "uint64",
          "name": "activationTimestamp",
          "type": "uint64"
        },
        {
          "internalType": "address",
          "name": "buyer",
          "type": "address"
        },
        {
          "internalType": "address",
          "name": "paymentToken",
          "type": "address"
        },
        {
          "internalType": "address",
          "name": "collateralToken",
          "type": "address"
        },
        {
          "internalType": "uint80",
          "name": "collateralPercent",
          "type": "uint80"
        },
        {
          "internalType": "uint256",
          "name": "price",
          "type": "uint256"
        }
      ],
      "stateMutability": "view",
      "type": "function"
    },
    {
      "inputs": [
        {
          "internalType": "bytes32",
          "name": "activeReserveId_",
          "type": "bytes32"
        }
      ],
      "name": "cancelReserve",
      "outputs": [],
      "stateMutability": "nonpayable",
      "type": "function"
    },
    {
      "inputs": [
        {
          "internalType": "bytes32",
          "name": "activeReserveId_",
          "type": "bytes32"
        },
        {
          "internalType": "uint256",
          "name": "amount_",
          "type": "uint256"
        }
      ],
      "name": "decreaseReserveCollateral",
      "outputs": [],
      "stateMutability": "nonpayable",
      "type": "function"
    },
    {
      "inputs": [],
      "name": "feeCollector",
      "outputs": [
        {
          "internalType": "address",
          "name": "",
          "type": "address"
        }
      ],
      "stateMutability": "view",
      "type": "function"
    },
    {
      "inputs": [
        {
          "internalType": "bytes32",
          "name": "activeReserveId_",
          "type": "bytes32"
        },
        {
          "internalType": "uint256",
          "name": "amount_",
          "type": "uint256"
        }
      ],
      "name": "increaseReserveCollateral",
      "outputs": [],
      "stateMutability": "nonpayable",
      "type": "function"
    },
    {
      "inputs": [
        {
          "internalType": "address",
          "name": "priceOracle_",
          "type": "address"
        }
      ],
      "name": "initialize",
      "outputs": [],
      "stateMutability": "nonpayable",
      "type": "function"
    },
    {
      "inputs": [
        {
          "internalType": "bytes32",
          "name": "activeReserveId_",
          "type": "bytes32"
        }
      ],
      "name": "isUndercollateralized",
      "outputs": [
        {
          "internalType": "bool",
          "name": "undercollateralized",
          "type": "bool"
        }
      ],
      "stateMutability": "view",
      "type": "function"
    },
    {
      "inputs": [
        {
          "internalType": "bytes32",
          "name": "activeReserveId_",
          "type": "bytes32"
        }
      ],
      "name": "liquidateReserve",
      "outputs": [],
      "stateMutability": "nonpayable",
      "type": "function"
    },
    {
      "inputs": [
        {
          "internalType": "bytes32",
          "name": "activeReserveId_",
          "type": "bytes32"
        }
      ],
      "name": "liquidateUndercollateralization",
      "outputs": [],
      "stateMutability": "nonpayable",
      "type": "function"
    },
    {
      "inputs": [],
      "name": "marketplace",
      "outputs": [
        {
          "internalType": "contract ReserveMarketplace",
          "name": "",
          "type": "address"
        }
      ],
      "stateMutability": "view",
      "type": "function"
    },
    {
      "inputs": [],
      "name": "owner",
      "outputs": [
        {
          "internalType": "address",
          "name": "",
          "type": "address"
        }
      ],
      "stateMutability": "view",
      "type": "function"
    },
    {
      "inputs": [
        {
          "internalType": "bytes32",
          "name": "activeReserveId_",
          "type": "bytes32"
        }
      ],
      "name": "payThePrice",
      "outputs": [],
      "stateMutability": "nonpayable",
      "type": "function"
    },
    {
      "inputs": [],
      "name": "priceOracle",
      "outputs": [
        {
          "internalType": "contract IPriceOracle",
          "name": "",
          "type": "address"
        }
      ],
      "stateMutability": "view",
      "type": "function"
    },
    {
      "inputs": [],
      "name": "protocol",
      "outputs": [
        {
          "internalType": "contract ProtocolParameters",
          "name": "",
          "type": "address"
        }
      ],
      "stateMutability": "view",
      "type": "function"
    },
    {
      "inputs": [],
      "name": "renounceOwnership",
      "outputs": [],
      "stateMutability": "nonpayable",
      "type": "function"
    },
    {
      "inputs": [
        {
          "internalType": "bytes32",
          "name": "",
          "type": "bytes32"
        }
      ],
      "name": "reserveAmounts",
      "outputs": [
        {
          "internalType": "uint256",
          "name": "collateral",
          "type": "uint256"
        },
        {
          "internalType": "uint256",
          "name": "payment",
          "type": "uint256"
        }
      ],
      "stateMutability": "view",
      "type": "function"
    },
    {
      "inputs": [
        {
          "internalType": "address",
          "name": "priceOracle_",
          "type": "address"
        }
      ],
      "name": "setPriceOracle",
      "outputs": [],
      "stateMutability": "nonpayable",
      "type": "function"
    },
    {
      "inputs": [
        {
          "internalType": "address",
          "name": "collection_",
          "type": "address"
        },
        {
          "internalType": "uint256",
          "name": "tokenId_",
          "type": "uint256"
        },
        {
          "internalType": "address",
          "name": "paymentToken_",
          "type": "address"
        },
        {
          "internalType": "address",
          "name": "collateralToken_",
          "type": "address"
        },
        {
          "internalType": "uint256",
          "name": "price_",
          "type": "uint256"
        },
        {
          "internalType": "uint80",
          "name": "collateralPercent_",
          "type": "uint80"
        },
        {
          "internalType": "uint256",
          "name": "collateralInitialAmount_",
          "type": "uint256"
        },
        {
          "internalType": "uint64",
          "name": "reservePeriod_",
          "type": "uint64"
        },
        {
          "internalType": "address",
          "name": "seller_",
          "type": "address"
        },
        {
          "internalType": "address",
          "name": "buyer_",
          "type": "address"
        }
      ],
      "name": "startReserve",
      "outputs": [],
      "stateMutability": "nonpayable",
      "type": "function"
    },
    {
      "inputs": [
        {
          "internalType": "address",
          "name": "newOwner",
          "type": "address"
        }
      ],
      "name": "transferOwnership",
      "outputs": [],
      "stateMutability": "nonpayable",
      "type": "function"
    },
    {
      "inputs": [
        {
          "internalType": "address",
          "name": "newImplementation",
          "type": "address"
        }
      ],
      "name": "upgradeTo",
      "outputs": [],
      "stateMutability": "nonpayable",
      "type": "function"
    },
    {
      "inputs": [
        {
          "internalType": "address",
          "name": "newImplementation",
          "type": "address"
        },
        {
          "internalType": "bytes",
          "name": "data",
          "type": "bytes"
        }
      ],
      "name": "upgradeToAndCall",
      "outputs": [],
      "stateMutability": "payable",
      "type": "function"
    }
  ],
  "bytecode": "0x6101006040523060601b6080523480156200001957600080fd5b5060405162003d0938038062003d098339810160408190526200003c916200013d565b600054610100900460ff168062000056575060005460ff16155b620000be5760405162461bcd60e51b815260206004820152602e60248201527f496e697469616c697a61626c653a20636f6e747261637420697320616c72656160448201526d191e481a5b9a5d1a585b1a5e995960921b606482015260840160405180910390fd5b600054610100900460ff16158015620000e1576000805461ffff19166101011790555b6001600160601b0319606085811b821660c05284811b821660e05283901b1660a052801562000116576000805461ff00191690555b5050505062000186565b80516001600160a01b03811681146200013857600080fd5b919050565b60008060006060848603121562000152578283fd5b6200015d8462000120565b92506200016d6020850162000120565b91506200017d6040850162000120565b90509250925092565b60805160601c60a05160601c60c05160601c60e05160601c613ae262000227600039600081816103c10152818161068c0152818161149501528181611de401528181612769015261291c0152600081816104130152610cee0152600081816104d0015281816124a7015281816126380152818161282101526129d4015260008181610c2501528181610c650152818161123d015261127d0152613ae26000f3fe60806040526004361061012a5760003560e01c806365d3649d116100ab578063b2ca4edc1161006f578063b2ca4edc14610435578063b9789aee14610455578063c0b1f14a1461049e578063c415b95c146104be578063c4d66de8146104f2578063f2fde38b1461051257600080fd5b806365d3649d14610291578063715018a61461039a5780638ce74426146103af5780638da5cb5b146103e3578063abc8c7af1461040157600080fd5b80633786fddc116100f25780633786fddc146101fe5780634f1ba7621461021e5780634f1ef2861461023e578063530e784f14610251578063617f0bb21461027157600080fd5b80630a702ab01461012f57806321d31f9f146101515780632630c12f1461018657806332174f18146101be5780633659cfe6146101de575b600080fd5b34801561013b57600080fd5b5061014f61014a3660046135ea565b610532565b005b34801561015d57600080fd5b5061017161016c3660046135ea565b610844565b60405190151581526020015b60405180910390f35b34801561019257600080fd5b5060fd546101a6906001600160a01b031681565b6040516001600160a01b03909116815260200161017d565b3480156101ca57600080fd5b5061014f6101d9366004613602565b610949565b3480156101ea57600080fd5b5061014f6101f9366004613436565b610c1a565b34801561020a57600080fd5b5061014f61021936600461350c565b610ce3565b34801561022a57600080fd5b5061014f6102393660046135ea565b610ff8565b61014f61024c366004613450565b611232565b34801561025d57600080fd5b5061014f61026c366004613436565b6112ec565b34801561027d57600080fd5b5061014f61028c3660046135ea565b611380565b34801561029d57600080fd5b506103286102ac3660046135ea565b60fb6020526000908152604090208054600182015460028301546003840154600485015460058601546006909601546001600160a01b039586169694956001600160401b0380861696600160401b96879004831696918616959190910482169382169291811691600160a01b9091046001600160501b0316908a565b604080516001600160a01b039b8c168152602081019a909a526001600160401b03988916908a0152958916606089015295909316608087015290861660a0860152851660c08501529390931660e08301526001600160501b03166101008201526101208101919091526101400161017d565b3480156103a657600080fd5b5061014f61172b565b3480156103bb57600080fd5b506101a67f000000000000000000000000000000000000000000000000000000000000000081565b3480156103ef57600080fd5b506097546001600160a01b03166101a6565b34801561040d57600080fd5b506101a67f000000000000000000000000000000000000000000000000000000000000000081565b34801561044157600080fd5b5061014f6104503660046135ea565b611761565b34801561046157600080fd5b506104896104703660046135ea565b60fc602052600090815260409020805460019091015482565b6040805192835260208301919091520161017d565b3480156104aa57600080fd5b5061014f6104b9366004613602565b611aa6565b3480156104ca57600080fd5b506101a67f000000000000000000000000000000000000000000000000000000000000000081565b3480156104fe57600080fd5b5061014f61050d366004613436565b611ca8565b34801561051e57600080fd5b5061014f61052d366004613436565b611d47565b600081815260fb602090815260409182902082516101408101845281546001600160a01b03908116825260018301549382019390935260028201546001600160401b0380821695830195909552600160401b908190048416606083015260038301549485166080830152909304821660a084018190526004820154831660c0850152600582015492831660e0850152600160a01b9092046001600160501b03166101008401526006015461012083015233146106355760405162461bcd60e51b815260206004820152601a60248201527f4f6e6c79207265736572766520627579657220616c6c6f77656400000000000060448201526064015b60405180910390fd5b610120810151600083815260fc6020526040902060010154106106895760405162461bcd60e51b815260206004820152600c60248201526b105b1c9958591e481c185a5960a21b604482015260640161062c565b427f00000000000000000000000000000000000000000000000000000000000000006001600160a01b0316633306607d6040518163ffffffff1660e01b815260040160206040518083038186803b1580156106e357600080fd5b505afa1580156106f7573d6000803e3d6000fd5b505050506040513d601f19601f8201168201806040525081019061071b9190613623565b8260800151836040015161072f91906138c1565b6001600160401b031661074291906138a9565b116107885760405162461bcd60e51b815260206004820152601660248201527514195c9a5bd9081d1bc81c185e48199a5b9a5cda195960521b604482015260640161062c565b61012081018051600084815260fc6020526040902060010155516107d990339030906107b390611ddf565b8461012001516107c391906138a9565b60c08501516001600160a01b0316929190611ea7565b7fc01a2780b876b96a07f327550ae58483c0781980f700fee4a529047c2875e130816000015182602001518360c001518460e0015185610120015186610100015187606001518860a0015160405161083898979695949392919061369c565b60405180910390a15050565b600081815260fb6020908152604080832081516101408101835281546001600160a01b03908116825260018301549482019490945260028201546001600160401b0380821694830194909452600160401b908190048516606083015260038301549384166080830152909204831660a08301526004810154831660c0830152600581015492831660e0830152600160a01b9092046001600160501b031661010082015260069091015461012082018190526109115760405162461bcd60e51b815260040161062c90613720565b600083815260fc602090815260409182902082518084019093528054835260010154908201526109418282611f05565b949350505050565b600082815260fb602090815260409182902082516101408101845281546001600160a01b03908116825260018301549382019390935260028201546001600160401b0380821695830195909552600160401b908190048416606083015260038301549485166080830152909304821660a08401526004810154821660c0840152600581015491821660e0840152600160a01b9091046001600160501b0316610100830152600601546101208201819052610a155760405162461bcd60e51b815260040161062c90613720565b8060a001516001600160a01b0316336001600160a01b031614610a6f5760405162461bcd60e51b815260206004820152601260248201527113db9b1e48189d5e595c88185b1b1bddd95960721b604482015260640161062c565b600083815260fc6020908152604091829020825180840190935280548352600101549082018190526101208301511115610b54576000610ab16002600a61394f565b610abc9060646139f7565b8361012001518461010001516001600160501b0316610adb91906139f7565b610ae591906138ec565b8251909150610af5908590613a16565b811115610b4e5760405162461bcd60e51b815260206004820152602160248201527f417474656d7020746f20756e636f6c6c61746572616c697a65207265736572766044820152606560f81b606482015260840161062c565b50610ba5565b8051831115610ba55760405162461bcd60e51b815260206004820152601f60248201527f496e73756666696369656e7420616d6f756e7420666f72207265717565737400604482015260640161062c565b8051610bb2908490613a16565b600085815260fc602052604090205560e0820151610bda906001600160a01b031633856121d8565b60408051858152602081018590527f2eeef412bfb6575b7cc292cd3882b79d06849f5e747c2a125ecb8c38af838c6091015b60405180910390a150505050565b306001600160a01b037f0000000000000000000000000000000000000000000000000000000000000000161415610c635760405162461bcd60e51b815260040161062c90613757565b7f00000000000000000000000000000000000000000000000000000000000000006001600160a01b0316610c9561220d565b6001600160a01b031614610cbb5760405162461bcd60e51b815260040161062c906137a3565b610cc48161223b565b60408051600080825260208201909252610ce091839190612265565b50565b336001600160a01b037f00000000000000000000000000000000000000000000000000000000000000001614610d665760405162461bcd60e51b815260206004820152602260248201527f4f6e6c792063616c6c61626c652066726f6d20746865206d61726b6574706c61604482015261636560f01b606482015260840161062c565b604080516001600160a01b03808d1660208301529181018b90528184166060820152908216608082015260009060a0016040516020818303038152906040528051906020012090506040518061014001604052808c6001600160a01b031681526020018b8152602001856001600160401b03168152602001846001600160a01b03168152602001426001600160401b03168152602001836001600160a01b031681526020018a6001600160a01b03168152602001896001600160a01b03168152602001876001600160501b031681526020018881525060fb600083815260200190815260200160002060008201518160000160006101000a8154816001600160a01b0302191690836001600160a01b031602179055506020820151816001015560408201518160020160006101000a8154816001600160401b0302191690836001600160401b0316021790555060608201518160020160086101000a8154816001600160a01b0302191690836001600160a01b0316021790555060808201518160030160006101000a8154816001600160401b0302191690836001600160401b0316021790555060a08201518160030160086101000a8154816001600160a01b0302191690836001600160a01b0316021790555060c08201518160040160006101000a8154816001600160a01b0302191690836001600160a01b0316021790555060e08201518160050160006101000a8154816001600160a01b0302191690836001600160a01b031602179055506101008201518160050160146101000a8154816001600160501b0302191690836001600160501b0316021790555061012082015181600601559050508460fc6000838152602001908152602001600020600001819055505050505050505050505050565b600260c954141561101b5760405162461bcd60e51b815260040161062c90613872565b600260c9819055600082815260fb602090815260409182902082516101408101845281546001600160a01b039081168252600183015493820193909352938101546001600160401b0380821694860194909452600160401b908190048316606086015260038201549384166080860152909204811660a08401526004820154811660c0840152600582015490811660e0840152600160a01b90046001600160501b03166101008301526006015461012082018190526110ec5760405162461bcd60e51b815260040161062c90613720565b600082815260fc6020908152604091829020825180840190935280548352600101549082018190526101208301511161115e5760405162461bcd60e51b815260206004820152601460248201527314995cd95c9d9948185b1c9958591e481c185a5960621b604482015260640161062c565b6111688282611f05565b6111b45760405162461bcd60e51b815260206004820152601f60248201527f4e6f6e20756e646572636f6c6c61746572616c697a6564207265736572766500604482015260640161062c565b6111be81836123b0565b5050600090815260fb6020526040812080546001600160a01b0319908116825560018083018490556002830180546001600160e01b031990811690915560038401805490911690556004830180549092169091556005820180546001600160f01b031916905560069091019190915560c955565b306001600160a01b037f000000000000000000000000000000000000000000000000000000000000000016141561127b5760405162461bcd60e51b815260040161062c90613757565b7f00000000000000000000000000000000000000000000000000000000000000006001600160a01b03166112ad61220d565b6001600160a01b0316146112d35760405162461bcd60e51b815260040161062c906137a3565b6112dc8261223b565b6112e882826001612265565b5050565b6097546001600160a01b031633146113165760405162461bcd60e51b815260040161062c9061383d565b6001600160a01b03811661135e5760405162461bcd60e51b815260206004820152600f60248201526e496e76616c6964206164647265737360881b604482015260640161062c565b60fd80546001600160a01b0319166001600160a01b0392909216919091179055565b600260c95414156113a35760405162461bcd60e51b815260040161062c90613872565b600260c9819055600082815260fb602090815260409182902082516101408101845281546001600160a01b039081168252600183015493820193909352938101546001600160401b0380821694860194909452600160401b908190048316606086015260038201549384166080860152909204811660a08401526004820154811660c0840152600582015490811660e0840152600160a01b90046001600160501b03166101008301526006015461012082018190526114745760405162461bcd60e51b815260040161062c90613720565b80606001516001600160a01b0316336001600160a01b031614156115a957427f00000000000000000000000000000000000000000000000000000000000000006001600160a01b0316633306607d6040518163ffffffff1660e01b815260040160206040518083038186803b1580156114ec57600080fd5b505afa158015611500573d6000803e3d6000fd5b505050506040513d601f19601f820116820180604052508101906115249190613623565b8260800151836040015161153891906138c1565b6001600160401b031661154b91906138a9565b106115a45760405162461bcd60e51b8152602060048201526024808201527f427579657220706572696f6420746f20706179206e6f742066696e6973686564604482015263081e595d60e21b606482015260840161062c565b61168c565b8060a001516001600160a01b0316336001600160a01b031614156116325742816080015182604001516115dc91906138c1565b6001600160401b0316106115a45760405162461bcd60e51b815260206004820152601f60248201527f5265736572766520706572696f64206e6f742066696e69736865642079657400604482015260640161062c565b60405162461bcd60e51b815260206004820152602960248201527f496e76616c69642063616c6c65722e2053686f756c642062652062757965722060448201526837b91039b2b63632b960b91b606482015260840161062c565b600082815260fc60209081526040918290208251808401909352805483526001015490820181905261012083015114156116f8576116f381836000015184602001518561012001518660c001518760e0015188610100015189606001518a60a00151612491565b6111be565b6111be81836000015184602001518561012001518660c001518760e0015188610100015189606001518a60a001516125c1565b6097546001600160a01b031633146117555760405162461bcd60e51b815260040161062c9061383d565b61175f6000612711565b565b600260c95414156117845760405162461bcd60e51b815260040161062c90613872565b600260c9819055600082815260fb602090815260409182902082516101408101845281546001600160a01b039081168252600183015493820193909352938101546001600160401b0380821694860194909452600160401b908190048316606086015260038201549384166080860152909204811660a08401526004820154811660c0840152600582015490811660e0840152600160a01b90046001600160501b03166101008301526006015461012082018190526118555760405162461bcd60e51b815260040161062c90613720565b428160800151826040015161186a91906138c1565b6001600160401b0316116118ca5760405162461bcd60e51b815260206004820152602160248201527f5265736572766520657870697265642e20506179206f72206c697175696461746044820152606560f81b606482015260840161062c565b600082815260fc6020908152604091829020825180840190935280548352600101549082015260608201516001600160a01b03163314156119325761192d81836000015184602001518560a001518660c001518760e00151886101200151612763565b611978565b8160a001516001600160a01b0316336001600160a01b031614156116325761192d81836000015184602001518560a001518660c001518760e00151886101200151612916565b600083815260fb6020908152604080832080546001600160a01b03199081168255600182018590556002820180546001600160e01b0319908116909155600383018054909116905560048201805490911690556005810180546001600160f01b03191690556006019290925583519084015160c085015160e0860151610120870151610100880151606089015160a08a015197517f818527598fe923882714e6fa6a6052e734f5bb606481d7849a3117444d335d7c98611a94989796959493929133906001600160a01b03998a16815260208101989098529588166040880152938716606087015260808601929092526001600160501b031660a0850152841660c0840152831660e08301529091166101008201526101200190565b60405180910390a15050600160c95550565b600082815260fb602090815260409182902082516101408101845281546001600160a01b03908116825260018301549382019390935260028201546001600160401b0380821695830195909552600160401b908190048416606083015260038301549485166080830152909304821660a08401526004810154821660c0840152600581015491821660e0840152600160a01b9091046001600160501b0316610100830152600601546101208201819052611b725760405162461bcd60e51b815260040161062c90613720565b8060a001516001600160a01b0316336001600160a01b031614611bcc5760405162461bcd60e51b815260206004820152601260248201527113db9b1e48189d5e595c88185b1b1bddd95960721b604482015260640161062c565b600083815260fc60209081526040918290208251808401909352805483526001015490820181905261012083015111611c3c5760405162461bcd60e51b8152602060048201526012602482015271141c9a58d948185b1c9958591e481c185a5960721b604482015260640161062c565b8051611c499084906138a9565b600085815260fc602052604090205560e0820151611c72906001600160a01b0316333086611ea7565b60408051858152602081018590527f7a878b8a5ef84c5ab93987e3b076c5464d546d4f34625c9522a9e802d816e3509101610c0c565b600054610100900460ff1680611cc1575060005460ff16155b611cdd5760405162461bcd60e51b815260040161062c906137ef565b600054610100900460ff16158015611cff576000805461ffff19166101011790555b60fd80546001600160a01b0319166001600160a01b038416179055611d22612ab7565b611d2a612b32565b611d32612b99565b80156112e8576000805461ff00191690555050565b6097546001600160a01b03163314611d715760405162461bcd60e51b815260040161062c9061383d565b6001600160a01b038116611dd65760405162461bcd60e51b815260206004820152602660248201527f4f776e61626c653a206e6577206f776e657220697320746865207a65726f206160448201526564647265737360d01b606482015260840161062c565b610ce081612711565b6000807f00000000000000000000000000000000000000000000000000000000000000006001600160a01b031663b0e21e8a6040518163ffffffff1660e01b815260040160206040518083038186803b158015611e3b57600080fd5b505afa158015611e4f573d6000803e3d6000fd5b505050506040513d601f19601f82011682018060405250810190611e739190613623565b9050611e816002600a61394f565b611e8c9060646139f7565b611e9682856139f7565b611ea091906138ec565b9392505050565b611eff846323b872dd60e01b858585604051602401611ec893929190613678565b60408051601f198184030181529190526020810180516001600160e01b03166001600160e01b031990931692909217909152612bf8565b50505050565b6000808360e001516001600160a01b031663313ce5676040518163ffffffff1660e01b815260040160206040518083038186803b158015611f4557600080fd5b505afa158015611f59573d6000803e3d6000fd5b505050506040513d601f19601f82011682018060405250810190611f7d919061363b565b60ff16905060008460c001516001600160a01b031663313ce5676040518163ffffffff1660e01b815260040160206040518083038186803b158015611fc157600080fd5b505afa158015611fd5573d6000803e3d6000fd5b505050506040513d601f19601f82011682018060405250810190611ff9919061363b565b60fd5460e08701516040516315d5220f60e31b81526001600160a01b03918216600482015260ff93909316935060009291169063aea910789060240160206040518083038186803b15801561204d57600080fd5b505afa158015612061573d6000803e3d6000fd5b505050506040513d601f19601f820116820180604052508101906120859190613623565b60fd5460c08801516040516315d5220f60e31b81526001600160a01b03918216600482015292935060009291169063aea910789060240160206040518083038186803b1580156120d457600080fd5b505afa1580156120e8573d6000803e3d6000fd5b505050506040513d601f19601f8201168201806040525081019061210c9190613623565b9050600082876000015161212091906139f7565b905060008289610120015161213591906139f7565b90506000858711156121675761214b8688613a16565b61215690600a61394f565b61216090846138ec565b9050612189565b6121718787613a16565b61217c90600a61394f565b61218690846139f7565b90505b6000826121986002600a61394f565b6121a38460646139f7565b6121ad91906139f7565b6121b791906138ec565b6101008c01516001600160501b031611985050505050505050505b92915050565b6040516001600160a01b03831660248201526044810182905261220890849063a9059cbb60e01b90606401611ec8565b505050565b7f360894a13ba1a3210667c828492db98dca3e2076cc3735a920a3ca505d382bbc546001600160a01b031690565b6097546001600160a01b03163314610ce05760405162461bcd60e51b815260040161062c9061383d565b600061226f61220d565b905061227a84612cca565b6000835111806122875750815b15612298576122968484612d6f565b505b7f4910fdfa16fed3260ed0e7147f7cc6da11a60208b5b9406d12a635614ffd9143805460ff166123a957805460ff191660011781556040516001600160a01b038316602482015261231790869060440160408051601f198184030181529190526020810180516001600160e01b0316631b2ce7f360e11b179052612d6f565b50805460ff1916815561232861220d565b6001600160a01b0316826001600160a01b0316146123a05760405162461bcd60e51b815260206004820152602f60248201527f45524331393637557067726164653a207570677261646520627265616b73206660448201526e75727468657220757067726164657360881b606482015260840161062c565b6123a985612e5a565b5050505050565b6060810151825160e08301516123d1926001600160a01b03909116916121d8565b8051606082015160208301516040516323b872dd60e01b81526001600160a01b03909316926323b872dd9261240a923092600401613678565b600060405180830381600087803b15801561242457600080fd5b505af1158015612438573d6000803e3d6000fd5b50508251602084015160c085015160e0860151610120870151610100880151606089015160a08a01516040517f8e6cf5f873ea2619b2a562a66a30e7b7921011bca94e5b4d55e2544e937dcddb9a50610838995061369c565b60006124a08a60200151611ddf565b90506124e27f00000000000000000000000000000000000000000000000000000000000000006124d18360026139f7565b6001600160a01b03891691906121d8565b6124f683828c602001516124d19190613a16565b895161250e906001600160a01b0387169084906121d8565b6040516323b872dd60e01b81526001600160a01b038a16906323b872dd9061253e90309086908d90600401613678565b600060405180830381600087803b15801561255857600080fd5b505af115801561256c573d6000803e3d6000fd5b505050507f015317ba66b5b3aab1efc9f0a087701cbe6a33e15d26801a996a58086c815c37898988888b8989896040516125ad98979695949392919061369c565b60405180910390a150505050505050505050565b60006125cf87878787612e9a565b905060006125e08b60200151611ddf565b9050818b6000015111156126155761260283838d600001516124d19190613a16565b612610846124d18385613a16565b612629565b61262984828d600001516124d19190613a16565b61265d6001600160a01b0388167f0000000000000000000000000000000000000000000000000000000000000000836121d8565b6040516323b872dd60e01b81526001600160a01b038b16906323b872dd9061268d90309088908e90600401613678565b600060405180830381600087803b1580156126a757600080fd5b505af11580156126bb573d6000803e3d6000fd5b505050507f8f0ac3e23f2506d067c91ee589b8a5b0af1d0c96c291b19234a4513e8af4d7208a8a89898c8a8a8a6040516126fc98979695949392919061369c565b60405180910390a15050505050505050505050565b609780546001600160a01b038381166001600160a01b0319831681179093556040519116919082907f8be0079c531659141344cd1fd0a4f28419497f9722a3daafe3b4186f6b6457e090600090a35050565b600060647f00000000000000000000000000000000000000000000000000000000000000006001600160a01b031663bf15f39c6040518163ffffffff1660e01b815260040160206040518083038186803b1580156127c057600080fd5b505afa1580156127d4573d6000803e3d6000fd5b505050506040513d601f19601f820116820180604052508101906127f89190613623565b61280290846139f7565b61280c91906138ec565b9050600061281982611ddf565b905061285d337f000000000000000000000000000000000000000000000000000000000000000061284b8460026139f7565b6001600160a01b038916929190611ea7565b61286c338761284b8486613a16565b8851612884906001600160a01b0386169088906121d8565b6020890151156128a95760208901516128a9906001600160a01b0387169088906121d8565b6040516323b872dd60e01b81526001600160a01b038916906323b872dd906128d990309033908c90600401613678565b600060405180830381600087803b1580156128f357600080fd5b505af1158015612907573d6000803e3d6000fd5b50505050505050505050505050565b600060647f00000000000000000000000000000000000000000000000000000000000000006001600160a01b0316635b353dce6040518163ffffffff1660e01b815260040160206040518083038186803b15801561297357600080fd5b505afa158015612987573d6000803e3d6000fd5b505050506040513d601f19601f820116820180604052508101906129ab9190613623565b6129b590846139f7565b6129bf91906138ec565b905060006129cc82611ddf565b90506129fe337f000000000000000000000000000000000000000000000000000000000000000061284b8460026139f7565b612a0d338761284b8486613a16565b6040516323b872dd60e01b81526001600160a01b038916906323b872dd90612a3d9030908a908c90600401613678565b600060405180830381600087803b158015612a5757600080fd5b505af1158015612a6b573d6000803e3d6000fd5b50508a51612a8792506001600160a01b038716915033906121d8565b602089015115612aac576020890151612aac906001600160a01b0387169033906121d8565b505050505050505050565b600054610100900460ff1680612ad0575060005460ff16155b612aec5760405162461bcd60e51b815260040161062c906137ef565b600054610100900460ff16158015612b0e576000805461ffff19166101011790555b612b16613170565b612b1e6131da565b8015610ce0576000805461ff001916905550565b600054610100900460ff1680612b4b575060005460ff16155b612b675760405162461bcd60e51b815260040161062c906137ef565b600054610100900460ff16158015612b89576000805461ffff19166101011790555b612b91613170565b612b1e613170565b600054610100900460ff1680612bb2575060005460ff16155b612bce5760405162461bcd60e51b815260040161062c906137ef565b600054610100900460ff16158015612bf0576000805461ffff19166101011790555b612b1e61323a565b6000612c4d826040518060400160405280602081526020017f5361666545524332303a206c6f772d6c6576656c2063616c6c206661696c6564815250856001600160a01b03166132aa9092919063ffffffff16565b8051909150156122085780806020019051810190612c6b91906135ca565b6122085760405162461bcd60e51b815260206004820152602a60248201527f5361666545524332303a204552433230206f7065726174696f6e20646964206e6044820152691bdd081cdd58d8d9595960b21b606482015260840161062c565b803b612d2e5760405162461bcd60e51b815260206004820152602d60248201527f455243313936373a206e657720696d706c656d656e746174696f6e206973206e60448201526c1bdd08184818dbdb9d1c9858dd609a1b606482015260840161062c565b7f360894a13ba1a3210667c828492db98dca3e2076cc3735a920a3ca505d382bbc80546001600160a01b0319166001600160a01b0392909216919091179055565b6060823b612dce5760405162461bcd60e51b815260206004820152602660248201527f416464726573733a2064656c65676174652063616c6c20746f206e6f6e2d636f6044820152651b9d1c9858dd60d21b606482015260840161062c565b600080846001600160a01b031684604051612de9919061365c565b600060405180830381855af49150503d8060008114612e24576040519150601f19603f3d011682016040523d82523d6000602084013e612e29565b606091505b5091509150612e518282604051806060016040528060278152602001613a86602791396132b9565b95945050505050565b612e6381612cca565b6040516001600160a01b038216907fbc7cd75a20ee27fd9adebab32041f755214dbc6bffa90cc0225b39da2e5c2d3b90600090a250565b600080836001600160a01b031663313ce5676040518163ffffffff1660e01b815260040160206040518083038186803b158015612ed657600080fd5b505afa158015612eea573d6000803e3d6000fd5b505050506040513d601f19601f82011682018060405250810190612f0e919061363b565b60ff1690506000856001600160a01b031663313ce5676040518163ffffffff1660e01b815260040160206040518083038186803b158015612f4e57600080fd5b505afa158015612f62573d6000803e3d6000fd5b505050506040513d601f19601f82011682018060405250810190612f86919061363b565b60fd546040516315d5220f60e31b81526001600160a01b03888116600483015260ff9390931693506000929091169063aea910789060240160206040518083038186803b158015612fd657600080fd5b505afa158015612fea573d6000803e3d6000fd5b505050506040513d601f19601f8201168201806040525081019061300e9190613623565b60fd546040516315d5220f60e31b81526001600160a01b038a811660048301529293506000929091169063aea910789060240160206040518083038186803b15801561305957600080fd5b505afa15801561306d573d6000803e3d6000fd5b505050506040513d601f19601f820116820180604052508101906130919190613623565b90506000821180156130a35750600081115b6130bd57634e487b7160e01b600052600160045260246000fd5b60006130c9828b6139f7565b905060006130d96002600a61394f565b6130e49060646139f7565b6130f7836001600160501b038b166139f7565b61310191906138ec565b9050600061310f85836138ec565b90508587101561313f576131238787613a16565b61312e90600a61394f565b61313890826138ec565b9750613161565b6131498688613a16565b61315490600a61394f565b61315e90826139f7565b97505b50505050505050949350505050565b600054610100900460ff1680613189575060005460ff16155b6131a55760405162461bcd60e51b815260040161062c906137ef565b600054610100900460ff16158015612b1e576000805461ffff19166101011790558015610ce0576000805461ff001916905550565b600054610100900460ff16806131f3575060005460ff16155b61320f5760405162461bcd60e51b815260040161062c906137ef565b600054610100900460ff16158015613231576000805461ffff19166101011790555b612b1e33612711565b600054610100900460ff1680613253575060005460ff16155b61326f5760405162461bcd60e51b815260040161062c906137ef565b600054610100900460ff16158015613291576000805461ffff19166101011790555b600160c9558015610ce0576000805461ff001916905550565b606061094184846000856132f2565b606083156132c8575081611ea0565b8251156132d85782518084602001fd5b8160405162461bcd60e51b815260040161062c91906136ed565b6060824710156133535760405162461bcd60e51b815260206004820152602660248201527f416464726573733a20696e73756666696369656e742062616c616e636520666f6044820152651c8818d85b1b60d21b606482015260840161062c565b843b6133a15760405162461bcd60e51b815260206004820152601d60248201527f416464726573733a2063616c6c20746f206e6f6e2d636f6e7472616374000000604482015260640161062c565b600080866001600160a01b031685876040516133bd919061365c565b60006040518083038185875af1925050503d80600081146133fa576040519150601f19603f3d011682016040523d82523d6000602084013e6133ff565b606091505b509150915061340f8282866132b9565b979650505050505050565b80356001600160a01b038116811461343157600080fd5b919050565b600060208284031215613447578081fd5b611ea08261341a565b60008060408385031215613462578081fd5b61346b8361341a565b915060208301356001600160401b0380821115613486578283fd5b818501915085601f830112613499578283fd5b8135818111156134ab576134ab613a6f565b604051601f8201601f19908116603f011681019083821181831017156134d3576134d3613a6f565b816040528281528860208487010111156134eb578586fd5b82602086016020830137856020848301015280955050505050509250929050565b6000806000806000806000806000806101408b8d03121561352b578586fd5b6135348b61341a565b995060208b0135985061354960408c0161341a565b975061355760608c0161341a565b965060808b0135955060a08b01356001600160501b0381168114613579578586fd5b945060c08b0135935060e08b01356001600160401b038116811461359b578384fd5b92506135aa6101008c0161341a565b91506135b96101208c0161341a565b90509295989b9194979a5092959850565b6000602082840312156135db578081fd5b81518015158114611ea0578182fd5b6000602082840312156135fb578081fd5b5035919050565b60008060408385031215613614578182fd5b50508035926020909101359150565b600060208284031215613634578081fd5b5051919050565b60006020828403121561364c578081fd5b815160ff81168114611ea0578182fd5b6000825161366e818460208701613a2d565b9190910192915050565b6001600160a01b039384168152919092166020820152604081019190915260600190565b6001600160a01b03988916815260208101979097529487166040870152928616606086015260808501919091526001600160501b031660a0840152831660c083015290911660e08201526101000190565b602081526000825180602084015261370c816040850160208701613a2d565b601f01601f19169190910160400192915050565b6020808252601b908201527f4e6f6e2d6578697374656e742061637469766520726573657276650000000000604082015260600190565b6020808252602c908201527f46756e6374696f6e206d7573742062652063616c6c6564207468726f7567682060408201526b19195b1959d85d1958d85b1b60a21b606082015260800190565b6020808252602c908201527f46756e6374696f6e206d7573742062652063616c6c6564207468726f7567682060408201526b6163746976652070726f787960a01b606082015260800190565b6020808252602e908201527f496e697469616c697a61626c653a20636f6e747261637420697320616c72656160408201526d191e481a5b9a5d1a585b1a5e995960921b606082015260800190565b6020808252818101527f4f776e61626c653a2063616c6c6572206973206e6f7420746865206f776e6572604082015260600190565b6020808252601f908201527f5265656e7472616e637947756172643a207265656e7472616e742063616c6c00604082015260600190565b600082198211156138bc576138bc613a59565b500190565b60006001600160401b038083168185168083038211156138e3576138e3613a59565b01949350505050565b60008261390757634e487b7160e01b81526012600452602481fd5b500490565b600181815b8085111561394757816000190482111561392d5761392d613a59565b8085161561393a57918102915b93841c9390800290613911565b509250929050565b6000611ea08383600082613965575060016121d2565b81613972575060006121d2565b81600181146139885760028114613992576139ae565b60019150506121d2565b60ff8411156139a3576139a3613a59565b50506001821b6121d2565b5060208310610133831016604e8410600b84101617156139d1575081810a6121d2565b6139db838361390c565b80600019048211156139ef576139ef613a59565b029392505050565b6000816000190483118215151615613a1157613a11613a59565b500290565b600082821015613a2857613a28613a59565b500390565b60005b83811015613a48578181015183820152602001613a30565b83811115611eff5750506000910152565b634e487b7160e01b600052601160045260246000fd5b634e487b7160e01b600052604160045260246000fdfe416464726573733a206c6f772d6c6576656c2064656c65676174652063616c6c206661696c6564a26469706673582212202fd3407e96bca32ab28d02c2c0e0ac4fa83ad87f15067f58c5466086dc547c3164736f6c63430008040033",
  "linkReferences": {},
  "deployedLinkReferences": {}
}