{
  "_format": "hh-sol-artifact-1",
  "contractName": "ReserveMarketplace",
  "sourceName": "contracts/ReserveMarketplace.sol",
  "abi": [
    {
      "inputs": [
        {
          "internalType": "address",
          "name": "protocolParameters_",
          "type": "address"
        }
      ],
      "stateMutability": "nonpayable",
      "type": "constructor"
    },
    {
      "anonymous": false,
      "inputs": [
        {
          "indexed": false,
          "internalType": "address",
          "name": "previousAdmin",
          "type": "address"
        },
        {
          "indexed": false,
          "internalType": "address",
          "name": "newAdmin",
          "type": "address"
        }
      ],
      "name": "AdminChanged",
      "type": "event"
    },
    {
      "anonymous": false,
      "inputs": [
        {
          "indexed": true,
          "internalType": "address",
          "name": "beacon",
          "type": "address"
        }
      ],
      "name": "BeaconUpgraded",
      "type": "event"
    },
    {
      "anonymous": false,
      "inputs": [
        {
          "indexed": true,
          "internalType": "address",
          "name": "previousOwner",
          "type": "address"
        },
        {
          "indexed": true,
          "internalType": "address",
          "name": "newOwner",
          "type": "address"
        }
      ],
      "name": "OwnershipTransferred",
      "type": "event"
    },
    {
      "anonymous": false,
      "inputs": [
        {
          "indexed": false,
          "internalType": "address",
          "name": "collection",
          "type": "address"
        },
        {
          "indexed": false,
          "internalType": "uint256",
          "name": "tokenId",
          "type": "uint256"
        },
        {
          "indexed": false,
          "internalType": "address",
          "name": "paymentToken",
          "type": "address"
        },
        {
          "indexed": false,
          "internalType": "address",
          "name": "collateralToken",
          "type": "address"
        },
        {
          "indexed": false,
          "internalType": "uint256",
          "name": "price",
          "type": "uint256"
        },
        {
          "indexed": false,
          "internalType": "uint256",
          "name": "collateralPercent",
          "type": "uint256"
        },
        {
          "indexed": false,
          "internalType": "uint256",
          "name": "reservePeriod",
          "type": "uint256"
        }
      ],
      "name": "PurchaseReserveProposalCanceled",
      "type": "event"
    },
    {
      "anonymous": false,
      "inputs": [
        {
          "indexed": false,
          "internalType": "address",
          "name": "collection",
          "type": "address"
        },
        {
          "indexed": false,
          "internalType": "uint256",
          "name": "tokenId",
          "type": "uint256"
        },
        {
          "indexed": false,
          "internalType": "address",
          "name": "paymentToken",
          "type": "address"
        },
        {
          "indexed": false,
          "internalType": "address",
          "name": "collateralToken",
          "type": "address"
        },
        {
          "indexed": false,
          "internalType": "uint256",
          "name": "price",
          "type": "uint256"
        },
        {
          "indexed": false,
          "internalType": "uint256",
          "name": "collateralPercent",
          "type": "uint256"
        },
        {
          "indexed": false,
          "internalType": "uint256",
          "name": "reservePeriod",
          "type": "uint256"
        },
        {
          "indexed": false,
          "internalType": "uint256",
          "name": "validityPeriod",
          "type": "uint256"
        }
      ],
      "name": "PurchaseReserveProposed",
      "type": "event"
    },
    {
      "anonymous": false,
      "inputs": [
        {
          "indexed": false,
          "internalType": "address",
          "name": "collection",
          "type": "address"
        },
        {
          "indexed": false,
          "internalType": "uint256",
          "name": "tokenId",
          "type": "uint256"
        },
        {
          "indexed": false,
          "internalType": "address",
          "name": "paymentToken",
          "type": "address"
        },
        {
          "indexed": false,
          "internalType": "address",
          "name": "collateralToken",
          "type": "address"
        },
        {
          "indexed": false,
          "internalType": "uint256",
          "name": "price",
          "type": "uint256"
        },
        {
          "indexed": false,
          "internalType": "uint256",
          "name": "collateralPercent",
          "type": "uint256"
        },
        {
          "indexed": false,
          "internalType": "address",
          "name": "seller",
          "type": "address"
        },
        {
          "indexed": false,
          "internalType": "address",
          "name": "buyer",
          "type": "address"
        },
        {
          "indexed": false,
          "internalType": "uint256",
          "name": "reservePeriod",
          "type": "uint256"
        }
      ],
      "name": "PurchaseReserved",
      "type": "event"
    },
    {
      "anonymous": false,
      "inputs": [
        {
          "indexed": false,
          "internalType": "address",
          "name": "collection",
          "type": "address"
        },
        {
          "indexed": false,
          "internalType": "uint256",
          "name": "tokenId",
          "type": "uint256"
        },
        {
          "indexed": false,
          "internalType": "address",
          "name": "paymentToken",
          "type": "address"
        },
        {
          "indexed": false,
          "internalType": "address",
          "name": "collateralToken",
          "type": "address"
        },
        {
          "indexed": false,
          "internalType": "uint256",
          "name": "price",
          "type": "uint256"
        },
        {
          "indexed": false,
          "internalType": "uint256",
          "name": "collateralPercent",
          "type": "uint256"
        },
        {
          "indexed": false,
          "internalType": "uint256",
          "name": "reservePeriod",
          "type": "uint256"
        }
      ],
      "name": "SaleReserveProposalCanceled",
      "type": "event"
    },
    {
      "anonymous": false,
      "inputs": [
        {
          "indexed": false,
          "internalType": "address",
          "name": "collection",
          "type": "address"
        },
        {
          "indexed": false,
          "internalType": "uint256",
          "name": "tokenId",
          "type": "uint256"
        },
        {
          "indexed": false,
          "internalType": "address",
          "name": "paymentToken",
          "type": "address"
        },
        {
          "indexed": false,
          "internalType": "address",
          "name": "collateralToken",
          "type": "address"
        },
        {
          "indexed": false,
          "internalType": "uint256",
          "name": "price",
          "type": "uint256"
        },
        {
          "indexed": false,
          "internalType": "uint256",
          "name": "collateralPercent",
          "type": "uint256"
        },
        {
          "indexed": false,
          "internalType": "uint256",
          "name": "reservePeriod",
          "type": "uint256"
        },
        {
          "indexed": false,
          "internalType": "uint256",
          "name": "validityPeriod",
          "type": "uint256"
        }
      ],
      "name": "SaleReserveProposed",
      "type": "event"
    },
    {
      "anonymous": false,
      "inputs": [
        {
          "indexed": false,
          "internalType": "address",
          "name": "collection",
          "type": "address"
        },
        {
          "indexed": false,
          "internalType": "uint256",
          "name": "tokenId",
          "type": "uint256"
        },
        {
          "indexed": false,
          "internalType": "address",
          "name": "paymentToken",
          "type": "address"
        },
        {
          "indexed": false,
          "internalType": "address",
          "name": "collateralToken",
          "type": "address"
        },
        {
          "indexed": false,
          "internalType": "uint256",
          "name": "price",
          "type": "uint256"
        },
        {
          "indexed": false,
          "internalType": "uint256",
          "name": "collateralPercent",
          "type": "uint256"
        },
        {
          "indexed": false,
          "internalType": "address",
          "name": "seller",
          "type": "address"
        },
        {
          "indexed": false,
          "internalType": "address",
          "name": "buyer",
          "type": "address"
        },
        {
          "indexed": false,
          "internalType": "uint256",
          "name": "reservePeriod",
          "type": "uint256"
        }
      ],
      "name": "SaleReserved",
      "type": "event"
    },
    {
      "anonymous": false,
      "inputs": [
        {
          "indexed": true,
          "internalType": "address",
          "name": "implementation",
          "type": "address"
        }
      ],
      "name": "Upgraded",
      "type": "event"
    },
    {
      "inputs": [
        {
          "internalType": "address",
          "name": "collection_",
          "type": "address"
        },
        {
          "internalType": "uint256",
          "name": "tokenId_",
          "type": "uint256"
        },
        {
          "internalType": "address",
          "name": "paymentToken_",
          "type": "address"
        },
        {
          "internalType": "address",
          "name": "collateralToken_",
          "type": "address"
        },
        {
          "internalType": "uint256",
          "name": "price_",
          "type": "uint256"
        },
        {
          "internalType": "address",
          "name": "beneficiary_",
          "type": "address"
        },
        {
          "internalType": "uint80",
          "name": "collateralPercent_",
          "type": "uint80"
        },
        {
          "internalType": "uint256",
          "name": "collateralInitialAmount_",
          "type": "uint256"
        },
        {
          "internalType": "uint64",
          "name": "reservePeriod_",
          "type": "uint64"
        },
        {
          "internalType": "uint64",
          "name": "validityPeriod_",
          "type": "uint64"
        },
        {
          "internalType": "address",
          "name": "sellerToMatch_",
          "type": "address"
        }
      ],
      "name": "approveReserveToBuy",
      "outputs": [],
      "stateMutability": "nonpayable",
      "type": "function"
    },
    {
      "inputs": [
        {
          "internalType": "address",
          "name": "collection_",
          "type": "address"
        },
        {
          "internalType": "uint256",
          "name": "tokenId_",
          "type": "uint256"
        },
        {
          "internalType": "address",
          "name": "paymentToken_",
          "type": "address"
        },
        {
          "internalType": "address",
          "name": "collateralToken_",
          "type": "address"
        },
        {
          "internalType": "uint256",
          "name": "price_",
          "type": "uint256"
        },
        {
          "internalType": "address",
          "name": "beneficiary_",
          "type": "address"
        },
        {
          "internalType": "uint80",
          "name": "collateralPercent_",
          "type": "uint80"
        },
        {
          "internalType": "uint64",
          "name": "reservePeriod_",
          "type": "uint64"
        },
        {
          "internalType": "uint64",
          "name": "validityPeriod_",
          "type": "uint64"
        },
        {
          "internalType": "address",
          "name": "buyerToMatch_",
          "type": "address"
        }
      ],
      "name": "approveReserveToSell",
      "outputs": [],
      "stateMutability": "nonpayable",
      "type": "function"
    },
    {
      "inputs": [
        {
          "internalType": "address",
          "name": "collection_",
          "type": "address"
        },
        {
          "internalType": "uint256",
          "name": "tokenId_",
          "type": "uint256"
        },
        {
          "internalType": "address",
          "name": "paymentToken_",
          "type": "address"
        },
        {
          "internalType": "address",
          "name": "collateralToken_",
          "type": "address"
        },
        {
          "internalType": "uint256",
          "name": "price_",
          "type": "uint256"
        },
        {
          "internalType": "uint80",
          "name": "collateralPercent_",
          "type": "uint80"
        },
        {
          "internalType": "uint64",
          "name": "reservePeriod_",
          "type": "uint64"
        },
        {
          "internalType": "address",
          "name": "buyer_",
          "type": "address"
        }
      ],
      "name": "cancelPurchaseReserveProposal",
      "outputs": [],
      "stateMutability": "nonpayable",
      "type": "function"
    },
    {
      "inputs": [
        {
          "internalType": "address",
          "name": "collection_",
          "type": "address"
        },
        {
          "internalType": "uint256",
          "name": "tokenId_",
          "type": "uint256"
        },
        {
          "internalType": "address",
          "name": "paymentToken_",
          "type": "address"
        },
        {
          "internalType": "address",
          "name": "collateralToken_",
          "type": "address"
        },
        {
          "internalType": "uint256",
          "name": "price_",
          "type": "uint256"
        },
        {
          "internalType": "uint80",
          "name": "collateralPercent_",
          "type": "uint80"
        },
        {
          "internalType": "uint64",
          "name": "reservePeriod_",
          "type": "uint64"
        },
        {
          "internalType": "address",
          "name": "owner_",
          "type": "address"
        }
      ],
      "name": "cancelSaleReserveProposal",
      "outputs": [],
      "stateMutability": "nonpayable",
      "type": "function"
    },
    {
      "inputs": [
        {
          "internalType": "address",
          "name": "collection_",
          "type": "address"
        },
        {
          "internalType": "uint256",
          "name": "tokenId_",
          "type": "uint256"
        },
        {
          "internalType": "address",
          "name": "paymentToken_",
          "type": "address"
        },
        {
          "internalType": "address",
          "name": "collateralToken_",
          "type": "address"
        },
        {
          "internalType": "uint256",
          "name": "price_",
          "type": "uint256"
        },
        {
          "internalType": "uint80",
          "name": "collateralPercent_",
          "type": "uint80"
        },
        {
          "internalType": "uint64",
          "name": "reservePeriod_",
          "type": "uint64"
        },
        {
          "internalType": "address",
          "name": "buyer_",
          "type": "address"
        }
      ],
      "name": "getPurchaseReserveProposal",
      "outputs": [
        {
          "components": [
            {
              "internalType": "address",
              "name": "collection",
              "type": "address"
            },
            {
              "internalType": "uint256",
              "name": "tokenId",
              "type": "uint256"
            },
            {
              "internalType": "address",
              "name": "paymentToken",
              "type": "address"
            },
            {
              "internalType": "address",
              "name": "collateralToken",
              "type": "address"
            },
            {
              "internalType": "uint64",
              "name": "expirationTimestamp",
              "type": "uint64"
            },
            {
              "internalType": "uint256",
              "name": "price",
              "type": "uint256"
            },
            {
              "internalType": "uint256",
              "name": "collateralInitialAmount",
              "type": "uint256"
            },
            {
              "internalType": "uint80",
              "name": "collateralPercent",
              "type": "uint80"
            },
            {
              "internalType": "address",
              "name": "buyer",
              "type": "address"
            },
            {
              "internalType": "address",
              "name": "beneficiary",
              "type": "address"
            },
            {
              "internalType": "uint64",
              "name": "reservePeriod",
              "type": "uint64"
            }
          ],
          "internalType": "struct PurchaseReserveProposal",
          "name": "proposal",
          "type": "tuple"
        },
        {
          "internalType": "bytes32",
          "name": "id",
          "type": "bytes32"
        }
      ],
      "stateMutability": "view",
      "type": "function"
    },
    {
      "inputs": [
        {
          "internalType": "bytes32",
          "name": "id_",
          "type": "bytes32"
        }
      ],
      "name": "getPurchaseReserveProposalById",
      "outputs": [
        {
          "components": [
            {
              "internalType": "address",
              "name": "collection",
              "type": "address"
            },
            {
              "internalType": "uint256",
              "name": "tokenId",
              "type": "uint256"
            },
            {
              "internalType": "address",
              "name": "paymentToken",
              "type": "address"
            },
            {
              "internalType": "address",
              "name": "collateralToken",
              "type": "address"
            },
            {
              "internalType": "uint64",
              "name": "expirationTimestamp",
              "type": "uint64"
            },
            {
              "internalType": "uint256",
              "name": "price",
              "type": "uint256"
            },
            {
              "internalType": "uint256",
              "name": "collateralInitialAmount",
              "type": "uint256"
            },
            {
              "internalType": "uint80",
              "name": "collateralPercent",
              "type": "uint80"
            },
            {
              "internalType": "address",
              "name": "buyer",
              "type": "address"
            },
            {
              "internalType": "address",
              "name": "beneficiary",
              "type": "address"
            },
            {
              "internalType": "uint64",
              "name": "reservePeriod",
              "type": "uint64"
            }
          ],
          "internalType": "struct PurchaseReserveProposal",
          "name": "proposal",
          "type": "tuple"
        }
      ],
      "stateMutability": "view",
      "type": "function"
    },
    {
      "inputs": [
        {
          "internalType": "address",
          "name": "collection_",
          "type": "address"
        },
        {
          "internalType": "uint256",
          "name": "tokenId_",
          "type": "uint256"
        },
        {
          "internalType": "address",
          "name": "paymentToken_",
          "type": "address"
        },
        {
          "internalType": "address",
          "name": "collateralToken_",
          "type": "address"
        },
        {
          "internalType": "uint256",
          "name": "price_",
          "type": "uint256"
        },
        {
          "internalType": "uint80",
          "name": "collateralPercent_",
          "type": "uint80"
        },
        {
          "internalType": "uint64",
          "name": "reservePeriod_",
          "type": "uint64"
        },
        {
          "internalType": "address",
          "name": "owner_",
          "type": "address"
        }
      ],
      "name": "getSaleReserveProposal",
      "outputs": [
        {
          "components": [
            {
              "internalType": "address",
              "name": "collection",
              "type": "address"
            },
            {
              "internalType": "uint256",
              "name": "tokenId",
              "type": "uint256"
            },
            {
              "internalType": "address",
              "name": "paymentToken",
              "type": "address"
            },
            {
              "internalType": "address",
              "name": "collateralToken",
              "type": "address"
            },
            {
              "internalType": "uint64",
              "name": "expirationTimestamp",
              "type": "uint64"
            },
            {
              "internalType": "uint256",
              "name": "price",
              "type": "uint256"
            },
            {
              "internalType": "uint80",
              "name": "collateralPercent",
              "type": "uint80"
            },
            {
              "internalType": "address",
              "name": "owner",
              "type": "address"
            },
            {
              "internalType": "address",
              "name": "beneficiary",
              "type": "address"
            },
            {
              "internalType": "uint64",
              "name": "reservePeriod",
              "type": "uint64"
            }
          ],
          "internalType": "struct SaleReserveProposal",
          "name": "proposal",
          "type": "tuple"
        },
        {
          "internalType": "bytes32",
          "name": "id",
          "type": "bytes32"
        }
      ],
      "stateMutability": "view",
      "type": "function"
    },
    {
      "inputs": [
        {
          "internalType": "bytes32",
          "name": "id_",
          "type": "bytes32"
        }
      ],
      "name": "getSaleReserveProposalById",
      "outputs": [
        {
          "components": [
            {
              "internalType": "address",
              "name": "collection",
              "type": "address"
            },
            {
              "internalType": "uint256",
              "name": "tokenId",
              "type": "uint256"
            },
            {
              "internalType": "address",
              "name": "paymentToken",
              "type": "address"
            },
            {
              "internalType": "address",
              "name": "collateralToken",
              "type": "address"
            },
            {
              "internalType": "uint64",
              "name": "expirationTimestamp",
              "type": "uint64"
            },
            {
              "internalType": "uint256",
              "name": "price",
              "type": "uint256"
            },
            {
              "internalType": "uint80",
              "name": "collateralPercent",
              "type": "uint80"
            },
            {
              "internalType": "address",
              "name": "owner",
              "type": "address"
            },
            {
              "internalType": "address",
              "name": "beneficiary",
              "type": "address"
            },
            {
              "internalType": "uint64",
              "name": "reservePeriod",
              "type": "uint64"
            }
          ],
          "internalType": "struct SaleReserveProposal",
          "name": "proposal",
          "type": "tuple"
        }
      ],
      "stateMutability": "view",
      "type": "function"
    },
    {
      "inputs": [
        {
          "internalType": "address",
          "name": "reservesManagerAddress_",
          "type": "address"
        }
      ],
      "name": "initialize",
      "outputs": [],
      "stateMutability": "nonpayable",
      "type": "function"
    },
    {
      "inputs": [],
      "name": "owner",
      "outputs": [
        {
          "internalType": "address",
          "name": "",
          "type": "address"
        }
      ],
      "stateMutability": "view",
      "type": "function"
    },
    {
      "inputs": [],
      "name": "protocol",
      "outputs": [
        {
          "internalType": "contract ProtocolParameters",
          "name": "",
          "type": "address"
        }
      ],
      "stateMutability": "view",
      "type": "function"
    },
    {
      "inputs": [],
      "name": "renounceOwnership",
      "outputs": [],
      "stateMutability": "nonpayable",
      "type": "function"
    },
    {
      "inputs": [],
      "name": "reservesManagerAddress",
      "outputs": [
        {
          "internalType": "address",
          "name": "",
          "type": "address"
        }
      ],
      "stateMutability": "view",
      "type": "function"
    },
    {
      "inputs": [
        {
          "internalType": "address",
          "name": "newOwner",
          "type": "address"
        }
      ],
      "name": "transferOwnership",
      "outputs": [],
      "stateMutability": "nonpayable",
      "type": "function"
    },
    {
      "inputs": [
        {
          "internalType": "address",
          "name": "newImplementation",
          "type": "address"
        }
      ],
      "name": "upgradeTo",
      "outputs": [],
      "stateMutability": "nonpayable",
      "type": "function"
    },
    {
      "inputs": [
        {
          "internalType": "address",
          "name": "newImplementation",
          "type": "address"
        },
        {
          "internalType": "bytes",
          "name": "data",
          "type": "bytes"
        }
      ],
      "name": "upgradeToAndCall",
      "outputs": [],
      "stateMutability": "payable",
      "type": "function"
    }
  ],
  "bytecode": "0x60c06040523060601b6080523480156200001857600080fd5b5060405162003637380380620036378339810160408190526200003b916200010d565b600054610100900460ff168062000055575060005460ff16155b620000bd5760405162461bcd60e51b815260206004820152602e60248201527f496e697469616c697a61626c653a20636f6e747261637420697320616c72656160448201526d191e481a5b9a5d1a585b1a5e995960921b606482015260840160405180910390fd5b600054610100900460ff16158015620000e0576000805461ffff19166101011790555b6001600160601b0319606083901b1660a052801562000105576000805461ff00191690555b50506200013d565b6000602082840312156200011f578081fd5b81516001600160a01b038116811462000136578182fd5b9392505050565b60805160601c60a05160601c6134ab6200018c60003960008181610245015281816104b5015261111b015260008181610d1701528181610d5701528181610e390152610e7901526134ab6000f3fe6080604052600436106100f35760003560e01c80638b8899641161008a578063a268c0f311610059578063a268c0f3146102bd578063b8cfdb57146102dd578063c4d66de81461030b578063f2fde38b1461032b57600080fd5b80638b889964146102135780638ce74426146102335780638da5cb5b1461027f578063a20da4d81461029d57600080fd5b80634f1ef286116100c65780634f1ef2861461019e57806357d4aa24146101b1578063659bf5ae146101de578063715018a6146101fe57600080fd5b806306e651f6146100f85780632a6a54dd1461011a5780633659cfe6146101505780634afbb84d14610170575b600080fd5b34801561010457600080fd5b50610118610113366004612a9d565b61034b565b005b34801561012657600080fd5b5061013a610135366004612cc8565b610bf1565b6040516101479190613230565b60405180910390f35b34801561015c57600080fd5b5061011861016b3660046129a7565b610d0c565b34801561017c57600080fd5b5061019061018b366004612c16565b610dd5565b60405161014792919061326b565b6101186101ac3660046129df565b610e2e565b3480156101bd57600080fd5b506101d16101cc366004612cc8565b610ee8565b604051610147919061325c565b3480156101ea57600080fd5b506101186101f9366004612b5f565b610ff8565b34801561020a57600080fd5b50610118611899565b34801561021f57600080fd5b5061011861022e366004612c16565b6118cf565b34801561023f57600080fd5b506102677f000000000000000000000000000000000000000000000000000000000000000081565b6040516001600160a01b039091168152602001610147565b34801561028b57600080fd5b506097546001600160a01b0316610267565b3480156102a957600080fd5b506101186102b8366004612c16565b6119f4565b3480156102c957600080fd5b5060fb54610267906001600160a01b031681565b3480156102e957600080fd5b506102fd6102f8366004612c16565b611b0d565b60405161014792919061323f565b34801561031757600080fd5b506101186103263660046129a7565b611b57565b34801561033757600080fd5b506101186103463660046129a7565b611bf6565b600260c95414156103a35760405162461bcd60e51b815260206004820152601f60248201527f5265656e7472616e637947756172643a207265656e7472616e742063616c6c0060448201526064015b60405180910390fd5b600260c98190556103b590600a613303565b6103c09060646133ab565b6103d36001600160501b038716896133ab565b6103dd91906132a0565b6040516370a0823160e01b81523360048201526001600160a01b038b16906370a082319060240160206040518083038186803b15801561041c57600080fd5b505afa158015610430573d6000803e3d6000fd5b505050506040513d601f19601f820116820180604052508101906104549190612ce0565b10156104b35760405162461bcd60e51b815260206004820152602860248201527f4e6f7420656e6f7567682062616c616e636520746f2070617920666f7220636f6044820152671b1b185d195c985b60c21b606482015260840161039a565b7f00000000000000000000000000000000000000000000000000000000000000006001600160a01b031663c937f2776040518163ffffffff1660e01b815260040160206040518083038186803b15801561050c57600080fd5b505afa158015610520573d6000803e3d6000fd5b505050506040513d601f19601f820116820180604052508101906105449190612ce0565b836001600160401b03161161059b5760405162461bcd60e51b815260206004820152601e60248201527f5265736572766520706572696f64206d75737420626520677265617465720000604482015260640161039a565b60008b8b8b8b8b8a89336040516020016105bc98979695949392919061302f565b604051602081830303815290604052805190602001209050600088116106175760405162461bcd60e51b815260206004820152601060248201526f050726963652063616e277420626520360841b604482015260640161039a565b60006106258a8c888c611c8e565b9050866001600160501b031681101561069a5760405162461bcd60e51b815260206004820152603160248201527f417474656d707420746f2063726561746520616e20756e646572636f6c6c6174604482015270195c985b1a5e9959081c1c9bdc1bdcd85b607a1b606482015260840161039a565b506001600160a01b03821615610a105760008c8c8c8c8c8b8a896040516020016106cb98979695949392919061302f565b60408051601f198184030181529181528151602092830120600081815260fc90935291206004015490915015610a0e57600081815260fc602090815260409182902082516101408101845281546001600160a01b0390811682526001830154938201939093526002820154831693810193909352600381015480831660608501526001600160401b03600160a01b9182900481166080860152600483015460a0860181905260058401546001600160501b03811660c0880152600160501b9004851660e087015260069093015493841661010086015292049091166101208301528a1415610a0c5760fb546107cb9082906001600160a01b031689611fb4565b156109a25760fc6000838152602001908152602001600020600080820160006101000a8154906001600160a01b03021916905560018201600090556002820160006101000a8154906001600160a01b0302191690556003820160006101000a8154906001600160a01b0302191690556003820160146101000a8154906001600160401b03021916905560048201600090556005820160006101000a8154906001600160501b03021916905560058201600a6101000a8154906001600160a01b0302191690556006820160006101000a8154906001600160a01b0302191690556006820160146101000a8154906001600160401b030219169055505060fb60009054906101000a90046001600160a01b03166001600160a01b0316633786fddc8f8f8f8f8f8e8e8e8a60e00151336040518b63ffffffff1660e01b815260040161091d9a99989796959493929190612f72565b600060405180830381600087803b15801561093757600080fd5b505af115801561094b573d6000803e3d6000fd5b505050507ffb0d484621ff6d31ad720ad8423f43e6366605bf55b35b5c0fbdba25ed1c71618e8e8e8e8e8d8760e00151338e60405161099299989796959493929190612f10565b60405180910390a1505050610bdf565b600082815260fc6020526040812080546001600160a01b031990811682556001820183905560028201805490911690556003810180546001600160e01b031990811690915560048201929092556005810180546001600160f01b0319169055600601805490911690555b505b505b6040518061016001604052808d6001600160a01b031681526020018c81526020018b6001600160a01b031681526020018a6001600160a01b03168152602001846001600160401b031642610a649190613288565b6001600160401b03908116825260208083018c905260408084018a90526001600160501b03808c16606080870191909152336080808801919091526001600160a01b038f811660a0808a01919091528d881660c0998a015260008b815260fd88528690208a5181549084166001600160a01b0319918216178255978b015160018201558a870151600282018054918516919099161790975592890151600387018054938b01518916600160a01b9081026001600160e01b03199586169385169390931792909217905592890151600487015596880151600586015560e08801516006860180546101008b01518a16600160501b026001600160f01b03199091169290951691909117939093179092556101208701516007909401805461014090980151909516029516919093161792909217909155517f3d6e076a735a2a1ee6892ec3e2d6f7f1cc88e63e465b1709d8368f578145a1d590610bd5908e908e908e908e908e908d908c908c90613087565b60405180910390a1505b5050600160c955505050505050505050565b610bf96128c4565b600082815260fd6020526040902060040154610c4f5760405162461bcd60e51b8152602060048201526015602482015274139bdb8b595e1a5cdd195b9d081c1c9bdc1bdcd85b605a1b604482015260640161039a565b50600090815260fd602090815260409182902082516101608101845281546001600160a01b0390811682526001830154938201939093526002820154831693810193909352600381015480831660608501526001600160401b03600160a01b9182900481166080860152600483015460a0860152600583015460c086015260068301546001600160501b03811660e0870152600160501b900484166101008601526007909201549283166101208501529091041661014082015290565b306001600160a01b037f0000000000000000000000000000000000000000000000000000000000000000161415610d555760405162461bcd60e51b815260040161039a90613115565b7f00000000000000000000000000000000000000000000000000000000000000006001600160a01b0316610d87612116565b6001600160a01b031614610dad5760405162461bcd60e51b815260040161039a90613161565b610db681612144565b60408051600080825260208201909252610dd29183919061216e565b50565b610ddd612920565b60008989898989898989604051602001610dfe98979695949392919061302f565b604051602081830303815290604052805190602001209050610e1f81610ee8565b91509850989650505050505050565b306001600160a01b037f0000000000000000000000000000000000000000000000000000000000000000161415610e775760405162461bcd60e51b815260040161039a90613115565b7f00000000000000000000000000000000000000000000000000000000000000006001600160a01b0316610ea9612116565b6001600160a01b031614610ecf5760405162461bcd60e51b815260040161039a90613161565b610ed882612144565b610ee48282600161216e565b5050565b610ef0612920565b600082815260fc6020526040902060040154610f465760405162461bcd60e51b8152602060048201526015602482015274139bdb8b595e1a5cdd195b9d081c1c9bdc1bdcd85b605a1b604482015260640161039a565b50600090815260fc602090815260409182902082516101408101845281546001600160a01b0390811682526001830154938201939093526002820154831693810193909352600381015480831660608501526001600160401b03600160a01b9182900481166080860152600483015460a086015260058301546001600160501b03811660c0870152600160501b9004841660e08601526006909201549283166101008501529091041661012082015290565b600260c954141561104b5760405162461bcd60e51b815260206004820152601f60248201527f5265656e7472616e637947756172643a207265656e7472616e742063616c6c00604482015260640161039a565b600260c9556040516331a9108f60e11b8152600481018a905233906001600160a01b038c1690636352211e9060240160206040518083038186803b15801561109257600080fd5b505afa1580156110a6573d6000803e3d6000fd5b505050506040513d601f19601f820116820180604052508101906110ca91906129c3565b6001600160a01b0316146111195760405162461bcd60e51b81526020600482015260166024820152754f6e6c79206f776e65722063616e20617070726f766560501b604482015260640161039a565b7f00000000000000000000000000000000000000000000000000000000000000006001600160a01b031663c937f2776040518163ffffffff1660e01b815260040160206040518083038186803b15801561117257600080fd5b505afa158015611186573d6000803e3d6000fd5b505050506040513d601f19601f820116820180604052508101906111aa9190612ce0565b836001600160401b0316116112015760405162461bcd60e51b815260206004820152601e60248201527f5265736572766520706572696f64206d75737420626520677265617465720000604482015260640161039a565b61120d6002600a613303565b6112189060646133ab565b846001600160501b03161061126f5760405162461bcd60e51b815260206004820152601a60248201527f496e76616c696420636f6c6c61746572616c2070657263656e74000000000000604482015260640161039a565b60008a8a8a8a8a89893360405160200161129098979695949392919061302f565b60408051601f19818403018152919052805160209091012090506001600160a01b038216156116c95760008b8b8b8b8b8a8a896040516020016112da98979695949392919061302f565b60408051601f198184030181529181528151602092830120600081815260fd909352912060040154909150156116c757600081815260fd6020908152604080832081516101608101835281546001600160a01b0390811682526001830154948201949094526002820154841692810192909252600381015480841660608401526001600160401b03600160a01b9182900481166080850152600483015460a0850152600583015460c0850181905260068401546001600160501b03811660e0870152600160501b90048616610100860152600790930154948516610120850152930490921661014082015291906113d5908c908e908d611c8e565b9050876001600160501b031681101561144a5760405162461bcd60e51b815260206004820152603160248201527f417474656d707420746f2061636365707420616e20756e646572636f6c6c6174604482015270195c985b1a5e9959081c1c9bdc1bdcd85b607a1b606482015260840161039a565b898260a0015114156116c45760fb5461146d9083906001600160a01b03166122b9565b156116535760fd6000848152602001908152602001600020600080820160006101000a8154906001600160a01b03021916905560018201600090556002820160006101000a8154906001600160a01b0302191690556003820160006101000a8154906001600160a01b0302191690556003820160146101000a8154906001600160401b030219169055600482016000905560058201600090556006820160006101000a8154906001600160501b03021916905560068201600a6101000a8154906001600160a01b0302191690556007820160006101000a8154906001600160a01b0302191690556007820160146101000a8154906001600160401b030219169055505060fb60009054906101000a90046001600160a01b03166001600160a01b0316633786fddc8f8f8f8f8f8e8960c001518f338c61010001516040518b63ffffffff1660e01b81526004016115cc9a99989796959493929190612f72565b600060405180830381600087803b1580156115e657600080fd5b505af11580156115fa573d6000803e3d6000fd5b505050507fa05b89bd228f56f4e630122a64ee757db436b21e9b163a57f670464a6d8ea2a18e8e8e8e8e8d338961010001518f60405161164299989796959493929190612f10565b60405180910390a150505050611888565b600084815260fd6020526040812080546001600160a01b031990811682556001820183905560028201805490911690556003810180546001600160e01b03199081169091556004820183905560058201929092556006810180546001600160f01b0319169055600701805490911690555b50505b505b6040518061014001604052808c6001600160a01b031681526020018b81526020018a6001600160a01b03168152602001896001600160a01b03168152602001846001600160401b03164261171d9190613288565b6001600160401b03908116825260208083018b90526001600160501b03808a16604080860191909152336060808701919091526001600160a01b038d81166080808901919091528c871660a09889015260008a815260fc8752849020895181549084166001600160a01b0319918216178255968a0151600182015589850151600282018054918516919098161790965591880151600386018054938a01518816600160a01b9081026001600160e01b03199586169385169390931792909217905596880151600486015560c088015160058601805460e08b01518416600160501b026001600160f01b031990911692909616919091179490941790935561010087015160069094018054610120909801519095169095029590941691161792909217909155517f047873a1db8d3a30a55350922a73dd8a14529baed0862c1c5df0bf12bbeefa2d9061187e908d908d908d908d908d908c908c908c90613087565b60405180910390a1505b5050600160c9555050505050505050565b6097546001600160a01b031633146118c35760405162461bcd60e51b815260040161039a906131fb565b6118cd60006123ee565b565b6000806118e28a8a8a8a8a8a8a8a610dd5565b60e082015191935091506001600160a01b0316331461193b5760405162461bcd60e51b815260206004820152601560248201527413db9b1e481bdddb995c8818d85b8818d85b98d95b605a1b604482015260640161039a565b600081815260fc602052604080822080546001600160a01b031990811682556001820184905560028201805490911690556003810180546001600160e01b031990811690915560048201939093556005810180546001600160f01b03191690556006018054909216909155517f8ffaff23774f3c99bfc375c122eb97482e93c5972ecc34f2a15dbd3522218035906119e0908c908c908c908c908c908c908c90612fdb565b60405180910390a150505050505050505050565b600080611a078a8a8a8a8a8a8a8a611b0d565b61010082015191935091506001600160a01b03163314611a615760405162461bcd60e51b815260206004820152601560248201527413db9b1e48189d5e595c8818d85b8818d85b98d95b605a1b604482015260640161039a565b600081815260fd602052604080822080546001600160a01b031990811682556001820184905560028201805490911690556003810180546001600160e01b03199081169091556004820184905560058201939093556006810180546001600160f01b03191690556007018054909216909155517f72caf11025606064013858acc2a37975496ba2c6584cfb8633bab443dea46da7906119e0908c908c908c908c908c908c908c90612fdb565b611b156128c4565b60008989898989898989604051602001611b3698979695949392919061302f565b604051602081830303815290604052805190602001209050610e1f81610bf1565b600054610100900460ff1680611b70575060005460ff16155b611b8c5760405162461bcd60e51b815260040161039a906131ad565b600054610100900460ff16158015611bae576000805461ffff19166101011790555b60fb80546001600160a01b0319166001600160a01b038416179055611bd1612440565b611bd96124bb565b611be1612522565b8015610ee4576000805461ff00191690555050565b6097546001600160a01b03163314611c205760405162461bcd60e51b815260040161039a906131fb565b6001600160a01b038116611c855760405162461bcd60e51b815260206004820152602660248201527f4f776e61626c653a206e6577206f776e657220697320746865207a65726f206160448201526564647265737360d01b606482015260840161039a565b610dd2816123ee565b60008060fb60009054906101000a90046001600160a01b03166001600160a01b0316632630c12f6040518163ffffffff1660e01b815260040160206040518083038186803b158015611cdf57600080fd5b505afa158015611cf3573d6000803e3d6000fd5b505050506040513d601f19601f82011682018060405250810190611d1791906129c3565b90506000866001600160a01b031663313ce5676040518163ffffffff1660e01b815260040160206040518083038186803b158015611d5457600080fd5b505afa158015611d68573d6000803e3d6000fd5b505050506040513d601f19601f82011682018060405250810190611d8c9190612cf8565b60ff1690506000866001600160a01b031663313ce5676040518163ffffffff1660e01b815260040160206040518083038186803b158015611dcc57600080fd5b505afa158015611de0573d6000803e3d6000fd5b505050506040513d601f19601f82011682018060405250810190611e049190612cf8565b6040516315d5220f60e31b81526001600160a01b038a8116600483015260ff92909216925060009185169063aea910789060240160206040518083038186803b158015611e5057600080fd5b505afa158015611e64573d6000803e3d6000fd5b505050506040513d601f19601f82011682018060405250810190611e889190612ce0565b6040516315d5220f60e31b81526001600160a01b038a8116600483015291925060009186169063aea910789060240160206040518083038186803b158015611ecf57600080fd5b505afa158015611ee3573d6000803e3d6000fd5b505050506040513d601f19601f82011682018060405250810190611f079190612ce0565b90506000611f15838a6133ab565b90506000611f23838a6133ab565b9050600085871115611f5557611f3986886133ca565b611f4490600a613303565b611f4e90846132a0565b9050611f77565b611f5f87876133ca565b611f6a90600a613303565b611f7490846133ab565b90505b81611f846002600a613303565b611f8f8360646133ab565b611f9991906133ab565b611fa391906132a0565b9d9c50505050505050505050505050565b600083608001516001600160401b0316421115611fd35750600061210f565b835160e085015160208601516040516323b872dd60e01b81526001600160a01b03909316926323b872dd9261200f929091889190600401612eec565b600060405180830381600087803b15801561202957600080fd5b505af192505050801561203a575060015b6120465750600061210f565b83606001516001600160a01b03166323b872dd3385856040518463ffffffff1660e01b815260040161207a93929190612eec565b602060405180830381600087803b15801561209457600080fd5b505af11580156120a8573d6000803e3d6000fd5b505050506040513d601f19601f820116820180604052508101906120cc9190612ca8565b61210b5760405162461bcd60e51b815260206004820152601060248201526f2330b4b6103a37903a3930b739b332b960811b604482015260640161039a565b5060015b9392505050565b7f360894a13ba1a3210667c828492db98dca3e2076cc3735a920a3ca505d382bbc546001600160a01b031690565b6097546001600160a01b03163314610dd25760405162461bcd60e51b815260040161039a906131fb565b6000612178612116565b905061218384612581565b6000835111806121905750815b156121a15761219f8484612626565b505b7f4910fdfa16fed3260ed0e7147f7cc6da11a60208b5b9406d12a635614ffd9143805460ff166122b257805460ff191660011781556040516001600160a01b038316602482015261222090869060440160408051601f198184030181529190526020810180516001600160e01b0316631b2ce7f360e11b179052612626565b50805460ff19168155612231612116565b6001600160a01b0316826001600160a01b0316146122a95760405162461bcd60e51b815260206004820152602f60248201527f45524331393637557067726164653a207570677261646520627265616b73206660448201526e75727468657220757067726164657360881b606482015260840161039a565b6122b285612711565b5050505050565b600082608001516001600160401b03164211156122d8575060006123e8565b82606001516001600160a01b03166323b872dd846101000151848660c001516040518463ffffffff1660e01b815260040161231593929190612eec565b602060405180830381600087803b15801561232f57600080fd5b505af192505050801561235f575060408051601f3d908101601f1916820190925261235c91810190612ca8565b60015b61236b575060006123e8565b8061237a5760009150506123e8565b50825160208401516040516323b872dd60e01b81526001600160a01b03909216916323b872dd916123b19133918791600401612eec565b600060405180830381600087803b1580156123cb57600080fd5b505af11580156123df573d6000803e3d6000fd5b50505050600190505b92915050565b609780546001600160a01b038381166001600160a01b0319831681179093556040519116919082907f8be0079c531659141344cd1fd0a4f28419497f9722a3daafe3b4186f6b6457e090600090a35050565b600054610100900460ff1680612459575060005460ff16155b6124755760405162461bcd60e51b815260040161039a906131ad565b600054610100900460ff16158015612497576000805461ffff19166101011790555b61249f612751565b6124a76127bb565b8015610dd2576000805461ff001916905550565b600054610100900460ff16806124d4575060005460ff16155b6124f05760405162461bcd60e51b815260040161039a906131ad565b600054610100900460ff16158015612512576000805461ffff19166101011790555b61251a612751565b6124a7612751565b600054610100900460ff168061253b575060005460ff16155b6125575760405162461bcd60e51b815260040161039a906131ad565b600054610100900460ff16158015612579576000805461ffff19166101011790555b6124a761281b565b803b6125e55760405162461bcd60e51b815260206004820152602d60248201527f455243313936373a206e657720696d706c656d656e746174696f6e206973206e60448201526c1bdd08184818dbdb9d1c9858dd609a1b606482015260840161039a565b7f360894a13ba1a3210667c828492db98dca3e2076cc3735a920a3ca505d382bbc80546001600160a01b0319166001600160a01b0392909216919091179055565b6060823b6126855760405162461bcd60e51b815260206004820152602660248201527f416464726573733a2064656c65676174652063616c6c20746f206e6f6e2d636f6044820152651b9d1c9858dd60d21b606482015260840161039a565b600080846001600160a01b0316846040516126a09190612ed0565b600060405180830381855af49150503d80600081146126db576040519150601f19603f3d011682016040523d82523d6000602084013e6126e0565b606091505b5091509150612708828260405180606001604052806027815260200161344f6027913961288b565b95945050505050565b61271a81612581565b6040516001600160a01b038216907fbc7cd75a20ee27fd9adebab32041f755214dbc6bffa90cc0225b39da2e5c2d3b90600090a250565b600054610100900460ff168061276a575060005460ff16155b6127865760405162461bcd60e51b815260040161039a906131ad565b600054610100900460ff161580156124a7576000805461ffff19166101011790558015610dd2576000805461ff001916905550565b600054610100900460ff16806127d4575060005460ff16155b6127f05760405162461bcd60e51b815260040161039a906131ad565b600054610100900460ff16158015612812576000805461ffff19166101011790555b6124a7336123ee565b600054610100900460ff1680612834575060005460ff16155b6128505760405162461bcd60e51b815260040161039a906131ad565b600054610100900460ff16158015612872576000805461ffff19166101011790555b600160c9558015610dd2576000805461ff001916905550565b6060831561289a57508161210f565b8251156128aa5782518084602001fd5b8160405162461bcd60e51b815260040161039a91906130e2565b6040805161016081018252600080825260208201819052918101829052606081018290526080810182905260a0810182905260c0810182905260e081018290526101008101829052610120810182905261014081019190915290565b6040805161014081018252600080825260208201819052918101829052606081018290526080810182905260a0810182905260c0810182905260e08101829052610100810182905261012081019190915290565b80356001600160401b038116811461298b57600080fd5b919050565b80356001600160501b038116811461298b57600080fd5b6000602082840312156129b8578081fd5b813561210f81613439565b6000602082840312156129d4578081fd5b815161210f81613439565b600080604083850312156129f1578081fd5b82356129fc81613439565b915060208301356001600160401b0380821115612a17578283fd5b818501915085601f830112612a2a578283fd5b813581811115612a3c57612a3c613423565b604051601f8201601f19908116603f01168101908382118183101715612a6457612a64613423565b81604052828152886020848701011115612a7c578586fd5b82602086016020830137856020848301015280955050505050509250929050565b60008060008060008060008060008060006101608c8e031215612abe578687fd5b8b35612ac981613439565b9a5060208c0135995060408c0135612ae081613439565b985060608c0135612af081613439565b975060808c0135965060a08c0135612b0781613439565b9550612b1560c08d01612990565b945060e08c01359350612b2b6101008d01612974565b9250612b3a6101208d01612974565b91506101408c0135612b4b81613439565b809150509295989b509295989b9093969950565b6000806000806000806000806000806101408b8d031215612b7e578586fd5b8a35612b8981613439565b995060208b0135985060408b0135612ba081613439565b975060608b0135612bb081613439565b965060808b0135955060a08b0135612bc781613439565b9450612bd560c08c01612990565b9350612be360e08c01612974565b9250612bf26101008c01612974565b91506101208b0135612c0381613439565b809150509295989b9194979a5092959850565b600080600080600080600080610100898b031215612c32578384fd5b8835612c3d81613439565b9750602089013596506040890135612c5481613439565b95506060890135612c6481613439565b945060808901359350612c7960a08a01612990565b9250612c8760c08a01612974565b915060e0890135612c9781613439565b809150509295985092959890939650565b600060208284031215612cb9578081fd5b8151801515811461210f578182fd5b600060208284031215612cd9578081fd5b5035919050565b600060208284031215612cf1578081fd5b5051919050565b600060208284031215612d09578081fd5b815160ff8116811461210f578182fd5b80516001600160a01b03168252602081015160208301526040810151612d4a60408401826001600160a01b03169052565b506060810151612d6560608401826001600160a01b03169052565b506080810151612d8060808401826001600160401b03169052565b5060a081015160a083015260c081015160c083015260e0810151612daf60e08401826001600160501b03169052565b50610100818101516001600160a01b038116848301525050610120818101516001600160a01b038116848301525050610140818101516001600160401b038116848301525b50505050565b80516001600160a01b03168252602081015160208301526040810151612e2b60408401826001600160a01b03169052565b506060810151612e4660608401826001600160a01b03169052565b506080810151612e6160808401826001600160401b03169052565b5060a081015160a083015260c0810151612e8660c08401826001600160501b03169052565b5060e0810151612ea160e08401826001600160a01b03169052565b50610100818101516001600160a01b031690830152610120808201516001600160401b03811682850152612df4565b60008251612ee28184602087016133e1565b9190910192915050565b6001600160a01b039384168152919092166020820152604081019190915260600190565b6001600160a01b03998a16815260208101989098529588166040880152938716606087015260808601929092526001600160501b031660a0850152841660c084015290921660e08201526001600160401b039091166101008201526101200190565b6001600160a01b039a8b16815260208101999099529689166040890152948816606088015260808701939093526001600160501b039190911660a086015260c08501526001600160401b031660e084015283166101008301529091166101208201526101400190565b6001600160a01b0397881681526020810196909652938616604086015291909416606084015260808301939093526001600160501b0390921660a08201526001600160401b0390911660c082015260e00190565b6001600160a01b03988916815260208101979097529487166040870152928616606086015260808501919091526001600160501b031660a08401526001600160401b031660c083015290911660e08201526101000190565b6001600160a01b0398891681526020810197909752948716604087015292909516606085015260808401526001600160501b039390931660a08301526001600160401b0392831660c083015290911660e08201526101000190565b60208152600082518060208401526131018160408501602087016133e1565b601f01601f19169190910160400192915050565b6020808252602c908201527f46756e6374696f6e206d7573742062652063616c6c6564207468726f7567682060408201526b19195b1959d85d1958d85b1b60a21b606082015260800190565b6020808252602c908201527f46756e6374696f6e206d7573742062652063616c6c6564207468726f7567682060408201526b6163746976652070726f787960a01b606082015260800190565b6020808252602e908201527f496e697469616c697a61626c653a20636f6e747261637420697320616c72656160408201526d191e481a5b9a5d1a585b1a5e995960921b606082015260800190565b6020808252818101527f4f776e61626c653a2063616c6c6572206973206e6f7420746865206f776e6572604082015260600190565b61016081016123e88284612d19565b610180810161324e8285612d19565b826101608301529392505050565b61014081016123e88284612dfa565b610160810161327a8285612dfa565b826101408301529392505050565b6000821982111561329b5761329b61340d565b500190565b6000826132bb57634e487b7160e01b81526012600452602481fd5b500490565b600181815b808511156132fb5781600019048211156132e1576132e161340d565b808516156132ee57918102915b93841c93908002906132c5565b509250929050565b600061210f8383600082613319575060016123e8565b81613326575060006123e8565b816001811461333c576002811461334657613362565b60019150506123e8565b60ff8411156133575761335761340d565b50506001821b6123e8565b5060208310610133831016604e8410600b8410161715613385575081810a6123e8565b61338f83836132c0565b80600019048211156133a3576133a361340d565b029392505050565b60008160001904831182151516156133c5576133c561340d565b500290565b6000828210156133dc576133dc61340d565b500390565b60005b838110156133fc5781810151838201526020016133e4565b83811115612df45750506000910152565b634e487b7160e01b600052601160045260246000fd5b634e487b7160e01b600052604160045260246000fd5b6001600160a01b0381168114610dd257600080fdfe416464726573733a206c6f772d6c6576656c2064656c65676174652063616c6c206661696c6564a26469706673582212206c51309774d8c0eb41aff2feafca0afbfa9a9813af82b5659c80c531f8666f8c64736f6c63430008040033",
  "linkReferences": {},
  "deployedLinkReferences": {}
}