{
  "_format": "hh-sol-artifact-1",
  "contractName": "ReserveMarketplace",
  "sourceName": "contracts/ReserveMarketplace.sol",
  "abi": [
    {
      "inputs": [
        {
          "internalType": "address",
          "name": "protocolParameters_",
          "type": "address"
        }
      ],
      "stateMutability": "nonpayable",
      "type": "constructor"
    },
    {
      "anonymous": false,
      "inputs": [
        {
          "indexed": false,
          "internalType": "address",
          "name": "previousAdmin",
          "type": "address"
        },
        {
          "indexed": false,
          "internalType": "address",
          "name": "newAdmin",
          "type": "address"
        }
      ],
      "name": "AdminChanged",
      "type": "event"
    },
    {
      "anonymous": false,
      "inputs": [
        {
          "indexed": true,
          "internalType": "address",
          "name": "beacon",
          "type": "address"
        }
      ],
      "name": "BeaconUpgraded",
      "type": "event"
    },
    {
      "anonymous": false,
      "inputs": [
        {
          "indexed": true,
          "internalType": "address",
          "name": "previousOwner",
          "type": "address"
        },
        {
          "indexed": true,
          "internalType": "address",
          "name": "newOwner",
          "type": "address"
        }
      ],
      "name": "OwnershipTransferred",
      "type": "event"
    },
    {
      "anonymous": false,
      "inputs": [
        {
          "indexed": false,
          "internalType": "address",
          "name": "collection",
          "type": "address"
        },
        {
          "indexed": false,
          "internalType": "uint256",
          "name": "tokenId",
          "type": "uint256"
        },
        {
          "indexed": false,
          "internalType": "address",
          "name": "paymentToken",
          "type": "address"
        },
        {
          "indexed": false,
          "internalType": "address",
          "name": "collateralToken",
          "type": "address"
        },
        {
          "indexed": false,
          "internalType": "uint256",
          "name": "price",
          "type": "uint256"
        },
        {
          "indexed": false,
          "internalType": "uint256",
          "name": "collateralPercent",
          "type": "uint256"
        },
        {
          "indexed": false,
          "internalType": "uint256",
          "name": "reservePeriod",
          "type": "uint256"
        }
      ],
      "name": "PurchaseReserveProposalCanceled",
      "type": "event"
    },
    {
      "anonymous": false,
      "inputs": [
        {
          "indexed": false,
          "internalType": "address",
          "name": "collection",
          "type": "address"
        },
        {
          "indexed": false,
          "internalType": "uint256",
          "name": "tokenId",
          "type": "uint256"
        },
        {
          "indexed": false,
          "internalType": "address",
          "name": "paymentToken",
          "type": "address"
        },
        {
          "indexed": false,
          "internalType": "address",
          "name": "collateralToken",
          "type": "address"
        },
        {
          "indexed": false,
          "internalType": "uint256",
          "name": "price",
          "type": "uint256"
        },
        {
          "indexed": false,
          "internalType": "uint256",
          "name": "collateralPercent",
          "type": "uint256"
        },
        {
          "indexed": false,
          "internalType": "uint256",
          "name": "reservePeriod",
          "type": "uint256"
        },
        {
          "indexed": false,
          "internalType": "uint256",
          "name": "validityPeriod",
          "type": "uint256"
        }
      ],
      "name": "PurchaseReserveProposed",
      "type": "event"
    },
    {
      "anonymous": false,
      "inputs": [
        {
          "indexed": false,
          "internalType": "address",
          "name": "collection",
          "type": "address"
        },
        {
          "indexed": false,
          "internalType": "uint256",
          "name": "tokenId",
          "type": "uint256"
        },
        {
          "indexed": false,
          "internalType": "address",
          "name": "paymentToken",
          "type": "address"
        },
        {
          "indexed": false,
          "internalType": "address",
          "name": "collateralToken",
          "type": "address"
        },
        {
          "indexed": false,
          "internalType": "uint256",
          "name": "price",
          "type": "uint256"
        },
        {
          "indexed": false,
          "internalType": "uint256",
          "name": "collateralPercent",
          "type": "uint256"
        },
        {
          "indexed": false,
          "internalType": "address",
          "name": "seller",
          "type": "address"
        },
        {
          "indexed": false,
          "internalType": "address",
          "name": "buyer",
          "type": "address"
        },
        {
          "indexed": false,
          "internalType": "uint256",
          "name": "reservePeriod",
          "type": "uint256"
        }
      ],
      "name": "PurchaseReserved",
      "type": "event"
    },
    {
      "anonymous": false,
      "inputs": [
        {
          "indexed": false,
          "internalType": "address",
          "name": "collection",
          "type": "address"
        },
        {
          "indexed": false,
          "internalType": "uint256",
          "name": "tokenId",
          "type": "uint256"
        },
        {
          "indexed": false,
          "internalType": "address",
          "name": "paymentToken",
          "type": "address"
        },
        {
          "indexed": false,
          "internalType": "address",
          "name": "collateralToken",
          "type": "address"
        },
        {
          "indexed": false,
          "internalType": "uint256",
          "name": "price",
          "type": "uint256"
        },
        {
          "indexed": false,
          "internalType": "uint256",
          "name": "collateralPercent",
          "type": "uint256"
        },
        {
          "indexed": false,
          "internalType": "uint256",
          "name": "reservePeriod",
          "type": "uint256"
        }
      ],
      "name": "SaleReserveProposalCanceled",
      "type": "event"
    },
    {
      "anonymous": false,
      "inputs": [
        {
          "indexed": false,
          "internalType": "address",
          "name": "collection",
          "type": "address"
        },
        {
          "indexed": false,
          "internalType": "uint256",
          "name": "tokenId",
          "type": "uint256"
        },
        {
          "indexed": false,
          "internalType": "address",
          "name": "paymentToken",
          "type": "address"
        },
        {
          "indexed": false,
          "internalType": "address",
          "name": "collateralToken",
          "type": "address"
        },
        {
          "indexed": false,
          "internalType": "uint256",
          "name": "price",
          "type": "uint256"
        },
        {
          "indexed": false,
          "internalType": "uint256",
          "name": "collateralPercent",
          "type": "uint256"
        },
        {
          "indexed": false,
          "internalType": "uint256",
          "name": "reservePeriod",
          "type": "uint256"
        },
        {
          "indexed": false,
          "internalType": "uint256",
          "name": "validityPeriod",
          "type": "uint256"
        }
      ],
      "name": "SaleReserveProposed",
      "type": "event"
    },
    {
      "anonymous": false,
      "inputs": [
        {
          "indexed": false,
          "internalType": "address",
          "name": "collection",
          "type": "address"
        },
        {
          "indexed": false,
          "internalType": "uint256",
          "name": "tokenId",
          "type": "uint256"
        },
        {
          "indexed": false,
          "internalType": "address",
          "name": "paymentToken",
          "type": "address"
        },
        {
          "indexed": false,
          "internalType": "address",
          "name": "collateralToken",
          "type": "address"
        },
        {
          "indexed": false,
          "internalType": "uint256",
          "name": "price",
          "type": "uint256"
        },
        {
          "indexed": false,
          "internalType": "uint256",
          "name": "collateralPercent",
          "type": "uint256"
        },
        {
          "indexed": false,
          "internalType": "address",
          "name": "seller",
          "type": "address"
        },
        {
          "indexed": false,
          "internalType": "address",
          "name": "buyer",
          "type": "address"
        },
        {
          "indexed": false,
          "internalType": "uint256",
          "name": "reservePeriod",
          "type": "uint256"
        }
      ],
      "name": "SaleReserved",
      "type": "event"
    },
    {
      "anonymous": false,
      "inputs": [
        {
          "indexed": true,
          "internalType": "address",
          "name": "implementation",
          "type": "address"
        }
      ],
      "name": "Upgraded",
      "type": "event"
    },
    {
      "inputs": [
        {
          "internalType": "address",
          "name": "collection_",
          "type": "address"
        },
        {
          "internalType": "uint256",
          "name": "tokenId_",
          "type": "uint256"
        },
        {
          "internalType": "address",
          "name": "paymentToken_",
          "type": "address"
        },
        {
          "internalType": "address",
          "name": "collateralToken_",
          "type": "address"
        },
        {
          "internalType": "uint256",
          "name": "price_",
          "type": "uint256"
        },
        {
          "internalType": "address",
          "name": "beneficiary_",
          "type": "address"
        },
        {
          "internalType": "uint80",
          "name": "collateralPercent_",
          "type": "uint80"
        },
        {
          "internalType": "uint256",
          "name": "collateralInitialAmount_",
          "type": "uint256"
        },
        {
          "internalType": "uint64",
          "name": "reservePeriod_",
          "type": "uint64"
        },
        {
          "internalType": "uint64",
          "name": "validityPeriod_",
          "type": "uint64"
        },
        {
          "internalType": "address",
          "name": "sellerToMatch_",
          "type": "address"
        }
      ],
      "name": "approveReserveToBuy",
      "outputs": [],
      "stateMutability": "nonpayable",
      "type": "function"
    },
    {
      "inputs": [
        {
          "internalType": "address",
          "name": "collection_",
          "type": "address"
        },
        {
          "internalType": "uint256",
          "name": "tokenId_",
          "type": "uint256"
        },
        {
          "internalType": "address",
          "name": "paymentToken_",
          "type": "address"
        },
        {
          "internalType": "address",
          "name": "collateralToken_",
          "type": "address"
        },
        {
          "internalType": "uint256",
          "name": "price_",
          "type": "uint256"
        },
        {
          "internalType": "address",
          "name": "beneficiary_",
          "type": "address"
        },
        {
          "internalType": "uint80",
          "name": "collateralPercent_",
          "type": "uint80"
        },
        {
          "internalType": "uint64",
          "name": "reservePeriod_",
          "type": "uint64"
        },
        {
          "internalType": "uint64",
          "name": "validityPeriod_",
          "type": "uint64"
        },
        {
          "internalType": "address",
          "name": "buyerToMatch_",
          "type": "address"
        }
      ],
      "name": "approveReserveToSell",
      "outputs": [],
      "stateMutability": "nonpayable",
      "type": "function"
    },
    {
      "inputs": [
        {
          "internalType": "address",
          "name": "collection_",
          "type": "address"
        },
        {
          "internalType": "uint256",
          "name": "tokenId_",
          "type": "uint256"
        },
        {
          "internalType": "address",
          "name": "paymentToken_",
          "type": "address"
        },
        {
          "internalType": "address",
          "name": "collateralToken_",
          "type": "address"
        },
        {
          "internalType": "uint256",
          "name": "price_",
          "type": "uint256"
        },
        {
          "internalType": "uint80",
          "name": "collateralPercent_",
          "type": "uint80"
        },
        {
          "internalType": "uint64",
          "name": "reservePeriod_",
          "type": "uint64"
        },
        {
          "internalType": "address",
          "name": "buyer_",
          "type": "address"
        }
      ],
      "name": "cancelPurchaseReserveProposal",
      "outputs": [],
      "stateMutability": "nonpayable",
      "type": "function"
    },
    {
      "inputs": [
        {
          "internalType": "address",
          "name": "collection_",
          "type": "address"
        },
        {
          "internalType": "uint256",
          "name": "tokenId_",
          "type": "uint256"
        },
        {
          "internalType": "address",
          "name": "paymentToken_",
          "type": "address"
        },
        {
          "internalType": "address",
          "name": "collateralToken_",
          "type": "address"
        },
        {
          "internalType": "uint256",
          "name": "price_",
          "type": "uint256"
        },
        {
          "internalType": "uint80",
          "name": "collateralPercent_",
          "type": "uint80"
        },
        {
          "internalType": "uint64",
          "name": "reservePeriod_",
          "type": "uint64"
        },
        {
          "internalType": "address",
          "name": "owner_",
          "type": "address"
        }
      ],
      "name": "cancelSaleReserveProposal",
      "outputs": [],
      "stateMutability": "nonpayable",
      "type": "function"
    },
    {
      "inputs": [
        {
          "internalType": "address",
          "name": "collection_",
          "type": "address"
        },
        {
          "internalType": "uint256",
          "name": "tokenId_",
          "type": "uint256"
        },
        {
          "internalType": "address",
          "name": "paymentToken_",
          "type": "address"
        },
        {
          "internalType": "address",
          "name": "collateralToken_",
          "type": "address"
        },
        {
          "internalType": "uint256",
          "name": "price_",
          "type": "uint256"
        },
        {
          "internalType": "uint80",
          "name": "collateralPercent_",
          "type": "uint80"
        },
        {
          "internalType": "uint64",
          "name": "reservePeriod_",
          "type": "uint64"
        },
        {
          "internalType": "address",
          "name": "buyer_",
          "type": "address"
        }
      ],
      "name": "getPurchaseReserveProposal",
      "outputs": [
        {
          "components": [
            {
              "internalType": "address",
              "name": "collection",
              "type": "address"
            },
            {
              "internalType": "uint256",
              "name": "tokenId",
              "type": "uint256"
            },
            {
              "internalType": "address",
              "name": "paymentToken",
              "type": "address"
            },
            {
              "internalType": "address",
              "name": "collateralToken",
              "type": "address"
            },
            {
              "internalType": "uint64",
              "name": "expirationTimestamp",
              "type": "uint64"
            },
            {
              "internalType": "uint256",
              "name": "price",
              "type": "uint256"
            },
            {
              "internalType": "uint256",
              "name": "collateralInitialAmount",
              "type": "uint256"
            },
            {
              "internalType": "uint80",
              "name": "collateralPercent",
              "type": "uint80"
            },
            {
              "internalType": "address",
              "name": "buyer",
              "type": "address"
            },
            {
              "internalType": "address",
              "name": "beneficiary",
              "type": "address"
            },
            {
              "internalType": "uint64",
              "name": "reservePeriod",
              "type": "uint64"
            }
          ],
          "internalType": "struct PurchaseReserveProposal",
          "name": "proposal",
          "type": "tuple"
        },
        {
          "internalType": "bytes32",
          "name": "id",
          "type": "bytes32"
        }
      ],
      "stateMutability": "view",
      "type": "function"
    },
    {
      "inputs": [
        {
          "internalType": "bytes32",
          "name": "id_",
          "type": "bytes32"
        }
      ],
      "name": "getPurchaseReserveProposalById",
      "outputs": [
        {
          "components": [
            {
              "internalType": "address",
              "name": "collection",
              "type": "address"
            },
            {
              "internalType": "uint256",
              "name": "tokenId",
              "type": "uint256"
            },
            {
              "internalType": "address",
              "name": "paymentToken",
              "type": "address"
            },
            {
              "internalType": "address",
              "name": "collateralToken",
              "type": "address"
            },
            {
              "internalType": "uint64",
              "name": "expirationTimestamp",
              "type": "uint64"
            },
            {
              "internalType": "uint256",
              "name": "price",
              "type": "uint256"
            },
            {
              "internalType": "uint256",
              "name": "collateralInitialAmount",
              "type": "uint256"
            },
            {
              "internalType": "uint80",
              "name": "collateralPercent",
              "type": "uint80"
            },
            {
              "internalType": "address",
              "name": "buyer",
              "type": "address"
            },
            {
              "internalType": "address",
              "name": "beneficiary",
              "type": "address"
            },
            {
              "internalType": "uint64",
              "name": "reservePeriod",
              "type": "uint64"
            }
          ],
          "internalType": "struct PurchaseReserveProposal",
          "name": "proposal",
          "type": "tuple"
        }
      ],
      "stateMutability": "view",
      "type": "function"
    },
    {
      "inputs": [
        {
          "internalType": "address",
          "name": "collection_",
          "type": "address"
        },
        {
          "internalType": "uint256",
          "name": "tokenId_",
          "type": "uint256"
        },
        {
          "internalType": "address",
          "name": "paymentToken_",
          "type": "address"
        },
        {
          "internalType": "address",
          "name": "collateralToken_",
          "type": "address"
        },
        {
          "internalType": "uint256",
          "name": "price_",
          "type": "uint256"
        },
        {
          "internalType": "uint80",
          "name": "collateralPercent_",
          "type": "uint80"
        },
        {
          "internalType": "uint64",
          "name": "reservePeriod_",
          "type": "uint64"
        },
        {
          "internalType": "address",
          "name": "owner_",
          "type": "address"
        }
      ],
      "name": "getSaleReserveProposal",
      "outputs": [
        {
          "components": [
            {
              "internalType": "address",
              "name": "collection",
              "type": "address"
            },
            {
              "internalType": "uint256",
              "name": "tokenId",
              "type": "uint256"
            },
            {
              "internalType": "address",
              "name": "paymentToken",
              "type": "address"
            },
            {
              "internalType": "address",
              "name": "collateralToken",
              "type": "address"
            },
            {
              "internalType": "uint64",
              "name": "expirationTimestamp",
              "type": "uint64"
            },
            {
              "internalType": "uint256",
              "name": "price",
              "type": "uint256"
            },
            {
              "internalType": "uint80",
              "name": "collateralPercent",
              "type": "uint80"
            },
            {
              "internalType": "address",
              "name": "owner",
              "type": "address"
            },
            {
              "internalType": "address",
              "name": "beneficiary",
              "type": "address"
            },
            {
              "internalType": "uint64",
              "name": "reservePeriod",
              "type": "uint64"
            }
          ],
          "internalType": "struct SaleReserveProposal",
          "name": "proposal",
          "type": "tuple"
        },
        {
          "internalType": "bytes32",
          "name": "id",
          "type": "bytes32"
        }
      ],
      "stateMutability": "view",
      "type": "function"
    },
    {
      "inputs": [
        {
          "internalType": "bytes32",
          "name": "id_",
          "type": "bytes32"
        }
      ],
      "name": "getSaleReserveProposalById",
      "outputs": [
        {
          "components": [
            {
              "internalType": "address",
              "name": "collection",
              "type": "address"
            },
            {
              "internalType": "uint256",
              "name": "tokenId",
              "type": "uint256"
            },
            {
              "internalType": "address",
              "name": "paymentToken",
              "type": "address"
            },
            {
              "internalType": "address",
              "name": "collateralToken",
              "type": "address"
            },
            {
              "internalType": "uint64",
              "name": "expirationTimestamp",
              "type": "uint64"
            },
            {
              "internalType": "uint256",
              "name": "price",
              "type": "uint256"
            },
            {
              "internalType": "uint80",
              "name": "collateralPercent",
              "type": "uint80"
            },
            {
              "internalType": "address",
              "name": "owner",
              "type": "address"
            },
            {
              "internalType": "address",
              "name": "beneficiary",
              "type": "address"
            },
            {
              "internalType": "uint64",
              "name": "reservePeriod",
              "type": "uint64"
            }
          ],
          "internalType": "struct SaleReserveProposal",
          "name": "proposal",
          "type": "tuple"
        }
      ],
      "stateMutability": "view",
      "type": "function"
    },
    {
      "inputs": [
        {
          "internalType": "address",
          "name": "reservesManagerAddress_",
          "type": "address"
        }
      ],
      "name": "initialize",
      "outputs": [],
      "stateMutability": "nonpayable",
      "type": "function"
    },
    {
      "inputs": [],
      "name": "owner",
      "outputs": [
        {
          "internalType": "address",
          "name": "",
          "type": "address"
        }
      ],
      "stateMutability": "view",
      "type": "function"
    },
    {
      "inputs": [],
      "name": "protocol",
      "outputs": [
        {
          "internalType": "contract ProtocolParameters",
          "name": "",
          "type": "address"
        }
      ],
      "stateMutability": "view",
      "type": "function"
    },
    {
      "inputs": [],
      "name": "renounceOwnership",
      "outputs": [],
      "stateMutability": "nonpayable",
      "type": "function"
    },
    {
      "inputs": [],
      "name": "reservesManagerAddress",
      "outputs": [
        {
          "internalType": "address",
          "name": "",
          "type": "address"
        }
      ],
      "stateMutability": "view",
      "type": "function"
    },
    {
      "inputs": [
        {
          "internalType": "address",
          "name": "newOwner",
          "type": "address"
        }
      ],
      "name": "transferOwnership",
      "outputs": [],
      "stateMutability": "nonpayable",
      "type": "function"
    },
    {
      "inputs": [
        {
          "internalType": "address",
          "name": "newImplementation",
          "type": "address"
        }
      ],
      "name": "upgradeTo",
      "outputs": [],
      "stateMutability": "nonpayable",
      "type": "function"
    },
    {
      "inputs": [
        {
          "internalType": "address",
          "name": "newImplementation",
          "type": "address"
        },
        {
          "internalType": "bytes",
          "name": "data",
          "type": "bytes"
        }
      ],
      "name": "upgradeToAndCall",
      "outputs": [],
      "stateMutability": "payable",
      "type": "function"
    }
  ],
  "bytecode": "0x60c06040523060601b6080523480156200001857600080fd5b50604051620037ad380380620037ad8339810160408190526200003b916200010d565b600054610100900460ff168062000055575060005460ff16155b620000bd5760405162461bcd60e51b815260206004820152602e60248201527f496e697469616c697a61626c653a20636f6e747261637420697320616c72656160448201526d191e481a5b9a5d1a585b1a5e995960921b606482015260840160405180910390fd5b600054610100900460ff16158015620000e0576000805461ffff19166101011790555b6001600160601b0319606083901b1660a052801562000105576000805461ff00191690555b50506200013d565b6000602082840312156200011f578081fd5b81516001600160a01b038116811462000136578182fd5b9392505050565b60805160601c60a05160601c6136216200018c600039600081816102450152818161048201526110d5015260008181610cd101528181610d1101528181610df30152610e3301526136216000f3fe6080604052600436106100f35760003560e01c80638b8899641161008a578063a268c0f311610059578063a268c0f3146102bd578063b8cfdb57146102dd578063c4d66de81461030b578063f2fde38b1461032b57600080fd5b80638b889964146102135780638ce74426146102335780638da5cb5b1461027f578063a20da4d81461029d57600080fd5b80634f1ef286116100c65780634f1ef2861461019e57806357d4aa24146101b1578063659bf5ae146101de578063715018a6146101fe57600080fd5b806306e651f6146100f85780632a6a54dd1461011a5780633659cfe6146101505780634afbb84d14610170575b600080fd5b34801561010457600080fd5b50610118610113366004612c15565b61034b565b005b34801561012657600080fd5b5061013a610135366004612e40565b610bab565b60405161014791906133a6565b60405180910390f35b34801561015c57600080fd5b5061011861016b366004612b1f565b610cc6565b34801561017c57600080fd5b5061019061018b366004612d8e565b610d8f565b6040516101479291906133e1565b6101186101ac366004612b57565b610de8565b3480156101bd57600080fd5b506101d16101cc366004612e40565b610ea2565b60405161014791906133d2565b3480156101ea57600080fd5b506101186101f9366004612cd7565b610fb2565b34801561020a57600080fd5b50610118611848565b34801561021f57600080fd5b5061011861022e366004612d8e565b61187e565b34801561023f57600080fd5b506102677f000000000000000000000000000000000000000000000000000000000000000081565b6040516001600160a01b039091168152602001610147565b34801561028b57600080fd5b506097546001600160a01b0316610267565b3480156102a957600080fd5b506101186102b8366004612d8e565b6119a3565b3480156102c957600080fd5b5060fb54610267906001600160a01b031681565b3480156102e957600080fd5b506102fd6102f8366004612d8e565b611abc565b6040516101479291906133b5565b34801561031757600080fd5b50610118610326366004612b1f565b611b06565b34801561033757600080fd5b50610118610346366004612b1f565b611ba5565b600260c95414156103a35760405162461bcd60e51b815260206004820152601f60248201527f5265656e7472616e637947756172643a207265656e7472616e742063616c6c0060448201526064015b60405180910390fd5b600260c9556040516370a0823160e01b815233600482015284906001600160a01b038a16906370a082319060240160206040518083038186803b1580156103e957600080fd5b505afa1580156103fd573d6000803e3d6000fd5b505050506040513d601f19601f820116820180604052508101906104219190612e58565b10156104805760405162461bcd60e51b815260206004820152602860248201527f4e6f7420656e6f7567682062616c616e636520746f2070617920666f7220636f6044820152671b1b185d195c985b60c21b606482015260840161039a565b7f00000000000000000000000000000000000000000000000000000000000000006001600160a01b031663c937f2776040518163ffffffff1660e01b815260040160206040518083038186803b1580156104d957600080fd5b505afa1580156104ed573d6000803e3d6000fd5b505050506040513d601f19601f820116820180604052508101906105119190612e58565b836001600160401b0316116105685760405162461bcd60e51b815260206004820152601e60248201527f5265736572766520706572696f64206d75737420626520677265617465720000604482015260640161039a565b60008b8b8b8b8b8a89336040516020016105899897969594939291906131a5565b604051602081830303815290604052805190602001209050600088116105e45760405162461bcd60e51b815260206004820152601060248201526f050726963652063616e277420626520360841b604482015260640161039a565b60006105f28a8c888c611c3d565b9050866001600160501b03168110156106675760405162461bcd60e51b815260206004820152603160248201527f417474656d707420746f2063726561746520616e20756e646572636f6c6c6174604482015270195c985b1a5e9959081c1c9bdc1bdcd85b607a1b606482015260840161039a565b506001600160a01b038216156109ca5760008c8c8c8c8c8b8a896040516020016106989897969594939291906131a5565b60408051601f198184030181529181528151602092830120600081815260fc9093529120600401549091508914156109c857600081815260fc602090815260409182902082516101408101845281546001600160a01b0390811682526001830154938201939093526002820154831693810193909352600381015480831660608501526001600160401b03600160a01b9182900481166080860152600483015460a086015260058301546001600160501b03811660c0870152600160501b9004841660e0860152600690920154808416610100860152041661012083015260fb546107869183911689611f63565b1561095d5760fc6000838152602001908152602001600020600080820160006101000a8154906001600160a01b03021916905560018201600090556002820160006101000a8154906001600160a01b0302191690556003820160006101000a8154906001600160a01b0302191690556003820160146101000a8154906001600160401b03021916905560048201600090556005820160006101000a8154906001600160501b03021916905560058201600a6101000a8154906001600160a01b0302191690556006820160006101000a8154906001600160a01b0302191690556006820160146101000a8154906001600160401b030219169055505060fb60009054906101000a90046001600160a01b03166001600160a01b0316633786fddc8f8f8f8f8f8e8e8e8a60e00151336040518b63ffffffff1660e01b81526004016108d89a999897969594939291906130e8565b600060405180830381600087803b1580156108f257600080fd5b505af1158015610906573d6000803e3d6000fd5b505050507ffb0d484621ff6d31ad720ad8423f43e6366605bf55b35b5c0fbdba25ed1c71618e8e8e8e8e8d8760e00151338e60405161094d99989796959493929190613086565b60405180910390a1505050610b99565b600082815260fc6020526040812080546001600160a01b031990811682556001820183905560028201805490911690556003810180546001600160e01b031990811690915560048201929092556005810180546001600160f01b031916905560060180549091169055505b505b6040518061016001604052808d6001600160a01b031681526020018c81526020018b6001600160a01b031681526020018a6001600160a01b03168152602001846001600160401b031642610a1e91906133fe565b6001600160401b03908116825260208083018c905260408084018a90526001600160501b03808c16606080870191909152336080808801919091526001600160a01b038f811660a0808a01919091528d881660c0998a015260008b815260fd88528690208a5181549084166001600160a01b0319918216178255978b015160018201558a870151600282018054918516919099161790975592890151600387018054938b01518916600160a01b9081026001600160e01b03199586169385169390931792909217905592890151600487015596880151600586015560e08801516006860180546101008b01518a16600160501b026001600160f01b03199091169290951691909117939093179092556101208701516007909401805461014090980151909516029516919093161792909217909155517f3d6e076a735a2a1ee6892ec3e2d6f7f1cc88e63e465b1709d8368f578145a1d590610b8f908e908e908e908e908e908d908c908c906131fd565b60405180910390a1505b5050600160c955505050505050505050565b610bb3612a3c565b600082815260fd6020526040902060040154610c095760405162461bcd60e51b8152602060048201526015602482015274139bdb8b595e1a5cdd195b9d081c1c9bdc1bdcd85b605a1b604482015260640161039a565b50600090815260fd602090815260409182902082516101608101845281546001600160a01b0390811682526001830154938201939093526002820154831693810193909352600381015480831660608501526001600160401b03600160a01b9182900481166080860152600483015460a0860152600583015460c086015260068301546001600160501b03811660e0870152600160501b900484166101008601526007909201549283166101208501529091041661014082015290565b306001600160a01b037f0000000000000000000000000000000000000000000000000000000000000000161415610d0f5760405162461bcd60e51b815260040161039a9061328b565b7f00000000000000000000000000000000000000000000000000000000000000006001600160a01b0316610d4161201a565b6001600160a01b031614610d675760405162461bcd60e51b815260040161039a906132d7565b610d7081612048565b60408051600080825260208201909252610d8c91839190612072565b50565b610d97612a98565b60008989898989898989604051602001610db89897969594939291906131a5565b604051602081830303815290604052805190602001209050610dd981610ea2565b91509850989650505050505050565b306001600160a01b037f0000000000000000000000000000000000000000000000000000000000000000161415610e315760405162461bcd60e51b815260040161039a9061328b565b7f00000000000000000000000000000000000000000000000000000000000000006001600160a01b0316610e6361201a565b6001600160a01b031614610e895760405162461bcd60e51b815260040161039a906132d7565b610e9282612048565b610e9e82826001612072565b5050565b610eaa612a98565b600082815260fc6020526040902060040154610f005760405162461bcd60e51b8152602060048201526015602482015274139bdb8b595e1a5cdd195b9d081c1c9bdc1bdcd85b605a1b604482015260640161039a565b50600090815260fc602090815260409182902082516101408101845281546001600160a01b0390811682526001830154938201939093526002820154831693810193909352600381015480831660608501526001600160401b03600160a01b9182900481166080860152600483015460a086015260058301546001600160501b03811660c0870152600160501b9004841660e08601526006909201549283166101008501529091041661012082015290565b600260c95414156110055760405162461bcd60e51b815260206004820152601f60248201527f5265656e7472616e637947756172643a207265656e7472616e742063616c6c00604482015260640161039a565b600260c9556040516331a9108f60e11b8152600481018a905233906001600160a01b038c1690636352211e9060240160206040518083038186803b15801561104c57600080fd5b505afa158015611060573d6000803e3d6000fd5b505050506040513d601f19601f820116820180604052508101906110849190612b3b565b6001600160a01b0316146110d35760405162461bcd60e51b81526020600482015260166024820152754f6e6c79206f776e65722063616e20617070726f766560501b604482015260640161039a565b7f00000000000000000000000000000000000000000000000000000000000000006001600160a01b031663c937f2776040518163ffffffff1660e01b815260040160206040518083038186803b15801561112c57600080fd5b505afa158015611140573d6000803e3d6000fd5b505050506040513d601f19601f820116820180604052508101906111649190612e58565b836001600160401b0316116111bb5760405162461bcd60e51b815260206004820152601e60248201527f5265736572766520706572696f64206d75737420626520677265617465720000604482015260640161039a565b6111c76002600a613479565b6111d2906064613521565b846001600160501b0316106112295760405162461bcd60e51b815260206004820152601a60248201527f496e76616c696420636f6c6c61746572616c2070657263656e74000000000000604482015260640161039a565b60008a8a8a8a8a89893360405160200161124a9897969594939291906131a5565b60408051601f19818403018152919052805160209091012090506001600160a01b038216156116785760008b8b8b8b8b8a8a896040516020016112949897969594939291906131a5565b60408051601f198184030181529181528151602092830120600081815260fd90935291206004015490915088141561167657600081815260fd6020908152604080832081516101608101835281546001600160a01b0390811682526001830154948201949094526002820154841692810192909252600381015480841660608401526001600160401b03600160a01b9182900481166080850152600483015460a0850152600583015460c0850181905260068401546001600160501b03811660e0870152600160501b9004861661010086015260079093015494851661012085015293049092166101408201529190611391908c908e908d611c3d565b9050876001600160501b03168110156114065760405162461bcd60e51b815260206004820152603160248201527f417474656d707420746f2061636365707420616e20756e646572636f6c6c6174604482015270195c985b1a5e9959081c1c9bdc1bdcd85b607a1b606482015260840161039a565b60fb5461141d9083906001600160a01b03166121bd565b156116035760fd6000848152602001908152602001600020600080820160006101000a8154906001600160a01b03021916905560018201600090556002820160006101000a8154906001600160a01b0302191690556003820160006101000a8154906001600160a01b0302191690556003820160146101000a8154906001600160401b030219169055600482016000905560058201600090556006820160006101000a8154906001600160501b03021916905560068201600a6101000a8154906001600160a01b0302191690556007820160006101000a8154906001600160a01b0302191690556007820160146101000a8154906001600160401b030219169055505060fb60009054906101000a90046001600160a01b03166001600160a01b0316633786fddc8f8f8f8f8f8e8960c001518f338c61010001516040518b63ffffffff1660e01b815260040161157c9a999897969594939291906130e8565b600060405180830381600087803b15801561159657600080fd5b505af11580156115aa573d6000803e3d6000fd5b505050507fa05b89bd228f56f4e630122a64ee757db436b21e9b163a57f670464a6d8ea2a18e8e8e8e8e8d338961010001518f6040516115f299989796959493929190613086565b60405180910390a150505050611837565b600084815260fd6020526040812080546001600160a01b031990811682556001820183905560028201805490911690556003810180546001600160e01b03199081169091556004820183905560058201929092556006810180546001600160f01b03191690556007018054909116905550505b505b6040518061014001604052808c6001600160a01b031681526020018b81526020018a6001600160a01b03168152602001896001600160a01b03168152602001846001600160401b0316426116cc91906133fe565b6001600160401b03908116825260208083018b90526001600160501b03808a16604080860191909152336060808701919091526001600160a01b038d81166080808901919091528c871660a09889015260008a815260fc8752849020895181549084166001600160a01b0319918216178255968a0151600182015589850151600282018054918516919098161790965591880151600386018054938a01518816600160a01b9081026001600160e01b03199586169385169390931792909217905596880151600486015560c088015160058601805460e08b01518416600160501b026001600160f01b031990911692909616919091179490941790935561010087015160069094018054610120909801519095169095029590941691161792909217909155517f047873a1db8d3a30a55350922a73dd8a14529baed0862c1c5df0bf12bbeefa2d9061182d908d908d908d908d908d908c908c908c906131fd565b60405180910390a1505b5050600160c9555050505050505050565b6097546001600160a01b031633146118725760405162461bcd60e51b815260040161039a90613371565b61187c60006122f2565b565b6000806118918a8a8a8a8a8a8a8a610d8f565b60e082015191935091506001600160a01b031633146118ea5760405162461bcd60e51b815260206004820152601560248201527413db9b1e481bdddb995c8818d85b8818d85b98d95b605a1b604482015260640161039a565b600081815260fc602052604080822080546001600160a01b031990811682556001820184905560028201805490911690556003810180546001600160e01b031990811690915560048201939093556005810180546001600160f01b03191690556006018054909216909155517f8ffaff23774f3c99bfc375c122eb97482e93c5972ecc34f2a15dbd35222180359061198f908c908c908c908c908c908c908c90613151565b60405180910390a150505050505050505050565b6000806119b68a8a8a8a8a8a8a8a611abc565b61010082015191935091506001600160a01b03163314611a105760405162461bcd60e51b815260206004820152601560248201527413db9b1e48189d5e595c8818d85b8818d85b98d95b605a1b604482015260640161039a565b600081815260fd602052604080822080546001600160a01b031990811682556001820184905560028201805490911690556003810180546001600160e01b03199081169091556004820184905560058201939093556006810180546001600160f01b03191690556007018054909216909155517f72caf11025606064013858acc2a37975496ba2c6584cfb8633bab443dea46da79061198f908c908c908c908c908c908c908c90613151565b611ac4612a3c565b60008989898989898989604051602001611ae59897969594939291906131a5565b604051602081830303815290604052805190602001209050610dd981610bab565b600054610100900460ff1680611b1f575060005460ff16155b611b3b5760405162461bcd60e51b815260040161039a90613323565b600054610100900460ff16158015611b5d576000805461ffff19166101011790555b60fb80546001600160a01b0319166001600160a01b038416179055611b80612344565b611b886123bf565b611b90612426565b8015610e9e576000805461ff00191690555050565b6097546001600160a01b03163314611bcf5760405162461bcd60e51b815260040161039a90613371565b6001600160a01b038116611c345760405162461bcd60e51b815260206004820152602660248201527f4f776e61626c653a206e6577206f776e657220697320746865207a65726f206160448201526564647265737360d01b606482015260840161039a565b610d8c816122f2565b60008060fb60009054906101000a90046001600160a01b03166001600160a01b0316632630c12f6040518163ffffffff1660e01b815260040160206040518083038186803b158015611c8e57600080fd5b505afa158015611ca2573d6000803e3d6000fd5b505050506040513d601f19601f82011682018060405250810190611cc69190612b3b565b90506000866001600160a01b031663313ce5676040518163ffffffff1660e01b815260040160206040518083038186803b158015611d0357600080fd5b505afa158015611d17573d6000803e3d6000fd5b505050506040513d601f19601f82011682018060405250810190611d3b9190612e70565b60ff1690506000866001600160a01b031663313ce5676040518163ffffffff1660e01b815260040160206040518083038186803b158015611d7b57600080fd5b505afa158015611d8f573d6000803e3d6000fd5b505050506040513d601f19601f82011682018060405250810190611db39190612e70565b6040516315d5220f60e31b81526001600160a01b038a8116600483015260ff92909216925060009185169063aea910789060240160206040518083038186803b158015611dff57600080fd5b505afa158015611e13573d6000803e3d6000fd5b505050506040513d601f19601f82011682018060405250810190611e379190612e58565b6040516315d5220f60e31b81526001600160a01b038a8116600483015291925060009186169063aea910789060240160206040518083038186803b158015611e7e57600080fd5b505afa158015611e92573d6000803e3d6000fd5b505050506040513d601f19601f82011682018060405250810190611eb69190612e58565b90506000611ec4838a613521565b90506000611ed2838a613521565b9050600085871115611f0457611ee88688613540565b611ef390600a613479565b611efd9084613416565b9050611f26565b611f0e8787613540565b611f1990600a613479565b611f239084613521565b90505b81611f336002600a613479565b611f3e836064613521565b611f489190613521565b611f529190613416565b9d9c50505050505050505050505050565b600083608001516001600160401b0316421115611f8257506000612013565b835160e085015160208601516040516323b872dd60e01b81526001600160a01b03909316926323b872dd92611fbe929091889190600401613062565b600060405180830381600087803b158015611fd857600080fd5b505af1925050508015611fe9575060015b611ff557506000612013565b606084015161200f906001600160a01b0316338585612485565b5060015b9392505050565b7f360894a13ba1a3210667c828492db98dca3e2076cc3735a920a3ca505d382bbc546001600160a01b031690565b6097546001600160a01b03163314610d8c5760405162461bcd60e51b815260040161039a90613371565b600061207c61201a565b9050612087846124e3565b6000835111806120945750815b156120a5576120a38484612588565b505b7f4910fdfa16fed3260ed0e7147f7cc6da11a60208b5b9406d12a635614ffd9143805460ff166121b657805460ff191660011781556040516001600160a01b038316602482015261212490869060440160408051601f198184030181529190526020810180516001600160e01b0316631b2ce7f360e11b179052612588565b50805460ff1916815561213561201a565b6001600160a01b0316826001600160a01b0316146121ad5760405162461bcd60e51b815260206004820152602f60248201527f45524331393637557067726164653a207570677261646520627265616b73206660448201526e75727468657220757067726164657360881b606482015260840161039a565b6121b685612673565b5050505050565b600082608001516001600160401b03164211156121dc575060006122ec565b82606001516001600160a01b03166323b872dd846101000151848660c001516040518463ffffffff1660e01b815260040161221993929190613062565b602060405180830381600087803b15801561223357600080fd5b505af1925050508015612263575060408051601f3d908101601f1916820190925261226091810190612e20565b60015b61226f575060006122ec565b8061227e5760009150506122ec565b50825160208401516040516323b872dd60e01b81526001600160a01b03909216916323b872dd916122b59133918791600401613062565b600060405180830381600087803b1580156122cf57600080fd5b505af11580156122e3573d6000803e3d6000fd5b50505050600190505b92915050565b609780546001600160a01b038381166001600160a01b0319831681179093556040519116919082907f8be0079c531659141344cd1fd0a4f28419497f9722a3daafe3b4186f6b6457e090600090a35050565b600054610100900460ff168061235d575060005460ff16155b6123795760405162461bcd60e51b815260040161039a90613323565b600054610100900460ff1615801561239b576000805461ffff19166101011790555b6123a36126b3565b6123ab61271d565b8015610d8c576000805461ff001916905550565b600054610100900460ff16806123d8575060005460ff16155b6123f45760405162461bcd60e51b815260040161039a90613323565b600054610100900460ff16158015612416576000805461ffff19166101011790555b61241e6126b3565b6123ab6126b3565b600054610100900460ff168061243f575060005460ff16155b61245b5760405162461bcd60e51b815260040161039a90613323565b600054610100900460ff1615801561247d576000805461ffff19166101011790555b6123ab61277d565b6124dd846323b872dd60e01b8585856040516024016124a693929190613062565b60408051601f198184030181529190526020810180516001600160e01b03166001600160e01b0319909316929092179091526127ed565b50505050565b803b6125475760405162461bcd60e51b815260206004820152602d60248201527f455243313936373a206e657720696d706c656d656e746174696f6e206973206e60448201526c1bdd08184818dbdb9d1c9858dd609a1b606482015260840161039a565b7f360894a13ba1a3210667c828492db98dca3e2076cc3735a920a3ca505d382bbc80546001600160a01b0319166001600160a01b0392909216919091179055565b6060823b6125e75760405162461bcd60e51b815260206004820152602660248201527f416464726573733a2064656c65676174652063616c6c20746f206e6f6e2d636f6044820152651b9d1c9858dd60d21b606482015260840161039a565b600080846001600160a01b0316846040516126029190613046565b600060405180830381855af49150503d806000811461263d576040519150601f19603f3d011682016040523d82523d6000602084013e612642565b606091505b509150915061266a82826040518060600160405280602781526020016135c5602791396128c4565b95945050505050565b61267c816124e3565b6040516001600160a01b038216907fbc7cd75a20ee27fd9adebab32041f755214dbc6bffa90cc0225b39da2e5c2d3b90600090a250565b600054610100900460ff16806126cc575060005460ff16155b6126e85760405162461bcd60e51b815260040161039a90613323565b600054610100900460ff161580156123ab576000805461ffff19166101011790558015610d8c576000805461ff001916905550565b600054610100900460ff1680612736575060005460ff16155b6127525760405162461bcd60e51b815260040161039a90613323565b600054610100900460ff16158015612774576000805461ffff19166101011790555b6123ab336122f2565b600054610100900460ff1680612796575060005460ff16155b6127b25760405162461bcd60e51b815260040161039a90613323565b600054610100900460ff161580156127d4576000805461ffff19166101011790555b600160c9558015610d8c576000805461ff001916905550565b6000612842826040518060400160405280602081526020017f5361666545524332303a206c6f772d6c6576656c2063616c6c206661696c6564815250856001600160a01b03166128fd9092919063ffffffff16565b8051909150156128bf57808060200190518101906128609190612e20565b6128bf5760405162461bcd60e51b815260206004820152602a60248201527f5361666545524332303a204552433230206f7065726174696f6e20646964206e6044820152691bdd081cdd58d8d9595960b21b606482015260840161039a565b505050565b606083156128d3575081612013565b8251156128e35782518084602001fd5b8160405162461bcd60e51b815260040161039a9190613258565b606061290c8484600085612914565b949350505050565b6060824710156129755760405162461bcd60e51b815260206004820152602660248201527f416464726573733a20696e73756666696369656e742062616c616e636520666f6044820152651c8818d85b1b60d21b606482015260840161039a565b843b6129c35760405162461bcd60e51b815260206004820152601d60248201527f416464726573733a2063616c6c20746f206e6f6e2d636f6e7472616374000000604482015260640161039a565b600080866001600160a01b031685876040516129df9190613046565b60006040518083038185875af1925050503d8060008114612a1c576040519150601f19603f3d011682016040523d82523d6000602084013e612a21565b606091505b5091509150612a318282866128c4565b979650505050505050565b6040805161016081018252600080825260208201819052918101829052606081018290526080810182905260a0810182905260c0810182905260e081018290526101008101829052610120810182905261014081019190915290565b6040805161014081018252600080825260208201819052918101829052606081018290526080810182905260a0810182905260c0810182905260e08101829052610100810182905261012081019190915290565b80356001600160401b0381168114612b0357600080fd5b919050565b80356001600160501b0381168114612b0357600080fd5b600060208284031215612b30578081fd5b8135612013816135af565b600060208284031215612b4c578081fd5b8151612013816135af565b60008060408385031215612b69578081fd5b8235612b74816135af565b915060208301356001600160401b0380821115612b8f578283fd5b818501915085601f830112612ba2578283fd5b813581811115612bb457612bb4613599565b604051601f8201601f19908116603f01168101908382118183101715612bdc57612bdc613599565b81604052828152886020848701011115612bf4578586fd5b82602086016020830137856020848301015280955050505050509250929050565b60008060008060008060008060008060006101608c8e031215612c36578687fd5b8b35612c41816135af565b9a5060208c0135995060408c0135612c58816135af565b985060608c0135612c68816135af565b975060808c0135965060a08c0135612c7f816135af565b9550612c8d60c08d01612b08565b945060e08c01359350612ca36101008d01612aec565b9250612cb26101208d01612aec565b91506101408c0135612cc3816135af565b809150509295989b509295989b9093969950565b6000806000806000806000806000806101408b8d031215612cf6578586fd5b8a35612d01816135af565b995060208b0135985060408b0135612d18816135af565b975060608b0135612d28816135af565b965060808b0135955060a08b0135612d3f816135af565b9450612d4d60c08c01612b08565b9350612d5b60e08c01612aec565b9250612d6a6101008c01612aec565b91506101208b0135612d7b816135af565b809150509295989b9194979a5092959850565b600080600080600080600080610100898b031215612daa578384fd5b8835612db5816135af565b9750602089013596506040890135612dcc816135af565b95506060890135612ddc816135af565b945060808901359350612df160a08a01612b08565b9250612dff60c08a01612aec565b915060e0890135612e0f816135af565b809150509295985092959890939650565b600060208284031215612e31578081fd5b81518015158114612013578182fd5b600060208284031215612e51578081fd5b5035919050565b600060208284031215612e69578081fd5b5051919050565b600060208284031215612e81578081fd5b815160ff81168114612013578182fd5b80516001600160a01b03168252602081015160208301526040810151612ec260408401826001600160a01b03169052565b506060810151612edd60608401826001600160a01b03169052565b506080810151612ef860808401826001600160401b03169052565b5060a081015160a083015260c081015160c083015260e0810151612f2760e08401826001600160501b03169052565b50610100818101516001600160a01b038116848301525050610120818101516001600160a01b038116848301525050610140818101516001600160401b038116848301526124dd565b80516001600160a01b03168252602081015160208301526040810151612fa160408401826001600160a01b03169052565b506060810151612fbc60608401826001600160a01b03169052565b506080810151612fd760808401826001600160401b03169052565b5060a081015160a083015260c0810151612ffc60c08401826001600160501b03169052565b5060e081015161301760e08401826001600160a01b03169052565b50610100818101516001600160a01b031690830152610120808201516001600160401b038116828501526124dd565b60008251613058818460208701613557565b9190910192915050565b6001600160a01b039384168152919092166020820152604081019190915260600190565b6001600160a01b03998a16815260208101989098529588166040880152938716606087015260808601929092526001600160501b031660a0850152841660c084015290921660e08201526001600160401b039091166101008201526101200190565b6001600160a01b039a8b16815260208101999099529689166040890152948816606088015260808701939093526001600160501b039190911660a086015260c08501526001600160401b031660e084015283166101008301529091166101208201526101400190565b6001600160a01b0397881681526020810196909652938616604086015291909416606084015260808301939093526001600160501b0390921660a08201526001600160401b0390911660c082015260e00190565b6001600160a01b03988916815260208101979097529487166040870152928616606086015260808501919091526001600160501b031660a08401526001600160401b031660c083015290911660e08201526101000190565b6001600160a01b0398891681526020810197909752948716604087015292909516606085015260808401526001600160501b039390931660a08301526001600160401b0392831660c083015290911660e08201526101000190565b6020815260008251806020840152613277816040850160208701613557565b601f01601f19169190910160400192915050565b6020808252602c908201527f46756e6374696f6e206d7573742062652063616c6c6564207468726f7567682060408201526b19195b1959d85d1958d85b1b60a21b606082015260800190565b6020808252602c908201527f46756e6374696f6e206d7573742062652063616c6c6564207468726f7567682060408201526b6163746976652070726f787960a01b606082015260800190565b6020808252602e908201527f496e697469616c697a61626c653a20636f6e747261637420697320616c72656160408201526d191e481a5b9a5d1a585b1a5e995960921b606082015260800190565b6020808252818101527f4f776e61626c653a2063616c6c6572206973206e6f7420746865206f776e6572604082015260600190565b61016081016122ec8284612e91565b61018081016133c48285612e91565b826101608301529392505050565b61014081016122ec8284612f70565b61016081016133f08285612f70565b826101408301529392505050565b6000821982111561341157613411613583565b500190565b60008261343157634e487b7160e01b81526012600452602481fd5b500490565b600181815b8085111561347157816000190482111561345757613457613583565b8085161561346457918102915b93841c939080029061343b565b509250929050565b6000612013838360008261348f575060016122ec565b8161349c575060006122ec565b81600181146134b257600281146134bc576134d8565b60019150506122ec565b60ff8411156134cd576134cd613583565b50506001821b6122ec565b5060208310610133831016604e8410600b84101617156134fb575081810a6122ec565b6135058383613436565b806000190482111561351957613519613583565b029392505050565b600081600019048311821515161561353b5761353b613583565b500290565b60008282101561355257613552613583565b500390565b60005b8381101561357257818101518382015260200161355a565b838111156124dd5750506000910152565b634e487b7160e01b600052601160045260246000fd5b634e487b7160e01b600052604160045260246000fd5b6001600160a01b0381168114610d8c57600080fdfe416464726573733a206c6f772d6c6576656c2064656c65676174652063616c6c206661696c6564a26469706673582212206946c0fb06b98a8472ead9ceba4d9e95c2af5c8c1804328eb603bed5fb177bb964736f6c63430008040033",
  "linkReferences": {},
  "deployedLinkReferences": {}
}